{
  "contractName": "LibCertTransfer",
  "abi": [
    {
      "constant": true,
      "inputs": [
        {
          "name": "from",
          "type": "address"
        },
        {
          "name": "to",
          "type": "address"
        },
        {
          "name": "value",
          "type": "uint256"
        },
        {
          "name": "fee",
          "type": "uint256"
        },
        {
          "name": "timestamp",
          "type": "uint256"
        }
      ],
      "name": "buildMessage",
      "outputs": [
        {
          "name": "",
          "type": "bytes32"
        }
      ],
      "payable": false,
      "stateMutability": "pure",
      "type": "function"
    },
    {
      "constant": true,
      "inputs": [
        {
          "name": "from",
          "type": "address"
        },
        {
          "name": "to",
          "type": "address"
        },
        {
          "name": "value",
          "type": "uint256"
        },
        {
          "name": "fee",
          "type": "uint256"
        },
        {
          "name": "timestamp",
          "type": "uint256"
        },
        {
          "name": "signature",
          "type": "bytes"
        }
      ],
      "name": "recoverSigner",
      "outputs": [
        {
          "name": "",
          "type": "address"
        }
      ],
      "payable": false,
      "stateMutability": "pure",
      "type": "function"
    }
  ],
  "bytecode": "0x608060405234801561001057600080fd5b506104c9806100206000396000f3fe60806040526004361061004c576000357c0100000000000000000000000000000000000000000000000000000000900463ffffffff1680638da91fcd14610051578063fbc67b23146101b7575b600080fd5b34801561005d57600080fd5b50610175600480360360c081101561007457600080fd5b81019080803573ffffffffffffffffffffffffffffffffffffffff169060200190929190803573ffffffffffffffffffffffffffffffffffffffff169060200190929190803590602001909291908035906020019092919080359060200190929190803590602001906401000000008111156100ef57600080fd5b82018360208201111561010157600080fd5b8035906020019184600183028401116401000000008311171561012357600080fd5b91908080601f016020809104026020016040519081016040528093929190818152602001838380828437600081840152601f19601f82011690508083019250505050505050919291929050505061025a565b604051808273ffffffffffffffffffffffffffffffffffffffff1673ffffffffffffffffffffffffffffffffffffffff16815260200191505060405180910390f35b3480156101c357600080fd5b50610244600480360360a08110156101da57600080fd5b81019080803573ffffffffffffffffffffffffffffffffffffffff169060200190929190803573ffffffffffffffffffffffffffffffffffffffff169060200190929190803590602001909291908035906020019092919080359060200190929190505050610291565b6040518082815260200191505060405180910390f35b60008061026a8888888888610291565b9050600061027782610361565b905061028381856103b9565b925050509695505050505050565b600060608686868686604051602001808673ffffffffffffffffffffffffffffffffffffffff1673ffffffffffffffffffffffffffffffffffffffff166c010000000000000000000000000281526014018573ffffffffffffffffffffffffffffffffffffffff1673ffffffffffffffffffffffffffffffffffffffff166c01000000000000000000000000028152601401848152602001838152602001828152602001955050505050506040516020818303038152906040529050808051906020012091505095945050505050565b60008160405160200180807f19457468657265756d205369676e6564204d6573736167653a0a333200000000815250601c01828152602001915050604051602081830303815290604052805190602001209050919050565b600080600080604185511415156103d65760009350505050610497565b6020850151925060408501519150606085015160001a9050601b8160ff16101561040157601b810190505b601b8160ff16141580156104195750601c8160ff1614155b1561042a5760009350505050610497565b60018682858560405160008152602001604052604051808581526020018460ff1660ff1681526020018381526020018281526020019450505050506020604051602081039080840390855afa158015610487573d6000803e3d6000fd5b5050506020604051035193505050505b9291505056fea165627a7a7230582022488c41bb91c54f4d1896ad2160c5a0404d28245603500a297cb807be6cc8830029",
  "source": "pragma solidity ^0.5.0;\n\nimport \"openzeppelin-eth/contracts/cryptography/ECDSA.sol\";\n//import \"./Seriality/Seriality.sol\";\n\ncontract LibCertTransfer {\n\n\t// function uint2str(uint i) \n\t// public pure returns (string memory)\n\t// {\n\t// \tif (i == 0) return \"0\";\n\t// \tuint j = i;\n\t// \tuint length;\n\t// \twhile (j != 0){\n\t// \t\tlength++;\n\t// \t\tj /= 10;\n\t// \t}\n\t// \tbytes memory bstr = new bytes(length);\n\t// \tuint k = length - 1;\n\t// \twhile (i != 0){\n\t// \t\tbstr[k--] = byte(uint8(48 + i % 10));\n\t// \t\ti /= 10;\n\t// \t}\n\t// \treturn string(bstr);\n\t// }\n\n\t// // function address2str(address _addr) \n\t// // public pure returns(string memory) \n\t// // {\n\t// // \tbytes32 value = bytes32(uint256(_addr));\n\t// // \tbytes memory alphabet = \"0123456789abcdef\";\n\n\t// // \tbytes memory str = new bytes(40);\n\t// // \tuint8 charIdx = 0;\n\t// // \tfor (uint i = 12; i < 32; i++) {\n\t// // \t\tbyte char = value[i];\n\t// // \t\tstr[charIdx++] = alphabet[uint(char >> 4)];\n\t// // \t\tstr[charIdx++] = alphabet[uint(char & 0x0f)];\n\t// // \t}\n\t// // \treturn string(str);\n\t// // }\n\n\n\t// function buildMessage(address from, address to, uint256 value, uint256 fee, uint256 timestamp) \n\t// public pure returns(bytes memory)\n\t// {\n\t// \t// from, \"->\", to, \"\\nval\", vstr, \"\\nfee\", feestr, \"\\nts\", tstr\n\t// \tuint256 offset = 20 + 20 + 32 + 32 + 32;\n\t// \tbytes memory buffer = new bytes(offset);\n\n\t// \taddressToBytes(offset, from, buffer);\n\t// \toffset -= sizeOfAddress();\n\n\t// \taddressToBytes(offset, to, buffer);\n\t// \toffset -= sizeOfAddress();\n\n\t// \tuintToBytes(offset, value, buffer);\n\t// \toffset -= sizeOfUint(256);\n\n\t// \tuintToBytes(offset, fee, buffer);\n\t// \toffset -= sizeOfUint(256);\n\n\t// \tuintToBytes(offset, timestamp, buffer);\n\t// \toffset -= sizeOfUint(256);\n\n\t// \t// We can remove this require after testing.\n\t// \trequire(offset == 0);\n\t// \treturn buffer;\n\n\t// \t// string memory fstr = address2str(from);\n\t// \t// string memory tostr = address2str(to);\n\t// \t// string memory vstr = uint2str(value);\n\t// \t// string memory feestr = uint2str(fee);\n\t// \t// string memory tstr = uint2str(timestamp);\n\t\t\n\t// \t// string memory message = string(abi.encodePacked(fstr, \"->\", tostr, \"\\nval\", vstr, \"\\nfee\", feestr, \"\\nts\", tstr));\n\t\t\n\t// }\n\n\t// function hashMessage(bytes memory message)\n\t// internal pure returns (bytes32)\n\t// {\n\t// \tstring memory len = uint2str(message.length);\n\t// \treturn keccak256(\n\t// \t\tabi.encodePacked(\"\\x19Ethereum Signed Message:\\n\", len, message)\n\t// \t);\n\t// }\n\n\t// function recover(bytes memory message, bytes memory signature)\n\t// internal pure returns (address)\n\t// {\n\t// \tbytes32 hash = hashMessage(message);\n\t// \treturn ECDSA.recover(hash, signature);\n\t// }\n\n\tfunction buildMessage(address from, address to, uint256 value, uint256 fee, uint256 timestamp)\n\tpublic pure returns (bytes32)\n\t{\n\t\tbytes memory packed = abi.encodePacked(from, to, value, fee, timestamp);\n\t\treturn keccak256(packed);\n\t}\n\n\tfunction recoverSigner(address from, address to, uint256 value, uint256 fee, uint256 timestamp, bytes memory signature)\n\tpublic pure returns (address)\n\t{\n\t\t// This recreates the message that was signed on the client.\n    \tbytes32 message = buildMessage(from, to, value, fee, timestamp);\n\t\tbytes32 signedMessage = ECDSA.toEthSignedMessageHash(message);\n\t\treturn ECDSA.recover(signedMessage, signature);\n\n\t\t// bytes memory message = buildMessage(from, to, value, fee, timestamp);\n\t\t// address signer = recover(message, signature);\n\t\t//return signer;\n\t}\n}",
  "sourcePath": "C:\\src\\TheCoin\\the-contract\\contracts\\LibCertTransfer.sol",
  "compiler": {
    "name": "solc",
    "version": "0.5.0+commit.1d4f565a.Emscripten.clang"
  },
  "schemaVersion": "3.0.6",
  "updatedAt": "2019-04-25T14:37:59.863Z",
  "devdoc": {
    "methods": {}
  },
  "userdoc": {
    "methods": {}
  }
}