{
  "contractName": "LibCertTransfer",
  "abi": [
    {
      "constant": true,
      "inputs": [
        {
          "name": "i",
          "type": "uint256"
        }
      ],
      "name": "uint2str",
      "outputs": [
        {
          "name": "",
          "type": "string"
        }
      ],
      "payable": false,
      "stateMutability": "pure",
      "type": "function"
    },
    {
      "constant": true,
      "inputs": [
        {
          "name": "_addr",
          "type": "address"
        }
      ],
      "name": "address2str",
      "outputs": [
        {
          "name": "",
          "type": "string"
        }
      ],
      "payable": false,
      "stateMutability": "pure",
      "type": "function"
    },
    {
      "constant": true,
      "inputs": [
        {
          "name": "from",
          "type": "address"
        },
        {
          "name": "to",
          "type": "address"
        },
        {
          "name": "value",
          "type": "uint256"
        },
        {
          "name": "fee",
          "type": "uint32"
        },
        {
          "name": "timestamp",
          "type": "uint256"
        }
      ],
      "name": "buildMessage",
      "outputs": [
        {
          "name": "",
          "type": "string"
        }
      ],
      "payable": false,
      "stateMutability": "pure",
      "type": "function"
    }
  ],
  "bytecode": "0x608060405234801561001057600080fd5b506109ca806100206000396000f300608060405260043610610057576000357c0100000000000000000000000000000000000000000000000000000000900463ffffffff16806326d273371461005c578063c4080f0c14610118578063f76f950e14610218575b600080fd5b34801561006857600080fd5b5061009d600480360381019080803573ffffffffffffffffffffffffffffffffffffffff1690602001909291905050506102be565b6040518080602001828103825283818151815260200191508051906020019080838360005b838110156100dd5780820151818401526020810190506100c2565b50505050905090810190601f16801561010a5780820380516001836020036101000a031916815260200191505b509250505060405180910390f35b34801561012457600080fd5b5061019d600480360381019080803573ffffffffffffffffffffffffffffffffffffffff169060200190929190803573ffffffffffffffffffffffffffffffffffffffff16906020019092919080359060200190929190803563ffffffff1690602001909291908035906020019092919050505061058a565b6040518080602001828103825283818151815260200191508051906020019080838360005b838110156101dd5780820151818401526020810190506101c2565b50505050905090810190601f16801561020a5780820380516001836020036101000a031916815260200191505b509250505060405180910390f35b34801561022457600080fd5b5061024360048036038101908080359060200190929190505050610847565b6040518080602001828103825283818151815260200191508051906020019080838360005b83811015610283578082015181840152602081019050610268565b50505050905090810190601f1680156102b05780820380516001836020036101000a031916815260200191505b509250505060405180910390f35b6060600060608060008060008773ffffffffffffffffffffffffffffffffffffffff1660010295506040805190810160405280601081526020017f3031323334353637383961626364656600000000000000000000000000000000815250945060286040519080825280601f01601f1916602001820160405280156103525781602001602082028038833980820191505090505b50935060009250600c91505b602082101561057c57858260208110151561037557fe5b1a7f0100000000000000000000000000000000000000000000000000000000000000029050846004827effffffffffffffffffffffffffffffffffffffffffffffffffffffffffffff19169060020a90047f010000000000000000000000000000000000000000000000000000000000000090048151811015156103f557fe5b9060200101517f010000000000000000000000000000000000000000000000000000000000000090047f010000000000000000000000000000000000000000000000000000000000000002848480600101955060ff1681518110151561045757fe5b9060200101907effffffffffffffffffffffffffffffffffffffffffffffffffffffffffffff1916908160001a90535084600f7f01000000000000000000000000000000000000000000000000000000000000000282167f010000000000000000000000000000000000000000000000000000000000000090048151811015156104dd57fe5b9060200101517f010000000000000000000000000000000000000000000000000000000000000090047f010000000000000000000000000000000000000000000000000000000000000002848480600101955060ff1681518110151561053f57fe5b9060200101907effffffffffffffffffffffffffffffffffffffffffffffffffffffffffffff1916908160001a905350818060010192505061035e565b839650505050505050919050565b606080606080606080606061059e8c6102be565b95506105a98b6102be565b94506105b48a610847565b93506105c58963ffffffff16610847565b92506105d088610847565b915085858585856040516020018086805190602001908083835b60208310151561060f57805182526020820191506020810190506020830392506105ea565b6001836020036101000a038019825116818451168082178552505050505050905001807f2d3e00000000000000000000000000000000000000000000000000000000000081525060020185805190602001908083835b60208310151561068a5780518252602082019150602081019050602083039250610665565b6001836020036101000a038019825116818451168082178552505050505050905001807f0a76616c0000000000000000000000000000000000000000000000000000000081525060040184805190602001908083835b60208310151561070557805182526020820191506020810190506020830392506106e0565b6001836020036101000a038019825116818451168082178552505050505050905001807f0a6665650000000000000000000000000000000000000000000000000000000081525060040183805190602001908083835b602083101515610780578051825260208201915060208101905060208303925061075b565b6001836020036101000a038019825116818451168082178552505050505050905001807f0a7473000000000000000000000000000000000000000000000000000000000081525060030182805190602001908083835b6020831015156107fb57805182526020820191506020810190506020830392506107d6565b6001836020036101000a03801982511681845116808217855250505050505090500195505050505050604051602081830303815290604052905080965050505050505095945050505050565b60606000806060600080861415610895576040805190810160405280600181526020017f30000000000000000000000000000000000000000000000000000000000000008152509450610995565b8593505b6000841415156108bf578280600101935050600a848115156108b757fe5b049350610899565b826040519080825280601f01601f1916602001820160405280156108f25781602001602082028038833980820191505090505b5091506001830390505b60008614151561099157600a8681151561091257fe5b066030017f01000000000000000000000000000000000000000000000000000000000000000282828060019003935081518110151561094d57fe5b9060200101907effffffffffffffffffffffffffffffffffffffffffffffffffffffffffffff1916908160001a905350600a8681151561098957fe5b0495506108fc565b8194505b505050509190505600a165627a7a72305820ff9370cc3d4517dcfa7647a54b5549b21941ad0936673b4d635c69ad12d699100029",
  "source": "pragma solidity ^0.4.24;\n\nimport \"openzeppelin-eth/contracts/cryptography/ECDSA.sol\";\nimport \"openzeppelin-eth/contracts/cryptography/ECDSA.sol\";\n\ncontract LibCertTransfer {\n\n    function uint2str(uint i) public pure returns (string){\n        if (i == 0) return \"0\";\n        uint j = i;\n        uint length;\n        while (j != 0){\n            length++;\n            j /= 10;\n        }\n        bytes memory bstr = new bytes(length);\n        uint k = length - 1;\n        while (i != 0){\n            bstr[k--] = byte(48 + i % 10);\n            i /= 10;\n        }\n        return string(bstr);\n    }\n\n    function address2str(address _addr) public pure returns(string) {\n        bytes32 value = bytes32(uint256(_addr));\n        bytes memory alphabet = \"0123456789abcdef\";\n    \n        bytes memory str = new bytes(40);\n        uint8 charIdx = 0;\n        for (uint i = 12; i < 32; i++) {\n            byte char = value[i];\n            str[charIdx++] = alphabet[uint(char >> 4)];\n            str[charIdx++] = alphabet[uint(char & 0x0f)];\n        }\n        return string(str);\n    }\n\n\n    function buildMessage(address from, address to, uint256 value, uint32 fee, uint256 timestamp) \n    public pure returns(string)\n    {\n        string memory fstr = address2str(from);\n        string memory tostr = address2str(to);\n        string memory vstr = uint2str(value);\n        string memory feestr = uint2str(fee);\n        string memory tstr = uint2str(timestamp);\n        \n        string memory message = string(abi.encodePacked(fstr, \"->\", tostr, \"\\nval\", vstr, \"\\nfee\", feestr, \"\\nts\", tstr));\n        \n        return message;\n    }\n    \n    function hashMessage(bytes message)\n    internal pure returns (bytes32)\n    {\n        string memory len = uint2str(message.length);\n        return keccak256(\n          abi.encodePacked(\"\\x19Ethereum Signed Message:\\n\", len, message)\n        );\n    }\n    \n    function recoverSigner(address from, address to, uint256 value, uint32 fee, uint256 timestamp, bytes signature)\n\tinternal pure returns (address)\n\t{\n\t\tstring memory message = buildMessage(from, to, value, fee, timestamp);\n        address signer = recover(message, signature);\n        return signer;\n\t}\n\n\tfunction recover(string message, bytes signature)\n    internal pure returns (address)\n    {\n        bytes32 hash = hashMessage(bytes(message));\n        return recover(hash, signature);\n    }\n\n  /**\n   * Taken from Zeppelin/ECDSA.sol.  Mostly cause I can't figure out how to link a library fn in\n   * @dev Recover signer address from a message by using their signature\n   * @param hash bytes32 message, the hash is the signed message. What is recovered is the signer address.\n   * @param signature bytes signature, the signature is generated using web3.eth.sign()\n   */\n  function recover(bytes32 hash, bytes signature)\n    internal\n    pure\n    returns (address)\n  {\n    bytes32 r;\n    bytes32 s;\n    uint8 v;\n\n    // Check the signature length\n    if (signature.length != 65) {\n      return (address(0));\n    }\n\n    // Divide the signature in r, s and v variables\n    // ecrecover takes the signature parameters, and the only way to get them\n    // currently is to use assembly.\n    // solium-disable-next-line security/no-inline-assembly\n    assembly {\n      r := mload(add(signature, 32))\n      s := mload(add(signature, 64))\n      v := byte(0, mload(add(signature, 96)))\n    }\n\n    // Version of signature should be 27 or 28, but 0 and 1 are also possible versions\n    if (v < 27) {\n      v += 27;\n    }\n\n    // If the version is correct return the signer address\n    if (v != 27 && v != 28) {\n      return (address(0));\n    } else {\n      // solium-disable-next-line arg-overflow\n      return ecrecover(hash, v, r, s);\n    }\n  }\n}",
  "sourcePath": "c:\\src\\TheCoin\\the-contract\\contracts\\LibCertTransfer.sol",
  "compiler": {
    "name": "solc",
    "version": "0.4.24+commit.e67f0147.Emscripten.clang"
  },
  "schemaVersion": "2.0.1",
  "updatedAt": "2018-11-18T18:29:34.441Z"
}