{
  "contractName": "TheCoin",
  "abi": [
    {
      "constant": true,
      "inputs": [],
      "name": "name",
      "outputs": [
        {
          "name": "",
          "type": "string"
        }
      ],
      "payable": false,
      "stateMutability": "view",
      "type": "function"
    },
    {
      "constant": true,
      "inputs": [],
      "name": "totalSupply",
      "outputs": [
        {
          "name": "",
          "type": "uint256"
        }
      ],
      "payable": false,
      "stateMutability": "view",
      "type": "function"
    },
    {
      "constant": false,
      "inputs": [
        {
          "name": "from",
          "type": "address"
        },
        {
          "name": "to",
          "type": "address"
        },
        {
          "name": "value",
          "type": "uint256"
        }
      ],
      "name": "transferFrom",
      "outputs": [
        {
          "name": "",
          "type": "bool"
        }
      ],
      "payable": false,
      "stateMutability": "nonpayable",
      "type": "function"
    },
    {
      "constant": true,
      "inputs": [],
      "name": "decimals",
      "outputs": [
        {
          "name": "",
          "type": "uint8"
        }
      ],
      "payable": false,
      "stateMutability": "view",
      "type": "function"
    },
    {
      "constant": true,
      "inputs": [
        {
          "name": "owner",
          "type": "address"
        }
      ],
      "name": "balanceOf",
      "outputs": [
        {
          "name": "",
          "type": "uint256"
        }
      ],
      "payable": false,
      "stateMutability": "view",
      "type": "function"
    },
    {
      "constant": true,
      "inputs": [
        {
          "name": "from",
          "type": "address"
        },
        {
          "name": "to",
          "type": "address"
        },
        {
          "name": "value",
          "type": "uint256"
        },
        {
          "name": "fee",
          "type": "uint256"
        },
        {
          "name": "timestamp",
          "type": "uint256"
        },
        {
          "name": "signature",
          "type": "bytes"
        }
      ],
      "name": "recoverSigner",
      "outputs": [
        {
          "name": "",
          "type": "address"
        }
      ],
      "payable": false,
      "stateMutability": "pure",
      "type": "function"
    },
    {
      "constant": true,
      "inputs": [],
      "name": "symbol",
      "outputs": [
        {
          "name": "",
          "type": "string"
        }
      ],
      "payable": false,
      "stateMutability": "view",
      "type": "function"
    },
    {
      "constant": false,
      "inputs": [
        {
          "name": "spender",
          "type": "address"
        },
        {
          "name": "subtractedValue",
          "type": "uint256"
        }
      ],
      "name": "decreaseAllowance",
      "outputs": [
        {
          "name": "",
          "type": "bool"
        }
      ],
      "payable": false,
      "stateMutability": "nonpayable",
      "type": "function"
    },
    {
      "constant": true,
      "inputs": [
        {
          "name": "owner",
          "type": "address"
        },
        {
          "name": "spender",
          "type": "address"
        }
      ],
      "name": "allowance",
      "outputs": [
        {
          "name": "",
          "type": "uint256"
        }
      ],
      "payable": false,
      "stateMutability": "view",
      "type": "function"
    },
    {
      "constant": true,
      "inputs": [
        {
          "name": "from",
          "type": "address"
        },
        {
          "name": "to",
          "type": "address"
        },
        {
          "name": "value",
          "type": "uint256"
        },
        {
          "name": "fee",
          "type": "uint256"
        },
        {
          "name": "timestamp",
          "type": "uint256"
        }
      ],
      "name": "buildMessage",
      "outputs": [
        {
          "name": "",
          "type": "bytes32"
        }
      ],
      "payable": false,
      "stateMutability": "pure",
      "type": "function"
    },
    {
      "payable": true,
      "stateMutability": "payable",
      "type": "fallback"
    },
    {
      "anonymous": false,
      "inputs": [
        {
          "indexed": false,
          "name": "purchaser",
          "type": "address"
        },
        {
          "indexed": false,
          "name": "amount",
          "type": "uint256"
        },
        {
          "indexed": false,
          "name": "balance",
          "type": "uint256"
        },
        {
          "indexed": false,
          "name": "timestamp",
          "type": "uint256"
        }
      ],
      "name": "Purchase",
      "type": "event"
    },
    {
      "anonymous": false,
      "inputs": [
        {
          "indexed": false,
          "name": "purchaser",
          "type": "address"
        },
        {
          "indexed": false,
          "name": "amount",
          "type": "uint256"
        },
        {
          "indexed": false,
          "name": "balance",
          "type": "uint256"
        },
        {
          "indexed": false,
          "name": "timestamp",
          "type": "uint256"
        }
      ],
      "name": "Redeem",
      "type": "event"
    },
    {
      "anonymous": false,
      "inputs": [
        {
          "indexed": false,
          "name": "client",
          "type": "address"
        },
        {
          "indexed": false,
          "name": "topup",
          "type": "uint256"
        }
      ],
      "name": "TapCapTopUp",
      "type": "event"
    },
    {
      "anonymous": false,
      "inputs": [
        {
          "indexed": false,
          "name": "client",
          "type": "address"
        },
        {
          "indexed": false,
          "name": "weeklyLimit",
          "type": "uint256"
        }
      ],
      "name": "TapCapSetWeekly",
      "type": "event"
    },
    {
      "anonymous": false,
      "inputs": [
        {
          "indexed": false,
          "name": "client",
          "type": "address"
        }
      ],
      "name": "TapCapClear",
      "type": "event"
    },
    {
      "anonymous": false,
      "inputs": [
        {
          "indexed": false,
          "name": "client",
          "type": "address"
        },
        {
          "indexed": false,
          "name": "change",
          "type": "int256"
        },
        {
          "indexed": false,
          "name": "toppedUp",
          "type": "uint256"
        }
      ],
      "name": "TapCapUserUpdated",
      "type": "event"
    },
    {
      "anonymous": false,
      "inputs": [
        {
          "indexed": false,
          "name": "client",
          "type": "address"
        },
        {
          "indexed": false,
          "name": "dest",
          "type": "address"
        },
        {
          "indexed": false,
          "name": "amount",
          "type": "uint256"
        }
      ],
      "name": "TapCapProcessed",
      "type": "event"
    },
    {
      "anonymous": false,
      "inputs": [
        {
          "indexed": true,
          "name": "from",
          "type": "address"
        },
        {
          "indexed": true,
          "name": "to",
          "type": "address"
        },
        {
          "indexed": false,
          "name": "value",
          "type": "uint256"
        }
      ],
      "name": "Transfer",
      "type": "event"
    },
    {
      "anonymous": false,
      "inputs": [
        {
          "indexed": true,
          "name": "owner",
          "type": "address"
        },
        {
          "indexed": true,
          "name": "spender",
          "type": "address"
        },
        {
          "indexed": false,
          "name": "value",
          "type": "uint256"
        }
      ],
      "name": "Approval",
      "type": "event"
    },
    {
      "constant": false,
      "inputs": [
        {
          "name": "name",
          "type": "string"
        },
        {
          "name": "symbol",
          "type": "string"
        },
        {
          "name": "decimals",
          "type": "uint8"
        }
      ],
      "name": "initialize",
      "outputs": [],
      "payable": false,
      "stateMutability": "nonpayable",
      "type": "function"
    },
    {
      "constant": false,
      "inputs": [
        {
          "name": "_sender",
          "type": "address"
        }
      ],
      "name": "initialize",
      "outputs": [],
      "payable": false,
      "stateMutability": "nonpayable",
      "type": "function"
    },
    {
      "constant": true,
      "inputs": [],
      "name": "getRoles",
      "outputs": [
        {
          "name": "",
          "type": "address"
        },
        {
          "name": "",
          "type": "address"
        },
        {
          "name": "",
          "type": "address"
        },
        {
          "name": "",
          "type": "address"
        }
      ],
      "payable": false,
      "stateMutability": "view",
      "type": "function"
    },
    {
      "constant": false,
      "inputs": [
        {
          "name": "amount",
          "type": "uint256"
        }
      ],
      "name": "mintCoins",
      "outputs": [],
      "payable": false,
      "stateMutability": "nonpayable",
      "type": "function"
    },
    {
      "constant": false,
      "inputs": [
        {
          "name": "amount",
          "type": "uint256"
        }
      ],
      "name": "meltCoins",
      "outputs": [],
      "payable": false,
      "stateMutability": "nonpayable",
      "type": "function"
    },
    {
      "constant": true,
      "inputs": [],
      "name": "coinsCirculating",
      "outputs": [
        {
          "name": "",
          "type": "uint256"
        }
      ],
      "payable": false,
      "stateMutability": "view",
      "type": "function"
    },
    {
      "constant": true,
      "inputs": [],
      "name": "reservedCoins",
      "outputs": [
        {
          "name": "balance",
          "type": "uint256"
        }
      ],
      "payable": false,
      "stateMutability": "view",
      "type": "function"
    },
    {
      "constant": false,
      "inputs": [
        {
          "name": "to",
          "type": "address"
        },
        {
          "name": "value",
          "type": "uint256"
        }
      ],
      "name": "transfer",
      "outputs": [
        {
          "name": "",
          "type": "bool"
        }
      ],
      "payable": false,
      "stateMutability": "nonpayable",
      "type": "function"
    },
    {
      "constant": false,
      "inputs": [
        {
          "name": "spender",
          "type": "address"
        },
        {
          "name": "value",
          "type": "uint256"
        }
      ],
      "name": "approve",
      "outputs": [
        {
          "name": "",
          "type": "bool"
        }
      ],
      "payable": false,
      "stateMutability": "nonpayable",
      "type": "function"
    },
    {
      "constant": false,
      "inputs": [
        {
          "name": "spender",
          "type": "address"
        },
        {
          "name": "addedValue",
          "type": "uint256"
        }
      ],
      "name": "increaseAllowance",
      "outputs": [
        {
          "name": "",
          "type": "bool"
        }
      ],
      "payable": false,
      "stateMutability": "nonpayable",
      "type": "function"
    },
    {
      "constant": false,
      "inputs": [
        {
          "name": "from",
          "type": "address"
        },
        {
          "name": "to",
          "type": "address"
        },
        {
          "name": "value",
          "type": "uint256"
        },
        {
          "name": "fee",
          "type": "uint256"
        },
        {
          "name": "timestamp",
          "type": "uint256"
        },
        {
          "name": "signature",
          "type": "bytes"
        }
      ],
      "name": "certifiedTransfer",
      "outputs": [
        {
          "name": "",
          "type": "bool"
        }
      ],
      "payable": false,
      "stateMutability": "nonpayable",
      "type": "function"
    },
    {
      "constant": false,
      "inputs": [
        {
          "name": "purchaser",
          "type": "address"
        },
        {
          "name": "amount",
          "type": "uint256"
        },
        {
          "name": "timeout",
          "type": "uint256"
        },
        {
          "name": "timestamp",
          "type": "uint256"
        }
      ],
      "name": "coinPurchase",
      "outputs": [],
      "payable": false,
      "stateMutability": "nonpayable",
      "type": "function"
    },
    {
      "constant": false,
      "inputs": [
        {
          "name": "amount",
          "type": "uint256"
        },
        {
          "name": "redeemer",
          "type": "address"
        },
        {
          "name": "timestamp",
          "type": "uint256"
        }
      ],
      "name": "coinRedeem",
      "outputs": [],
      "payable": false,
      "stateMutability": "nonpayable",
      "type": "function"
    },
    {
      "constant": false,
      "inputs": [
        {
          "name": "account",
          "type": "address"
        },
        {
          "name": "time",
          "type": "uint256"
        }
      ],
      "name": "setAccountFreezeTime",
      "outputs": [],
      "payable": false,
      "stateMutability": "nonpayable",
      "type": "function"
    },
    {
      "constant": true,
      "inputs": [
        {
          "name": "account",
          "type": "address"
        }
      ],
      "name": "accountUnfreezeTime",
      "outputs": [
        {
          "name": "",
          "type": "uint256"
        }
      ],
      "payable": false,
      "stateMutability": "view",
      "type": "function"
    },
    {
      "constant": false,
      "inputs": [
        {
          "name": "topup",
          "type": "uint256"
        }
      ],
      "name": "tapCapTopUp",
      "outputs": [],
      "payable": false,
      "stateMutability": "nonpayable",
      "type": "function"
    },
    {
      "constant": false,
      "inputs": [
        {
          "name": "amount",
          "type": "uint256"
        }
      ],
      "name": "tapCapSetRefill",
      "outputs": [],
      "payable": false,
      "stateMutability": "nonpayable",
      "type": "function"
    },
    {
      "constant": false,
      "inputs": [],
      "name": "tapCapClear",
      "outputs": [],
      "payable": false,
      "stateMutability": "nonpayable",
      "type": "function"
    },
    {
      "constant": true,
      "inputs": [
        {
          "name": "user",
          "type": "address"
        }
      ],
      "name": "tapCapUser",
      "outputs": [
        {
          "name": "TransactionId",
          "type": "uint256"
        },
        {
          "name": "TapCapEscrow",
          "type": "uint256"
        },
        {
          "name": "TapCapRefill",
          "type": "uint256"
        }
      ],
      "payable": false,
      "stateMutability": "view",
      "type": "function"
    },
    {
      "constant": false,
      "inputs": [
        {
          "name": "users",
          "type": "address[]"
        },
        {
          "name": "amountChange",
          "type": "int256[]"
        }
      ],
      "name": "processSpending",
      "outputs": [],
      "payable": false,
      "stateMutability": "nonpayable",
      "type": "function"
    },
    {
      "constant": false,
      "inputs": [
        {
          "name": "newManager",
          "type": "address"
        }
      ],
      "name": "setTapCapManager",
      "outputs": [],
      "payable": false,
      "stateMutability": "nonpayable",
      "type": "function"
    },
    {
      "constant": false,
      "inputs": [],
      "name": "acceptTapCapManager",
      "outputs": [],
      "payable": false,
      "stateMutability": "nonpayable",
      "type": "function"
    },
    {
      "constant": false,
      "inputs": [
        {
          "name": "newMinter",
          "type": "address"
        }
      ],
      "name": "setMinter",
      "outputs": [],
      "payable": false,
      "stateMutability": "nonpayable",
      "type": "function"
    },
    {
      "constant": false,
      "inputs": [],
      "name": "acceptMinter",
      "outputs": [],
      "payable": false,
      "stateMutability": "nonpayable",
      "type": "function"
    },
    {
      "constant": false,
      "inputs": [
        {
          "name": "newCoinManager",
          "type": "address"
        }
      ],
      "name": "setTheCoin",
      "outputs": [],
      "payable": false,
      "stateMutability": "nonpayable",
      "type": "function"
    },
    {
      "constant": false,
      "inputs": [],
      "name": "acceptTheCoin",
      "outputs": [],
      "payable": false,
      "stateMutability": "nonpayable",
      "type": "function"
    },
    {
      "constant": false,
      "inputs": [
        {
          "name": "newPolice",
          "type": "address"
        }
      ],
      "name": "setPolice",
      "outputs": [],
      "payable": false,
      "stateMutability": "nonpayable",
      "type": "function"
    },
    {
      "constant": false,
      "inputs": [],
      "name": "acceptPolice",
      "outputs": [],
      "payable": false,
      "stateMutability": "nonpayable",
      "type": "function"
    },
    {
      "constant": false,
      "inputs": [
        {
          "name": "tokenAddress",
          "type": "address"
        },
        {
          "name": "tokens",
          "type": "uint256"
        }
      ],
      "name": "transferAnyERC20Token",
      "outputs": [
        {
          "name": "success",
          "type": "bool"
        }
      ],
      "payable": false,
      "stateMutability": "nonpayable",
      "type": "function"
    }
  ],
  "bytecode": "0x608060405234801561001057600080fd5b5061531f806100206000396000f3fe6080604052600436106101e3576000357c0100000000000000000000000000000000000000000000000000000000900463ffffffff16806306fdde0314610277578063095ea7b3146103075780630a18f5c91461037a5780631624f6c6146103a557806318160ddd1461051157806318fd64401461053c5780631dcdb8e6146105675780631f39f23c146105da57806323b872dd1461062b5780632f9e1b17146106be578063313ce567146106f9578063344398471461072a57806339509351146107415780635395c9d4146107b45780635dea838a146107cb5780635ec4f0c4146108305780636e24c37e1461096e57806370a0823114610ac75780637106139814610b2c57806377598d9a14610c1c57806378ad516414610c335780638a5c3d8414610c6e5780638da91fcd14610cbf57806395d89b4114610e255780639a975b0c14610eb5578063a299071214610ecc578063a457c2d714610f3b578063a77b6efb14610fae578063a793902b14610fe9578063a9059cbb14611024578063b33c884514611097578063c4d66de8146110f2578063cbd956c314611143578063d803ec171461115a578063dc39d06d146111ab578063dd62ed3e1461121e578063dfdf9f82146112a3578063fbc67b2314611308578063fca3b5aa146113ab575b6040517f08c379a00000000000000000000000000000000000000000000000000000000081526004018080602001828103825260238152602001807f5468697320636f6e747261637420646f6573206e6f742072756e206f6e20457481526020017f686572000000000000000000000000000000000000000000000000000000000081525060400191505060405180910390fd5b34801561028357600080fd5b5061028c6113fc565b6040518080602001828103825283818151815260200191508051906020019080838360005b838110156102cc5780820151818401526020810190506102b1565b50505050905090810190601f1680156102f95780820380516001836020036101000a031916815260200191505b509250505060405180910390f35b34801561031357600080fd5b506103606004803603604081101561032a57600080fd5b81019080803573ffffffffffffffffffffffffffffffffffffffff1690602001909291908035906020019092919050505061149e565b604051808215151515815260200191505060405180910390f35b34801561038657600080fd5b5061038f611649565b6040518082815260200191505060405180910390f35b3480156103b157600080fd5b5061050f600480360360608110156103c857600080fd5b81019080803590602001906401000000008111156103e557600080fd5b8201836020820111156103f757600080fd5b8035906020019184600183028401116401000000008311171561041957600080fd5b91908080601f016020809104026020016040519081016040528093929190818152602001838380828437600081840152601f19601f8201169050808301925050505050505091929192908035906020019064010000000081111561047c57600080fd5b82018360208201111561048e57600080fd5b803590602001918460018302840111640100000000831117156104b057600080fd5b91908080601f016020809104026020016040519081016040528093929190818152602001838380828437600081840152601f19601f820116905080830192505050505050509192919290803560ff169060200190929190505050611694565b005b34801561051d57600080fd5b50610526611815565b6040518082815260200191505060405180910390f35b34801561054857600080fd5b5061055161181f565b6040518082815260200191505060405180910390f35b34801561057357600080fd5b506105b66004803603602081101561058a57600080fd5b81019080803573ffffffffffffffffffffffffffffffffffffffff169060200190929190505050611851565b60405180848152602001838152602001828152602001935050505060405180910390f35b3480156105e657600080fd5b50610629600480360360208110156105fd57600080fd5b81019080803573ffffffffffffffffffffffffffffffffffffffff16906020019092919050505061192c565b005b34801561063757600080fd5b506106a46004803603606081101561064e57600080fd5b81019080803573ffffffffffffffffffffffffffffffffffffffff169060200190929190803573ffffffffffffffffffffffffffffffffffffffff16906020019092919080359060200190929190505050611a35565b604051808215151515815260200191505060405180910390f35b3480156106ca57600080fd5b506106f7600480360360208110156106e157600080fd5b8101908080359060200190929190505050611c3d565b005b34801561070557600080fd5b5061070e611e5c565b604051808260ff1660ff16815260200191505060405180910390f35b34801561073657600080fd5b5061073f611e73565b005b34801561074d57600080fd5b5061079a6004803603604081101561076457600080fd5b81019080803573ffffffffffffffffffffffffffffffffffffffff16906020019092919080359060200190929190505050611fdf565b604051808215151515815260200191505060405180910390f35b3480156107c057600080fd5b506107c961218a565b005b3480156107d757600080fd5b5061082e600480360360608110156107ee57600080fd5b8101908080359060200190929190803573ffffffffffffffffffffffffffffffffffffffff169060200190929190803590602001909291905050506122f6565b005b34801561083c57600080fd5b50610954600480360360c081101561085357600080fd5b81019080803573ffffffffffffffffffffffffffffffffffffffff169060200190929190803573ffffffffffffffffffffffffffffffffffffffff169060200190929190803590602001909291908035906020019092919080359060200190929190803590602001906401000000008111156108ce57600080fd5b8201836020820111156108e057600080fd5b8035906020019184600183028401116401000000008311171561090257600080fd5b91908080601f016020809104026020016040519081016040528093929190818152602001838380828437600081840152601f19601f820116905080830192505050505050509192919290505050612520565b604051808215151515815260200191505060405180910390f35b34801561097a57600080fd5b50610ac56004803603604081101561099157600080fd5b81019080803590602001906401000000008111156109ae57600080fd5b8201836020820111156109c057600080fd5b803590602001918460208302840111640100000000831117156109e257600080fd5b919080806020026020016040519081016040528093929190818152602001838360200280828437600081840152601f19601f82011690508083019250505050505050919291929080359060200190640100000000811115610a4257600080fd5b820183602082011115610a5457600080fd5b80359060200191846020830284011164010000000083111715610a7657600080fd5b919080806020026020016040519081016040528093929190818152602001838360200280828437600081840152601f19601f8201169050808301925050505050505091929192905050506128b5565b005b348015610ad357600080fd5b50610b1660048036036020811015610aea57600080fd5b81019080803573ffffffffffffffffffffffffffffffffffffffff169060200190929190505050612f24565b6040518082815260200191505060405180910390f35b348015610b3857600080fd5b50610b41612f6d565b604051808573ffffffffffffffffffffffffffffffffffffffff1673ffffffffffffffffffffffffffffffffffffffff1681526020018473ffffffffffffffffffffffffffffffffffffffff1673ffffffffffffffffffffffffffffffffffffffff1681526020018373ffffffffffffffffffffffffffffffffffffffff1673ffffffffffffffffffffffffffffffffffffffff1681526020018273ffffffffffffffffffffffffffffffffffffffff1673ffffffffffffffffffffffffffffffffffffffff16815260200194505050505060405180910390f35b348015610c2857600080fd5b50610c3161300d565b005b348015610c3f57600080fd5b50610c6c60048036036020811015610c5657600080fd5b8101908080359060200190929190505050613179565b005b348015610c7a57600080fd5b50610cbd60048036036020811015610c9157600080fd5b81019080803573ffffffffffffffffffffffffffffffffffffffff16906020019092919050505061322e565b005b348015610ccb57600080fd5b50610de3600480360360c0811015610ce257600080fd5b81019080803573ffffffffffffffffffffffffffffffffffffffff169060200190929190803573ffffffffffffffffffffffffffffffffffffffff16906020019092919080359060200190929190803590602001909291908035906020019092919080359060200190640100000000811115610d5d57600080fd5b820183602082011115610d6f57600080fd5b80359060200191846001830284011164010000000083111715610d9157600080fd5b91908080601f016020809104026020016040519081016040528093929190818152602001838380828437600081840152601f19601f820116905080830192505050505050509192919290505050613337565b604051808273ffffffffffffffffffffffffffffffffffffffff1673ffffffffffffffffffffffffffffffffffffffff16815260200191505060405180910390f35b348015610e3157600080fd5b50610e3a61336e565b6040518080602001828103825283818151815260200191508051906020019080838360005b83811015610e7a578082015181840152602081019050610e5f565b50505050905090810190601f168015610ea75780820380516001836020036101000a031916815260200191505b509250505060405180910390f35b348015610ec157600080fd5b50610eca613410565b005b348015610ed857600080fd5b50610f3960048036036080811015610eef57600080fd5b81019080803573ffffffffffffffffffffffffffffffffffffffff1690602001909291908035906020019092919080359060200190929190803590602001909291905050506134dc565b005b348015610f4757600080fd5b50610f9460048036036040811015610f5e57600080fd5b81019080803573ffffffffffffffffffffffffffffffffffffffff16906020019092919080359060200190929190505050613707565b604051808215151515815260200191505060405180910390f35b348015610fba57600080fd5b50610fe760048036036020811015610fd157600080fd5b810190808035906020019092919050505061393e565b005b348015610ff557600080fd5b506110226004803603602081101561100c57600080fd5b8101908080359060200190929190505050613a32565b005b34801561103057600080fd5b5061107d6004803603604081101561104757600080fd5b81019080803573ffffffffffffffffffffffffffffffffffffffff16906020019092919080359060200190929190505050613b26565b604051808215151515815260200191505060405180910390f35b3480156110a357600080fd5b506110f0600480360360408110156110ba57600080fd5b81019080803573ffffffffffffffffffffffffffffffffffffffff16906020019092919080359060200190929190505050613cd1565b005b3480156110fe57600080fd5b506111416004803603602081101561111557600080fd5b81019080803573ffffffffffffffffffffffffffffffffffffffff169060200190929190505050613dde565b005b34801561114f57600080fd5b506111586141d4565b005b34801561116657600080fd5b506111a96004803603602081101561117d57600080fd5b81019080803573ffffffffffffffffffffffffffffffffffffffff169060200190929190505050614340565b005b3480156111b757600080fd5b50611204600480360360408110156111ce57600080fd5b81019080803573ffffffffffffffffffffffffffffffffffffffff16906020019092919080359060200190929190505050614449565b604051808215151515815260200191505060405180910390f35b34801561122a57600080fd5b5061128d6004803603604081101561124157600080fd5b81019080803573ffffffffffffffffffffffffffffffffffffffff169060200190929190803573ffffffffffffffffffffffffffffffffffffffff16906020019092919050505061461e565b6040518082815260200191505060405180910390f35b3480156112af57600080fd5b506112f2600480360360208110156112c657600080fd5b81019080803573ffffffffffffffffffffffffffffffffffffffff1690602001909291905050506146a5565b6040518082815260200191505060405180910390f35b34801561131457600080fd5b50611395600480360360a081101561132b57600080fd5b81019080803573ffffffffffffffffffffffffffffffffffffffff169060200190929190803573ffffffffffffffffffffffffffffffffffffffff1690602001909291908035906020019092919080359060200190929190803590602001909291905050506146ee565b6040518082815260200191505060405180910390f35b3480156113b757600080fd5b506113fa600480360360208110156113ce57600080fd5b81019080803573ffffffffffffffffffffffffffffffffffffffff1690602001909291905050506147be565b005b606060338054600181600116156101000203166002900480601f0160208091040260200160405190810160405280929190818152602001828054600181600116156101000203166002900480156114945780601f1061146957610100808354040283529160200191611494565b820191906000526020600020905b81548152906001019060200180831161147757829003601f168201915b5050505050905090565b6000338280606860008473ffffffffffffffffffffffffffffffffffffffff1673ffffffffffffffffffffffffffffffffffffffff1681526020019081526020016000205410151515611559576040517f08c379a000000000000000000000000000000000000000000000000000000000815260040180806020018281038252601f8152602001807f43616c6c65722068617320696e73756666696369656e742062616c616e63650081525060200191505060405180910390fd5b42609d60008473ffffffffffffffffffffffffffffffffffffffff1673ffffffffffffffffffffffffffffffffffffffff16815260200190815260200160002054101515611635576040517f08c379a00000000000000000000000000000000000000000000000000000000081526004018080602001828103825260248152602001807f43616c6c65722773206163636f756e742069732063757272656e746c7920667281526020017f6f7a656e0000000000000000000000000000000000000000000000000000000081525060400191505060405180910390fd5b61163f85856148c7565b9250505092915050565b600061168f61167960a160009054906101000a900473ffffffffffffffffffffffffffffffffffffffff16612f24565b611681611815565b6149f490919063ffffffff16565b905090565b600060019054906101000a900460ff16806116b357506116b2614a16565b5b806116ca57506000809054906101000a900460ff16155b1515611764576040517f08c379a000000000000000000000000000000000000000000000000000000000815260040180806020018281038252602e8152602001807f436f6e747261637420696e7374616e63652068617320616c726561647920626581526020017f656e20696e697469616c697a656400000000000000000000000000000000000081525060400191505060405180910390fd5b60008060019054906101000a900460ff1690506001600060016101000a81548160ff02191690831515021790555060016000806101000a81548160ff02191690831515021790555083603390805190602001906117c292919061524e565b5082603490805190602001906117d992919061524e565b5081603560006101000a81548160ff021916908360ff16021790555080600060016101000a81548160ff02191690831515021790555050505050565b6000606a54905090565b600061184c60a160009054906101000a900473ffffffffffffffffffffffffffffffffffffffff16612f24565b905090565b600080600060a760008573ffffffffffffffffffffffffffffffffffffffff1673ffffffffffffffffffffffffffffffffffffffff1681526020019081526020016000206000015460a760008673ffffffffffffffffffffffffffffffffffffffff1673ffffffffffffffffffffffffffffffffffffffff1681526020019081526020016000206001015460a760008773ffffffffffffffffffffffffffffffffffffffff1673ffffffffffffffffffffffffffffffffffffffff168152602001908152602001600020600201549250925092509193909250565b60a260009054906101000a900473ffffffffffffffffffffffffffffffffffffffff1673ffffffffffffffffffffffffffffffffffffffff163373ffffffffffffffffffffffffffffffffffffffff161415156119f1576040517f08c379a000000000000000000000000000000000000000000000000000000000815260040180806020018281038252600e8152602001807f496e76616c69642073656e64657200000000000000000000000000000000000081525060200191505060405180910390fd5b8060a660006101000a81548173ffffffffffffffffffffffffffffffffffffffff021916908373ffffffffffffffffffffffffffffffffffffffff16021790555050565b6000611ac682606960008773ffffffffffffffffffffffffffffffffffffffff1673ffffffffffffffffffffffffffffffffffffffff16815260200190815260200160002060003373ffffffffffffffffffffffffffffffffffffffff1673ffffffffffffffffffffffffffffffffffffffff168152602001908152602001600020546149f490919063ffffffff16565b606960008673ffffffffffffffffffffffffffffffffffffffff1673ffffffffffffffffffffffffffffffffffffffff16815260200190815260200160002060003373ffffffffffffffffffffffffffffffffffffffff1673ffffffffffffffffffffffffffffffffffffffff16815260200190815260200160002081905550611b51848484614a27565b3373ffffffffffffffffffffffffffffffffffffffff168473ffffffffffffffffffffffffffffffffffffffff167f8c5be1e5ebec7d5bd14f71427d1e84f3dd0314c0f7b2291e5b200ac8c7c3b925606960008873ffffffffffffffffffffffffffffffffffffffff1673ffffffffffffffffffffffffffffffffffffffff16815260200190815260200160002060003373ffffffffffffffffffffffffffffffffffffffff1673ffffffffffffffffffffffffffffffffffffffff168152602001908152602001600020546040518082815260200191505060405180910390a3600190509392505050565b8080606860003373ffffffffffffffffffffffffffffffffffffffff1673ffffffffffffffffffffffffffffffffffffffff1681526020019081526020016000205410151515611cf5576040517f08c379a000000000000000000000000000000000000000000000000000000000815260040180806020018281038252601f8152602001807f43616c6c65722068617320696e73756666696369656e742062616c616e63650081525060200191505060405180910390fd5b600060a760003373ffffffffffffffffffffffffffffffffffffffff1673ffffffffffffffffffffffffffffffffffffffff1681526020019081526020016000209050611d8a83606860003373ffffffffffffffffffffffffffffffffffffffff1673ffffffffffffffffffffffffffffffffffffffff168152602001908152602001600020546149f490919063ffffffff16565b606860003373ffffffffffffffffffffffffffffffffffffffff1673ffffffffffffffffffffffffffffffffffffffff16815260200190815260200160002081905550611de4838260010154614bf790919063ffffffff16565b81600101819055507f0164611a7fe547f708c0a708a8ac00ed2c0adbca62e7dee2f63512e60c30e9e63384604051808373ffffffffffffffffffffffffffffffffffffffff1673ffffffffffffffffffffffffffffffffffffffff1681526020018281526020019250505060405180910390a1505050565b6000603560009054906101000a900460ff16905090565b60a660009054906101000a900473ffffffffffffffffffffffffffffffffffffffff1673ffffffffffffffffffffffffffffffffffffffff163373ffffffffffffffffffffffffffffffffffffffff16141515611f38576040517f08c379a00000000000000000000000000000000000000000000000000000000081526004018080602001828103825260118152602001807f5065726d697373696f6e2044656e69656400000000000000000000000000000081525060200191505060405180910390fd5b60a660009054906101000a900473ffffffffffffffffffffffffffffffffffffffff1660a260006101000a81548173ffffffffffffffffffffffffffffffffffffffff021916908373ffffffffffffffffffffffffffffffffffffffff160217905550600060a660006101000a81548173ffffffffffffffffffffffffffffffffffffffff021916908373ffffffffffffffffffffffffffffffffffffffff160217905550565b6000338280606860008473ffffffffffffffffffffffffffffffffffffffff1673ffffffffffffffffffffffffffffffffffffffff168152602001908152602001600020541015151561209a576040517f08c379a000000000000000000000000000000000000000000000000000000000815260040180806020018281038252601f8152602001807f43616c6c65722068617320696e73756666696369656e742062616c616e63650081525060200191505060405180910390fd5b42609d60008473ffffffffffffffffffffffffffffffffffffffff1673ffffffffffffffffffffffffffffffffffffffff16815260200190815260200160002054101515612176576040517f08c379a00000000000000000000000000000000000000000000000000000000081526004018080602001828103825260248152602001807f43616c6c65722773206163636f756e742069732063757272656e746c7920667281526020017f6f7a656e0000000000000000000000000000000000000000000000000000000081525060400191505060405180910390fd5b6121808585614c18565b9250505092915050565b60a560009054906101000a900473ffffffffffffffffffffffffffffffffffffffff1673ffffffffffffffffffffffffffffffffffffffff163373ffffffffffffffffffffffffffffffffffffffff1614151561224f576040517f08c379a00000000000000000000000000000000000000000000000000000000081526004018080602001828103825260118152602001807f5065726d697373696f6e2044656e69656400000000000000000000000000000081525060200191505060405180910390fd5b60a560009054906101000a900473ffffffffffffffffffffffffffffffffffffffff1660a160006101000a81548173ffffffffffffffffffffffffffffffffffffffff021916908373ffffffffffffffffffffffffffffffffffffffff160217905550600060a560006101000a81548173ffffffffffffffffffffffffffffffffffffffff021916908373ffffffffffffffffffffffffffffffffffffffff160217905550565b338380606860008473ffffffffffffffffffffffffffffffffffffffff1673ffffffffffffffffffffffffffffffffffffffff16815260200190815260200160002054101515156123af576040517f08c379a000000000000000000000000000000000000000000000000000000000815260040180806020018281038252601f8152602001807f43616c6c65722068617320696e73756666696369656e742062616c616e63650081525060200191505060405180910390fd5b42609d60008473ffffffffffffffffffffffffffffffffffffffff1673ffffffffffffffffffffffffffffffffffffffff1681526020019081526020016000205410151561248b576040517f08c379a00000000000000000000000000000000000000000000000000000000081526004018080602001828103825260248152602001807f43616c6c65722773206163636f756e742069732063757272656e746c7920667281526020017f6f7a656e0000000000000000000000000000000000000000000000000000000081525060400191505060405180910390fd5b612496338587614a27565b7fbd5034ffbd47e4e72a94baa2cdb74c6fad73cb3bcdc13036b72ec8306f5a764633866124c233612f24565b86604051808573ffffffffffffffffffffffffffffffffffffffff1673ffffffffffffffffffffffffffffffffffffffff16815260200184815260200183815260200182815260200194505050505060405180910390a15050505050565b60008683609e60008373ffffffffffffffffffffffffffffffffffffffff1673ffffffffffffffffffffffffffffffffffffffff1681526020019081526020016000205481111515612600576040517f08c379a00000000000000000000000000000000000000000000000000000000081526004018080602001828103825260338152602001807f50726f76696465642074696d657374616d70206973206c6f776572207468616e81526020017f207265636f726465642074696d657374616d700000000000000000000000000081525060400191505060405180910390fd5b8886880180606860008473ffffffffffffffffffffffffffffffffffffffff1673ffffffffffffffffffffffffffffffffffffffff16815260200190815260200160002054101515156126bb576040517f08c379a000000000000000000000000000000000000000000000000000000000815260040180806020018281038252601f8152602001807f43616c6c65722068617320696e73756666696369656e742062616c616e63650081525060200191505060405180910390fd5b42609d60008473ffffffffffffffffffffffffffffffffffffffff1673ffffffffffffffffffffffffffffffffffffffff16815260200190815260200160002054101515612797576040517f08c379a00000000000000000000000000000000000000000000000000000000081526004018080602001828103825260248152602001807f43616c6c65722773206163636f756e742069732063757272656e746c7920667281526020017f6f7a656e0000000000000000000000000000000000000000000000000000000081525060400191505060405180910390fd5b60006127a78c8c8c8c8c8c613337565b90508b73ffffffffffffffffffffffffffffffffffffffff168173ffffffffffffffffffffffffffffffffffffffff1614151561284c576040517f08c379a000000000000000000000000000000000000000000000000000000000815260040180806020018281038252601d8152602001807f496e76616c6964207369676e617475726520666f72206164647265737300000081525060200191505060405180910390fd5b6128578c8c8c614a27565b6128628c338b614a27565b87609e60008e73ffffffffffffffffffffffffffffffffffffffff1673ffffffffffffffffffffffffffffffffffffffff1681526020019081526020016000208190555050505050509695505050505050565b609f60009054906101000a900473ffffffffffffffffffffffffffffffffffffffff1673ffffffffffffffffffffffffffffffffffffffff163373ffffffffffffffffffffffffffffffffffffffff1614151561297a576040517f08c379a000000000000000000000000000000000000000000000000000000000815260040180806020018281038252600e8152602001807f496e76616c69642073656e64657200000000000000000000000000000000000081525060200191505060405180910390fd5b600082519050815181141515612a1e576040517f08c379a00000000000000000000000000000000000000000000000000000000081526004018080602001828103825260368152602001807f4561636820656e74727920696e207573657273206d757374206265206d61746381526020017f68656420627920616e20616d6f756e744368616e67650000000000000000000081525060400191505060405180910390fd5b6000809050600080905060008090505b83811015612e7e5760008682815181101515612a4657fe5b90602001906020020151905060008683815181101515612a6257fe5b906020019060200201519050600060a760008473ffffffffffffffffffffffffffffffffffffffff1673ffffffffffffffffffffffffffffffffffffffff16815260200190815260200160002090506000821315612bbd576000829050612b1181606860008773ffffffffffffffffffffffffffffffffffffffff1673ffffffffffffffffffffffffffffffffffffffff16815260200190815260200160002054614bf790919063ffffffff16565b5082870195508686131515612bb4576040517f08c379a00000000000000000000000000000000000000000000000000000000081526004018080602001828103825260388152602001807f696e74204f766572666c6f7720696e2070726f636573735370656e64696e673a81526020017f206e6577546f74616c203c3d20746f74616c4368616e6765000000000000000081525060400191505060405180910390fd5b85965050612e6e565b6000826000039050612bdc8183600101546149f490919063ffffffff16565b8260010181905550816002015482600101541015612dc6576000612c11836001015484600201546149f490919063ffffffff16565b9050606860008673ffffffffffffffffffffffffffffffffffffffff1673ffffffffffffffffffffffffffffffffffffffff16815260200190815260200160002054811115612c9d57606860008673ffffffffffffffffffffffffffffffffffffffff1673ffffffffffffffffffffffffffffffffffffffff1681526020019081526020016000205490505b612cef81606860008873ffffffffffffffffffffffffffffffffffffffff1673ffffffffffffffffffffffffffffffffffffffff168152602001908152602001600020546149f490919063ffffffff16565b606860008773ffffffffffffffffffffffffffffffffffffffff1673ffffffffffffffffffffffffffffffffffffffff16815260200190815260200160002081905550612d49818460010154614bf790919063ffffffff16565b83600101819055507fbc8fb1fdc44eddf7d69719d30f493576d74726bd6dc9ea4f283f981d43f60710858583604051808473ffffffffffffffffffffffffffffffffffffffff1673ffffffffffffffffffffffffffffffffffffffff168152602001838152602001828152602001935050505060405180910390a1505b8287019550868613151515612e69576040517f08c379a00000000000000000000000000000000000000000000000000000000081526004018080602001828103825260388152602001807f696e7420556e646572666c6f7720696e2070726f636573735370656e64696e6781526020017f3a206e6577546f74616c203e20746f74616c4368616e6765000000000000000081525060400191505060405180910390fd5b859650505b5050508080600101915050612a2e565b50600082141515612f1d576040517f08c379a00000000000000000000000000000000000000000000000000000000081526004018080602001828103825260348152602001807f43616e6e6f74207265736f6c7665207370656e64696e672c20616d6f756e747381526020017f20646f206e6f742062616c616e636520746f203000000000000000000000000081525060400191505060405180910390fd5b5050505050565b6000606860008373ffffffffffffffffffffffffffffffffffffffff1673ffffffffffffffffffffffffffffffffffffffff168152602001908152602001600020549050919050565b600080600080609f60009054906101000a900473ffffffffffffffffffffffffffffffffffffffff1660a060009054906101000a900473ffffffffffffffffffffffffffffffffffffffff1660a160009054906101000a900473ffffffffffffffffffffffffffffffffffffffff1660a260009054906101000a900473ffffffffffffffffffffffffffffffffffffffff16935093509350935090919293565b60a360009054906101000a900473ffffffffffffffffffffffffffffffffffffffff1673ffffffffffffffffffffffffffffffffffffffff163373ffffffffffffffffffffffffffffffffffffffff161415156130d2576040517f08c379a00000000000000000000000000000000000000000000000000000000081526004018080602001828103825260118152602001807f5065726d697373696f6e2044656e69656400000000000000000000000000000081525060200191505060405180910390fd5b60a360009054906101000a900473ffffffffffffffffffffffffffffffffffffffff16609f60006101000a81548173ffffffffffffffffffffffffffffffffffffffff021916908373ffffffffffffffffffffffffffffffffffffffff160217905550600060a360006101000a81548173ffffffffffffffffffffffffffffffffffffffff021916908373ffffffffffffffffffffffffffffffffffffffff160217905550565b8060a760003373ffffffffffffffffffffffffffffffffffffffff1673ffffffffffffffffffffffffffffffffffffffff168152602001908152602001600020600201819055507f936ec7e4d9755c4568dc8ffea642b0aad6180d863841801e138246caa43467d13382604051808373ffffffffffffffffffffffffffffffffffffffff1673ffffffffffffffffffffffffffffffffffffffff1681526020018281526020019250505060405180910390a150565b60a160009054906101000a900473ffffffffffffffffffffffffffffffffffffffff1673ffffffffffffffffffffffffffffffffffffffff163373ffffffffffffffffffffffffffffffffffffffff161415156132f3576040517f08c379a000000000000000000000000000000000000000000000000000000000815260040180806020018281038252600e8152602001807f496e76616c69642073656e64657200000000000000000000000000000000000081525060200191505060405180910390fd5b8060a560006101000a81548173ffffffffffffffffffffffffffffffffffffffff021916908373ffffffffffffffffffffffffffffffffffffffff16021790555050565b60008061334788888888886146ee565b9050600061335482614e4f565b90506133608185614ea7565b925050509695505050505050565b606060348054600181600116156101000203166002900480601f0160208091040260200160405190810160405280929190818152602001828054600181600116156101000203166002900480156134065780601f106133db57610100808354040283529160200191613406565b820191906000526020600020905b8154815290600101906020018083116133e957829003601f168201915b5050505050905090565b7fffffffffffffffffffffffffffffffffffffffffffffffffffffffffffffffff60a760003373ffffffffffffffffffffffffffffffffffffffff1673ffffffffffffffffffffffffffffffffffffffff168152602001908152602001600020600201819055507f56f6ffd37b82c1cf8125c880b6a1ec6495a771e55c3771efaa08437285f4a5d033604051808273ffffffffffffffffffffffffffffffffffffffff1673ffffffffffffffffffffffffffffffffffffffff16815260200191505060405180910390a1565b338380606860008473ffffffffffffffffffffffffffffffffffffffff1673ffffffffffffffffffffffffffffffffffffffff1681526020019081526020016000205410151515613595576040517f08c379a000000000000000000000000000000000000000000000000000000000815260040180806020018281038252601f8152602001807f43616c6c65722068617320696e73756666696369656e742062616c616e63650081525060200191505060405180910390fd5b42609d60008473ffffffffffffffffffffffffffffffffffffffff1673ffffffffffffffffffffffffffffffffffffffff16815260200190815260200160002054101515613671576040517f08c379a00000000000000000000000000000000000000000000000000000000081526004018080602001828103825260248152602001807f43616c6c65722773206163636f756e742069732063757272656e746c7920667281526020017f6f7a656e0000000000000000000000000000000000000000000000000000000081525060400191505060405180910390fd5b61367c338787614a27565b7f5bc97d73357ac0d035d4b9268a69240988a5776b8a4fcced3dbc223960123f4086866136a889612f24565b86604051808573ffffffffffffffffffffffffffffffffffffffff1673ffffffffffffffffffffffffffffffffffffffff16815260200184815260200183815260200182815260200194505050505060405180910390a1505050505050565b60008073ffffffffffffffffffffffffffffffffffffffff168373ffffffffffffffffffffffffffffffffffffffff161415151561374457600080fd5b6137d382606960003373ffffffffffffffffffffffffffffffffffffffff1673ffffffffffffffffffffffffffffffffffffffff16815260200190815260200160002060008673ffffffffffffffffffffffffffffffffffffffff1673ffffffffffffffffffffffffffffffffffffffff168152602001908152602001600020546149f490919063ffffffff16565b606960003373ffffffffffffffffffffffffffffffffffffffff1673ffffffffffffffffffffffffffffffffffffffff16815260200190815260200160002060008573ffffffffffffffffffffffffffffffffffffffff1673ffffffffffffffffffffffffffffffffffffffff168152602001908152602001600020819055508273ffffffffffffffffffffffffffffffffffffffff163373ffffffffffffffffffffffffffffffffffffffff167f8c5be1e5ebec7d5bd14f71427d1e84f3dd0314c0f7b2291e5b200ac8c7c3b925606960003373ffffffffffffffffffffffffffffffffffffffff1673ffffffffffffffffffffffffffffffffffffffff16815260200190815260200160002060008773ffffffffffffffffffffffffffffffffffffffff1673ffffffffffffffffffffffffffffffffffffffff168152602001908152602001600020546040518082815260200191505060405180910390a36001905092915050565b60a060009054906101000a900473ffffffffffffffffffffffffffffffffffffffff1673ffffffffffffffffffffffffffffffffffffffff163373ffffffffffffffffffffffffffffffffffffffff16141515613a03576040517f08c379a000000000000000000000000000000000000000000000000000000000815260040180806020018281038252600e8152602001807f496e76616c69642073656e64657200000000000000000000000000000000000081525060200191505060405180910390fd5b613a2f60a160009054906101000a900473ffffffffffffffffffffffffffffffffffffffff1682614f8b565b50565b60a060009054906101000a900473ffffffffffffffffffffffffffffffffffffffff1673ffffffffffffffffffffffffffffffffffffffff163373ffffffffffffffffffffffffffffffffffffffff16141515613af7576040517f08c379a000000000000000000000000000000000000000000000000000000000815260040180806020018281038252600e8152602001807f496e76616c69642073656e64657200000000000000000000000000000000000081525060200191505060405180910390fd5b613b2360a160009054906101000a900473ffffffffffffffffffffffffffffffffffffffff16826150e1565b50565b6000338280606860008473ffffffffffffffffffffffffffffffffffffffff1673ffffffffffffffffffffffffffffffffffffffff1681526020019081526020016000205410151515613be1576040517f08c379a000000000000000000000000000000000000000000000000000000000815260040180806020018281038252601f8152602001807f43616c6c65722068617320696e73756666696369656e742062616c616e63650081525060200191505060405180910390fd5b42609d60008473ffffffffffffffffffffffffffffffffffffffff1673ffffffffffffffffffffffffffffffffffffffff16815260200190815260200160002054101515613cbd576040517f08c379a00000000000000000000000000000000000000000000000000000000081526004018080602001828103825260248152602001807f43616c6c65722773206163636f756e742069732063757272656e746c7920667281526020017f6f7a656e0000000000000000000000000000000000000000000000000000000081525060400191505060405180910390fd5b613cc78585615237565b9250505092915050565b60a260009054906101000a900473ffffffffffffffffffffffffffffffffffffffff1673ffffffffffffffffffffffffffffffffffffffff163373ffffffffffffffffffffffffffffffffffffffff16141515613d96576040517f08c379a000000000000000000000000000000000000000000000000000000000815260040180806020018281038252600e8152602001807f496e76616c69642073656e64657200000000000000000000000000000000000081525060200191505060405180910390fd5b80609d60008473ffffffffffffffffffffffffffffffffffffffff1673ffffffffffffffffffffffffffffffffffffffff168152602001908152602001600020819055505050565b600060019054906101000a900460ff1680613dfd5750613dfc614a16565b5b80613e1457506000809054906101000a900460ff16155b1515613eae576040517f08c379a000000000000000000000000000000000000000000000000000000000815260040180806020018281038252602e8152602001807f436f6e747261637420696e7374616e63652068617320616c726561647920626581526020017f656e20696e697469616c697a656400000000000000000000000000000000000081525060400191505060405180910390fd5b60008060019054906101000a900460ff1690506001600060016101000a81548160ff02191690831515021790555060016000806101000a81548160ff021916908315150217905550613f6c6040805190810160405280600981526020017f5448453a20436f696e00000000000000000000000000000000000000000000008152506040805190810160405280600381526020017f54484500000000000000000000000000000000000000000000000000000000008152506006611694565b600073ffffffffffffffffffffffffffffffffffffffff16609f60009054906101000a900473ffffffffffffffffffffffffffffffffffffffff1673ffffffffffffffffffffffffffffffffffffffff161480156140185750600073ffffffffffffffffffffffffffffffffffffffff1660a060009054906101000a900473ffffffffffffffffffffffffffffffffffffffff1673ffffffffffffffffffffffffffffffffffffffff16145b15156140b2576040517f08c379a00000000000000000000000000000000000000000000000000000000081526004018080602001828103825260268152602001807f53797374656d20636f6d70726f6d697365642e2020467265657a65204576657281526020017f797468696e67000000000000000000000000000000000000000000000000000081525060400191505060405180910390fd5b81609f60006101000a81548173ffffffffffffffffffffffffffffffffffffffff021916908373ffffffffffffffffffffffffffffffffffffffff1602179055508160a060006101000a81548173ffffffffffffffffffffffffffffffffffffffff021916908373ffffffffffffffffffffffffffffffffffffffff1602179055508160a160006101000a81548173ffffffffffffffffffffffffffffffffffffffff021916908373ffffffffffffffffffffffffffffffffffffffff1602179055508160a260006101000a81548173ffffffffffffffffffffffffffffffffffffffff021916908373ffffffffffffffffffffffffffffffffffffffff16021790555080600060016101000a81548160ff0219169083151502179055505050565b60a460009054906101000a900473ffffffffffffffffffffffffffffffffffffffff1673ffffffffffffffffffffffffffffffffffffffff163373ffffffffffffffffffffffffffffffffffffffff16141515614299576040517f08c379a00000000000000000000000000000000000000000000000000000000081526004018080602001828103825260118152602001807f5065726d697373696f6e2044656e69656400000000000000000000000000000081525060200191505060405180910390fd5b60a460009054906101000a900473ffffffffffffffffffffffffffffffffffffffff1660a060006101000a81548173ffffffffffffffffffffffffffffffffffffffff021916908373ffffffffffffffffffffffffffffffffffffffff160217905550600060a460006101000a81548173ffffffffffffffffffffffffffffffffffffffff021916908373ffffffffffffffffffffffffffffffffffffffff160217905550565b609f60009054906101000a900473ffffffffffffffffffffffffffffffffffffffff1673ffffffffffffffffffffffffffffffffffffffff163373ffffffffffffffffffffffffffffffffffffffff16141515614405576040517f08c379a000000000000000000000000000000000000000000000000000000000815260040180806020018281038252600e8152602001807f496e76616c69642073656e64657200000000000000000000000000000000000081525060200191505060405180910390fd5b8060a360006101000a81548173ffffffffffffffffffffffffffffffffffffffff021916908373ffffffffffffffffffffffffffffffffffffffff16021790555050565b600060a160009054906101000a900473ffffffffffffffffffffffffffffffffffffffff1673ffffffffffffffffffffffffffffffffffffffff163373ffffffffffffffffffffffffffffffffffffffff16141515614510576040517f08c379a000000000000000000000000000000000000000000000000000000000815260040180806020018281038252600e8152602001807f496e76616c69642073656e64657200000000000000000000000000000000000081525060200191505060405180910390fd5b60008390508073ffffffffffffffffffffffffffffffffffffffff1663a9059cbb60a160009054906101000a900473ffffffffffffffffffffffffffffffffffffffff16856040518363ffffffff167c0100000000000000000000000000000000000000000000000000000000028152600401808373ffffffffffffffffffffffffffffffffffffffff1673ffffffffffffffffffffffffffffffffffffffff16815260200182815260200192505050602060405180830381600087803b1580156145da57600080fd5b505af11580156145ee573d6000803e3d6000fd5b505050506040513d602081101561460457600080fd5b810190808051906020019092919050505091505092915050565b6000606960008473ffffffffffffffffffffffffffffffffffffffff1673ffffffffffffffffffffffffffffffffffffffff16815260200190815260200160002060008373ffffffffffffffffffffffffffffffffffffffff1673ffffffffffffffffffffffffffffffffffffffff16815260200190815260200160002054905092915050565b6000609d60008373ffffffffffffffffffffffffffffffffffffffff1673ffffffffffffffffffffffffffffffffffffffff168152602001908152602001600020549050919050565b600060608686868686604051602001808673ffffffffffffffffffffffffffffffffffffffff1673ffffffffffffffffffffffffffffffffffffffff166c010000000000000000000000000281526014018573ffffffffffffffffffffffffffffffffffffffff1673ffffffffffffffffffffffffffffffffffffffff166c01000000000000000000000000028152601401848152602001838152602001828152602001955050505050506040516020818303038152906040529050808051906020012091505095945050505050565b60a060009054906101000a900473ffffffffffffffffffffffffffffffffffffffff1673ffffffffffffffffffffffffffffffffffffffff163373ffffffffffffffffffffffffffffffffffffffff16141515614883576040517f08c379a000000000000000000000000000000000000000000000000000000000815260040180806020018281038252600e8152602001807f496e76616c69642073656e64657200000000000000000000000000000000000081525060200191505060405180910390fd5b8060a460006101000a81548173ffffffffffffffffffffffffffffffffffffffff021916908373ffffffffffffffffffffffffffffffffffffffff16021790555050565b60008073ffffffffffffffffffffffffffffffffffffffff168373ffffffffffffffffffffffffffffffffffffffff161415151561490457600080fd5b81606960003373ffffffffffffffffffffffffffffffffffffffff1673ffffffffffffffffffffffffffffffffffffffff16815260200190815260200160002060008573ffffffffffffffffffffffffffffffffffffffff1673ffffffffffffffffffffffffffffffffffffffff168152602001908152602001600020819055508273ffffffffffffffffffffffffffffffffffffffff163373ffffffffffffffffffffffffffffffffffffffff167f8c5be1e5ebec7d5bd14f71427d1e84f3dd0314c0f7b2291e5b200ac8c7c3b925846040518082815260200191505060405180910390a36001905092915050565b6000828211151515614a0557600080fd5b600082840390508091505092915050565b600080303b90506000811491505090565b600073ffffffffffffffffffffffffffffffffffffffff168273ffffffffffffffffffffffffffffffffffffffff1614151515614a6357600080fd5b614ab581606860008673ffffffffffffffffffffffffffffffffffffffff1673ffffffffffffffffffffffffffffffffffffffff168152602001908152602001600020546149f490919063ffffffff16565b606860008573ffffffffffffffffffffffffffffffffffffffff1673ffffffffffffffffffffffffffffffffffffffff16815260200190815260200160002081905550614b4a81606860008573ffffffffffffffffffffffffffffffffffffffff1673ffffffffffffffffffffffffffffffffffffffff16815260200190815260200160002054614bf790919063ffffffff16565b606860008473ffffffffffffffffffffffffffffffffffffffff1673ffffffffffffffffffffffffffffffffffffffff168152602001908152602001600020819055508173ffffffffffffffffffffffffffffffffffffffff168373ffffffffffffffffffffffffffffffffffffffff167fddf252ad1be2c89b69c2b068fc378daa952ba7f163c4a11628f55a4df523b3ef836040518082815260200191505060405180910390a3505050565b6000808284019050838110151515614c0e57600080fd5b8091505092915050565b60008073ffffffffffffffffffffffffffffffffffffffff168373ffffffffffffffffffffffffffffffffffffffff1614151515614c5557600080fd5b614ce482606960003373ffffffffffffffffffffffffffffffffffffffff1673ffffffffffffffffffffffffffffffffffffffff16815260200190815260200160002060008673ffffffffffffffffffffffffffffffffffffffff1673ffffffffffffffffffffffffffffffffffffffff16815260200190815260200160002054614bf790919063ffffffff16565b606960003373ffffffffffffffffffffffffffffffffffffffff1673ffffffffffffffffffffffffffffffffffffffff16815260200190815260200160002060008573ffffffffffffffffffffffffffffffffffffffff1673ffffffffffffffffffffffffffffffffffffffff168152602001908152602001600020819055508273ffffffffffffffffffffffffffffffffffffffff163373ffffffffffffffffffffffffffffffffffffffff167f8c5be1e5ebec7d5bd14f71427d1e84f3dd0314c0f7b2291e5b200ac8c7c3b925606960003373ffffffffffffffffffffffffffffffffffffffff1673ffffffffffffffffffffffffffffffffffffffff16815260200190815260200160002060008773ffffffffffffffffffffffffffffffffffffffff1673ffffffffffffffffffffffffffffffffffffffff168152602001908152602001600020546040518082815260200191505060405180910390a36001905092915050565b60008160405160200180807f19457468657265756d205369676e6564204d6573736167653a0a333200000000815250601c01828152602001915050604051602081830303815290604052805190602001209050919050565b60008060008060418551141515614ec45760009350505050614f85565b6020850151925060408501519150606085015160001a9050601b8160ff161015614eef57601b810190505b601b8160ff1614158015614f075750601c8160ff1614155b15614f185760009350505050614f85565b60018682858560405160008152602001604052604051808581526020018460ff1660ff1681526020018381526020018281526020019450505050506020604051602081039080840390855afa158015614f75573d6000803e3d6000fd5b5050506020604051035193505050505b92915050565b600073ffffffffffffffffffffffffffffffffffffffff168273ffffffffffffffffffffffffffffffffffffffff1614151515614fc757600080fd5b614fdc81606a54614bf790919063ffffffff16565b606a8190555061503481606860008573ffffffffffffffffffffffffffffffffffffffff1673ffffffffffffffffffffffffffffffffffffffff16815260200190815260200160002054614bf790919063ffffffff16565b606860008473ffffffffffffffffffffffffffffffffffffffff1673ffffffffffffffffffffffffffffffffffffffff168152602001908152602001600020819055508173ffffffffffffffffffffffffffffffffffffffff16600073ffffffffffffffffffffffffffffffffffffffff167fddf252ad1be2c89b69c2b068fc378daa952ba7f163c4a11628f55a4df523b3ef836040518082815260200191505060405180910390a35050565b600073ffffffffffffffffffffffffffffffffffffffff168273ffffffffffffffffffffffffffffffffffffffff161415151561511d57600080fd5b61513281606a546149f490919063ffffffff16565b606a8190555061518a81606860008573ffffffffffffffffffffffffffffffffffffffff1673ffffffffffffffffffffffffffffffffffffffff168152602001908152602001600020546149f490919063ffffffff16565b606860008473ffffffffffffffffffffffffffffffffffffffff1673ffffffffffffffffffffffffffffffffffffffff16815260200190815260200160002081905550600073ffffffffffffffffffffffffffffffffffffffff168273ffffffffffffffffffffffffffffffffffffffff167fddf252ad1be2c89b69c2b068fc378daa952ba7f163c4a11628f55a4df523b3ef836040518082815260200191505060405180910390a35050565b6000615244338484614a27565b6001905092915050565b828054600181600116156101000203166002900490600052602060002090601f016020900481019282601f1061528f57805160ff19168380011785556152bd565b828001600101855582156152bd579182015b828111156152bc5782518255916020019190600101906152a1565b5b5090506152ca91906152ce565b5090565b6152f091905b808211156152ec5760008160009055506001016152d4565b5090565b9056fea165627a7a72305820fedebe02fa689ba3ef11d16627f03c6a5f93b4fd8eb69e80dfc50a4ae5f2eba30029",
  "source": "pragma solidity ^0.5.0;\n\nimport \"./ERC20Local.sol\";\nimport \"./LibCertTransfer.sol\";\n\nimport \"openzeppelin-eth/contracts/token/ERC20/ERC20Detailed.sol\";\nimport \"zos-lib/contracts/Initializable.sol\";\n\nimport \"openzeppelin-eth/contracts/token/ERC20/IERC20.sol\";\nimport \"openzeppelin-eth/contracts/cryptography/ECDSA.sol\";\n\n\n// ----------------------------------------------------------------------------\n// SpyCoin - A crypto-currency pegged to the SPX (SPY actually)\n//\n// Symbol      : SPY\n// Name        : SpyCoin - A cryptocurrency that tracks the S&P500\n// Decimals    : 6\n//\n// Enjoy.\n//\n// ----------------------------------------------------------------------------\n\n// ----------------------------------------------------------------------------\n// ERC20 Token, with the addition of symbol, name and decimals \n//\n// NOTE: 100 SpyCoins is equivalent to 1 share of SPY,\n// or *at time of writing* roughly $2.70 USD\n// and with 6 decimal places 100,000,000 tokens is 1 share,\n// and 1 token has an approximate value of 0.00027c USD\n// ----------------------------------------------------------------------------\ncontract TheCoin is Initializable, ERC20Detailed, ERC20Local, LibCertTransfer {\n\n    // An account may be subject to a timeout, during which\n    // period it is forbidden from transferring its value\n    mapping(address => uint) freezeUntil;\n\n    // A stored list of timestamps that are used to uniquely\n    // specify transactions running through paidTransaction.\n    // Each tx comes with a timestamp that must be higher than\n    // the last tx timestamp, and (more or less) be in the \n    // same time as the block being mined.  This ensures\n    // tx authentications are unique, and expire \n    // relatively shortly after issue\n    mapping(address => uint) lastTxTimestamp;\n\n    // The following addresses have different roles\n\n    // TapCapManager is responsible for periodically\n    // processing the externally managed TapCap feature\n    address role_TapCapManager;\n    // The Minter is permitted to mint/melt coins.\n    // All coins minted/melted by the minter are\n    // from/to TheReserves address\n    address role_Minter;\n    // THE Coin reserve address.  This is the address\n    // directly managed by the THE Coin Inc.  Users\n    // interact with this address when purchase/redeem coins\n    address role_TheCoin;\n    // The Police have very limited powers, they may\n    // freeze accounts but nothing else\n    address role_Police;\n\n    // Enforcing a set/accept 2 step process for setting roles\n    // creates a strong guarantee that we can't f* up and set\n    // the roles to an invalid address\n    address new_TapCapManager;\n    address new_Minter;\n    address new_TheCoin;\n    address new_Police;\n\n    // Two special-case events include extra information (balance & timestamp)\n    // for tracking & tax record reasons\n    event Purchase(address purchaser, uint amount, uint balance, uint timestamp);\n    event Redeem(address purchaser, uint amount, uint balance, uint timestamp);\n\n    // ------------------------------------------------------------------------\n    // Events\n    // ------------------------------------------------------------------------\n\n    // ------------------------------------------------------------------------\n    // Constructor\n    // ------------------------------------------------------------------------\n    function initialize(address _sender) public\n        initializer() \n    {\n        ERC20Detailed.initialize(\"THE: Coin\", \"THE\", 6);\n        \n        // Lets just double-check this contract has not\n        // yet been initialized.\n        require(role_TapCapManager == address(0) && role_Minter == address(0), \"System compromised.  Freeze Everything\");\n\n        // We initialize all roles to owner.\n        // It is expected that Owner will distribute\n        // these roles to others\n        role_TapCapManager = _sender;\n        role_Minter = _sender;\n        role_TheCoin = _sender;\n        role_Police = _sender;\n    }\n\n    function getRoles() public view returns(address,address,address,address)\n    {\n        return (role_TapCapManager, role_Minter, role_TheCoin, role_Police);\n    }\n\n    // ------------------------------------------------------------------------\n    // Total supply management\n    // ------------------------------------------------------------------------\n\n    // The owner will periodically add new coins to match\n    // shares purchased of SPY\n    function mintCoins(uint amount) public\n        onlyMinter\n    {\n        _mint(role_TheCoin, amount);\n    }\n\n    // Remove coins\n    function meltCoins(uint amount) public\n        onlyMinter\n    {\n        _burn(role_TheCoin, amount);\n    }\n\n    // Coins currently owned by clients (not TheCoin)\n    function coinsCirculating() public view returns(uint)\n    {\n        return totalSupply().sub(balanceOf(role_TheCoin));\n    }\n\n    // Coins available for sale to the public \n    function reservedCoins() public view returns (uint balance) \n    {\n        return balanceOf(role_TheCoin);\n    }\n\n    // ------------------------------------------------------------------------\n    // Override standard functions to limit by account freezing\n    // ------------------------------------------------------------------------\n    function transfer(address to, uint256 value) public \n    isTransferable(msg.sender, value) \n    returns (bool) \n    {\n        return super.transfer(to, value);\n    }\n    function approve(address spender, uint256 value) public \n    isTransferable(msg.sender, value) \n    returns (bool) \n    {\n        return super.approve(spender, value);\n    }\n    function increaseAllowance(address spender, uint256 addedValue) public \n    isTransferable(msg.sender, addedValue) \n    returns (bool) \n    {\n        return super.increaseAllowance(spender, addedValue);\n    }\n\n    // ------------------------------------------------------------------------\n    // Additional paid-transfer functions allows a client to sign a request\n    // and for the request to be paid by someone else (likely us)\n    // ------------------------------------------------------------------------\n\n    function certifiedTransfer(address from, address to, uint256 value, uint256 fee, uint256 timestamp, bytes memory signature)\n    public \n    timestampIncreases(from, timestamp) \n    isTransferable(from, value + fee)\n    returns (bool)\n    {\n        address signer = recoverSigner(from, to, value, fee, timestamp, signature);\n        require(signer == from, \"Invalid signature for address\");\n        _transfer(from, to, value);\n        _transfer(from, msg.sender, fee);\n\n        lastTxTimestamp[from] = timestamp;\n    }\n\n    // ------------------------------------------------------------------------\n    // Client interactions with TheCoin\n    // ------------------------------------------------------------------------\n\n    // Users purchase coin from brokers.  This function is used to declare\n    // a transfer with a precise timestamp to ensure we can reconstruct the fx price\n    // of this transaction later\n    function coinPurchase(address purchaser, uint amount, uint timeout, uint timestamp) public\n    isTransferable(msg.sender, amount)\n    {\n        _transfer(msg.sender, purchaser, amount);\n        //freezeUntil[purchaser] = timeout;\n        emit Purchase(purchaser, amount, balanceOf(purchaser), timestamp);\n    }\n\n    // A user returns their coins to us (this will trigger disbursement externally)\n    // We record the precise timestamp to ensure we can reconstruct the price\n    // of this transaction later\n    function coinRedeem(uint amount, address redeemer, uint timestamp) public\n    isTransferable(msg.sender, amount)\n    {\n        // first, we recover the coins back to our own account\n        _transfer(msg.sender, redeemer, amount);\n        emit Redeem(msg.sender, amount, balanceOf(msg.sender), timestamp);\n    }\n\n    // ------------------------------------------------------------------------\n    // Sets a timeout, until which time the user will not\n    // account may not be transacted against.\n    // ------------------------------------------------------------------------\n    function setAccountFreezeTime(address account, uint time) public\n    onlyPolice\n    {\n        freezeUntil[account] = time;\n    }\n\n    // ------------------------------------------------------------------------\n    // Returns the timestamp of when this account will\n    // be unfrozen (able to be transacted against)\n    // ------------------------------------------------------------------------\n    function accountUnfreezeTime(address account) public \n    view\n    returns(uint) \n    {\n        return freezeUntil[account];\n    }\n\n\n    // ------------------------------------------------------------------------\n    // Implement escrow 'accounts' for holding amounts in escrow to be used \n    // in offline transactions\n    // ------------------------------------------------------------------------\n\n    // TODO: Spending _balances are amounts that\n    // are transfered from the _balances into\n    // escrow accounts.  These escrow accounts can then\n    // be spent against and tracked with local databases\n    // and are synced back to the main chain once per week (or so)\n    struct TapCapData\n    {\n        uint TransactionId; // Last processed TC transaction\n        uint TapCapEscrow; // How much is currently held in escrow?\n        uint TapCapRefill;  // How much should be refilled each week?\n    }\n\n    mapping(address => TapCapData) tapCaps;\n\n    event TapCapTopUp(address client, uint topup);\n    event TapCapSetWeekly(address client, uint weeklyLimit);\n    event TapCapClear(address client);\n    event TapCapUserUpdated(address client, int change, uint toppedUp);\n\n    // Event emitted when manually processing TC's\n    event TapCapProcessed(address client, address dest, uint amount);\n\n    // Topup the escrow.  NOTE: This will implicitly increase the amount registered by\n    // the spending manager.  Those records are separate and not directly\n    // linked to the amounts here.\n    function tapCapTopUp(uint topup) public\n    balanceAvailable(topup)\n    {\n        TapCapData storage userAccount = tapCaps[msg.sender];\n        _balances[msg.sender] = _balances[msg.sender].sub(topup);\n        userAccount.TapCapEscrow = userAccount.TapCapEscrow.add(topup);\n        emit TapCapTopUp(msg.sender, topup);\n    }\n\n    // Set's the weekly TapCap for the user.  Does not affect the current weeks TapCap\n    function tapCapSetRefill(uint amount) public\n    {\n        tapCaps[msg.sender].TapCapRefill = amount;\n        emit TapCapSetWeekly(msg.sender, amount);\n    }\n    \n    // Clear a users TapCap account.  A user may not directly\n    // clear an account, as the user may have a TC debit\n    // pending from the spending manager.\n    function tapCapClear() public\n    {\n        tapCaps[msg.sender].TapCapRefill = uint(-1);\n        emit TapCapClear(msg.sender);\n    }\n\n    // Get current values for spending...\n    function tapCapUser(address user) public view returns(uint TransactionId, uint TapCapEscrow, uint TapCapRefill)\n    {\n        return (tapCaps[user].TransactionId, tapCaps[user].TapCapEscrow, tapCaps[user].TapCapRefill);\n    }\n\n    //\n    // The big puppy.  Update all accounts with changes from spending\n    //\n    function processSpending(address[] memory users, int[] memory amountChange) public\n    onlyTapCapManager()\n    {\n        uint numChanges = users.length; \n        require(numChanges == amountChange.length, \"Each entry in users must be matched by an amountChange\");\n\n        int totalChange = 0;\n        int newTotal = 0;\n        for (uint i = 0; i < numChanges; i++) \n        {\n            address user = users[i];\n            int delta = amountChange[i];\n            TapCapData storage userAccount = tapCaps[user];\n            // Apply the delta to the users account\n            if (delta > 0) {\n                // Get abs(delta)\n                uint pdelta = uint(delta);\n                // Add directly to the users regular account.  We may not\n                // have permission to interact with the users TapCap\n                _balances[user].add(pdelta);\n\n                // Update total.  Can't use safe-math for this, as\n                // newTotal is a signed int to allow it to go negative.\n                newTotal = totalChange + delta;\n                require(newTotal > totalChange, \"int Overflow in processSpending: newTotal <= totalChange\");\n                totalChange = newTotal;\n            }\n            else {\n                // Get abs(delta)\n                uint ndelta = uint(-delta);\n                userAccount.TapCapEscrow = userAccount.TapCapEscrow.sub(ndelta);\n\n                // Topup the account by an appropriate amount\n                if (userAccount.TapCapEscrow < userAccount.TapCapRefill)\n                {\n                    uint topup = userAccount.TapCapRefill.sub(userAccount.TapCapEscrow);\n                    if (topup > _balances[user])\n                    {\n                        topup = _balances[user];\n                    }\n                    _balances[user] = _balances[user].sub(topup);\n                    userAccount.TapCapEscrow = userAccount.TapCapEscrow.add(topup);\n                    emit TapCapUserUpdated(user, delta, topup);\n                }\n\n                // Update total\n                newTotal = totalChange + delta;\n                require(newTotal <= totalChange, \"int Underflow in processSpending: newTotal > totalChange\");\n                totalChange = newTotal;\n            }\n        }\n\n        require(totalChange == 0, \"Cannot resolve spending, amounts do not balance to 0\");\n    }\n\n    // ------------------------------------------------------------------------\n    // Don't accept ETH\n    // ------------------------------------------------------------------------\n    function () external payable {\n        revert(\"This contract does not run on Ether\");\n    }\n\n    // ------------------------------------------------------------------------\n    // Allow updating our key users\n    // ------------------------------------------------------------------------\n    function setTapCapManager(address newManager) public \n    onlyTapCapManager\n    {\n        new_TapCapManager = newManager;\n    }\n    function acceptTapCapManager() public \n    {\n        require(msg.sender == new_TapCapManager, \"Permission Denied\");\n        role_TapCapManager = new_TapCapManager;\n        new_TapCapManager = address(0);\n    }\n\n    function setMinter(address newMinter) public \n    onlyMinter\n    {\n        new_Minter = newMinter;\n    }\n    function acceptMinter() public \n    {\n        require(msg.sender == new_Minter, \"Permission Denied\");\n        role_Minter = new_Minter;\n        new_Minter = address(0);\n    }\n\n    function setTheCoin(address newCoinManager) public \n    onlyTheCoin\n    {\n        new_TheCoin = newCoinManager;\n    }\n    function acceptTheCoin() public \n    {\n        require(msg.sender == new_TheCoin, \"Permission Denied\");\n        role_TheCoin = new_TheCoin;\n        new_TheCoin = address(0);\n    }\n\n    function setPolice(address newPolice) public \n    onlyPolice\n    {\n        new_Police = newPolice;\n    }\n    function acceptPolice() public \n    {\n        require(msg.sender == new_Police, \"Permission Denied\");\n        role_Police = new_Police;\n        new_Police = address(0);\n    }\n    // ------------------------------------------------------------------------\n    // Owner can transfer out any ERC20 tokens accidentally assigned to this contracts address\n    // ------------------------------------------------------------------------\n    function transferAnyERC20Token(address tokenAddress, uint256 tokens) public onlyTheCoin returns (bool success) {\n        IERC20 tokenContract = IERC20(tokenAddress);\n        return tokenContract.transfer(role_TheCoin, tokens);\n    }\n\n    ///////////////////////////////\n    modifier balanceAvailable(uint amount) {\n        require(_balances[msg.sender] >= amount, \"Caller has insufficient balance\");\n        _;\n    }\n\n    modifier isTransferable(address from, uint amount) {\n        require(_balances[from] >= amount, \"Caller has insufficient balance\");\n        require(freezeUntil[from] < now, \"Caller's account is currently frozen\");\n        _;\n    }\n\n    modifier onlyTapCapManager()\n    {\n        require(msg.sender == role_TapCapManager, \"Invalid sender\");\n        _;\n    }\n\n    modifier onlyMinter()\n    {\n        require(msg.sender == role_Minter, \"Invalid sender\");\n        _;\n    }\n\n    modifier onlyTheCoin()\n    {\n        require(msg.sender == role_TheCoin, \"Invalid sender\");\n        _;\n    }\n\n    modifier onlyPolice()\n    {\n        require(msg.sender == role_Police, \"Invalid sender\");\n        _;\n    }\n\n    modifier timestampIncreases(address from, uint256 timestamp) \n    {\n        require(timestamp > lastTxTimestamp[from], \"Provided timestamp is lower than recorded timestamp\");\n        _;\n    }\n}",
  "sourcePath": "C:/src/TheCoin/the-contract/contracts/TheCoin.sol",
  "compiler": {
    "name": "solc",
    "version": "0.5.0+commit.1d4f565a.Emscripten.clang"
  },
  "schemaVersion": "3.0.6",
  "updatedAt": "2019-04-25T14:37:59.852Z",
  "devdoc": {
    "methods": {
      "allowance(address,address)": {
        "details": "Function to check the amount of tokens that an owner allowed to a spender.",
        "params": {
          "owner": "address The address which owns the funds.",
          "spender": "address The address which will spend the funds."
        },
        "return": "A uint256 specifying the amount of tokens still available for the spender."
      },
      "balanceOf(address)": {
        "details": "Gets the balance of the specified address.",
        "params": {
          "owner": "The address to query the balance of."
        },
        "return": "An uint256 representing the amount owned by the passed address."
      },
      "decimals()": {
        "return": "the number of decimals of the token."
      },
      "decreaseAllowance(address,uint256)": {
        "details": "Decrease the amount of tokens that an owner allowed to a spender. approve should be called when allowed_[_spender] == 0. To decrement allowed value is better to use this function to avoid 2 calls (and wait until the first transaction is mined) From MonolithDAO Token.sol Emits an Approval event.",
        "params": {
          "spender": "The address which will spend the funds.",
          "subtractedValue": "The amount of tokens to decrease the allowance by."
        }
      },
      "name()": {
        "return": "the name of the token."
      },
      "symbol()": {
        "return": "the symbol of the token."
      },
      "totalSupply()": {
        "details": "Total number of tokens in existence"
      },
      "transferFrom(address,address,uint256)": {
        "details": "Transfer tokens from one address to another. Note that while this function emits an Approval event, this is not required as per the specification, and other compliant implementations may not emit the event.",
        "params": {
          "from": "address The address which you want to send tokens from",
          "to": "address The address which you want to transfer to",
          "value": "uint256 the amount of tokens to be transferred"
        }
      }
    }
  },
  "userdoc": {
    "methods": {}
  }
}