{
  "contractName": "TheCoin",
  "abi": [
    {
      "constant": true,
      "inputs": [],
      "name": "name",
      "outputs": [
        {
          "name": "",
          "type": "string"
        }
      ],
      "payable": false,
      "stateMutability": "view",
      "type": "function"
    },
    {
      "constant": true,
      "inputs": [],
      "name": "totalSupply",
      "outputs": [
        {
          "name": "",
          "type": "uint256"
        }
      ],
      "payable": false,
      "stateMutability": "view",
      "type": "function"
    },
    {
      "constant": false,
      "inputs": [
        {
          "name": "from",
          "type": "address"
        },
        {
          "name": "to",
          "type": "address"
        },
        {
          "name": "value",
          "type": "uint256"
        }
      ],
      "name": "transferFrom",
      "outputs": [
        {
          "name": "",
          "type": "bool"
        }
      ],
      "payable": false,
      "stateMutability": "nonpayable",
      "type": "function"
    },
    {
      "constant": true,
      "inputs": [
        {
          "name": "_addr",
          "type": "address"
        }
      ],
      "name": "address2str",
      "outputs": [
        {
          "name": "",
          "type": "string"
        }
      ],
      "payable": false,
      "stateMutability": "pure",
      "type": "function"
    },
    {
      "constant": true,
      "inputs": [],
      "name": "decimals",
      "outputs": [
        {
          "name": "",
          "type": "uint8"
        }
      ],
      "payable": false,
      "stateMutability": "view",
      "type": "function"
    },
    {
      "constant": true,
      "inputs": [
        {
          "name": "owner",
          "type": "address"
        }
      ],
      "name": "balanceOf",
      "outputs": [
        {
          "name": "",
          "type": "uint256"
        }
      ],
      "payable": false,
      "stateMutability": "view",
      "type": "function"
    },
    {
      "constant": true,
      "inputs": [],
      "name": "symbol",
      "outputs": [
        {
          "name": "",
          "type": "string"
        }
      ],
      "payable": false,
      "stateMutability": "view",
      "type": "function"
    },
    {
      "constant": false,
      "inputs": [
        {
          "name": "spender",
          "type": "address"
        },
        {
          "name": "subtractedValue",
          "type": "uint256"
        }
      ],
      "name": "decreaseAllowance",
      "outputs": [
        {
          "name": "",
          "type": "bool"
        }
      ],
      "payable": false,
      "stateMutability": "nonpayable",
      "type": "function"
    },
    {
      "constant": true,
      "inputs": [
        {
          "name": "from",
          "type": "address"
        },
        {
          "name": "to",
          "type": "address"
        },
        {
          "name": "value",
          "type": "uint256"
        },
        {
          "name": "fee",
          "type": "uint32"
        },
        {
          "name": "timestamp",
          "type": "uint256"
        }
      ],
      "name": "buildMessage",
      "outputs": [
        {
          "name": "",
          "type": "string"
        }
      ],
      "payable": false,
      "stateMutability": "pure",
      "type": "function"
    },
    {
      "constant": true,
      "inputs": [
        {
          "name": "owner",
          "type": "address"
        },
        {
          "name": "spender",
          "type": "address"
        }
      ],
      "name": "allowance",
      "outputs": [
        {
          "name": "",
          "type": "uint256"
        }
      ],
      "payable": false,
      "stateMutability": "view",
      "type": "function"
    },
    {
      "constant": true,
      "inputs": [
        {
          "name": "i",
          "type": "uint256"
        }
      ],
      "name": "uint2str",
      "outputs": [
        {
          "name": "",
          "type": "string"
        }
      ],
      "payable": false,
      "stateMutability": "pure",
      "type": "function"
    },
    {
      "payable": true,
      "stateMutability": "payable",
      "type": "fallback"
    },
    {
      "anonymous": false,
      "inputs": [
        {
          "indexed": false,
          "name": "client",
          "type": "address"
        },
        {
          "indexed": false,
          "name": "topup",
          "type": "uint256"
        }
      ],
      "name": "TapCapTopUp",
      "type": "event"
    },
    {
      "anonymous": false,
      "inputs": [
        {
          "indexed": false,
          "name": "client",
          "type": "address"
        },
        {
          "indexed": false,
          "name": "weeklyLimit",
          "type": "uint256"
        }
      ],
      "name": "TapCapSetWeekly",
      "type": "event"
    },
    {
      "anonymous": false,
      "inputs": [
        {
          "indexed": false,
          "name": "client",
          "type": "address"
        }
      ],
      "name": "TapCapClear",
      "type": "event"
    },
    {
      "anonymous": false,
      "inputs": [
        {
          "indexed": false,
          "name": "client",
          "type": "address"
        },
        {
          "indexed": false,
          "name": "change",
          "type": "int256"
        },
        {
          "indexed": false,
          "name": "toppedUp",
          "type": "uint256"
        }
      ],
      "name": "TapCapUserUpdated",
      "type": "event"
    },
    {
      "anonymous": false,
      "inputs": [
        {
          "indexed": false,
          "name": "client",
          "type": "address"
        },
        {
          "indexed": false,
          "name": "dest",
          "type": "address"
        },
        {
          "indexed": false,
          "name": "amount",
          "type": "uint256"
        }
      ],
      "name": "TapCapProcessed",
      "type": "event"
    },
    {
      "anonymous": false,
      "inputs": [
        {
          "indexed": true,
          "name": "from",
          "type": "address"
        },
        {
          "indexed": true,
          "name": "to",
          "type": "address"
        },
        {
          "indexed": false,
          "name": "value",
          "type": "uint256"
        }
      ],
      "name": "Transfer",
      "type": "event"
    },
    {
      "anonymous": false,
      "inputs": [
        {
          "indexed": true,
          "name": "owner",
          "type": "address"
        },
        {
          "indexed": true,
          "name": "spender",
          "type": "address"
        },
        {
          "indexed": false,
          "name": "value",
          "type": "uint256"
        }
      ],
      "name": "Approval",
      "type": "event"
    },
    {
      "constant": false,
      "inputs": [
        {
          "name": "_sender",
          "type": "address"
        }
      ],
      "name": "initialize",
      "outputs": [],
      "payable": false,
      "stateMutability": "nonpayable",
      "type": "function"
    },
    {
      "constant": false,
      "inputs": [
        {
          "name": "name",
          "type": "string"
        },
        {
          "name": "symbol",
          "type": "string"
        },
        {
          "name": "decimals",
          "type": "uint8"
        }
      ],
      "name": "initialize",
      "outputs": [],
      "payable": false,
      "stateMutability": "nonpayable",
      "type": "function"
    },
    {
      "constant": true,
      "inputs": [],
      "name": "getRoles",
      "outputs": [
        {
          "name": "",
          "type": "address"
        },
        {
          "name": "",
          "type": "address"
        },
        {
          "name": "",
          "type": "address"
        },
        {
          "name": "",
          "type": "address"
        }
      ],
      "payable": false,
      "stateMutability": "view",
      "type": "function"
    },
    {
      "constant": false,
      "inputs": [
        {
          "name": "amount",
          "type": "uint256"
        }
      ],
      "name": "mintCoins",
      "outputs": [],
      "payable": false,
      "stateMutability": "nonpayable",
      "type": "function"
    },
    {
      "constant": false,
      "inputs": [
        {
          "name": "amount",
          "type": "uint256"
        }
      ],
      "name": "meltCoins",
      "outputs": [],
      "payable": false,
      "stateMutability": "nonpayable",
      "type": "function"
    },
    {
      "constant": true,
      "inputs": [],
      "name": "coinsCirculating",
      "outputs": [
        {
          "name": "",
          "type": "uint256"
        }
      ],
      "payable": false,
      "stateMutability": "view",
      "type": "function"
    },
    {
      "constant": true,
      "inputs": [],
      "name": "reservedCoins",
      "outputs": [
        {
          "name": "balance",
          "type": "uint256"
        }
      ],
      "payable": false,
      "stateMutability": "view",
      "type": "function"
    },
    {
      "constant": false,
      "inputs": [
        {
          "name": "to",
          "type": "address"
        },
        {
          "name": "value",
          "type": "uint256"
        }
      ],
      "name": "transfer",
      "outputs": [
        {
          "name": "",
          "type": "bool"
        }
      ],
      "payable": false,
      "stateMutability": "nonpayable",
      "type": "function"
    },
    {
      "constant": false,
      "inputs": [
        {
          "name": "spender",
          "type": "address"
        },
        {
          "name": "value",
          "type": "uint256"
        }
      ],
      "name": "approve",
      "outputs": [
        {
          "name": "",
          "type": "bool"
        }
      ],
      "payable": false,
      "stateMutability": "nonpayable",
      "type": "function"
    },
    {
      "constant": false,
      "inputs": [
        {
          "name": "spender",
          "type": "address"
        },
        {
          "name": "addedValue",
          "type": "uint256"
        }
      ],
      "name": "increaseAllowance",
      "outputs": [
        {
          "name": "",
          "type": "bool"
        }
      ],
      "payable": false,
      "stateMutability": "nonpayable",
      "type": "function"
    },
    {
      "constant": false,
      "inputs": [
        {
          "name": "from",
          "type": "address"
        },
        {
          "name": "to",
          "type": "address"
        },
        {
          "name": "value",
          "type": "uint256"
        },
        {
          "name": "fee",
          "type": "uint32"
        },
        {
          "name": "timestamp",
          "type": "uint256"
        },
        {
          "name": "signature",
          "type": "bytes"
        }
      ],
      "name": "certifiedTransfer",
      "outputs": [
        {
          "name": "",
          "type": "bool"
        }
      ],
      "payable": false,
      "stateMutability": "nonpayable",
      "type": "function"
    },
    {
      "constant": false,
      "inputs": [
        {
          "name": "purchaser",
          "type": "address"
        },
        {
          "name": "amount",
          "type": "uint256"
        },
        {
          "name": "timeout",
          "type": "uint256"
        }
      ],
      "name": "coinPurchase",
      "outputs": [],
      "payable": false,
      "stateMutability": "nonpayable",
      "type": "function"
    },
    {
      "constant": false,
      "inputs": [
        {
          "name": "amount",
          "type": "uint256"
        }
      ],
      "name": "coinRedeem",
      "outputs": [],
      "payable": false,
      "stateMutability": "nonpayable",
      "type": "function"
    },
    {
      "constant": false,
      "inputs": [
        {
          "name": "account",
          "type": "address"
        },
        {
          "name": "time",
          "type": "uint256"
        }
      ],
      "name": "setAccountFreezeTime",
      "outputs": [],
      "payable": false,
      "stateMutability": "nonpayable",
      "type": "function"
    },
    {
      "constant": true,
      "inputs": [
        {
          "name": "account",
          "type": "address"
        }
      ],
      "name": "accountUnfreezeTime",
      "outputs": [
        {
          "name": "",
          "type": "uint256"
        }
      ],
      "payable": false,
      "stateMutability": "view",
      "type": "function"
    },
    {
      "constant": false,
      "inputs": [
        {
          "name": "topup",
          "type": "uint256"
        }
      ],
      "name": "tapCapTopUp",
      "outputs": [],
      "payable": false,
      "stateMutability": "nonpayable",
      "type": "function"
    },
    {
      "constant": false,
      "inputs": [
        {
          "name": "amount",
          "type": "uint256"
        }
      ],
      "name": "tapCapSetRefill",
      "outputs": [],
      "payable": false,
      "stateMutability": "nonpayable",
      "type": "function"
    },
    {
      "constant": false,
      "inputs": [],
      "name": "tapCapClear",
      "outputs": [],
      "payable": false,
      "stateMutability": "nonpayable",
      "type": "function"
    },
    {
      "constant": true,
      "inputs": [
        {
          "name": "user",
          "type": "address"
        }
      ],
      "name": "tapCapUser",
      "outputs": [
        {
          "name": "TransactionId",
          "type": "uint256"
        },
        {
          "name": "TapCapEscrow",
          "type": "uint256"
        },
        {
          "name": "TapCapRefill",
          "type": "uint256"
        }
      ],
      "payable": false,
      "stateMutability": "view",
      "type": "function"
    },
    {
      "constant": false,
      "inputs": [
        {
          "name": "users",
          "type": "address[]"
        },
        {
          "name": "amountChange",
          "type": "int256[]"
        }
      ],
      "name": "processSpending",
      "outputs": [],
      "payable": false,
      "stateMutability": "nonpayable",
      "type": "function"
    },
    {
      "constant": false,
      "inputs": [
        {
          "name": "newManager",
          "type": "address"
        }
      ],
      "name": "setTapCapManager",
      "outputs": [],
      "payable": false,
      "stateMutability": "nonpayable",
      "type": "function"
    },
    {
      "constant": false,
      "inputs": [],
      "name": "acceptTapCapManager",
      "outputs": [],
      "payable": false,
      "stateMutability": "nonpayable",
      "type": "function"
    },
    {
      "constant": false,
      "inputs": [
        {
          "name": "newMinter",
          "type": "address"
        }
      ],
      "name": "setMinter",
      "outputs": [],
      "payable": false,
      "stateMutability": "nonpayable",
      "type": "function"
    },
    {
      "constant": false,
      "inputs": [],
      "name": "acceptMinter",
      "outputs": [],
      "payable": false,
      "stateMutability": "nonpayable",
      "type": "function"
    },
    {
      "constant": false,
      "inputs": [
        {
          "name": "newCoinManager",
          "type": "address"
        }
      ],
      "name": "setTheCoin",
      "outputs": [],
      "payable": false,
      "stateMutability": "nonpayable",
      "type": "function"
    },
    {
      "constant": false,
      "inputs": [],
      "name": "acceptTheCoin",
      "outputs": [],
      "payable": false,
      "stateMutability": "nonpayable",
      "type": "function"
    },
    {
      "constant": false,
      "inputs": [
        {
          "name": "newPolice",
          "type": "address"
        }
      ],
      "name": "setPolice",
      "outputs": [],
      "payable": false,
      "stateMutability": "nonpayable",
      "type": "function"
    },
    {
      "constant": false,
      "inputs": [],
      "name": "acceptPolice",
      "outputs": [],
      "payable": false,
      "stateMutability": "nonpayable",
      "type": "function"
    },
    {
      "constant": false,
      "inputs": [
        {
          "name": "tokenAddress",
          "type": "address"
        },
        {
          "name": "tokens",
          "type": "uint256"
        }
      ],
      "name": "transferAnyERC20Token",
      "outputs": [
        {
          "name": "success",
          "type": "bool"
        }
      ],
      "payable": false,
      "stateMutability": "nonpayable",
      "type": "function"
    }
  ],
  "bytecode": "0x608060405234801561001057600080fd5b5061570780620000216000396000f3006080604052600436106101ee576000357c0100000000000000000000000000000000000000000000000000000000900463ffffffff16806306fdde0314610282578063095ea7b3146103125780630a18f5c9146103775780631624f6c6146103a257806318160ddd1461045e57806318fd6440146104895780631dcdb8e6146104b45780631f39f23c1461051957806323b872dd1461055c57806326d27337146105e15780632f9e1b171461069d578063313ce567146106ca57806334439847146106fb57806339509351146107125780635395c9d414610777578063573f733f1461078e5780636e24c37e1461087357806370a082311461091c578063710613981461097357806377598d9a14610a6357806378ad516414610a7a5780638a5c3d8414610aa7578063951cd2f114610aea57806395d89b4114610b415780639a975b0c14610bd1578063a457c2d714610be8578063a77b6efb14610c4d578063a793902b14610c7a578063a9059cbb14610ca7578063b33c884514610d0c578063bff3f9cf14610d59578063c4080f0c14610d86578063c4d66de814610e86578063cbd956c314610ec9578063d803ec1714610ee0578063dc39d06d14610f23578063dd62ed3e14610f88578063dfdf9f8214610fff578063f76f950e14611056578063fca3b5aa146110fc575b6040517f08c379a00000000000000000000000000000000000000000000000000000000081526004018080602001828103825260238152602001807f5468697320636f6e747261637420646f6573206e6f742072756e206f6e20457481526020017f686572000000000000000000000000000000000000000000000000000000000081525060400191505060405180910390fd5b34801561028e57600080fd5b5061029761113f565b6040518080602001828103825283818151815260200191508051906020019080838360005b838110156102d75780820151818401526020810190506102bc565b50505050905090810190601f1680156103045780820380516001836020036101000a031916815260200191505b509250505060405180910390f35b34801561031e57600080fd5b5061035d600480360381019080803573ffffffffffffffffffffffffffffffffffffffff169060200190929190803590602001909291905050506111e1565b604051808215151515815260200191505060405180910390f35b34801561038357600080fd5b5061038c61138c565b6040518082815260200191505060405180910390f35b3480156103ae57600080fd5b5061045c600480360381019080803590602001908201803590602001908080601f0160208091040260200160405190810160405280939291908181526020018383808284378201915050505050509192919290803590602001908201803590602001908080601f0160208091040260200160405190810160405280939291908181526020018383808284378201915050505050509192919290803560ff1690602001909291905050506113d7565b005b34801561046a57600080fd5b50610473611558565b6040518082815260200191505060405180910390f35b34801561049557600080fd5b5061049e611562565b6040518082815260200191505060405180910390f35b3480156104c057600080fd5b506104f5600480360381019080803573ffffffffffffffffffffffffffffffffffffffff169060200190929190505050611594565b60405180848152602001838152602001828152602001935050505060405180910390f35b34801561052557600080fd5b5061055a600480360381019080803573ffffffffffffffffffffffffffffffffffffffff16906020019092919050505061166f565b005b34801561056857600080fd5b506105c7600480360381019080803573ffffffffffffffffffffffffffffffffffffffff169060200190929190803573ffffffffffffffffffffffffffffffffffffffff16906020019092919080359060200190929190505050611778565b604051808215151515815260200191505060405180910390f35b3480156105ed57600080fd5b50610622600480360381019080803573ffffffffffffffffffffffffffffffffffffffff16906020019092919050505061192a565b6040518080602001828103825283818151815260200191508051906020019080838360005b83811015610662578082015181840152602081019050610647565b50505050905090810190601f16801561068f5780820380516001836020036101000a031916815260200191505b509250505060405180910390f35b3480156106a957600080fd5b506106c860048036038101908080359060200190929190505050611bf6565b005b3480156106d657600080fd5b506106df611e15565b604051808260ff1660ff16815260200191505060405180910390f35b34801561070757600080fd5b50610710611e2c565b005b34801561071e57600080fd5b5061075d600480360381019080803573ffffffffffffffffffffffffffffffffffffffff16906020019092919080359060200190929190505050611f98565b604051808215151515815260200191505060405180910390f35b34801561078357600080fd5b5061078c612143565b005b34801561079a57600080fd5b50610859600480360381019080803573ffffffffffffffffffffffffffffffffffffffff169060200190929190803573ffffffffffffffffffffffffffffffffffffffff16906020019092919080359060200190929190803563ffffffff16906020019092919080359060200190929190803590602001908201803590602001908080601f01602080910402602001604051908101604052809392919081815260200183838082843782019150505050505091929192905050506122af565b604051808215151515815260200191505060405180910390f35b34801561087f57600080fd5b5061091a600480360381019080803590602001908201803590602001908080602002602001604051908101604052809392919081815260200183836020028082843782019150505050505091929192908035906020019082018035906020019080806020026020016040519081016040528093929190818152602001838360200280828437820191505050505050919291929050505061264f565b005b34801561092857600080fd5b5061095d600480360381019080803573ffffffffffffffffffffffffffffffffffffffff169060200190929190505050612cbc565b6040518082815260200191505060405180910390f35b34801561097f57600080fd5b50610988612d05565b604051808573ffffffffffffffffffffffffffffffffffffffff1673ffffffffffffffffffffffffffffffffffffffff1681526020018473ffffffffffffffffffffffffffffffffffffffff1673ffffffffffffffffffffffffffffffffffffffff1681526020018373ffffffffffffffffffffffffffffffffffffffff1673ffffffffffffffffffffffffffffffffffffffff1681526020018273ffffffffffffffffffffffffffffffffffffffff1673ffffffffffffffffffffffffffffffffffffffff16815260200194505050505060405180910390f35b348015610a6f57600080fd5b50610a78612da5565b005b348015610a8657600080fd5b50610aa560048036038101908080359060200190929190505050612f11565b005b348015610ab357600080fd5b50610ae8600480360381019080803573ffffffffffffffffffffffffffffffffffffffff169060200190929190505050612fc6565b005b348015610af657600080fd5b50610b3f600480360381019080803573ffffffffffffffffffffffffffffffffffffffff16906020019092919080359060200190929190803590602001909291905050506130cf565b005b348015610b4d57600080fd5b50610b566132c3565b6040518080602001828103825283818151815260200191508051906020019080838360005b83811015610b96578082015181840152602081019050610b7b565b50505050905090810190601f168015610bc35780820380516001836020036101000a031916815260200191505b509250505060405180910390f35b348015610bdd57600080fd5b50610be6613365565b005b348015610bf457600080fd5b50610c33600480360381019080803573ffffffffffffffffffffffffffffffffffffffff16906020019092919080359060200190929190505050613431565b604051808215151515815260200191505060405180910390f35b348015610c5957600080fd5b50610c7860048036038101908080359060200190929190505050613668565b005b348015610c8657600080fd5b50610ca56004803603810190808035906020019092919050505061375c565b005b348015610cb357600080fd5b50610cf2600480360381019080803573ffffffffffffffffffffffffffffffffffffffff16906020019092919080359060200190929190505050613850565b604051808215151515815260200191505060405180910390f35b348015610d1857600080fd5b50610d57600480360381019080803573ffffffffffffffffffffffffffffffffffffffff169060200190929190803590602001909291905050506139fb565b005b348015610d6557600080fd5b50610d8460048036038101908080359060200190929190505050613b08565b005b348015610d9257600080fd5b50610e0b600480360381019080803573ffffffffffffffffffffffffffffffffffffffff169060200190929190803573ffffffffffffffffffffffffffffffffffffffff16906020019092919080359060200190929190803563ffffffff16906020019092919080359060200190929190505050613ccf565b6040518080602001828103825283818151815260200191508051906020019080838360005b83811015610e4b578082015181840152602081019050610e30565b50505050905090810190601f168015610e785780820380516001836020036101000a031916815260200191505b509250505060405180910390f35b348015610e9257600080fd5b50610ec7600480360381019080803573ffffffffffffffffffffffffffffffffffffffff169060200190929190505050613f8c565b005b348015610ed557600080fd5b50610ede614356565b005b348015610eec57600080fd5b50610f21600480360381019080803573ffffffffffffffffffffffffffffffffffffffff1690602001909291905050506144c2565b005b348015610f2f57600080fd5b50610f6e600480360381019080803573ffffffffffffffffffffffffffffffffffffffff169060200190929190803590602001909291905050506145cb565b604051808215151515815260200191505060405180910390f35b348015610f9457600080fd5b50610fe9600480360381019080803573ffffffffffffffffffffffffffffffffffffffff169060200190929190803573ffffffffffffffffffffffffffffffffffffffff16906020019092919050505061479f565b6040518082815260200191505060405180910390f35b34801561100b57600080fd5b50611040600480360381019080803573ffffffffffffffffffffffffffffffffffffffff169060200190929190505050614826565b6040518082815260200191505060405180910390f35b34801561106257600080fd5b506110816004803603810190808035906020019092919050505061486f565b6040518080602001828103825283818151815260200191508051906020019080838360005b838110156110c15780820151818401526020810190506110a6565b50505050905090810190601f1680156110ee5780820380516001836020036101000a031916815260200191505b509250505060405180910390f35b34801561110857600080fd5b5061113d600480360381019080803573ffffffffffffffffffffffffffffffffffffffff1690602001909291905050506149c6565b005b606060338054600181600116156101000203166002900480601f0160208091040260200160405190810160405280929190818152602001828054600181600116156101000203166002900480156111d75780601f106111ac576101008083540402835291602001916111d7565b820191906000526020600020905b8154815290600101906020018083116111ba57829003601f168201915b5050505050905090565b6000338280606860008473ffffffffffffffffffffffffffffffffffffffff1673ffffffffffffffffffffffffffffffffffffffff168152602001908152602001600020541015151561129c576040517f08c379a000000000000000000000000000000000000000000000000000000000815260040180806020018281038252601f8152602001807f43616c6c65722068617320696e73756666696369656e742062616c616e63650081525060200191505060405180910390fd5b42609d60008473ffffffffffffffffffffffffffffffffffffffff1673ffffffffffffffffffffffffffffffffffffffff16815260200190815260200160002054101515611378576040517f08c379a00000000000000000000000000000000000000000000000000000000081526004018080602001828103825260248152602001807f43616c6c65722773206163636f756e742069732063757272656e746c7920667281526020017f6f7a656e0000000000000000000000000000000000000000000000000000000081525060400191505060405180910390fd5b6113828585614acf565b9250505092915050565b60006113d26113bc60a160009054906101000a900473ffffffffffffffffffffffffffffffffffffffff16612cbc565b6113c4611558565b614bfc90919063ffffffff16565b905090565b60008060019054906101000a900460ff16806113f757506113f6614c1d565b5b8061140e57506000809054906101000a900460ff16155b15156114a8576040517f08c379a000000000000000000000000000000000000000000000000000000000815260040180806020018281038252602e8152602001807f436f6e747261637420696e7374616e63652068617320616c726561647920626581526020017f656e20696e697469616c697a656400000000000000000000000000000000000081525060400191505060405180910390fd5b600060019054906101000a900460ff1690506001600060016101000a81548160ff02191690831515021790555060016000806101000a81548160ff0219169083151502179055508360339080519060200190611505929190615636565b50826034908051906020019061151c929190615636565b5081603560006101000a81548160ff021916908360ff16021790555080600060016101000a81548160ff02191690831515021790555050505050565b6000606a54905090565b600061158f60a160009054906101000a900473ffffffffffffffffffffffffffffffffffffffff16612cbc565b905090565b600080600060a760008573ffffffffffffffffffffffffffffffffffffffff1673ffffffffffffffffffffffffffffffffffffffff1681526020019081526020016000206000015460a760008673ffffffffffffffffffffffffffffffffffffffff1673ffffffffffffffffffffffffffffffffffffffff1681526020019081526020016000206001015460a760008773ffffffffffffffffffffffffffffffffffffffff1673ffffffffffffffffffffffffffffffffffffffff168152602001908152602001600020600201549250925092509193909250565b60a260009054906101000a900473ffffffffffffffffffffffffffffffffffffffff1673ffffffffffffffffffffffffffffffffffffffff163373ffffffffffffffffffffffffffffffffffffffff16141515611734576040517f08c379a000000000000000000000000000000000000000000000000000000000815260040180806020018281038252600e8152602001807f496e76616c69642073656e64657200000000000000000000000000000000000081525060200191505060405180910390fd5b8060a660006101000a81548173ffffffffffffffffffffffffffffffffffffffff021916908373ffffffffffffffffffffffffffffffffffffffff16021790555050565b6000606960008573ffffffffffffffffffffffffffffffffffffffff1673ffffffffffffffffffffffffffffffffffffffff16815260200190815260200160002060003373ffffffffffffffffffffffffffffffffffffffff1673ffffffffffffffffffffffffffffffffffffffff16815260200190815260200160002054821115151561180557600080fd5b61189482606960008773ffffffffffffffffffffffffffffffffffffffff1673ffffffffffffffffffffffffffffffffffffffff16815260200190815260200160002060003373ffffffffffffffffffffffffffffffffffffffff1673ffffffffffffffffffffffffffffffffffffffff16815260200190815260200160002054614bfc90919063ffffffff16565b606960008673ffffffffffffffffffffffffffffffffffffffff1673ffffffffffffffffffffffffffffffffffffffff16815260200190815260200160002060003373ffffffffffffffffffffffffffffffffffffffff1673ffffffffffffffffffffffffffffffffffffffff1681526020019081526020016000208190555061191f848484614c2e565b600190509392505050565b6060600060608060008060008773ffffffffffffffffffffffffffffffffffffffff1660010295506040805190810160405280601081526020017f3031323334353637383961626364656600000000000000000000000000000000815250945060286040519080825280601f01601f1916602001820160405280156119be5781602001602082028038833980820191505090505b50935060009250600c91505b6020821015611be85785826020811015156119e157fe5b1a7f0100000000000000000000000000000000000000000000000000000000000000029050846004827effffffffffffffffffffffffffffffffffffffffffffffffffffffffffffff19169060020a90047f01000000000000000000000000000000000000000000000000000000000000009004815181101515611a6157fe5b9060200101517f010000000000000000000000000000000000000000000000000000000000000090047f010000000000000000000000000000000000000000000000000000000000000002848480600101955060ff16815181101515611ac357fe5b9060200101907effffffffffffffffffffffffffffffffffffffffffffffffffffffffffffff1916908160001a90535084600f7f01000000000000000000000000000000000000000000000000000000000000000282167f01000000000000000000000000000000000000000000000000000000000000009004815181101515611b4957fe5b9060200101517f010000000000000000000000000000000000000000000000000000000000000090047f010000000000000000000000000000000000000000000000000000000000000002848480600101955060ff16815181101515611bab57fe5b9060200101907effffffffffffffffffffffffffffffffffffffffffffffffffffffffffffff1916908160001a90535081806001019250506119ca565b839650505050505050919050565b60008180606860003373ffffffffffffffffffffffffffffffffffffffff1673ffffffffffffffffffffffffffffffffffffffff1681526020019081526020016000205410151515611cb0576040517f08c379a000000000000000000000000000000000000000000000000000000000815260040180806020018281038252601f8152602001807f43616c6c65722068617320696e73756666696369656e742062616c616e63650081525060200191505060405180910390fd5b60a760003373ffffffffffffffffffffffffffffffffffffffff1673ffffffffffffffffffffffffffffffffffffffff1681526020019081526020016000209150611d4383606860003373ffffffffffffffffffffffffffffffffffffffff1673ffffffffffffffffffffffffffffffffffffffff16815260200190815260200160002054614bfc90919063ffffffff16565b606860003373ffffffffffffffffffffffffffffffffffffffff1673ffffffffffffffffffffffffffffffffffffffff16815260200190815260200160002081905550611d9d838360010154614e4c90919063ffffffff16565b82600101819055507f0164611a7fe547f708c0a708a8ac00ed2c0adbca62e7dee2f63512e60c30e9e63384604051808373ffffffffffffffffffffffffffffffffffffffff1673ffffffffffffffffffffffffffffffffffffffff1681526020018281526020019250505060405180910390a1505050565b6000603560009054906101000a900460ff16905090565b60a660009054906101000a900473ffffffffffffffffffffffffffffffffffffffff1673ffffffffffffffffffffffffffffffffffffffff163373ffffffffffffffffffffffffffffffffffffffff16141515611ef1576040517f08c379a00000000000000000000000000000000000000000000000000000000081526004018080602001828103825260118152602001807f5065726d697373696f6e2044656e69656400000000000000000000000000000081525060200191505060405180910390fd5b60a660009054906101000a900473ffffffffffffffffffffffffffffffffffffffff1660a260006101000a81548173ffffffffffffffffffffffffffffffffffffffff021916908373ffffffffffffffffffffffffffffffffffffffff160217905550600060a660006101000a81548173ffffffffffffffffffffffffffffffffffffffff021916908373ffffffffffffffffffffffffffffffffffffffff160217905550565b6000338280606860008473ffffffffffffffffffffffffffffffffffffffff1673ffffffffffffffffffffffffffffffffffffffff1681526020019081526020016000205410151515612053576040517f08c379a000000000000000000000000000000000000000000000000000000000815260040180806020018281038252601f8152602001807f43616c6c65722068617320696e73756666696369656e742062616c616e63650081525060200191505060405180910390fd5b42609d60008473ffffffffffffffffffffffffffffffffffffffff1673ffffffffffffffffffffffffffffffffffffffff1681526020019081526020016000205410151561212f576040517f08c379a00000000000000000000000000000000000000000000000000000000081526004018080602001828103825260248152602001807f43616c6c65722773206163636f756e742069732063757272656e746c7920667281526020017f6f7a656e0000000000000000000000000000000000000000000000000000000081525060400191505060405180910390fd5b6121398585614e6d565b9250505092915050565b60a560009054906101000a900473ffffffffffffffffffffffffffffffffffffffff1673ffffffffffffffffffffffffffffffffffffffff163373ffffffffffffffffffffffffffffffffffffffff16141515612208576040517f08c379a00000000000000000000000000000000000000000000000000000000081526004018080602001828103825260118152602001807f5065726d697373696f6e2044656e69656400000000000000000000000000000081525060200191505060405180910390fd5b60a560009054906101000a900473ffffffffffffffffffffffffffffffffffffffff1660a160006101000a81548173ffffffffffffffffffffffffffffffffffffffff021916908373ffffffffffffffffffffffffffffffffffffffff160217905550600060a560006101000a81548173ffffffffffffffffffffffffffffffffffffffff021916908373ffffffffffffffffffffffffffffffffffffffff160217905550565b6000808784609e60008373ffffffffffffffffffffffffffffffffffffffff1673ffffffffffffffffffffffffffffffffffffffff1681526020019081526020016000205481111515612390576040517f08c379a00000000000000000000000000000000000000000000000000000000081526004018080602001828103825260338152602001807f50726f76696465642074696d657374616d70206973206c6f776572207468616e81526020017f207265636f726465642074696d657374616d700000000000000000000000000081525060400191505060405180910390fd5b898763ffffffff16890180606860008473ffffffffffffffffffffffffffffffffffffffff1673ffffffffffffffffffffffffffffffffffffffff1681526020019081526020016000205410151515612451576040517f08c379a000000000000000000000000000000000000000000000000000000000815260040180806020018281038252601f8152602001807f43616c6c65722068617320696e73756666696369656e742062616c616e63650081525060200191505060405180910390fd5b42609d60008473ffffffffffffffffffffffffffffffffffffffff1673ffffffffffffffffffffffffffffffffffffffff1681526020019081526020016000205410151561252d576040517f08c379a00000000000000000000000000000000000000000000000000000000081526004018080602001828103825260248152602001807f43616c6c65722773206163636f756e742069732063757272656e746c7920667281526020017f6f7a656e0000000000000000000000000000000000000000000000000000000081525060400191505060405180910390fd5b61253b8c8c8c8c8c8c6150a4565b94508b73ffffffffffffffffffffffffffffffffffffffff168573ffffffffffffffffffffffffffffffffffffffff161415156125e0576040517f08c379a000000000000000000000000000000000000000000000000000000000815260040180806020018281038252601d8152602001807f496e76616c6964207369676e617475726520666f72206164647265737300000081525060200191505060405180910390fd5b6125eb8c8c8c614c2e565b6125fc8c338b63ffffffff16614c2e565b87609e60008e73ffffffffffffffffffffffffffffffffffffffff1673ffffffffffffffffffffffffffffffffffffffff1681526020019081526020016000208190555050505050509695505050505050565b600080600080600080600080600080609f60009054906101000a900473ffffffffffffffffffffffffffffffffffffffff1673ffffffffffffffffffffffffffffffffffffffff163373ffffffffffffffffffffffffffffffffffffffff16141515612723576040517f08c379a000000000000000000000000000000000000000000000000000000000815260040180806020018281038252600e8152602001807f496e76616c69642073656e64657200000000000000000000000000000000000081525060200191505060405180910390fd5b8b5199508a518a1415156127c5576040517f08c379a00000000000000000000000000000000000000000000000000000000081526004018080602001828103825260368152602001807f4561636820656e74727920696e207573657273206d757374206265206d61746381526020017f68656420627920616e20616d6f756e744368616e67650000000000000000000081525060400191505060405180910390fd5b6000985060009750600096505b89871015612c10578b878151811015156127e857fe5b9060200190602002015195508a8781518110151561280257fe5b90602001906020020151945060a760008773ffffffffffffffffffffffffffffffffffffffff1673ffffffffffffffffffffffffffffffffffffffff16815260200190815260200160002093506000851315612958578492506128ad83606860008973ffffffffffffffffffffffffffffffffffffffff1673ffffffffffffffffffffffffffffffffffffffff16815260200190815260200160002054614e4c90919063ffffffff16565b5084890197508888131515612950576040517f08c379a00000000000000000000000000000000000000000000000000000000081526004018080602001828103825260388152602001807f696e74204f766572666c6f7720696e2070726f636573735370656e64696e673a81526020017f206e6577546f74616c203c3d20746f74616c4368616e6765000000000000000081525060400191505060405180910390fd5b879850612c03565b846000039150612975828560010154614bfc90919063ffffffff16565b8460010181905550836002015484600101541015612b5c576129a884600101548560020154614bfc90919063ffffffff16565b9050606860008773ffffffffffffffffffffffffffffffffffffffff1673ffffffffffffffffffffffffffffffffffffffff16815260200190815260200160002054811115612a3457606860008773ffffffffffffffffffffffffffffffffffffffff1673ffffffffffffffffffffffffffffffffffffffff1681526020019081526020016000205490505b612a8681606860008973ffffffffffffffffffffffffffffffffffffffff1673ffffffffffffffffffffffffffffffffffffffff16815260200190815260200160002054614bfc90919063ffffffff16565b606860008873ffffffffffffffffffffffffffffffffffffffff1673ffffffffffffffffffffffffffffffffffffffff16815260200190815260200160002081905550612ae0818560010154614e4c90919063ffffffff16565b84600101819055507fbc8fb1fdc44eddf7d69719d30f493576d74726bd6dc9ea4f283f981d43f60710868683604051808473ffffffffffffffffffffffffffffffffffffffff1673ffffffffffffffffffffffffffffffffffffffff168152602001838152602001828152602001935050505060405180910390a15b8489019750888813151515612bff576040517f08c379a00000000000000000000000000000000000000000000000000000000081526004018080602001828103825260388152602001807f696e7420556e646572666c6f7720696e2070726f636573735370656e64696e6781526020017f3a206e6577546f74616c203e20746f74616c4368616e6765000000000000000081525060400191505060405180910390fd5b8798505b86806001019750506127d2565b600089141515612cae576040517f08c379a00000000000000000000000000000000000000000000000000000000081526004018080602001828103825260348152602001807f43616e6e6f74207265736f6c7665207370656e64696e672c20616d6f756e747381526020017f20646f206e6f742062616c616e636520746f203000000000000000000000000081525060400191505060405180910390fd5b505050505050505050505050565b6000606860008373ffffffffffffffffffffffffffffffffffffffff1673ffffffffffffffffffffffffffffffffffffffff168152602001908152602001600020549050919050565b600080600080609f60009054906101000a900473ffffffffffffffffffffffffffffffffffffffff1660a060009054906101000a900473ffffffffffffffffffffffffffffffffffffffff1660a160009054906101000a900473ffffffffffffffffffffffffffffffffffffffff1660a260009054906101000a900473ffffffffffffffffffffffffffffffffffffffff16935093509350935090919293565b60a360009054906101000a900473ffffffffffffffffffffffffffffffffffffffff1673ffffffffffffffffffffffffffffffffffffffff163373ffffffffffffffffffffffffffffffffffffffff16141515612e6a576040517f08c379a00000000000000000000000000000000000000000000000000000000081526004018080602001828103825260118152602001807f5065726d697373696f6e2044656e69656400000000000000000000000000000081525060200191505060405180910390fd5b60a360009054906101000a900473ffffffffffffffffffffffffffffffffffffffff16609f60006101000a81548173ffffffffffffffffffffffffffffffffffffffff021916908373ffffffffffffffffffffffffffffffffffffffff160217905550600060a360006101000a81548173ffffffffffffffffffffffffffffffffffffffff021916908373ffffffffffffffffffffffffffffffffffffffff160217905550565b8060a760003373ffffffffffffffffffffffffffffffffffffffff1673ffffffffffffffffffffffffffffffffffffffff168152602001908152602001600020600201819055507f936ec7e4d9755c4568dc8ffea642b0aad6180d863841801e138246caa43467d13382604051808373ffffffffffffffffffffffffffffffffffffffff1673ffffffffffffffffffffffffffffffffffffffff1681526020018281526020019250505060405180910390a150565b60a160009054906101000a900473ffffffffffffffffffffffffffffffffffffffff1673ffffffffffffffffffffffffffffffffffffffff163373ffffffffffffffffffffffffffffffffffffffff1614151561308b576040517f08c379a000000000000000000000000000000000000000000000000000000000815260040180806020018281038252600e8152602001807f496e76616c69642073656e64657200000000000000000000000000000000000081525060200191505060405180910390fd5b8060a560006101000a81548173ffffffffffffffffffffffffffffffffffffffff021916908373ffffffffffffffffffffffffffffffffffffffff16021790555050565b60a160009054906101000a900473ffffffffffffffffffffffffffffffffffffffff1673ffffffffffffffffffffffffffffffffffffffff163373ffffffffffffffffffffffffffffffffffffffff16141515613194576040517f08c379a000000000000000000000000000000000000000000000000000000000815260040180806020018281038252600e8152602001807f496e76616c69642073656e64657200000000000000000000000000000000000081525060200191505060405180910390fd5b8180606860003373ffffffffffffffffffffffffffffffffffffffff1673ffffffffffffffffffffffffffffffffffffffff168152602001908152602001600020541015151561324c576040517f08c379a000000000000000000000000000000000000000000000000000000000815260040180806020018281038252601f8152602001807f43616c6c65722068617320696e73756666696369656e742062616c616e63650081525060200191505060405180910390fd5b61327960a160009054906101000a900473ffffffffffffffffffffffffffffffffffffffff168585614c2e565b81609d60008673ffffffffffffffffffffffffffffffffffffffff1673ffffffffffffffffffffffffffffffffffffffff1681526020019081526020016000208190555050505050565b606060348054600181600116156101000203166002900480601f01602080910402602001604051908101604052809291908181526020018280546001816001161561010002031660029004801561335b5780601f106133305761010080835404028352916020019161335b565b820191906000526020600020905b81548152906001019060200180831161333e57829003601f168201915b5050505050905090565b7fffffffffffffffffffffffffffffffffffffffffffffffffffffffffffffffff60a760003373ffffffffffffffffffffffffffffffffffffffff1673ffffffffffffffffffffffffffffffffffffffff168152602001908152602001600020600201819055507f56f6ffd37b82c1cf8125c880b6a1ec6495a771e55c3771efaa08437285f4a5d033604051808273ffffffffffffffffffffffffffffffffffffffff1673ffffffffffffffffffffffffffffffffffffffff16815260200191505060405180910390a1565b60008073ffffffffffffffffffffffffffffffffffffffff168373ffffffffffffffffffffffffffffffffffffffff161415151561346e57600080fd5b6134fd82606960003373ffffffffffffffffffffffffffffffffffffffff1673ffffffffffffffffffffffffffffffffffffffff16815260200190815260200160002060008673ffffffffffffffffffffffffffffffffffffffff1673ffffffffffffffffffffffffffffffffffffffff16815260200190815260200160002054614bfc90919063ffffffff16565b606960003373ffffffffffffffffffffffffffffffffffffffff1673ffffffffffffffffffffffffffffffffffffffff16815260200190815260200160002060008573ffffffffffffffffffffffffffffffffffffffff1673ffffffffffffffffffffffffffffffffffffffff168152602001908152602001600020819055508273ffffffffffffffffffffffffffffffffffffffff163373ffffffffffffffffffffffffffffffffffffffff167f8c5be1e5ebec7d5bd14f71427d1e84f3dd0314c0f7b2291e5b200ac8c7c3b925606960003373ffffffffffffffffffffffffffffffffffffffff1673ffffffffffffffffffffffffffffffffffffffff16815260200190815260200160002060008773ffffffffffffffffffffffffffffffffffffffff1673ffffffffffffffffffffffffffffffffffffffff168152602001908152602001600020546040518082815260200191505060405180910390a36001905092915050565b60a060009054906101000a900473ffffffffffffffffffffffffffffffffffffffff1673ffffffffffffffffffffffffffffffffffffffff163373ffffffffffffffffffffffffffffffffffffffff1614151561372d576040517f08c379a000000000000000000000000000000000000000000000000000000000815260040180806020018281038252600e8152602001807f496e76616c69642073656e64657200000000000000000000000000000000000081525060200191505060405180910390fd5b61375960a160009054906101000a900473ffffffffffffffffffffffffffffffffffffffff16826150d4565b50565b60a060009054906101000a900473ffffffffffffffffffffffffffffffffffffffff1673ffffffffffffffffffffffffffffffffffffffff163373ffffffffffffffffffffffffffffffffffffffff16141515613821576040517f08c379a000000000000000000000000000000000000000000000000000000000815260040180806020018281038252600e8152602001807f496e76616c69642073656e64657200000000000000000000000000000000000081525060200191505060405180910390fd5b61384d60a160009054906101000a900473ffffffffffffffffffffffffffffffffffffffff1682615214565b50565b6000338280606860008473ffffffffffffffffffffffffffffffffffffffff1673ffffffffffffffffffffffffffffffffffffffff168152602001908152602001600020541015151561390b576040517f08c379a000000000000000000000000000000000000000000000000000000000815260040180806020018281038252601f8152602001807f43616c6c65722068617320696e73756666696369656e742062616c616e63650081525060200191505060405180910390fd5b42609d60008473ffffffffffffffffffffffffffffffffffffffff1673ffffffffffffffffffffffffffffffffffffffff168152602001908152602001600020541015156139e7576040517f08c379a00000000000000000000000000000000000000000000000000000000081526004018080602001828103825260248152602001807f43616c6c65722773206163636f756e742069732063757272656e746c7920667281526020017f6f7a656e0000000000000000000000000000000000000000000000000000000081525060400191505060405180910390fd5b6139f185856153a2565b9250505092915050565b60a260009054906101000a900473ffffffffffffffffffffffffffffffffffffffff1673ffffffffffffffffffffffffffffffffffffffff163373ffffffffffffffffffffffffffffffffffffffff16141515613ac0576040517f08c379a000000000000000000000000000000000000000000000000000000000815260040180806020018281038252600e8152602001807f496e76616c69642073656e64657200000000000000000000000000000000000081525060200191505060405180910390fd5b80609d60008473ffffffffffffffffffffffffffffffffffffffff1673ffffffffffffffffffffffffffffffffffffffff168152602001908152602001600020819055505050565b338180606860008473ffffffffffffffffffffffffffffffffffffffff1673ffffffffffffffffffffffffffffffffffffffff1681526020019081526020016000205410151515613bc1576040517f08c379a000000000000000000000000000000000000000000000000000000000815260040180806020018281038252601f8152602001807f43616c6c65722068617320696e73756666696369656e742062616c616e63650081525060200191505060405180910390fd5b42609d60008473ffffffffffffffffffffffffffffffffffffffff1673ffffffffffffffffffffffffffffffffffffffff16815260200190815260200160002054101515613c9d576040517f08c379a00000000000000000000000000000000000000000000000000000000081526004018080602001828103825260248152602001807f43616c6c65722773206163636f756e742069732063757272656e746c7920667281526020017f6f7a656e0000000000000000000000000000000000000000000000000000000081525060400191505060405180910390fd5b613cca3360a160009054906101000a900473ffffffffffffffffffffffffffffffffffffffff1685614c2e565b505050565b6060806060806060806060613ce38c61192a565b9550613cee8b61192a565b9450613cf98a61486f565b9350613d0a8963ffffffff1661486f565b9250613d158861486f565b915085858585856040516020018086805190602001908083835b602083101515613d545780518252602082019150602081019050602083039250613d2f565b6001836020036101000a038019825116818451168082178552505050505050905001807f2d3e00000000000000000000000000000000000000000000000000000000000081525060020185805190602001908083835b602083101515613dcf5780518252602082019150602081019050602083039250613daa565b6001836020036101000a038019825116818451168082178552505050505050905001807f0a76616c0000000000000000000000000000000000000000000000000000000081525060040184805190602001908083835b602083101515613e4a5780518252602082019150602081019050602083039250613e25565b6001836020036101000a038019825116818451168082178552505050505050905001807f0a6665650000000000000000000000000000000000000000000000000000000081525060040183805190602001908083835b602083101515613ec55780518252602082019150602081019050602083039250613ea0565b6001836020036101000a038019825116818451168082178552505050505050905001807f0a7473000000000000000000000000000000000000000000000000000000000081525060030182805190602001908083835b602083101515613f405780518252602082019150602081019050602083039250613f1b565b6001836020036101000a03801982511681845116808217855250505050505090500195505050505050604051602081830303815290604052905080965050505050505095945050505050565b60008060019054906101000a900460ff1680613fac5750613fab614c1d565b5b80613fc357506000809054906101000a900460ff16155b151561405d576040517f08c379a000000000000000000000000000000000000000000000000000000000815260040180806020018281038252602e8152602001807f436f6e747261637420696e7374616e63652068617320616c726561647920626581526020017f656e20696e697469616c697a656400000000000000000000000000000000000081525060400191505060405180910390fd5b600060019054906101000a900460ff1690506001600060016101000a81548160ff02191690831515021790555060016000806101000a81548160ff02191690831515021790555061411a6040805190810160405280600981526020017f5448453a20436f696e00000000000000000000000000000000000000000000008152506040805190810160405280600381526020017f544845000000000000000000000000000000000000000000000000000000000081525060066113d7565b6000609f60009054906101000a900473ffffffffffffffffffffffffffffffffffffffff1673ffffffffffffffffffffffffffffffffffffffff1614801561419a5750600060a060009054906101000a900473ffffffffffffffffffffffffffffffffffffffff1673ffffffffffffffffffffffffffffffffffffffff16145b1515614234576040517f08c379a00000000000000000000000000000000000000000000000000000000081526004018080602001828103825260268152602001807f53797374656d20636f6d70726f6d697365642e2020467265657a65204576657281526020017f797468696e67000000000000000000000000000000000000000000000000000081525060400191505060405180910390fd5b81609f60006101000a81548173ffffffffffffffffffffffffffffffffffffffff021916908373ffffffffffffffffffffffffffffffffffffffff1602179055508160a060006101000a81548173ffffffffffffffffffffffffffffffffffffffff021916908373ffffffffffffffffffffffffffffffffffffffff1602179055508160a160006101000a81548173ffffffffffffffffffffffffffffffffffffffff021916908373ffffffffffffffffffffffffffffffffffffffff1602179055508160a260006101000a81548173ffffffffffffffffffffffffffffffffffffffff021916908373ffffffffffffffffffffffffffffffffffffffff16021790555080600060016101000a81548160ff0219169083151502179055505050565b60a460009054906101000a900473ffffffffffffffffffffffffffffffffffffffff1673ffffffffffffffffffffffffffffffffffffffff163373ffffffffffffffffffffffffffffffffffffffff1614151561441b576040517f08c379a00000000000000000000000000000000000000000000000000000000081526004018080602001828103825260118152602001807f5065726d697373696f6e2044656e69656400000000000000000000000000000081525060200191505060405180910390fd5b60a460009054906101000a900473ffffffffffffffffffffffffffffffffffffffff1660a060006101000a81548173ffffffffffffffffffffffffffffffffffffffff021916908373ffffffffffffffffffffffffffffffffffffffff160217905550600060a460006101000a81548173ffffffffffffffffffffffffffffffffffffffff021916908373ffffffffffffffffffffffffffffffffffffffff160217905550565b609f60009054906101000a900473ffffffffffffffffffffffffffffffffffffffff1673ffffffffffffffffffffffffffffffffffffffff163373ffffffffffffffffffffffffffffffffffffffff16141515614587576040517f08c379a000000000000000000000000000000000000000000000000000000000815260040180806020018281038252600e8152602001807f496e76616c69642073656e64657200000000000000000000000000000000000081525060200191505060405180910390fd5b8060a360006101000a81548173ffffffffffffffffffffffffffffffffffffffff021916908373ffffffffffffffffffffffffffffffffffffffff16021790555050565b60008060a160009054906101000a900473ffffffffffffffffffffffffffffffffffffffff1673ffffffffffffffffffffffffffffffffffffffff163373ffffffffffffffffffffffffffffffffffffffff16141515614693576040517f08c379a000000000000000000000000000000000000000000000000000000000815260040180806020018281038252600e8152602001807f496e76616c69642073656e64657200000000000000000000000000000000000081525060200191505060405180910390fd5b8390508073ffffffffffffffffffffffffffffffffffffffff1663a9059cbb60a160009054906101000a900473ffffffffffffffffffffffffffffffffffffffff16856040518363ffffffff167c0100000000000000000000000000000000000000000000000000000000028152600401808373ffffffffffffffffffffffffffffffffffffffff1673ffffffffffffffffffffffffffffffffffffffff16815260200182815260200192505050602060405180830381600087803b15801561475b57600080fd5b505af115801561476f573d6000803e3d6000fd5b505050506040513d602081101561478557600080fd5b810190808051906020019092919050505091505092915050565b6000606960008473ffffffffffffffffffffffffffffffffffffffff1673ffffffffffffffffffffffffffffffffffffffff16815260200190815260200160002060008373ffffffffffffffffffffffffffffffffffffffff1673ffffffffffffffffffffffffffffffffffffffff16815260200190815260200160002054905092915050565b6000609d60008373ffffffffffffffffffffffffffffffffffffffff1673ffffffffffffffffffffffffffffffffffffffff168152602001908152602001600020549050919050565b606060008060606000808614156148bd576040805190810160405280600181526020017f300000000000000000000000000000000000000000000000000000000000000081525094506149bd565b8593505b6000841415156148e7578280600101935050600a848115156148df57fe5b0493506148c1565b826040519080825280601f01601f19166020018201604052801561491a5781602001602082028038833980820191505090505b5091506001830390505b6000861415156149b957600a8681151561493a57fe5b066030017f01000000000000000000000000000000000000000000000000000000000000000282828060019003935081518110151561497557fe5b9060200101907effffffffffffffffffffffffffffffffffffffffffffffffffffffffffffff1916908160001a905350600a868115156149b157fe5b049550614924565b8194505b50505050919050565b60a060009054906101000a900473ffffffffffffffffffffffffffffffffffffffff1673ffffffffffffffffffffffffffffffffffffffff163373ffffffffffffffffffffffffffffffffffffffff16141515614a8b576040517f08c379a000000000000000000000000000000000000000000000000000000000815260040180806020018281038252600e8152602001807f496e76616c69642073656e64657200000000000000000000000000000000000081525060200191505060405180910390fd5b8060a460006101000a81548173ffffffffffffffffffffffffffffffffffffffff021916908373ffffffffffffffffffffffffffffffffffffffff16021790555050565b60008073ffffffffffffffffffffffffffffffffffffffff168373ffffffffffffffffffffffffffffffffffffffff1614151515614b0c57600080fd5b81606960003373ffffffffffffffffffffffffffffffffffffffff1673ffffffffffffffffffffffffffffffffffffffff16815260200190815260200160002060008573ffffffffffffffffffffffffffffffffffffffff1673ffffffffffffffffffffffffffffffffffffffff168152602001908152602001600020819055508273ffffffffffffffffffffffffffffffffffffffff163373ffffffffffffffffffffffffffffffffffffffff167f8c5be1e5ebec7d5bd14f71427d1e84f3dd0314c0f7b2291e5b200ac8c7c3b925846040518082815260200191505060405180910390a36001905092915050565b600080838311151515614c0e57600080fd5b82840390508091505092915050565b600080303b90506000811491505090565b606860008473ffffffffffffffffffffffffffffffffffffffff1673ffffffffffffffffffffffffffffffffffffffff168152602001908152602001600020548111151515614c7c57600080fd5b600073ffffffffffffffffffffffffffffffffffffffff168273ffffffffffffffffffffffffffffffffffffffff1614151515614cb857600080fd5b614d0a81606860008673ffffffffffffffffffffffffffffffffffffffff1673ffffffffffffffffffffffffffffffffffffffff16815260200190815260200160002054614bfc90919063ffffffff16565b606860008573ffffffffffffffffffffffffffffffffffffffff1673ffffffffffffffffffffffffffffffffffffffff16815260200190815260200160002081905550614d9f81606860008573ffffffffffffffffffffffffffffffffffffffff1673ffffffffffffffffffffffffffffffffffffffff16815260200190815260200160002054614e4c90919063ffffffff16565b606860008473ffffffffffffffffffffffffffffffffffffffff1673ffffffffffffffffffffffffffffffffffffffff168152602001908152602001600020819055508173ffffffffffffffffffffffffffffffffffffffff168373ffffffffffffffffffffffffffffffffffffffff167fddf252ad1be2c89b69c2b068fc378daa952ba7f163c4a11628f55a4df523b3ef836040518082815260200191505060405180910390a3505050565b6000808284019050838110151515614e6357600080fd5b8091505092915050565b60008073ffffffffffffffffffffffffffffffffffffffff168373ffffffffffffffffffffffffffffffffffffffff1614151515614eaa57600080fd5b614f3982606960003373ffffffffffffffffffffffffffffffffffffffff1673ffffffffffffffffffffffffffffffffffffffff16815260200190815260200160002060008673ffffffffffffffffffffffffffffffffffffffff1673ffffffffffffffffffffffffffffffffffffffff16815260200190815260200160002054614e4c90919063ffffffff16565b606960003373ffffffffffffffffffffffffffffffffffffffff1673ffffffffffffffffffffffffffffffffffffffff16815260200190815260200160002060008573ffffffffffffffffffffffffffffffffffffffff1673ffffffffffffffffffffffffffffffffffffffff168152602001908152602001600020819055508273ffffffffffffffffffffffffffffffffffffffff163373ffffffffffffffffffffffffffffffffffffffff167f8c5be1e5ebec7d5bd14f71427d1e84f3dd0314c0f7b2291e5b200ac8c7c3b925606960003373ffffffffffffffffffffffffffffffffffffffff1673ffffffffffffffffffffffffffffffffffffffff16815260200190815260200160002060008773ffffffffffffffffffffffffffffffffffffffff1673ffffffffffffffffffffffffffffffffffffffff168152602001908152602001600020546040518082815260200191505060405180910390a36001905092915050565b6000606060006150b78989898989613ccf565b91506150c382856153b9565b905080925050509695505050505050565b60008273ffffffffffffffffffffffffffffffffffffffff16141515156150fa57600080fd5b61510f81606a54614e4c90919063ffffffff16565b606a8190555061516781606860008573ffffffffffffffffffffffffffffffffffffffff1673ffffffffffffffffffffffffffffffffffffffff16815260200190815260200160002054614e4c90919063ffffffff16565b606860008473ffffffffffffffffffffffffffffffffffffffff1673ffffffffffffffffffffffffffffffffffffffff168152602001908152602001600020819055508173ffffffffffffffffffffffffffffffffffffffff16600073ffffffffffffffffffffffffffffffffffffffff167fddf252ad1be2c89b69c2b068fc378daa952ba7f163c4a11628f55a4df523b3ef836040518082815260200191505060405180910390a35050565b60008273ffffffffffffffffffffffffffffffffffffffff161415151561523a57600080fd5b606860008373ffffffffffffffffffffffffffffffffffffffff1673ffffffffffffffffffffffffffffffffffffffff16815260200190815260200160002054811115151561528857600080fd5b61529d81606a54614bfc90919063ffffffff16565b606a819055506152f581606860008573ffffffffffffffffffffffffffffffffffffffff1673ffffffffffffffffffffffffffffffffffffffff16815260200190815260200160002054614bfc90919063ffffffff16565b606860008473ffffffffffffffffffffffffffffffffffffffff1673ffffffffffffffffffffffffffffffffffffffff16815260200190815260200160002081905550600073ffffffffffffffffffffffffffffffffffffffff168273ffffffffffffffffffffffffffffffffffffffff167fddf252ad1be2c89b69c2b068fc378daa952ba7f163c4a11628f55a4df523b3ef836040518082815260200191505060405180910390a35050565b60006153af338484614c2e565b6001905092915050565b6000806153c5846153da565b90506153d1818461553e565b91505092915050565b600060606153e8835161486f565b9050808360405160200180807f19457468657265756d205369676e6564204d6573736167653a0a000000000000815250601a0183805190602001908083835b60208310151561544c5780518252602082019150602081019050602083039250615427565b6001836020036101000a03801982511681845116808217855250505050505090500182805190602001908083835b60208310151561549f578051825260208201915060208101905060208303925061547a565b6001836020036101000a038019825116818451168082178552505050505050905001925050506040516020818303038152906040526040518082805190602001908083835b60208310151561550957805182526020820191506020810190506020830392506154e4565b6001836020036101000a0380198251168184511680821785525050505050509050019150506040518091039020915050919050565b60008060008060418551141515615558576000935061562d565b6020850151925060408501519150606085015160001a9050601b8160ff16101561558357601b810190505b601b8160ff161415801561559b5750601c8160ff1614155b156155a9576000935061562d565b600186828585604051600081526020016040526040518085600019166000191681526020018460ff1660ff1681526020018360001916600019168152602001826000191660001916815260200194505050505060206040516020810390808403906000865af1158015615620573d6000803e3d6000fd5b5050506020604051035193505b50505092915050565b828054600181600116156101000203166002900490600052602060002090601f016020900481019282601f1061567757805160ff19168380011785556156a5565b828001600101855582156156a5579182015b828111156156a4578251825591602001919060010190615689565b5b5090506156b291906156b6565b5090565b6156d891905b808211156156d45760008160009055506001016156bc565b5090565b905600a165627a7a72305820326ddd737ae740b295f2b0b59f2cb3beb1a2c0dc1764f7ae91ced3e48a178a080029",
  "source": "pragma solidity ^0.4.24;\r\n\r\nimport './ERC20Local.sol';\r\nimport './LibCertTransfer.sol';\r\n\r\nimport 'openzeppelin-eth/contracts/token/ERC20/ERC20Detailed.sol';\r\nimport 'zos-lib/contracts/Initializable.sol';\r\n\r\nimport \"openzeppelin-eth/contracts/token/ERC20/IERC20.sol\";\r\nimport 'openzeppelin-eth/contracts/cryptography/ECDSA.sol';\r\n\r\n\r\n// ----------------------------------------------------------------------------\r\n// SpyCoin - A crypto-currency pegged to the SPX (SPY actually)\r\n//\r\n// Symbol      : SPY\r\n// Name        : SpyCoin - A cryptocurrency that tracks the S&P500\r\n// Decimals    : 6\r\n//\r\n// Enjoy.\r\n//\r\n// ----------------------------------------------------------------------------\r\n\r\n// ----------------------------------------------------------------------------\r\n// ERC20 Token, with the addition of symbol, name and decimals \r\n//\r\n// NOTE: 100 SpyCoins is equivalent to 1 share of SPY,\r\n// or *at time of writing* roughly $2.70 USD\r\n// and with 6 decimal places 100,000,000 tokens is 1 share,\r\n// and 1 token has an approximate value of 0.00027c USD\r\n// ----------------------------------------------------------------------------\r\ncontract TheCoin is Initializable, ERC20Detailed, ERC20Local, LibCertTransfer {\r\n\r\n    // An account may be subject to a timeout, during which\r\n    // period it is forbidden from transferring its value\r\n    mapping(address => uint) freezeUntil;\r\n\r\n    // A stored list of timestamps that are used to uniquely\r\n    // specify transactions running through paidTransaction.\r\n    // Each tx comes with a timestamp that must be higher than\r\n    // the last tx timestamp, and (more or less) be in the \r\n    // same time as the block being mined.  This ensures\r\n    // tx authentications are unique, and expire \r\n    // relatively shortly after issue\r\n    mapping(address => uint) lastTxTimestamp;\r\n\r\n    // The following addresses have different roles\r\n\r\n    // TapCapManager is responsible for periodically\r\n    // processing the externally managed TapCap feature\r\n    address role_TapCapManager;\r\n    // The Minter is permitted to mint/melt coins.\r\n    // All coins minted/melted by the minter are\r\n    // from/to TheReserves address\r\n    address role_Minter;\r\n    // THE Coin reserve address.  This is the address\r\n    // directly managed by the THE Coin Inc.  Users\r\n    // interact with this address when purchase/redeem coins\r\n    address role_TheCoin;\r\n    // The Police have very limited powers, they may\r\n    // freeze accounts but nothing else\r\n    address role_Police;\r\n\r\n    // Enforcing a set/accept 2 step process for setting roles\r\n    // creates a strong guarantee that we can't f* up and set\r\n    // the roles to an invalid address\r\n    address new_TapCapManager;\r\n    address new_Minter;\r\n    address new_TheCoin;\r\n    address new_Police;\r\n\r\n    // ------------------------------------------------------------------------\r\n    // Events\r\n    // ------------------------------------------------------------------------\r\n\r\n    // ------------------------------------------------------------------------\r\n    // Constructor\r\n    // ------------------------------------------------------------------------\r\n    function initialize(address _sender) public\r\n        initializer() \r\n    {\r\n        ERC20Detailed.initialize(\"THE: Coin\", \"THE\", 6);\r\n        \r\n        // Lets just double-check this contract has not\r\n        // yet been initialized.\r\n        require(role_TapCapManager == 0 && role_Minter == 0, \"System compromised.  Freeze Everything\");\r\n\r\n        // We initialize all roles to owner.\r\n        // It is expected that Owner will distribute\r\n        // these roles to others\r\n        role_TapCapManager = _sender;\r\n        role_Minter = _sender;\r\n        role_TheCoin = _sender;\r\n        role_Police = _sender;\r\n    }\r\n\r\n    function getRoles() public view returns(address,address,address,address)\r\n    {\r\n        return (role_TapCapManager, role_Minter, role_TheCoin, role_Police);\r\n    }\r\n\r\n    // ------------------------------------------------------------------------\r\n    // Total supply management\r\n    // ------------------------------------------------------------------------\r\n\r\n    // The owner will periodically add new coins to match\r\n    // shares purchased of SPY\r\n    function mintCoins(uint amount) public\r\n        onlyMinter\r\n    {\r\n        _mint(role_TheCoin, amount);\r\n    }\r\n\r\n    // Remove coins\r\n    function meltCoins(uint amount) public\r\n        onlyMinter\r\n    {\r\n        _burn(role_TheCoin, amount);\r\n    }\r\n\r\n    // Coins currently owned by clients (not TheCoin)\r\n    function coinsCirculating() public view returns(uint)\r\n    {\r\n        return totalSupply().sub(balanceOf(role_TheCoin));\r\n    }\r\n\r\n    // Coins available for sale to the public \r\n    function reservedCoins() public view returns (uint balance) \r\n    {\r\n        return balanceOf(role_TheCoin);\r\n    }\r\n\r\n    // ------------------------------------------------------------------------\r\n    // Override standard functions to limit by account freezing\r\n    // ------------------------------------------------------------------------\r\n    function transfer(address to, uint256 value) public \r\n    isTransferable(msg.sender, value) \r\n    returns (bool) \r\n    {\r\n        return super.transfer(to, value);\r\n    }\r\n    function approve(address spender, uint256 value) public \r\n    isTransferable(msg.sender, value) \r\n    returns (bool) \r\n    {\r\n        return super.approve(spender, value);\r\n    }\r\n    function increaseAllowance(address spender, uint256 addedValue) public \r\n    isTransferable(msg.sender, addedValue) \r\n    returns (bool) \r\n    {\r\n        return super.increaseAllowance(spender, addedValue);\r\n    }\r\n\r\n    // ------------------------------------------------------------------------\r\n    // Additional paid-transfer functions allows a client to sign a request\r\n    // and for the request to be paid by someone else (likely us)\r\n    // ------------------------------------------------------------------------\r\n\r\n    function certifiedTransfer(address from, address to, uint256 value, uint32 fee, uint256 timestamp, bytes signature)\r\n    public \r\n    timestampIncreases(from, timestamp) \r\n    isTransferable(from, value + fee)\r\n    returns (bool)\r\n    {\r\n        address signer = recoverSigner(from, to, value, fee, timestamp, signature);\r\n        require(signer == from, \"Invalid signature for address\");\r\n\r\n        _transfer(from, to, value);\r\n        _transfer(from, msg.sender, fee);\r\n\r\n        lastTxTimestamp[from] = timestamp;\r\n    }\r\n\r\n    // ------------------------------------------------------------------------\r\n    // Client interactions with TheCoin\r\n    // ------------------------------------------------------------------------\r\n\r\n    // Users purchase coin from us.  A script on our\r\n    // site will trigger this call\r\n    function coinPurchase(address purchaser, uint amount, uint timeout) public\r\n    onlyTheCoin\r\n    balanceAvailable(amount)\r\n    {\r\n        _transfer(role_TheCoin, purchaser, amount);\r\n        freezeUntil[purchaser] = timeout;\r\n    }\r\n\r\n    // A user returns their coins to us (this will trigger disbursement externally)\r\n    function coinRedeem(uint amount) public\r\n    isTransferable(msg.sender, amount)\r\n    {\r\n        // first, we recover the coins back to our own account\r\n        _transfer(msg.sender, role_TheCoin, amount);\r\n    }\r\n\r\n    // ------------------------------------------------------------------------\r\n    // Sets a timeout, until which time the user will not\r\n    // account may not be transacted against.\r\n    // ------------------------------------------------------------------------\r\n    function setAccountFreezeTime(address account, uint time) public\r\n    onlyPolice\r\n    {\r\n        freezeUntil[account] = time;\r\n    }\r\n\r\n    // ------------------------------------------------------------------------\r\n    // Returns the timestamp of when this account will\r\n    // be unfrozen (able to be transacted against)\r\n    // ------------------------------------------------------------------------\r\n    function accountUnfreezeTime(address account) public \r\n    view\r\n    returns(uint) \r\n    {\r\n        return freezeUntil[account];\r\n    }\r\n\r\n\r\n    // ------------------------------------------------------------------------\r\n    // Implement escrow 'accounts' for holding amounts in escrow to be used \r\n    // in offline transactions\r\n    // ------------------------------------------------------------------------\r\n\r\n    // TODO: Spending _balances are amounts that\r\n    // are transfered from the _balances into\r\n    // escrow accounts.  These escrow accounts can then\r\n    // be spent against and tracked with local databases\r\n    // and are synced back to the main chain once per week (or so)\r\n    struct TapCapData\r\n    {\r\n        uint TransactionId; // Last processed TC transaction\r\n        uint TapCapEscrow; // How much is currently held in escrow?\r\n        uint TapCapRefill;  // How much should be refilled each week?\r\n    }\r\n\r\n    mapping(address => TapCapData) tapCaps;\r\n\r\n    event TapCapTopUp(address client, uint topup);\r\n    event TapCapSetWeekly(address client, uint weeklyLimit);\r\n    event TapCapClear(address client);\r\n    event TapCapUserUpdated(address client, int change, uint toppedUp);\r\n\r\n    // Event emitted when manually processing TC's\r\n    event TapCapProcessed(address client, address dest, uint amount);\r\n\r\n    // Topup the escrow.  NOTE: This will implicitly increase the amount registered by\r\n    // the spending manager.  Those records are separate and not directly\r\n    // linked to the amounts here.\r\n    function tapCapTopUp(uint topup) public\r\n    balanceAvailable(topup)\r\n    {\r\n        TapCapData storage userAccount = tapCaps[msg.sender];\r\n        _balances[msg.sender] = _balances[msg.sender].sub(topup);\r\n        userAccount.TapCapEscrow = userAccount.TapCapEscrow.add(topup);\r\n        emit TapCapTopUp(msg.sender, topup);\r\n    }\r\n\r\n    // Set's the weekly TapCap for the user.  Does not affect the current weeks TapCap\r\n    function tapCapSetRefill(uint amount) public\r\n    {\r\n        tapCaps[msg.sender].TapCapRefill = amount;\r\n        emit TapCapSetWeekly(msg.sender, amount);\r\n    }\r\n    \r\n    // Clear a users TapCap account.  A user may not directly\r\n    // clear an account, as the user may have a TC debit\r\n    // pending from the spending manager.\r\n    function tapCapClear() public\r\n    {\r\n        tapCaps[msg.sender].TapCapRefill = uint(-1);\r\n        emit TapCapClear(msg.sender);\r\n    }\r\n\r\n    // Get current values for spending...\r\n    function tapCapUser(address user) public view returns(uint TransactionId, uint TapCapEscrow, uint TapCapRefill)\r\n    {\r\n        return (tapCaps[user].TransactionId, tapCaps[user].TapCapEscrow, tapCaps[user].TapCapRefill);\r\n    }\r\n\r\n    //\r\n    // The big puppy.  Update all accounts with changes from spending\r\n    //\r\n    function processSpending(address[] users, int[] amountChange) public\r\n    onlyTapCapManager()\r\n    {\r\n        uint numChanges = users.length; \r\n        require(numChanges == amountChange.length, \"Each entry in users must be matched by an amountChange\");\r\n\r\n        int totalChange = 0;\r\n        int newTotal = 0;\r\n        for (uint i = 0; i < numChanges; i++) \r\n        {\r\n            address user = users[i];\r\n            int delta = amountChange[i];\r\n            TapCapData storage userAccount = tapCaps[user];\r\n            // Apply the delta to the users account\r\n            if (delta > 0) {\r\n                // Get abs(delta)\r\n                uint pdelta = uint(delta);\r\n                // Add directly to the users regular account.  We may not\r\n                // have permission to interact with the users TapCap\r\n                _balances[user].add(pdelta);\r\n\r\n                // Update total.  Can't use safe-math for this, as\r\n                // newTotal is a signed int to allow it to go negative.\r\n                newTotal = totalChange + delta;\r\n                require(newTotal > totalChange, \"int Overflow in processSpending: newTotal <= totalChange\");\r\n                totalChange = newTotal;\r\n            }\r\n            else {\r\n                // Get abs(delta)\r\n                uint ndelta = uint(-delta);\r\n                userAccount.TapCapEscrow = userAccount.TapCapEscrow.sub(ndelta);\r\n\r\n                // Topup the account by an appropriate amount\r\n                if (userAccount.TapCapEscrow < userAccount.TapCapRefill)\r\n                {\r\n                    uint topup = userAccount.TapCapRefill.sub(userAccount.TapCapEscrow);\r\n                    if (topup > _balances[user])\r\n                    {\r\n                        topup = _balances[user];\r\n                    }\r\n                    _balances[user] = _balances[user].sub(topup);\r\n                    userAccount.TapCapEscrow = userAccount.TapCapEscrow.add(topup);\r\n                    emit TapCapUserUpdated(user, delta, topup);\r\n                }\r\n\r\n                // Update total\r\n                newTotal = totalChange + delta;\r\n                require(newTotal <= totalChange, \"int Underflow in processSpending: newTotal > totalChange\");\r\n                totalChange = newTotal;\r\n            }\r\n        }\r\n\r\n        require(totalChange == 0, \"Cannot resolve spending, amounts do not balance to 0\");\r\n    }\r\n\r\n    // ------------------------------------------------------------------------\r\n    // Don't accept ETH\r\n    // ------------------------------------------------------------------------\r\n    function () public payable {\r\n        revert(\"This contract does not run on Ether\");\r\n    }\r\n\r\n    // ------------------------------------------------------------------------\r\n    // Allow updating our key users\r\n    // ------------------------------------------------------------------------\r\n    function setTapCapManager(address newManager) public \r\n    onlyTapCapManager\r\n    {\r\n        new_TapCapManager = newManager;\r\n    }\r\n    function acceptTapCapManager() public \r\n    {\r\n        require(msg.sender == new_TapCapManager, \"Permission Denied\");\r\n        role_TapCapManager = new_TapCapManager;\r\n        new_TapCapManager = 0;\r\n    }\r\n\r\n    function setMinter(address newMinter) public \r\n    onlyMinter\r\n    {\r\n        new_Minter = newMinter;\r\n    }\r\n    function acceptMinter() public \r\n    {\r\n        require(msg.sender == new_Minter, \"Permission Denied\");\r\n        role_Minter = new_Minter;\r\n        new_Minter = 0;\r\n    }\r\n\r\n    function setTheCoin(address newCoinManager) public \r\n    onlyTheCoin\r\n    {\r\n        new_TheCoin = newCoinManager;\r\n    }\r\n    function acceptTheCoin() public \r\n    {\r\n        require(msg.sender == new_TheCoin, \"Permission Denied\");\r\n        role_TheCoin = new_TheCoin;\r\n        new_TheCoin = 0;\r\n    }\r\n\r\n    function setPolice(address newPolice) public \r\n    onlyPolice\r\n    {\r\n        new_Police = newPolice;\r\n    }\r\n    function acceptPolice() public \r\n    {\r\n        require(msg.sender == new_Police, \"Permission Denied\");\r\n        role_Police = new_Police;\r\n        new_Police = 0;\r\n    }\r\n    // ------------------------------------------------------------------------\r\n    // Owner can transfer out any ERC20 tokens accidentally assigned to this contracts address\r\n    // ------------------------------------------------------------------------\r\n    function transferAnyERC20Token(address tokenAddress, uint256 tokens) public onlyTheCoin returns (bool success) {\r\n        IERC20 tokenContract = IERC20(tokenAddress);\r\n        return tokenContract.transfer(role_TheCoin, tokens);\r\n    }\r\n\r\n    ///////////////////////////////\r\n    modifier balanceAvailable(uint amount) {\r\n        require(_balances[msg.sender] >= amount, \"Caller has insufficient balance\");\r\n        _;\r\n    }\r\n\r\n    modifier isTransferable(address from, uint amount) {\r\n        require(_balances[from] >= amount, \"Caller has insufficient balance\");\r\n        require(freezeUntil[from] < now, \"Caller's account is currently frozen\");\r\n        _;\r\n    }\r\n\r\n    modifier onlyTapCapManager()\r\n    {\r\n        require(msg.sender == role_TapCapManager, \"Invalid sender\");\r\n        _;\r\n    }\r\n\r\n    modifier onlyMinter()\r\n    {\r\n        require(msg.sender == role_Minter, \"Invalid sender\");\r\n        _;\r\n    }\r\n\r\n    modifier onlyTheCoin()\r\n    {\r\n        require(msg.sender == role_TheCoin, \"Invalid sender\");\r\n        _;\r\n    }\r\n\r\n    modifier onlyPolice()\r\n    {\r\n        require(msg.sender == role_Police, \"Invalid sender\");\r\n        _;\r\n    }\r\n\r\n    modifier timestampIncreases(address from, uint256 timestamp) \r\n    {\r\n        require(timestamp > lastTxTimestamp[from], \"Provided timestamp is lower than recorded timestamp\");\r\n        _;\r\n    }\r\n}",
  "sourcePath": "c:\\src\\TheCoin\\the-contract\\contracts\\TheCoin.sol",
  "compiler": {
    "name": "solc",
    "version": "0.4.24+commit.e67f0147.Emscripten.clang"
  },
  "schemaVersion": "2.0.1",
  "updatedAt": "2018-11-18T18:29:34.457Z"
}