{
  "contractName": "TheCoin",
  "abi": [
    {
      "constant": true,
      "inputs": [],
      "name": "name",
      "outputs": [
        {
          "name": "",
          "type": "string"
        }
      ],
      "payable": false,
      "stateMutability": "view",
      "type": "function"
    },
    {
      "constant": true,
      "inputs": [],
      "name": "totalSupply",
      "outputs": [
        {
          "name": "",
          "type": "uint256"
        }
      ],
      "payable": false,
      "stateMutability": "view",
      "type": "function"
    },
    {
      "constant": false,
      "inputs": [
        {
          "name": "from",
          "type": "address"
        },
        {
          "name": "to",
          "type": "address"
        },
        {
          "name": "value",
          "type": "uint256"
        }
      ],
      "name": "transferFrom",
      "outputs": [
        {
          "name": "",
          "type": "bool"
        }
      ],
      "payable": false,
      "stateMutability": "nonpayable",
      "type": "function"
    },
    {
      "constant": true,
      "inputs": [],
      "name": "decimals",
      "outputs": [
        {
          "name": "",
          "type": "uint8"
        }
      ],
      "payable": false,
      "stateMutability": "view",
      "type": "function"
    },
    {
      "constant": true,
      "inputs": [
        {
          "name": "owner",
          "type": "address"
        }
      ],
      "name": "balanceOf",
      "outputs": [
        {
          "name": "",
          "type": "uint256"
        }
      ],
      "payable": false,
      "stateMutability": "view",
      "type": "function"
    },
    {
      "constant": false,
      "inputs": [],
      "name": "renounceOwnership",
      "outputs": [],
      "payable": false,
      "stateMutability": "nonpayable",
      "type": "function"
    },
    {
      "constant": true,
      "inputs": [],
      "name": "owner",
      "outputs": [
        {
          "name": "",
          "type": "address"
        }
      ],
      "payable": false,
      "stateMutability": "view",
      "type": "function"
    },
    {
      "constant": true,
      "inputs": [],
      "name": "isOwner",
      "outputs": [
        {
          "name": "",
          "type": "bool"
        }
      ],
      "payable": false,
      "stateMutability": "view",
      "type": "function"
    },
    {
      "constant": true,
      "inputs": [],
      "name": "symbol",
      "outputs": [
        {
          "name": "",
          "type": "string"
        }
      ],
      "payable": false,
      "stateMutability": "view",
      "type": "function"
    },
    {
      "constant": false,
      "inputs": [
        {
          "name": "spender",
          "type": "address"
        },
        {
          "name": "subtractedValue",
          "type": "uint256"
        }
      ],
      "name": "decreaseAllowance",
      "outputs": [
        {
          "name": "",
          "type": "bool"
        }
      ],
      "payable": false,
      "stateMutability": "nonpayable",
      "type": "function"
    },
    {
      "constant": true,
      "inputs": [
        {
          "name": "owner",
          "type": "address"
        },
        {
          "name": "spender",
          "type": "address"
        }
      ],
      "name": "allowance",
      "outputs": [
        {
          "name": "",
          "type": "uint256"
        }
      ],
      "payable": false,
      "stateMutability": "view",
      "type": "function"
    },
    {
      "constant": false,
      "inputs": [
        {
          "name": "newOwner",
          "type": "address"
        }
      ],
      "name": "transferOwnership",
      "outputs": [],
      "payable": false,
      "stateMutability": "nonpayable",
      "type": "function"
    },
    {
      "payable": true,
      "stateMutability": "payable",
      "type": "fallback"
    },
    {
      "anonymous": false,
      "inputs": [
        {
          "indexed": false,
          "name": "client",
          "type": "address"
        },
        {
          "indexed": false,
          "name": "topup",
          "type": "uint256"
        }
      ],
      "name": "TapCapTopUp",
      "type": "event"
    },
    {
      "anonymous": false,
      "inputs": [
        {
          "indexed": false,
          "name": "client",
          "type": "address"
        },
        {
          "indexed": false,
          "name": "weeklyLimit",
          "type": "uint256"
        }
      ],
      "name": "TapCapSetWeekly",
      "type": "event"
    },
    {
      "anonymous": false,
      "inputs": [
        {
          "indexed": false,
          "name": "client",
          "type": "address"
        }
      ],
      "name": "TapCapClear",
      "type": "event"
    },
    {
      "anonymous": false,
      "inputs": [
        {
          "indexed": false,
          "name": "client",
          "type": "address"
        },
        {
          "indexed": false,
          "name": "change",
          "type": "int256"
        },
        {
          "indexed": false,
          "name": "toppedUp",
          "type": "uint256"
        }
      ],
      "name": "TapCapUserUpdated",
      "type": "event"
    },
    {
      "anonymous": false,
      "inputs": [
        {
          "indexed": false,
          "name": "client",
          "type": "address"
        },
        {
          "indexed": false,
          "name": "dest",
          "type": "address"
        },
        {
          "indexed": false,
          "name": "amount",
          "type": "uint256"
        }
      ],
      "name": "TapCapProcessed",
      "type": "event"
    },
    {
      "anonymous": false,
      "inputs": [
        {
          "indexed": true,
          "name": "previousOwner",
          "type": "address"
        }
      ],
      "name": "OwnershipRenounced",
      "type": "event"
    },
    {
      "anonymous": false,
      "inputs": [
        {
          "indexed": true,
          "name": "previousOwner",
          "type": "address"
        },
        {
          "indexed": true,
          "name": "newOwner",
          "type": "address"
        }
      ],
      "name": "OwnershipTransferred",
      "type": "event"
    },
    {
      "anonymous": false,
      "inputs": [
        {
          "indexed": true,
          "name": "from",
          "type": "address"
        },
        {
          "indexed": true,
          "name": "to",
          "type": "address"
        },
        {
          "indexed": false,
          "name": "value",
          "type": "uint256"
        }
      ],
      "name": "Transfer",
      "type": "event"
    },
    {
      "anonymous": false,
      "inputs": [
        {
          "indexed": true,
          "name": "owner",
          "type": "address"
        },
        {
          "indexed": true,
          "name": "spender",
          "type": "address"
        },
        {
          "indexed": false,
          "name": "value",
          "type": "uint256"
        }
      ],
      "name": "Approval",
      "type": "event"
    },
    {
      "constant": false,
      "inputs": [
        {
          "name": "name",
          "type": "string"
        },
        {
          "name": "symbol",
          "type": "string"
        },
        {
          "name": "decimals",
          "type": "uint8"
        }
      ],
      "name": "initialize",
      "outputs": [],
      "payable": false,
      "stateMutability": "nonpayable",
      "type": "function"
    },
    {
      "constant": false,
      "inputs": [
        {
          "name": "_sender",
          "type": "address"
        }
      ],
      "name": "initialize",
      "outputs": [],
      "payable": false,
      "stateMutability": "nonpayable",
      "type": "function"
    },
    {
      "constant": true,
      "inputs": [],
      "name": "getRoles",
      "outputs": [
        {
          "name": "",
          "type": "address"
        },
        {
          "name": "",
          "type": "address"
        },
        {
          "name": "",
          "type": "address"
        },
        {
          "name": "",
          "type": "address"
        },
        {
          "name": "",
          "type": "address"
        }
      ],
      "payable": false,
      "stateMutability": "view",
      "type": "function"
    },
    {
      "constant": false,
      "inputs": [
        {
          "name": "amount",
          "type": "uint256"
        }
      ],
      "name": "mintCoins",
      "outputs": [],
      "payable": false,
      "stateMutability": "nonpayable",
      "type": "function"
    },
    {
      "constant": false,
      "inputs": [
        {
          "name": "amount",
          "type": "uint256"
        }
      ],
      "name": "meltCoins",
      "outputs": [],
      "payable": false,
      "stateMutability": "nonpayable",
      "type": "function"
    },
    {
      "constant": true,
      "inputs": [],
      "name": "coinsCirculating",
      "outputs": [
        {
          "name": "",
          "type": "uint256"
        }
      ],
      "payable": false,
      "stateMutability": "view",
      "type": "function"
    },
    {
      "constant": true,
      "inputs": [],
      "name": "reservedCoins",
      "outputs": [
        {
          "name": "balance",
          "type": "uint256"
        }
      ],
      "payable": false,
      "stateMutability": "view",
      "type": "function"
    },
    {
      "constant": false,
      "inputs": [
        {
          "name": "to",
          "type": "address"
        },
        {
          "name": "value",
          "type": "uint256"
        }
      ],
      "name": "transfer",
      "outputs": [
        {
          "name": "",
          "type": "bool"
        }
      ],
      "payable": false,
      "stateMutability": "nonpayable",
      "type": "function"
    },
    {
      "constant": false,
      "inputs": [
        {
          "name": "spender",
          "type": "address"
        },
        {
          "name": "value",
          "type": "uint256"
        }
      ],
      "name": "approve",
      "outputs": [
        {
          "name": "",
          "type": "bool"
        }
      ],
      "payable": false,
      "stateMutability": "nonpayable",
      "type": "function"
    },
    {
      "constant": false,
      "inputs": [
        {
          "name": "spender",
          "type": "address"
        },
        {
          "name": "addedValue",
          "type": "uint256"
        }
      ],
      "name": "increaseAllowance",
      "outputs": [
        {
          "name": "",
          "type": "bool"
        }
      ],
      "payable": false,
      "stateMutability": "nonpayable",
      "type": "function"
    },
    {
      "constant": false,
      "inputs": [
        {
          "name": "purchaser",
          "type": "address"
        },
        {
          "name": "amount",
          "type": "uint256"
        },
        {
          "name": "timeout",
          "type": "uint256"
        }
      ],
      "name": "coinPurchase",
      "outputs": [],
      "payable": false,
      "stateMutability": "nonpayable",
      "type": "function"
    },
    {
      "constant": false,
      "inputs": [
        {
          "name": "amount",
          "type": "uint256"
        }
      ],
      "name": "coinRedeem",
      "outputs": [],
      "payable": false,
      "stateMutability": "nonpayable",
      "type": "function"
    },
    {
      "constant": false,
      "inputs": [
        {
          "name": "account",
          "type": "address"
        },
        {
          "name": "time",
          "type": "uint256"
        }
      ],
      "name": "setAccountFreezeTime",
      "outputs": [],
      "payable": false,
      "stateMutability": "nonpayable",
      "type": "function"
    },
    {
      "constant": true,
      "inputs": [
        {
          "name": "account",
          "type": "address"
        }
      ],
      "name": "accountUnfreezeTime",
      "outputs": [
        {
          "name": "",
          "type": "uint256"
        }
      ],
      "payable": false,
      "stateMutability": "view",
      "type": "function"
    },
    {
      "constant": false,
      "inputs": [
        {
          "name": "topup",
          "type": "uint256"
        }
      ],
      "name": "tapCapTopUp",
      "outputs": [],
      "payable": false,
      "stateMutability": "nonpayable",
      "type": "function"
    },
    {
      "constant": false,
      "inputs": [
        {
          "name": "amount",
          "type": "uint256"
        }
      ],
      "name": "tapCapSetRefill",
      "outputs": [],
      "payable": false,
      "stateMutability": "nonpayable",
      "type": "function"
    },
    {
      "constant": false,
      "inputs": [],
      "name": "tapCapClear",
      "outputs": [],
      "payable": false,
      "stateMutability": "nonpayable",
      "type": "function"
    },
    {
      "constant": true,
      "inputs": [
        {
          "name": "user",
          "type": "address"
        }
      ],
      "name": "tapCapUser",
      "outputs": [
        {
          "name": "TransactionId",
          "type": "uint256"
        },
        {
          "name": "TapCapEscrow",
          "type": "uint256"
        },
        {
          "name": "TapCapRefill",
          "type": "uint256"
        }
      ],
      "payable": false,
      "stateMutability": "view",
      "type": "function"
    },
    {
      "constant": false,
      "inputs": [
        {
          "name": "users",
          "type": "address[]"
        },
        {
          "name": "amountChange",
          "type": "int256[]"
        }
      ],
      "name": "processSpending",
      "outputs": [],
      "payable": false,
      "stateMutability": "nonpayable",
      "type": "function"
    },
    {
      "constant": false,
      "inputs": [
        {
          "name": "newManager",
          "type": "address"
        }
      ],
      "name": "setTapCapManager",
      "outputs": [],
      "payable": false,
      "stateMutability": "nonpayable",
      "type": "function"
    },
    {
      "constant": false,
      "inputs": [],
      "name": "acceptTapCapManager",
      "outputs": [],
      "payable": false,
      "stateMutability": "nonpayable",
      "type": "function"
    },
    {
      "constant": false,
      "inputs": [
        {
          "name": "newMinter",
          "type": "address"
        }
      ],
      "name": "setMinter",
      "outputs": [],
      "payable": false,
      "stateMutability": "nonpayable",
      "type": "function"
    },
    {
      "constant": false,
      "inputs": [],
      "name": "acceptMinter",
      "outputs": [],
      "payable": false,
      "stateMutability": "nonpayable",
      "type": "function"
    },
    {
      "constant": false,
      "inputs": [
        {
          "name": "newReservist",
          "type": "address"
        }
      ],
      "name": "setTheReserves",
      "outputs": [],
      "payable": false,
      "stateMutability": "nonpayable",
      "type": "function"
    },
    {
      "constant": false,
      "inputs": [],
      "name": "acceptReservist",
      "outputs": [],
      "payable": false,
      "stateMutability": "nonpayable",
      "type": "function"
    },
    {
      "constant": false,
      "inputs": [
        {
          "name": "newPolice",
          "type": "address"
        }
      ],
      "name": "setPolice",
      "outputs": [],
      "payable": false,
      "stateMutability": "nonpayable",
      "type": "function"
    },
    {
      "constant": false,
      "inputs": [],
      "name": "acceptPolice",
      "outputs": [],
      "payable": false,
      "stateMutability": "nonpayable",
      "type": "function"
    },
    {
      "constant": false,
      "inputs": [
        {
          "name": "tokenAddress",
          "type": "address"
        },
        {
          "name": "tokens",
          "type": "uint256"
        }
      ],
      "name": "transferAnyERC20Token",
      "outputs": [
        {
          "name": "success",
          "type": "bool"
        }
      ],
      "payable": false,
      "stateMutability": "nonpayable",
      "type": "function"
    }
  ],
  "bytecode": "0x608060405234801561001057600080fd5b50614abc806100206000396000f3006080604052600436106101ee576000357c0100000000000000000000000000000000000000000000000000000000900463ffffffff16806302a1833b1461028257806306fdde03146102c5578063095ea7b3146103555780630a18f5c9146103ba5780631624f6c6146103e557806318160ddd146104a157806318fd6440146104cc5780631dcdb8e6146104f75780631f39f23c1461055c57806323b872dd1461059f5780632f9e1b1714610624578063313ce567146106515780633443984714610682578063395093511461069957806359bb708a146106fe5780636e24c37e1461071557806370a08231146107be5780637106139814610815578063715018a61461093857806377598d9a1461094f57806378ad5164146109665780638da5cb5b146109935780638f32d59b146109ea578063951cd2f114610a1957806395d89b4114610a705780639a975b0c14610b00578063a457c2d714610b17578063a77b6efb14610b7c578063a793902b14610ba9578063a9059cbb14610bd6578063b33c884514610c3b578063bff3f9cf14610c88578063c4d66de814610cb5578063cbd956c314610cf8578063d803ec1714610d0f578063dc39d06d14610d52578063dd62ed3e14610db7578063dfdf9f8214610e2e578063f2fde38b14610e85578063fca3b5aa14610ec8575b6040517f08c379a00000000000000000000000000000000000000000000000000000000081526004018080602001828103825260238152602001807f5468697320636f6e747261637420646f6573206e6f742072756e206f6e20457481526020017f686572000000000000000000000000000000000000000000000000000000000081525060400191505060405180910390fd5b34801561028e57600080fd5b506102c3600480360381019080803573ffffffffffffffffffffffffffffffffffffffff169060200190929190505050610f0b565b005b3480156102d157600080fd5b506102da611014565b6040518080602001828103825283818151815260200191508051906020019080838360005b8381101561031a5780820151818401526020810190506102ff565b50505050905090810190601f1680156103475780820380516001836020036101000a031916815260200191505b509250505060405180910390f35b34801561036157600080fd5b506103a0600480360381019080803573ffffffffffffffffffffffffffffffffffffffff169060200190929190803590602001909291905050506110b6565b604051808215151515815260200191505060405180910390f35b3480156103c657600080fd5b506103cf61125f565b6040518082815260200191505060405180910390f35b3480156103f157600080fd5b5061049f600480360381019080803590602001908201803590602001908080601f0160208091040260200160405190810160405280939291908181526020018383808284378201915050505050509192919290803590602001908201803590602001908080601f0160208091040260200160405190810160405280939291908181526020018383808284378201915050505050509192919290803560ff1690602001909291905050506112aa565b005b3480156104ad57600080fd5b506104b661142b565b6040518082815260200191505060405180910390f35b3480156104d857600080fd5b506104e1611435565b6040518082815260200191505060405180910390f35b34801561050357600080fd5b50610538600480360381019080803573ffffffffffffffffffffffffffffffffffffffff169060200190929190505050611467565b60405180848152602001838152602001828152602001935050505060405180910390f35b34801561056857600080fd5b5061059d600480360381019080803573ffffffffffffffffffffffffffffffffffffffff169060200190929190505050611542565b005b3480156105ab57600080fd5b5061060a600480360381019080803573ffffffffffffffffffffffffffffffffffffffff169060200190929190803573ffffffffffffffffffffffffffffffffffffffff1690602001909291908035906020019092919050505061164b565b604051808215151515815260200191505060405180910390f35b34801561063057600080fd5b5061064f600480360381019080803590602001909291905050506117fd565b005b34801561065d57600080fd5b50610666611a1c565b604051808260ff1660ff16815260200191505060405180910390f35b34801561068e57600080fd5b50610697611a33565b005b3480156106a557600080fd5b506106e4600480360381019080803573ffffffffffffffffffffffffffffffffffffffff16906020019092919080359060200190929190505050611b9f565b604051808215151515815260200191505060405180910390f35b34801561070a57600080fd5b50610713611d48565b005b34801561072157600080fd5b506107bc6004803603810190808035906020019082018035906020019080806020026020016040519081016040528093929190818152602001838360200280828437820191505050505050919291929080359060200190820180359060200190808060200260200160405190810160405280939291908181526020018383602002808284378201915050505050509192919290505050611eb4565b005b3480156107ca57600080fd5b506107ff600480360381019080803573ffffffffffffffffffffffffffffffffffffffff169060200190929190505050612521565b6040518082815260200191505060405180910390f35b34801561082157600080fd5b5061082a61256a565b604051808673ffffffffffffffffffffffffffffffffffffffff1673ffffffffffffffffffffffffffffffffffffffff1681526020018573ffffffffffffffffffffffffffffffffffffffff1673ffffffffffffffffffffffffffffffffffffffff1681526020018473ffffffffffffffffffffffffffffffffffffffff1673ffffffffffffffffffffffffffffffffffffffff1681526020018373ffffffffffffffffffffffffffffffffffffffff1673ffffffffffffffffffffffffffffffffffffffff1681526020018273ffffffffffffffffffffffffffffffffffffffff1673ffffffffffffffffffffffffffffffffffffffff1681526020019550505050505060405180910390f35b34801561094457600080fd5b5061094d61261c565b005b34801561095b57600080fd5b506109646126d8565b005b34801561097257600080fd5b5061099160048036038101908080359060200190929190505050612844565b005b34801561099f57600080fd5b506109a86128f9565b604051808273ffffffffffffffffffffffffffffffffffffffff1673ffffffffffffffffffffffffffffffffffffffff16815260200191505060405180910390f35b3480156109f657600080fd5b506109ff612923565b604051808215151515815260200191505060405180910390f35b348015610a2557600080fd5b50610a6e600480360381019080803573ffffffffffffffffffffffffffffffffffffffff169060200190929190803590602001909291908035906020019092919050505061297b565b005b348015610a7c57600080fd5b50610a85612b6f565b6040518080602001828103825283818151815260200191508051906020019080838360005b83811015610ac5578082015181840152602081019050610aaa565b50505050905090810190601f168015610af25780820380516001836020036101000a031916815260200191505b509250505060405180910390f35b348015610b0c57600080fd5b50610b15612c11565b005b348015610b2357600080fd5b50610b62600480360381019080803573ffffffffffffffffffffffffffffffffffffffff16906020019092919080359060200190929190505050612cdd565b604051808215151515815260200191505060405180910390f35b348015610b8857600080fd5b50610ba760048036038101908080359060200190929190505050612f14565b005b348015610bb557600080fd5b50610bd460048036038101908080359060200190929190505050613008565b005b348015610be257600080fd5b50610c21600480360381019080803573ffffffffffffffffffffffffffffffffffffffff169060200190929190803590602001909291905050506130fc565b604051808215151515815260200191505060405180910390f35b348015610c4757600080fd5b50610c86600480360381019080803573ffffffffffffffffffffffffffffffffffffffff169060200190929190803590602001909291905050506132a5565b005b348015610c9457600080fd5b50610cb3600480360381019080803590602001909291905050506133b2565b005b348015610cc157600080fd5b50610cf6600480360381019080803573ffffffffffffffffffffffffffffffffffffffff169060200190929190505050613577565b005b348015610d0457600080fd5b50610d0d61394a565b005b348015610d1b57600080fd5b50610d50600480360381019080803573ffffffffffffffffffffffffffffffffffffffff169060200190929190505050613ab6565b005b348015610d5e57600080fd5b50610d9d600480360381019080803573ffffffffffffffffffffffffffffffffffffffff16906020019092919080359060200190929190505050613bbf565b604051808215151515815260200191505060405180910390f35b348015610dc357600080fd5b50610e18600480360381019080803573ffffffffffffffffffffffffffffffffffffffff169060200190929190803573ffffffffffffffffffffffffffffffffffffffff169060200190929190505050613cc6565b6040518082815260200191505060405180910390f35b348015610e3a57600080fd5b50610e6f600480360381019080803573ffffffffffffffffffffffffffffffffffffffff169060200190929190505050613d4d565b6040518082815260200191505060405180910390f35b348015610e9157600080fd5b50610ec6600480360381019080803573ffffffffffffffffffffffffffffffffffffffff169060200190929190505050613d96565b005b348015610ed457600080fd5b50610f09600480360381019080803573ffffffffffffffffffffffffffffffffffffffff169060200190929190505050613db5565b005b60d360009054906101000a900473ffffffffffffffffffffffffffffffffffffffff1673ffffffffffffffffffffffffffffffffffffffff163373ffffffffffffffffffffffffffffffffffffffff16141515610fd0576040517f08c379a000000000000000000000000000000000000000000000000000000000815260040180806020018281038252600e8152602001807f496e76616c69642073656e64657200000000000000000000000000000000000081525060200191505060405180910390fd5b8060d760006101000a81548173ffffffffffffffffffffffffffffffffffffffff021916908373ffffffffffffffffffffffffffffffffffffffff16021790555050565b606060338054600181600116156101000203166002900480601f0160208091040260200160405190810160405280929190818152602001828054600181600116156101000203166002900480156110ac5780601f10611081576101008083540402835291602001916110ac565b820191906000526020600020905b81548152906001019060200180831161108f57829003601f168201915b5050505050905090565b60008180606860003373ffffffffffffffffffffffffffffffffffffffff1673ffffffffffffffffffffffffffffffffffffffff1681526020019081526020016000205410151515611170576040517f08c379a000000000000000000000000000000000000000000000000000000000815260040180806020018281038252601f8152602001807f43616c6c65722068617320696e73756666696369656e742062616c616e63650081525060200191505060405180910390fd5b4260d060003373ffffffffffffffffffffffffffffffffffffffff1673ffffffffffffffffffffffffffffffffffffffff1681526020019081526020016000205410151561124c576040517f08c379a00000000000000000000000000000000000000000000000000000000081526004018080602001828103825260248152602001807f43616c6c65722773206163636f756e742069732063757272656e746c7920667281526020017f6f7a656e0000000000000000000000000000000000000000000000000000000081525060400191505060405180910390fd5b6112568484613ebe565b91505092915050565b60006112a561128f60d360009054906101000a900473ffffffffffffffffffffffffffffffffffffffff16612521565b61129761142b565b613feb90919063ffffffff16565b905090565b60008060019054906101000a900460ff16806112ca57506112c961400c565b5b806112e157506000809054906101000a900460ff16155b151561137b576040517f08c379a000000000000000000000000000000000000000000000000000000000815260040180806020018281038252602e8152602001807f436f6e747261637420696e7374616e63652068617320616c726561647920626581526020017f656e20696e697469616c697a656400000000000000000000000000000000000081525060400191505060405180910390fd5b600060019054906101000a900460ff1690506001600060016101000a81548160ff02191690831515021790555060016000806101000a81548160ff02191690831515021790555083603390805190602001906113d89291906149eb565b5082603490805190602001906113ef9291906149eb565b5081603560006101000a81548160ff021916908360ff16021790555080600060016101000a81548160ff02191690831515021790555050505050565b6000606a54905090565b600061146260d360009054906101000a900473ffffffffffffffffffffffffffffffffffffffff16612521565b905090565b600080600060d960008573ffffffffffffffffffffffffffffffffffffffff1673ffffffffffffffffffffffffffffffffffffffff1681526020019081526020016000206000015460d960008673ffffffffffffffffffffffffffffffffffffffff1673ffffffffffffffffffffffffffffffffffffffff1681526020019081526020016000206001015460d960008773ffffffffffffffffffffffffffffffffffffffff1673ffffffffffffffffffffffffffffffffffffffff168152602001908152602001600020600201549250925092509193909250565b60d460009054906101000a900473ffffffffffffffffffffffffffffffffffffffff1673ffffffffffffffffffffffffffffffffffffffff163373ffffffffffffffffffffffffffffffffffffffff16141515611607576040517f08c379a000000000000000000000000000000000000000000000000000000000815260040180806020018281038252600e8152602001807f496e76616c69642073656e64657200000000000000000000000000000000000081525060200191505060405180910390fd5b8060d860006101000a81548173ffffffffffffffffffffffffffffffffffffffff021916908373ffffffffffffffffffffffffffffffffffffffff16021790555050565b6000606960008573ffffffffffffffffffffffffffffffffffffffff1673ffffffffffffffffffffffffffffffffffffffff16815260200190815260200160002060003373ffffffffffffffffffffffffffffffffffffffff1673ffffffffffffffffffffffffffffffffffffffff1681526020019081526020016000205482111515156116d857600080fd5b61176782606960008773ffffffffffffffffffffffffffffffffffffffff1673ffffffffffffffffffffffffffffffffffffffff16815260200190815260200160002060003373ffffffffffffffffffffffffffffffffffffffff1673ffffffffffffffffffffffffffffffffffffffff16815260200190815260200160002054613feb90919063ffffffff16565b606960008673ffffffffffffffffffffffffffffffffffffffff1673ffffffffffffffffffffffffffffffffffffffff16815260200190815260200160002060003373ffffffffffffffffffffffffffffffffffffffff1673ffffffffffffffffffffffffffffffffffffffff168152602001908152602001600020819055506117f284848461401d565b600190509392505050565b60008180606860003373ffffffffffffffffffffffffffffffffffffffff1673ffffffffffffffffffffffffffffffffffffffff16815260200190815260200160002054101515156118b7576040517f08c379a000000000000000000000000000000000000000000000000000000000815260040180806020018281038252601f8152602001807f43616c6c65722068617320696e73756666696369656e742062616c616e63650081525060200191505060405180910390fd5b60d960003373ffffffffffffffffffffffffffffffffffffffff1673ffffffffffffffffffffffffffffffffffffffff168152602001908152602001600020915061194a83606860003373ffffffffffffffffffffffffffffffffffffffff1673ffffffffffffffffffffffffffffffffffffffff16815260200190815260200160002054613feb90919063ffffffff16565b606860003373ffffffffffffffffffffffffffffffffffffffff1673ffffffffffffffffffffffffffffffffffffffff168152602001908152602001600020819055506119a483836001015461423b90919063ffffffff16565b82600101819055507f0164611a7fe547f708c0a708a8ac00ed2c0adbca62e7dee2f63512e60c30e9e63384604051808373ffffffffffffffffffffffffffffffffffffffff1673ffffffffffffffffffffffffffffffffffffffff1681526020018281526020019250505060405180910390a1505050565b6000603560009054906101000a900460ff16905090565b60d860009054906101000a900473ffffffffffffffffffffffffffffffffffffffff1673ffffffffffffffffffffffffffffffffffffffff163373ffffffffffffffffffffffffffffffffffffffff16141515611af8576040517f08c379a00000000000000000000000000000000000000000000000000000000081526004018080602001828103825260118152602001807f5065726d697373696f6e2044656e69656400000000000000000000000000000081525060200191505060405180910390fd5b60d860009054906101000a900473ffffffffffffffffffffffffffffffffffffffff1660d460006101000a81548173ffffffffffffffffffffffffffffffffffffffff021916908373ffffffffffffffffffffffffffffffffffffffff160217905550600060d860006101000a81548173ffffffffffffffffffffffffffffffffffffffff021916908373ffffffffffffffffffffffffffffffffffffffff160217905550565b60008180606860003373ffffffffffffffffffffffffffffffffffffffff1673ffffffffffffffffffffffffffffffffffffffff1681526020019081526020016000205410151515611c59576040517f08c379a000000000000000000000000000000000000000000000000000000000815260040180806020018281038252601f8152602001807f43616c6c65722068617320696e73756666696369656e742062616c616e63650081525060200191505060405180910390fd5b4260d060003373ffffffffffffffffffffffffffffffffffffffff1673ffffffffffffffffffffffffffffffffffffffff16815260200190815260200160002054101515611d35576040517f08c379a00000000000000000000000000000000000000000000000000000000081526004018080602001828103825260248152602001807f43616c6c65722773206163636f756e742069732063757272656e746c7920667281526020017f6f7a656e0000000000000000000000000000000000000000000000000000000081525060400191505060405180910390fd5b611d3f848461425c565b91505092915050565b60d760009054906101000a900473ffffffffffffffffffffffffffffffffffffffff1673ffffffffffffffffffffffffffffffffffffffff163373ffffffffffffffffffffffffffffffffffffffff16141515611e0d576040517f08c379a00000000000000000000000000000000000000000000000000000000081526004018080602001828103825260118152602001807f5065726d697373696f6e2044656e69656400000000000000000000000000000081525060200191505060405180910390fd5b60d760009054906101000a900473ffffffffffffffffffffffffffffffffffffffff1660d360006101000a81548173ffffffffffffffffffffffffffffffffffffffff021916908373ffffffffffffffffffffffffffffffffffffffff160217905550600060d760006101000a81548173ffffffffffffffffffffffffffffffffffffffff021916908373ffffffffffffffffffffffffffffffffffffffff160217905550565b60008060008060008060008060008060d160009054906101000a900473ffffffffffffffffffffffffffffffffffffffff1673ffffffffffffffffffffffffffffffffffffffff163373ffffffffffffffffffffffffffffffffffffffff16141515611f88576040517f08c379a000000000000000000000000000000000000000000000000000000000815260040180806020018281038252600e8152602001807f496e76616c69642073656e64657200000000000000000000000000000000000081525060200191505060405180910390fd5b8b5199508a518a14151561202a576040517f08c379a00000000000000000000000000000000000000000000000000000000081526004018080602001828103825260368152602001807f4561636820656e74727920696e207573657273206d757374206265206d61746381526020017f68656420627920616e20616d6f756e744368616e67650000000000000000000081525060400191505060405180910390fd5b6000985060009750600096505b89871015612475578b8781518110151561204d57fe5b9060200190602002015195508a8781518110151561206757fe5b90602001906020020151945060d960008773ffffffffffffffffffffffffffffffffffffffff1673ffffffffffffffffffffffffffffffffffffffff168152602001908152602001600020935060008513156121bd5784925061211283606860008973ffffffffffffffffffffffffffffffffffffffff1673ffffffffffffffffffffffffffffffffffffffff1681526020019081526020016000205461423b90919063ffffffff16565b50848901975088881315156121b5576040517f08c379a00000000000000000000000000000000000000000000000000000000081526004018080602001828103825260388152602001807f696e74204f766572666c6f7720696e2070726f636573735370656e64696e673a81526020017f206e6577546f74616c203c3d20746f74616c4368616e6765000000000000000081525060400191505060405180910390fd5b879850612468565b8460000391506121da828560010154613feb90919063ffffffff16565b84600101819055508360020154846001015410156123c15761220d84600101548560020154613feb90919063ffffffff16565b9050606860008773ffffffffffffffffffffffffffffffffffffffff1673ffffffffffffffffffffffffffffffffffffffff1681526020019081526020016000205481111561229957606860008773ffffffffffffffffffffffffffffffffffffffff1673ffffffffffffffffffffffffffffffffffffffff1681526020019081526020016000205490505b6122eb81606860008973ffffffffffffffffffffffffffffffffffffffff1673ffffffffffffffffffffffffffffffffffffffff16815260200190815260200160002054613feb90919063ffffffff16565b606860008873ffffffffffffffffffffffffffffffffffffffff1673ffffffffffffffffffffffffffffffffffffffff1681526020019081526020016000208190555061234581856001015461423b90919063ffffffff16565b84600101819055507fbc8fb1fdc44eddf7d69719d30f493576d74726bd6dc9ea4f283f981d43f60710868683604051808473ffffffffffffffffffffffffffffffffffffffff1673ffffffffffffffffffffffffffffffffffffffff168152602001838152602001828152602001935050505060405180910390a15b8489019750888813151515612464576040517f08c379a00000000000000000000000000000000000000000000000000000000081526004018080602001828103825260388152602001807f696e7420556e646572666c6f7720696e2070726f636573735370656e64696e6781526020017f3a206e6577546f74616c203e20746f74616c4368616e6765000000000000000081525060400191505060405180910390fd5b8798505b8680600101975050612037565b600089141515612513576040517f08c379a00000000000000000000000000000000000000000000000000000000081526004018080602001828103825260348152602001807f43616e6e6f74207265736f6c7665207370656e64696e672c20616d6f756e747381526020017f20646f206e6f742062616c616e636520746f203000000000000000000000000081525060400191505060405180910390fd5b505050505050505050505050565b6000606860008373ffffffffffffffffffffffffffffffffffffffff1673ffffffffffffffffffffffffffffffffffffffff168152602001908152602001600020549050919050565b60008060008060008061257b6128f9565b90508060d160009054906101000a900473ffffffffffffffffffffffffffffffffffffffff1660d260009054906101000a900473ffffffffffffffffffffffffffffffffffffffff1660d360009054906101000a900473ffffffffffffffffffffffffffffffffffffffff1660d460009054906101000a900473ffffffffffffffffffffffffffffffffffffffff1695509550955095509550509091929394565b612624612923565b151561262f57600080fd5b609d60009054906101000a900473ffffffffffffffffffffffffffffffffffffffff1673ffffffffffffffffffffffffffffffffffffffff167ff8df31144d9c2f0f6b59d69b8b98abd5459d07f2742c4df920b25aae33c6482060405160405180910390a26000609d60006101000a81548173ffffffffffffffffffffffffffffffffffffffff021916908373ffffffffffffffffffffffffffffffffffffffff160217905550565b60d560009054906101000a900473ffffffffffffffffffffffffffffffffffffffff1673ffffffffffffffffffffffffffffffffffffffff163373ffffffffffffffffffffffffffffffffffffffff1614151561279d576040517f08c379a00000000000000000000000000000000000000000000000000000000081526004018080602001828103825260118152602001807f5065726d697373696f6e2044656e69656400000000000000000000000000000081525060200191505060405180910390fd5b60d560009054906101000a900473ffffffffffffffffffffffffffffffffffffffff1660d160006101000a81548173ffffffffffffffffffffffffffffffffffffffff021916908373ffffffffffffffffffffffffffffffffffffffff160217905550600060d560006101000a81548173ffffffffffffffffffffffffffffffffffffffff021916908373ffffffffffffffffffffffffffffffffffffffff160217905550565b8060d960003373ffffffffffffffffffffffffffffffffffffffff1673ffffffffffffffffffffffffffffffffffffffff168152602001908152602001600020600201819055507f936ec7e4d9755c4568dc8ffea642b0aad6180d863841801e138246caa43467d13382604051808373ffffffffffffffffffffffffffffffffffffffff1673ffffffffffffffffffffffffffffffffffffffff1681526020018281526020019250505060405180910390a150565b6000609d60009054906101000a900473ffffffffffffffffffffffffffffffffffffffff16905090565b6000609d60009054906101000a900473ffffffffffffffffffffffffffffffffffffffff1673ffffffffffffffffffffffffffffffffffffffff163373ffffffffffffffffffffffffffffffffffffffff1614905090565b60d360009054906101000a900473ffffffffffffffffffffffffffffffffffffffff1673ffffffffffffffffffffffffffffffffffffffff163373ffffffffffffffffffffffffffffffffffffffff16141515612a40576040517f08c379a000000000000000000000000000000000000000000000000000000000815260040180806020018281038252600e8152602001807f496e76616c69642073656e64657200000000000000000000000000000000000081525060200191505060405180910390fd5b8180606860003373ffffffffffffffffffffffffffffffffffffffff1673ffffffffffffffffffffffffffffffffffffffff1681526020019081526020016000205410151515612af8576040517f08c379a000000000000000000000000000000000000000000000000000000000815260040180806020018281038252601f8152602001807f43616c6c65722068617320696e73756666696369656e742062616c616e63650081525060200191505060405180910390fd5b612b2560d360009054906101000a900473ffffffffffffffffffffffffffffffffffffffff16858561401d565b8160d060008673ffffffffffffffffffffffffffffffffffffffff1673ffffffffffffffffffffffffffffffffffffffff1681526020019081526020016000208190555050505050565b606060348054600181600116156101000203166002900480601f016020809104026020016040519081016040528092919081815260200182805460018160011615610100020316600290048015612c075780601f10612bdc57610100808354040283529160200191612c07565b820191906000526020600020905b815481529060010190602001808311612bea57829003601f168201915b5050505050905090565b7fffffffffffffffffffffffffffffffffffffffffffffffffffffffffffffffff60d960003373ffffffffffffffffffffffffffffffffffffffff1673ffffffffffffffffffffffffffffffffffffffff168152602001908152602001600020600201819055507f56f6ffd37b82c1cf8125c880b6a1ec6495a771e55c3771efaa08437285f4a5d033604051808273ffffffffffffffffffffffffffffffffffffffff1673ffffffffffffffffffffffffffffffffffffffff16815260200191505060405180910390a1565b60008073ffffffffffffffffffffffffffffffffffffffff168373ffffffffffffffffffffffffffffffffffffffff1614151515612d1a57600080fd5b612da982606960003373ffffffffffffffffffffffffffffffffffffffff1673ffffffffffffffffffffffffffffffffffffffff16815260200190815260200160002060008673ffffffffffffffffffffffffffffffffffffffff1673ffffffffffffffffffffffffffffffffffffffff16815260200190815260200160002054613feb90919063ffffffff16565b606960003373ffffffffffffffffffffffffffffffffffffffff1673ffffffffffffffffffffffffffffffffffffffff16815260200190815260200160002060008573ffffffffffffffffffffffffffffffffffffffff1673ffffffffffffffffffffffffffffffffffffffff168152602001908152602001600020819055508273ffffffffffffffffffffffffffffffffffffffff163373ffffffffffffffffffffffffffffffffffffffff167f8c5be1e5ebec7d5bd14f71427d1e84f3dd0314c0f7b2291e5b200ac8c7c3b925606960003373ffffffffffffffffffffffffffffffffffffffff1673ffffffffffffffffffffffffffffffffffffffff16815260200190815260200160002060008773ffffffffffffffffffffffffffffffffffffffff1673ffffffffffffffffffffffffffffffffffffffff168152602001908152602001600020546040518082815260200191505060405180910390a36001905092915050565b60d260009054906101000a900473ffffffffffffffffffffffffffffffffffffffff1673ffffffffffffffffffffffffffffffffffffffff163373ffffffffffffffffffffffffffffffffffffffff16141515612fd9576040517f08c379a000000000000000000000000000000000000000000000000000000000815260040180806020018281038252600e8152602001807f496e76616c69642073656e64657200000000000000000000000000000000000081525060200191505060405180910390fd5b61300560d360009054906101000a900473ffffffffffffffffffffffffffffffffffffffff1682614493565b50565b60d260009054906101000a900473ffffffffffffffffffffffffffffffffffffffff1673ffffffffffffffffffffffffffffffffffffffff163373ffffffffffffffffffffffffffffffffffffffff161415156130cd576040517f08c379a000000000000000000000000000000000000000000000000000000000815260040180806020018281038252600e8152602001807f496e76616c69642073656e64657200000000000000000000000000000000000081525060200191505060405180910390fd5b6130f960d360009054906101000a900473ffffffffffffffffffffffffffffffffffffffff16826145d3565b50565b60008180606860003373ffffffffffffffffffffffffffffffffffffffff1673ffffffffffffffffffffffffffffffffffffffff16815260200190815260200160002054101515156131b6576040517f08c379a000000000000000000000000000000000000000000000000000000000815260040180806020018281038252601f8152602001807f43616c6c65722068617320696e73756666696369656e742062616c616e63650081525060200191505060405180910390fd5b4260d060003373ffffffffffffffffffffffffffffffffffffffff1673ffffffffffffffffffffffffffffffffffffffff16815260200190815260200160002054101515613292576040517f08c379a00000000000000000000000000000000000000000000000000000000081526004018080602001828103825260248152602001807f43616c6c65722773206163636f756e742069732063757272656e746c7920667281526020017f6f7a656e0000000000000000000000000000000000000000000000000000000081525060400191505060405180910390fd5b61329c8484614761565b91505092915050565b60d460009054906101000a900473ffffffffffffffffffffffffffffffffffffffff1673ffffffffffffffffffffffffffffffffffffffff163373ffffffffffffffffffffffffffffffffffffffff1614151561336a576040517f08c379a000000000000000000000000000000000000000000000000000000000815260040180806020018281038252600e8152602001807f496e76616c69642073656e64657200000000000000000000000000000000000081525060200191505060405180910390fd5b8060d060008473ffffffffffffffffffffffffffffffffffffffff1673ffffffffffffffffffffffffffffffffffffffff168152602001908152602001600020819055505050565b8080606860003373ffffffffffffffffffffffffffffffffffffffff1673ffffffffffffffffffffffffffffffffffffffff168152602001908152602001600020541015151561346a576040517f08c379a000000000000000000000000000000000000000000000000000000000815260040180806020018281038252601f8152602001807f43616c6c65722068617320696e73756666696369656e742062616c616e63650081525060200191505060405180910390fd5b4260d060003373ffffffffffffffffffffffffffffffffffffffff1673ffffffffffffffffffffffffffffffffffffffff16815260200190815260200160002054101515613546576040517f08c379a00000000000000000000000000000000000000000000000000000000081526004018080602001828103825260248152602001807f43616c6c65722773206163636f756e742069732063757272656e746c7920667281526020017f6f7a656e0000000000000000000000000000000000000000000000000000000081525060400191505060405180910390fd5b6135733360d360009054906101000a900473ffffffffffffffffffffffffffffffffffffffff168461401d565b5050565b60008060019054906101000a900460ff1680613597575061359661400c565b5b806135ae57506000809054906101000a900460ff16155b1515613648576040517f08c379a000000000000000000000000000000000000000000000000000000000815260040180806020018281038252602e8152602001807f436f6e747261637420696e7374616e63652068617320616c726561647920626581526020017f656e20696e697469616c697a656400000000000000000000000000000000000081525060400191505060405180910390fd5b600060019054906101000a900460ff1690506001600060016101000a81548160ff02191690831515021790555060016000806101000a81548160ff0219169083151502179055506137056040805190810160405280600981526020017f5448453a20436f696e00000000000000000000000000000000000000000000008152506040805190810160405280600381526020017f544845000000000000000000000000000000000000000000000000000000000081525060066112aa565b61370e82614778565b600060d160009054906101000a900473ffffffffffffffffffffffffffffffffffffffff1673ffffffffffffffffffffffffffffffffffffffff1614801561378e5750600060d260009054906101000a900473ffffffffffffffffffffffffffffffffffffffff1673ffffffffffffffffffffffffffffffffffffffff16145b1515613828576040517f08c379a00000000000000000000000000000000000000000000000000000000081526004018080602001828103825260268152602001807f53797374656d20636f6d70726f6d697365642e2020467265657a65204576657281526020017f797468696e67000000000000000000000000000000000000000000000000000081525060400191505060405180910390fd5b8160d160006101000a81548173ffffffffffffffffffffffffffffffffffffffff021916908373ffffffffffffffffffffffffffffffffffffffff1602179055508160d260006101000a81548173ffffffffffffffffffffffffffffffffffffffff021916908373ffffffffffffffffffffffffffffffffffffffff1602179055508160d360006101000a81548173ffffffffffffffffffffffffffffffffffffffff021916908373ffffffffffffffffffffffffffffffffffffffff1602179055508160d460006101000a81548173ffffffffffffffffffffffffffffffffffffffff021916908373ffffffffffffffffffffffffffffffffffffffff16021790555080600060016101000a81548160ff0219169083151502179055505050565b60d660009054906101000a900473ffffffffffffffffffffffffffffffffffffffff1673ffffffffffffffffffffffffffffffffffffffff163373ffffffffffffffffffffffffffffffffffffffff16141515613a0f576040517f08c379a00000000000000000000000000000000000000000000000000000000081526004018080602001828103825260118152602001807f5065726d697373696f6e2044656e69656400000000000000000000000000000081525060200191505060405180910390fd5b60d660009054906101000a900473ffffffffffffffffffffffffffffffffffffffff1660d260006101000a81548173ffffffffffffffffffffffffffffffffffffffff021916908373ffffffffffffffffffffffffffffffffffffffff160217905550600060d660006101000a81548173ffffffffffffffffffffffffffffffffffffffff021916908373ffffffffffffffffffffffffffffffffffffffff160217905550565b60d160009054906101000a900473ffffffffffffffffffffffffffffffffffffffff1673ffffffffffffffffffffffffffffffffffffffff163373ffffffffffffffffffffffffffffffffffffffff16141515613b7b576040517f08c379a000000000000000000000000000000000000000000000000000000000815260040180806020018281038252600e8152602001807f496e76616c69642073656e64657200000000000000000000000000000000000081525060200191505060405180910390fd5b8060d560006101000a81548173ffffffffffffffffffffffffffffffffffffffff021916908373ffffffffffffffffffffffffffffffffffffffff16021790555050565b600080613bca612923565b1515613bd557600080fd5b8390508073ffffffffffffffffffffffffffffffffffffffff1663a9059cbb613bfc6128f9565b856040518363ffffffff167c0100000000000000000000000000000000000000000000000000000000028152600401808373ffffffffffffffffffffffffffffffffffffffff1673ffffffffffffffffffffffffffffffffffffffff16815260200182815260200192505050602060405180830381600087803b158015613c8257600080fd5b505af1158015613c96573d6000803e3d6000fd5b505050506040513d6020811015613cac57600080fd5b810190808051906020019092919050505091505092915050565b6000606960008473ffffffffffffffffffffffffffffffffffffffff1673ffffffffffffffffffffffffffffffffffffffff16815260200190815260200160002060008373ffffffffffffffffffffffffffffffffffffffff1673ffffffffffffffffffffffffffffffffffffffff16815260200190815260200160002054905092915050565b600060d060008373ffffffffffffffffffffffffffffffffffffffff1673ffffffffffffffffffffffffffffffffffffffff168152602001908152602001600020549050919050565b613d9e612923565b1515613da957600080fd5b613db2816148ef565b50565b60d260009054906101000a900473ffffffffffffffffffffffffffffffffffffffff1673ffffffffffffffffffffffffffffffffffffffff163373ffffffffffffffffffffffffffffffffffffffff16141515613e7a576040517f08c379a000000000000000000000000000000000000000000000000000000000815260040180806020018281038252600e8152602001807f496e76616c69642073656e64657200000000000000000000000000000000000081525060200191505060405180910390fd5b8060d660006101000a81548173ffffffffffffffffffffffffffffffffffffffff021916908373ffffffffffffffffffffffffffffffffffffffff16021790555050565b60008073ffffffffffffffffffffffffffffffffffffffff168373ffffffffffffffffffffffffffffffffffffffff1614151515613efb57600080fd5b81606960003373ffffffffffffffffffffffffffffffffffffffff1673ffffffffffffffffffffffffffffffffffffffff16815260200190815260200160002060008573ffffffffffffffffffffffffffffffffffffffff1673ffffffffffffffffffffffffffffffffffffffff168152602001908152602001600020819055508273ffffffffffffffffffffffffffffffffffffffff163373ffffffffffffffffffffffffffffffffffffffff167f8c5be1e5ebec7d5bd14f71427d1e84f3dd0314c0f7b2291e5b200ac8c7c3b925846040518082815260200191505060405180910390a36001905092915050565b600080838311151515613ffd57600080fd5b82840390508091505092915050565b600080303b90506000811491505090565b606860008473ffffffffffffffffffffffffffffffffffffffff1673ffffffffffffffffffffffffffffffffffffffff16815260200190815260200160002054811115151561406b57600080fd5b600073ffffffffffffffffffffffffffffffffffffffff168273ffffffffffffffffffffffffffffffffffffffff16141515156140a757600080fd5b6140f981606860008673ffffffffffffffffffffffffffffffffffffffff1673ffffffffffffffffffffffffffffffffffffffff16815260200190815260200160002054613feb90919063ffffffff16565b606860008573ffffffffffffffffffffffffffffffffffffffff1673ffffffffffffffffffffffffffffffffffffffff1681526020019081526020016000208190555061418e81606860008573ffffffffffffffffffffffffffffffffffffffff1673ffffffffffffffffffffffffffffffffffffffff1681526020019081526020016000205461423b90919063ffffffff16565b606860008473ffffffffffffffffffffffffffffffffffffffff1673ffffffffffffffffffffffffffffffffffffffff168152602001908152602001600020819055508173ffffffffffffffffffffffffffffffffffffffff168373ffffffffffffffffffffffffffffffffffffffff167fddf252ad1be2c89b69c2b068fc378daa952ba7f163c4a11628f55a4df523b3ef836040518082815260200191505060405180910390a3505050565b600080828401905083811015151561425257600080fd5b8091505092915050565b60008073ffffffffffffffffffffffffffffffffffffffff168373ffffffffffffffffffffffffffffffffffffffff161415151561429957600080fd5b61432882606960003373ffffffffffffffffffffffffffffffffffffffff1673ffffffffffffffffffffffffffffffffffffffff16815260200190815260200160002060008673ffffffffffffffffffffffffffffffffffffffff1673ffffffffffffffffffffffffffffffffffffffff1681526020019081526020016000205461423b90919063ffffffff16565b606960003373ffffffffffffffffffffffffffffffffffffffff1673ffffffffffffffffffffffffffffffffffffffff16815260200190815260200160002060008573ffffffffffffffffffffffffffffffffffffffff1673ffffffffffffffffffffffffffffffffffffffff168152602001908152602001600020819055508273ffffffffffffffffffffffffffffffffffffffff163373ffffffffffffffffffffffffffffffffffffffff167f8c5be1e5ebec7d5bd14f71427d1e84f3dd0314c0f7b2291e5b200ac8c7c3b925606960003373ffffffffffffffffffffffffffffffffffffffff1673ffffffffffffffffffffffffffffffffffffffff16815260200190815260200160002060008773ffffffffffffffffffffffffffffffffffffffff1673ffffffffffffffffffffffffffffffffffffffff168152602001908152602001600020546040518082815260200191505060405180910390a36001905092915050565b60008273ffffffffffffffffffffffffffffffffffffffff16141515156144b957600080fd5b6144ce81606a5461423b90919063ffffffff16565b606a8190555061452681606860008573ffffffffffffffffffffffffffffffffffffffff1673ffffffffffffffffffffffffffffffffffffffff1681526020019081526020016000205461423b90919063ffffffff16565b606860008473ffffffffffffffffffffffffffffffffffffffff1673ffffffffffffffffffffffffffffffffffffffff168152602001908152602001600020819055508173ffffffffffffffffffffffffffffffffffffffff16600073ffffffffffffffffffffffffffffffffffffffff167fddf252ad1be2c89b69c2b068fc378daa952ba7f163c4a11628f55a4df523b3ef836040518082815260200191505060405180910390a35050565b60008273ffffffffffffffffffffffffffffffffffffffff16141515156145f957600080fd5b606860008373ffffffffffffffffffffffffffffffffffffffff1673ffffffffffffffffffffffffffffffffffffffff16815260200190815260200160002054811115151561464757600080fd5b61465c81606a54613feb90919063ffffffff16565b606a819055506146b481606860008573ffffffffffffffffffffffffffffffffffffffff1673ffffffffffffffffffffffffffffffffffffffff16815260200190815260200160002054613feb90919063ffffffff16565b606860008473ffffffffffffffffffffffffffffffffffffffff1673ffffffffffffffffffffffffffffffffffffffff16815260200190815260200160002081905550600073ffffffffffffffffffffffffffffffffffffffff168273ffffffffffffffffffffffffffffffffffffffff167fddf252ad1be2c89b69c2b068fc378daa952ba7f163c4a11628f55a4df523b3ef836040518082815260200191505060405180910390a35050565b600061476e33848461401d565b6001905092915050565b60008060019054906101000a900460ff1680614798575061479761400c565b5b806147af57506000809054906101000a900460ff16155b1515614849576040517f08c379a000000000000000000000000000000000000000000000000000000000815260040180806020018281038252602e8152602001807f436f6e747261637420696e7374616e63652068617320616c726561647920626581526020017f656e20696e697469616c697a656400000000000000000000000000000000000081525060400191505060405180910390fd5b600060019054906101000a900460ff1690506001600060016101000a81548160ff02191690831515021790555060016000806101000a81548160ff02191690831515021790555081609d60006101000a81548173ffffffffffffffffffffffffffffffffffffffff021916908373ffffffffffffffffffffffffffffffffffffffff16021790555080600060016101000a81548160ff0219169083151502179055505050565b600073ffffffffffffffffffffffffffffffffffffffff168173ffffffffffffffffffffffffffffffffffffffff161415151561492b57600080fd5b8073ffffffffffffffffffffffffffffffffffffffff16609d60009054906101000a900473ffffffffffffffffffffffffffffffffffffffff1673ffffffffffffffffffffffffffffffffffffffff167f8be0079c531659141344cd1fd0a4f28419497f9722a3daafe3b4186f6b6457e060405160405180910390a380609d60006101000a81548173ffffffffffffffffffffffffffffffffffffffff021916908373ffffffffffffffffffffffffffffffffffffffff16021790555050565b828054600181600116156101000203166002900490600052602060002090601f016020900481019282601f10614a2c57805160ff1916838001178555614a5a565b82800160010185558215614a5a579182015b82811115614a59578251825591602001919060010190614a3e565b5b509050614a679190614a6b565b5090565b614a8d91905b80821115614a89576000816000905550600101614a71565b5090565b905600a165627a7a7230582043aefb771aedef4b85cc9f01d50d105b7137360d6ddd3773acd8374fda00c37f0029",
  "source": "pragma solidity ^0.4.24;\r\n\r\nimport './ERC20Local.sol';\r\nimport 'openzeppelin-eth/contracts/token/ERC20/ERC20Detailed.sol';\r\nimport 'openzeppelin-eth/contracts/ownership/Ownable.sol';\r\nimport 'zos-lib/contracts/Initializable.sol';\r\n\r\nimport \"openzeppelin-eth/contracts/token/ERC20/IERC20.sol\";\r\n// ----------------------------------------------------------------------------\r\n// SpyCoin - A crypto-currency pegged to the SPX (SPY actually)\r\n//\r\n// Symbol      : SPY\r\n// Name        : SpyCoin - A cryptocurrency that tracks the S&P500\r\n// Decimals    : 6\r\n//\r\n// Enjoy.\r\n//\r\n// ----------------------------------------------------------------------------\r\n\r\n// ----------------------------------------------------------------------------\r\n// ERC20 Token, with the addition of symbol, name and decimals \r\n//\r\n// NOTE: 100 SpyCoins is equivalent to 1 share of SPY,\r\n// or *at time of writing* roughly $2.70 USD\r\n// and with 6 decimal places 100,000,000 tokens is 1 share,\r\n// and 1 token has an approximate value of 0.00027c USD\r\n// ----------------------------------------------------------------------------\r\ncontract TheCoin is Initializable, ERC20Detailed, ERC20Local, Ownable {\r\n\r\n    // An account may be subject to a timeout, during which\r\n    // period it is forbidden from transferring its value\r\n    mapping(address => uint) freezeUntil;\r\n\r\n    // The following addresses have different roles\r\n\r\n    // TapCapManager is responsible for periodically\r\n    // processing the externally managed TapCap feature\r\n    address role_TapCapManager;\r\n    // The Minter is permitted to mint/melt coins.\r\n    // All coins minted/melted by the minter are\r\n    // from/to TheReserves address\r\n    address role_Minter;\r\n    // THE Coin reserve address.  This is the address\r\n    // directly managed by the THE Coin Inc.  Users\r\n    // interact with this address when purchase/redeem coins\r\n    address role_TheReserves;\r\n    // The Police have very limited powers, they may\r\n    // freeze accounts but nothing else\r\n    address role_Police;\r\n\r\n    // Enforcing a set/accept 2 step process for setting roles\r\n    // creates a strong guarantee that we can't f* up and set\r\n    // the roles to an invalid address\r\n    address new_TapCapManager;\r\n    address new_Minter;\r\n    address new_TheReservist;\r\n    address new_Police;\r\n\r\n    // ------------------------------------------------------------------------\r\n    // Events\r\n    // ------------------------------------------------------------------------\r\n\r\n    // ------------------------------------------------------------------------\r\n    // Constructor\r\n    // ------------------------------------------------------------------------\r\n    function initialize(address _sender) public\r\n        initializer() \r\n    {\r\n        ERC20Detailed.initialize(\"THE: Coin\", \"THE\", 6);\r\n        Ownable.initialize(_sender);\r\n        \r\n        // Lets just double-check this contract has not\r\n        // yet been initialized.\r\n        require(role_TapCapManager == 0 && role_Minter == 0, \"System compromised.  Freeze Everything\");\r\n\r\n        // We initialize all roles to owner.\r\n        // It is expected that Owner will distribute\r\n        // these roles to others\r\n        role_TapCapManager = _sender;\r\n        role_Minter = _sender;\r\n        role_TheReserves = _sender;\r\n        role_Police = _sender;\r\n    }\r\n\r\n    function getRoles() public view returns(address,address,address,address,address)\r\n    {\r\n        address theOwner = owner();\r\n        return (theOwner, role_TapCapManager, role_Minter, role_TheReserves, role_Police);\r\n    }\r\n\r\n    // ------------------------------------------------------------------------\r\n    // Total supply management\r\n    // ------------------------------------------------------------------------\r\n\r\n    // The owner will periodically add new coins to match\r\n    // shares purchased of SPY\r\n    function mintCoins(uint amount) public\r\n        onlyMinter\r\n    {\r\n        _mint(role_TheReserves, amount);\r\n    }\r\n\r\n    // Remove coins\r\n    function meltCoins(uint amount) public\r\n        onlyMinter\r\n    {\r\n        _burn(role_TheReserves, amount);\r\n    }\r\n\r\n    // Coins currently owned by clients (not TheCoin)\r\n    function coinsCirculating() public view returns(uint)\r\n    {\r\n        return totalSupply().sub(balanceOf(role_TheReserves));\r\n    }\r\n\r\n    // Coins available for sale to the public \r\n    function reservedCoins() public view returns (uint balance) \r\n    {\r\n        return balanceOf(role_TheReserves);\r\n    }\r\n\r\n    // ------------------------------------------------------------------------\r\n    // Override standard functions to limit by account freezing\r\n    // ------------------------------------------------------------------------\r\n    function transfer(address to, uint256 value) public isTransferable(value) returns (bool) {\r\n        return super.transfer(to, value);\r\n    }\r\n    function approve(address spender, uint256 value) public isTransferable(value) returns (bool) {\r\n        return super.approve(spender, value);\r\n    }\r\n    function increaseAllowance(address spender, uint256 addedValue) public isTransferable(addedValue) returns (bool) {\r\n        return super.increaseAllowance(spender, addedValue);\r\n    }\r\n\r\n    // ------------------------------------------------------------------------\r\n    // Client interactions with TheCoin\r\n    // ------------------------------------------------------------------------\r\n\r\n    // Users purchase coin from us.  A script on our\r\n    // site will trigger this call\r\n    function coinPurchase(address purchaser, uint amount, uint timeout) public\r\n    onlyTheCoin\r\n    balanceAvailable(amount)\r\n    {\r\n        _transfer(role_TheReserves, purchaser, amount);\r\n        freezeUntil[purchaser] = timeout;\r\n    }\r\n\r\n    // A user returns their coins to us (this will trigger disbursement externally)\r\n    function coinRedeem(uint amount) public\r\n    isTransferable(amount)\r\n    {\r\n        // first, we recover the coins back to our own account\r\n        _transfer(msg.sender, role_TheReserves, amount);\r\n    }\r\n\r\n    // ------------------------------------------------------------------------\r\n    // Sets a timeout, until which time the user will not\r\n    // account may not be transacted against.\r\n    // ------------------------------------------------------------------------\r\n    function setAccountFreezeTime(address account, uint time) public\r\n    onlyPolice\r\n    {\r\n        freezeUntil[account] = time;\r\n    }\r\n\r\n    // ------------------------------------------------------------------------\r\n    // Returns the timestamp of when this account will\r\n    // be unfrozen (able to be transacted against)\r\n    // ------------------------------------------------------------------------\r\n    function accountUnfreezeTime(address account) public \r\n    view\r\n    returns(uint) \r\n    {\r\n        return freezeUntil[account];\r\n    }\r\n\r\n\r\n    // ------------------------------------------------------------------------\r\n    // Implement escrow 'accounts' for holding amounts in escrow to be used \r\n    // in offline transactions\r\n    // ------------------------------------------------------------------------\r\n\r\n    // TODO: Spending _balances are amounts that\r\n    // are transfered from the _balances into\r\n    // escrow accounts.  These escrow accounts can then\r\n    // be spent against and tracked with local databases\r\n    // and are synced back to the main chain once per week (or so)\r\n    struct TapCapData\r\n    {\r\n        uint TransactionId; // Last processed TC transaction\r\n        uint TapCapEscrow; // How much is currently held in escrow?\r\n        uint TapCapRefill;  // How much should be refilled each week?\r\n    }\r\n\r\n    mapping(address => TapCapData) tapCaps;\r\n\r\n    event TapCapTopUp(address client, uint topup);\r\n    event TapCapSetWeekly(address client, uint weeklyLimit);\r\n    event TapCapClear(address client);\r\n    event TapCapUserUpdated(address client, int change, uint toppedUp);\r\n\r\n    // Event emitted when manually processing TC's\r\n    event TapCapProcessed(address client, address dest, uint amount);\r\n\r\n    // Topup the escrow.  NOTE: This will implicitly increase the amount registered by\r\n    // the spending manager.  Those records are separate and not directly\r\n    // linked to the amounts here.\r\n    function tapCapTopUp(uint topup) public\r\n    balanceAvailable(topup)\r\n    {\r\n        TapCapData storage userAccount = tapCaps[msg.sender];\r\n        _balances[msg.sender] = _balances[msg.sender].sub(topup);\r\n        userAccount.TapCapEscrow = userAccount.TapCapEscrow.add(topup);\r\n        emit TapCapTopUp(msg.sender, topup);\r\n    }\r\n\r\n    // Set's the weekly TapCap for the user.  Does not affect the current weeks TapCap\r\n    function tapCapSetRefill(uint amount) public\r\n    {\r\n        tapCaps[msg.sender].TapCapRefill = amount;\r\n        emit TapCapSetWeekly(msg.sender, amount);\r\n    }\r\n    \r\n    // Clear a users TapCap account.  A user may not directly\r\n    // clear an account, as the user may have a TC debit\r\n    // pending from the spending manager.\r\n    function tapCapClear() public\r\n    {\r\n        tapCaps[msg.sender].TapCapRefill = uint(-1);\r\n        emit TapCapClear(msg.sender);\r\n    }\r\n\r\n    // Get current values for spending...\r\n    function tapCapUser(address user) public view returns(uint TransactionId, uint TapCapEscrow, uint TapCapRefill)\r\n    {\r\n        return (tapCaps[user].TransactionId, tapCaps[user].TapCapEscrow, tapCaps[user].TapCapRefill);\r\n    }\r\n\r\n    //\r\n    // The big puppy.  Update all accounts with changes from spending\r\n    //\r\n    function processSpending(address[] users, int[] amountChange) public\r\n    onlyTapCapManager()\r\n    {\r\n        uint numChanges = users.length; \r\n        require(numChanges == amountChange.length, \"Each entry in users must be matched by an amountChange\");\r\n\r\n        int totalChange = 0;\r\n        int newTotal = 0;\r\n        for (uint i = 0; i < numChanges; i++) \r\n        {\r\n            address user = users[i];\r\n            int delta = amountChange[i];\r\n            TapCapData storage userAccount = tapCaps[user];\r\n            // Apply the delta to the users account\r\n            if (delta > 0) {\r\n                // Get abs(delta)\r\n                uint pdelta = uint(delta);\r\n                // Add directly to the users regular account.  We may not\r\n                // have permission to interact with the users TapCap\r\n                _balances[user].add(pdelta);\r\n\r\n                // Update total.  Can't use safe-math for this, as\r\n                // newTotal is a signed int to allow it to go negative.\r\n                newTotal = totalChange + delta;\r\n                require(newTotal > totalChange, \"int Overflow in processSpending: newTotal <= totalChange\");\r\n                totalChange = newTotal;\r\n            }\r\n            else {\r\n                // Get abs(delta)\r\n                uint ndelta = uint(-delta);\r\n                userAccount.TapCapEscrow = userAccount.TapCapEscrow.sub(ndelta);\r\n\r\n                // Topup the account by an appropriate amount\r\n                if (userAccount.TapCapEscrow < userAccount.TapCapRefill)\r\n                {\r\n                    uint topup = userAccount.TapCapRefill.sub(userAccount.TapCapEscrow);\r\n                    if (topup > _balances[user])\r\n                    {\r\n                        topup = _balances[user];\r\n                    }\r\n                    _balances[user] = _balances[user].sub(topup);\r\n                    userAccount.TapCapEscrow = userAccount.TapCapEscrow.add(topup);\r\n                    emit TapCapUserUpdated(user, delta, topup);\r\n                }\r\n\r\n                // Update total\r\n                newTotal = totalChange + delta;\r\n                require(newTotal <= totalChange, \"int Underflow in processSpending: newTotal > totalChange\");\r\n                totalChange = newTotal;\r\n            }\r\n        }\r\n\r\n        require(totalChange == 0, \"Cannot resolve spending, amounts do not balance to 0\");\r\n    }\r\n\r\n    // ------------------------------------------------------------------------\r\n    // Don't accept ETH\r\n    // ------------------------------------------------------------------------\r\n    function () public payable {\r\n        revert(\"This contract does not run on Ether\");\r\n    }\r\n\r\n    // ------------------------------------------------------------------------\r\n    // Allow updating our key users\r\n    // ------------------------------------------------------------------------\r\n    function setTapCapManager(address newManager) public \r\n    onlyTapCapManager\r\n    {\r\n        new_TapCapManager = newManager;\r\n    }\r\n    function acceptTapCapManager() public \r\n    {\r\n        require(msg.sender == new_TapCapManager, \"Permission Denied\");\r\n        role_TapCapManager = new_TapCapManager;\r\n        new_TapCapManager = 0;\r\n    }\r\n\r\n    function setMinter(address newMinter) public \r\n    onlyMinter\r\n    {\r\n        new_Minter = newMinter;\r\n    }\r\n    function acceptMinter() public \r\n    {\r\n        require(msg.sender == new_Minter, \"Permission Denied\");\r\n        role_Minter = new_Minter;\r\n        new_Minter = 0;\r\n    }\r\n\r\n    function setTheReserves(address newReservist) public \r\n    onlyTheCoin\r\n    {\r\n        new_TheReservist = newReservist;\r\n    }\r\n    function acceptReservist() public \r\n    {\r\n        require(msg.sender == new_TheReservist, \"Permission Denied\");\r\n        role_TheReserves = new_TheReservist;\r\n        new_TheReservist = 0;\r\n    }\r\n\r\n    function setPolice(address newPolice) public \r\n    onlyPolice\r\n    {\r\n        new_Police = newPolice;\r\n    }\r\n    function acceptPolice() public \r\n    {\r\n        require(msg.sender == new_Police, \"Permission Denied\");\r\n        role_Police = new_Police;\r\n        new_Police = 0;\r\n    }\r\n    // ------------------------------------------------------------------------\r\n    // Owner can transfer out any ERC20 tokens accidentally assigned to this contracts address\r\n    // ------------------------------------------------------------------------\r\n    function transferAnyERC20Token(address tokenAddress, uint256 tokens) public onlyOwner returns (bool success) {\r\n        IERC20 tokenContract = IERC20(tokenAddress);\r\n        return tokenContract.transfer(owner(), tokens);\r\n    }\r\n\r\n    ///////////////////////////////\r\n    modifier balanceAvailable(uint amount) {\r\n        require(_balances[msg.sender] >= amount, \"Caller has insufficient balance\");\r\n        _;\r\n    }\r\n\r\n    modifier isTransferable(uint amount) {\r\n        require(_balances[msg.sender] >= amount, \"Caller has insufficient balance\");\r\n        require(freezeUntil[msg.sender] < now, \"Caller's account is currently frozen\");\r\n        _;\r\n    }\r\n\r\n    modifier onlyTapCapManager()\r\n    {\r\n        require(msg.sender == role_TapCapManager, \"Invalid sender\");\r\n        _;\r\n    }\r\n\r\n    modifier onlyMinter()\r\n    {\r\n        require(msg.sender == role_Minter, \"Invalid sender\");\r\n        _;\r\n    }\r\n\r\n    modifier onlyTheCoin()\r\n    {\r\n        require(msg.sender == role_TheReserves, \"Invalid sender\");\r\n        _;\r\n    }\r\n\r\n    modifier onlyPolice()\r\n    {\r\n        require(msg.sender == role_Police, \"Invalid sender\");\r\n        _;\r\n    }\r\n}",
  "sourcePath": "C:\\src\\TheCoin\\temp\\the-contract\\contracts\\TheCoin.sol",
  "compiler": {
    "name": "solc",
    "version": "0.4.24+commit.e67f0147.Emscripten.clang"
  },
  "schemaVersion": "2.0.1",
  "updatedAt": "2018-11-08T01:07:55.248Z"
}