{
  "contractName": "TheCoin",
  "abi": [
    {
      "constant": true,
      "inputs": [],
      "name": "name",
      "outputs": [
        {
          "name": "",
          "type": "string"
        }
      ],
      "payable": false,
      "stateMutability": "view",
      "type": "function"
    },
    {
      "constant": false,
      "inputs": [
        {
          "name": "_spender",
          "type": "address"
        },
        {
          "name": "_value",
          "type": "uint256"
        }
      ],
      "name": "approve",
      "outputs": [
        {
          "name": "",
          "type": "bool"
        }
      ],
      "payable": false,
      "stateMutability": "nonpayable",
      "type": "function"
    },
    {
      "constant": true,
      "inputs": [],
      "name": "totalSupply",
      "outputs": [
        {
          "name": "",
          "type": "uint256"
        }
      ],
      "payable": false,
      "stateMutability": "view",
      "type": "function"
    },
    {
      "constant": false,
      "inputs": [
        {
          "name": "_from",
          "type": "address"
        },
        {
          "name": "_to",
          "type": "address"
        },
        {
          "name": "_value",
          "type": "uint256"
        }
      ],
      "name": "transferFrom",
      "outputs": [
        {
          "name": "",
          "type": "bool"
        }
      ],
      "payable": false,
      "stateMutability": "nonpayable",
      "type": "function"
    },
    {
      "constant": true,
      "inputs": [],
      "name": "decimals",
      "outputs": [
        {
          "name": "",
          "type": "uint8"
        }
      ],
      "payable": false,
      "stateMutability": "view",
      "type": "function"
    },
    {
      "constant": false,
      "inputs": [
        {
          "name": "_spender",
          "type": "address"
        },
        {
          "name": "_subtractedValue",
          "type": "uint256"
        }
      ],
      "name": "decreaseApproval",
      "outputs": [
        {
          "name": "",
          "type": "bool"
        }
      ],
      "payable": false,
      "stateMutability": "nonpayable",
      "type": "function"
    },
    {
      "constant": true,
      "inputs": [
        {
          "name": "_owner",
          "type": "address"
        }
      ],
      "name": "balanceOf",
      "outputs": [
        {
          "name": "",
          "type": "uint256"
        }
      ],
      "payable": false,
      "stateMutability": "view",
      "type": "function"
    },
    {
      "constant": true,
      "inputs": [],
      "name": "owner",
      "outputs": [
        {
          "name": "",
          "type": "address"
        }
      ],
      "payable": false,
      "stateMutability": "view",
      "type": "function"
    },
    {
      "constant": true,
      "inputs": [],
      "name": "symbol",
      "outputs": [
        {
          "name": "",
          "type": "string"
        }
      ],
      "payable": false,
      "stateMutability": "view",
      "type": "function"
    },
    {
      "constant": false,
      "inputs": [
        {
          "name": "_to",
          "type": "address"
        },
        {
          "name": "_value",
          "type": "uint256"
        }
      ],
      "name": "transfer",
      "outputs": [
        {
          "name": "",
          "type": "bool"
        }
      ],
      "payable": false,
      "stateMutability": "nonpayable",
      "type": "function"
    },
    {
      "constant": true,
      "inputs": [
        {
          "name": "contractName",
          "type": "string"
        },
        {
          "name": "migrationId",
          "type": "string"
        }
      ],
      "name": "isMigrated",
      "outputs": [
        {
          "name": "",
          "type": "bool"
        }
      ],
      "payable": false,
      "stateMutability": "view",
      "type": "function"
    },
    {
      "constant": false,
      "inputs": [
        {
          "name": "_spender",
          "type": "address"
        },
        {
          "name": "_addedValue",
          "type": "uint256"
        }
      ],
      "name": "increaseApproval",
      "outputs": [
        {
          "name": "",
          "type": "bool"
        }
      ],
      "payable": false,
      "stateMutability": "nonpayable",
      "type": "function"
    },
    {
      "constant": true,
      "inputs": [
        {
          "name": "_owner",
          "type": "address"
        },
        {
          "name": "_spender",
          "type": "address"
        }
      ],
      "name": "allowance",
      "outputs": [
        {
          "name": "",
          "type": "uint256"
        }
      ],
      "payable": false,
      "stateMutability": "view",
      "type": "function"
    },
    {
      "constant": false,
      "inputs": [
        {
          "name": "newOwner",
          "type": "address"
        }
      ],
      "name": "transferOwnership",
      "outputs": [],
      "payable": false,
      "stateMutability": "nonpayable",
      "type": "function"
    },
    {
      "payable": true,
      "stateMutability": "payable",
      "type": "fallback"
    },
    {
      "anonymous": false,
      "inputs": [
        {
          "indexed": false,
          "name": "amount",
          "type": "uint256"
        }
      ],
      "name": "CoinsMinted",
      "type": "event"
    },
    {
      "anonymous": false,
      "inputs": [
        {
          "indexed": false,
          "name": "amount",
          "type": "uint256"
        }
      ],
      "name": "CoinsMelted",
      "type": "event"
    },
    {
      "anonymous": false,
      "inputs": [
        {
          "indexed": false,
          "name": "targetAddress",
          "type": "address"
        },
        {
          "indexed": false,
          "name": "amount",
          "type": "uint256"
        },
        {
          "indexed": false,
          "name": "newBalance",
          "type": "uint256"
        },
        {
          "indexed": false,
          "name": "timestamp",
          "type": "uint256"
        }
      ],
      "name": "CoinsPurchased",
      "type": "event"
    },
    {
      "anonymous": false,
      "inputs": [
        {
          "indexed": false,
          "name": "sourceAddress",
          "type": "address"
        },
        {
          "indexed": false,
          "name": "amount",
          "type": "uint256"
        },
        {
          "indexed": false,
          "name": "newBalance",
          "type": "uint256"
        },
        {
          "indexed": false,
          "name": "timestamp",
          "type": "uint256"
        }
      ],
      "name": "CoinsRedeemed",
      "type": "event"
    },
    {
      "anonymous": false,
      "inputs": [
        {
          "indexed": false,
          "name": "client",
          "type": "address"
        },
        {
          "indexed": false,
          "name": "topup",
          "type": "uint256"
        }
      ],
      "name": "TapCapTopUp",
      "type": "event"
    },
    {
      "anonymous": false,
      "inputs": [
        {
          "indexed": false,
          "name": "client",
          "type": "address"
        },
        {
          "indexed": false,
          "name": "weeklyLimit",
          "type": "uint256"
        }
      ],
      "name": "TapCapSetWeekly",
      "type": "event"
    },
    {
      "anonymous": false,
      "inputs": [
        {
          "indexed": false,
          "name": "client",
          "type": "address"
        }
      ],
      "name": "TapCapClear",
      "type": "event"
    },
    {
      "anonymous": false,
      "inputs": [
        {
          "indexed": false,
          "name": "client",
          "type": "address"
        },
        {
          "indexed": false,
          "name": "change",
          "type": "int256"
        },
        {
          "indexed": false,
          "name": "toppedUp",
          "type": "uint256"
        }
      ],
      "name": "TapCapUserUpdated",
      "type": "event"
    },
    {
      "anonymous": false,
      "inputs": [
        {
          "indexed": false,
          "name": "client",
          "type": "address"
        },
        {
          "indexed": false,
          "name": "dest",
          "type": "address"
        },
        {
          "indexed": false,
          "name": "amount",
          "type": "uint256"
        }
      ],
      "name": "TapCapProcessed",
      "type": "event"
    },
    {
      "anonymous": false,
      "inputs": [
        {
          "indexed": true,
          "name": "previousOwner",
          "type": "address"
        },
        {
          "indexed": true,
          "name": "newOwner",
          "type": "address"
        }
      ],
      "name": "OwnershipTransferred",
      "type": "event"
    },
    {
      "anonymous": false,
      "inputs": [
        {
          "indexed": true,
          "name": "owner",
          "type": "address"
        },
        {
          "indexed": true,
          "name": "spender",
          "type": "address"
        },
        {
          "indexed": false,
          "name": "value",
          "type": "uint256"
        }
      ],
      "name": "Approval",
      "type": "event"
    },
    {
      "anonymous": false,
      "inputs": [
        {
          "indexed": true,
          "name": "from",
          "type": "address"
        },
        {
          "indexed": true,
          "name": "to",
          "type": "address"
        },
        {
          "indexed": false,
          "name": "value",
          "type": "uint256"
        }
      ],
      "name": "Transfer",
      "type": "event"
    },
    {
      "anonymous": false,
      "inputs": [
        {
          "indexed": false,
          "name": "contractName",
          "type": "string"
        },
        {
          "indexed": false,
          "name": "migrationId",
          "type": "string"
        }
      ],
      "name": "Migrated",
      "type": "event"
    },
    {
      "constant": false,
      "inputs": [],
      "name": "initialize",
      "outputs": [],
      "payable": false,
      "stateMutability": "nonpayable",
      "type": "function"
    },
    {
      "constant": false,
      "inputs": [
        {
          "name": "_name",
          "type": "string"
        },
        {
          "name": "_symbol",
          "type": "string"
        },
        {
          "name": "_decimals",
          "type": "uint8"
        }
      ],
      "name": "initialize",
      "outputs": [],
      "payable": false,
      "stateMutability": "nonpayable",
      "type": "function"
    },
    {
      "constant": false,
      "inputs": [
        {
          "name": "_sender",
          "type": "address"
        }
      ],
      "name": "initialize",
      "outputs": [],
      "payable": false,
      "stateMutability": "nonpayable",
      "type": "function"
    },
    {
      "constant": true,
      "inputs": [],
      "name": "getRoles",
      "outputs": [
        {
          "name": "",
          "type": "address"
        },
        {
          "name": "",
          "type": "address"
        },
        {
          "name": "",
          "type": "address"
        },
        {
          "name": "",
          "type": "address"
        },
        {
          "name": "",
          "type": "address"
        }
      ],
      "payable": false,
      "stateMutability": "view",
      "type": "function"
    },
    {
      "constant": false,
      "inputs": [
        {
          "name": "amount",
          "type": "uint256"
        }
      ],
      "name": "mintCoins",
      "outputs": [],
      "payable": false,
      "stateMutability": "nonpayable",
      "type": "function"
    },
    {
      "constant": false,
      "inputs": [
        {
          "name": "amount",
          "type": "uint256"
        }
      ],
      "name": "meltCoins",
      "outputs": [],
      "payable": false,
      "stateMutability": "nonpayable",
      "type": "function"
    },
    {
      "constant": true,
      "inputs": [],
      "name": "coinsCirculating",
      "outputs": [
        {
          "name": "",
          "type": "uint256"
        }
      ],
      "payable": false,
      "stateMutability": "view",
      "type": "function"
    },
    {
      "constant": true,
      "inputs": [],
      "name": "reservedCoins",
      "outputs": [
        {
          "name": "balance",
          "type": "uint256"
        }
      ],
      "payable": false,
      "stateMutability": "view",
      "type": "function"
    },
    {
      "constant": false,
      "inputs": [
        {
          "name": "purchaser",
          "type": "address"
        },
        {
          "name": "amount",
          "type": "uint256"
        },
        {
          "name": "timeout",
          "type": "uint256"
        }
      ],
      "name": "coinPurchase",
      "outputs": [],
      "payable": false,
      "stateMutability": "nonpayable",
      "type": "function"
    },
    {
      "constant": false,
      "inputs": [
        {
          "name": "amount",
          "type": "uint256"
        }
      ],
      "name": "coinRedeem",
      "outputs": [],
      "payable": false,
      "stateMutability": "nonpayable",
      "type": "function"
    },
    {
      "constant": false,
      "inputs": [
        {
          "name": "account",
          "type": "address"
        },
        {
          "name": "time",
          "type": "uint256"
        }
      ],
      "name": "setAccountFreezeTime",
      "outputs": [],
      "payable": false,
      "stateMutability": "nonpayable",
      "type": "function"
    },
    {
      "constant": true,
      "inputs": [
        {
          "name": "account",
          "type": "address"
        }
      ],
      "name": "accountUnfreezeTime",
      "outputs": [
        {
          "name": "",
          "type": "uint256"
        }
      ],
      "payable": false,
      "stateMutability": "view",
      "type": "function"
    },
    {
      "constant": false,
      "inputs": [
        {
          "name": "topup",
          "type": "uint256"
        }
      ],
      "name": "tapCapTopUp",
      "outputs": [],
      "payable": false,
      "stateMutability": "nonpayable",
      "type": "function"
    },
    {
      "constant": false,
      "inputs": [
        {
          "name": "amount",
          "type": "uint256"
        }
      ],
      "name": "tapCapSetRefill",
      "outputs": [],
      "payable": false,
      "stateMutability": "nonpayable",
      "type": "function"
    },
    {
      "constant": false,
      "inputs": [],
      "name": "tapCapClear",
      "outputs": [],
      "payable": false,
      "stateMutability": "nonpayable",
      "type": "function"
    },
    {
      "constant": true,
      "inputs": [
        {
          "name": "user",
          "type": "address"
        }
      ],
      "name": "tapCapUser",
      "outputs": [
        {
          "name": "TransactionId",
          "type": "uint256"
        },
        {
          "name": "TapCapEscrow",
          "type": "uint256"
        },
        {
          "name": "TapCapRefill",
          "type": "uint256"
        }
      ],
      "payable": false,
      "stateMutability": "view",
      "type": "function"
    },
    {
      "constant": false,
      "inputs": [
        {
          "name": "users",
          "type": "address[]"
        },
        {
          "name": "amountChange",
          "type": "int256[]"
        }
      ],
      "name": "processSpending",
      "outputs": [],
      "payable": false,
      "stateMutability": "nonpayable",
      "type": "function"
    },
    {
      "constant": false,
      "inputs": [
        {
          "name": "newManager",
          "type": "address"
        }
      ],
      "name": "setTapCapManager",
      "outputs": [],
      "payable": false,
      "stateMutability": "nonpayable",
      "type": "function"
    },
    {
      "constant": false,
      "inputs": [],
      "name": "acceptTapCapManager",
      "outputs": [],
      "payable": false,
      "stateMutability": "nonpayable",
      "type": "function"
    },
    {
      "constant": false,
      "inputs": [
        {
          "name": "newMinter",
          "type": "address"
        }
      ],
      "name": "setMinter",
      "outputs": [],
      "payable": false,
      "stateMutability": "nonpayable",
      "type": "function"
    },
    {
      "constant": false,
      "inputs": [],
      "name": "acceptMinter",
      "outputs": [],
      "payable": false,
      "stateMutability": "nonpayable",
      "type": "function"
    },
    {
      "constant": false,
      "inputs": [
        {
          "name": "newReservist",
          "type": "address"
        }
      ],
      "name": "setTheReserves",
      "outputs": [],
      "payable": false,
      "stateMutability": "nonpayable",
      "type": "function"
    },
    {
      "constant": false,
      "inputs": [],
      "name": "acceptReservist",
      "outputs": [],
      "payable": false,
      "stateMutability": "nonpayable",
      "type": "function"
    },
    {
      "constant": false,
      "inputs": [
        {
          "name": "newPolice",
          "type": "address"
        }
      ],
      "name": "setPolice",
      "outputs": [],
      "payable": false,
      "stateMutability": "nonpayable",
      "type": "function"
    },
    {
      "constant": false,
      "inputs": [],
      "name": "acceptPolice",
      "outputs": [],
      "payable": false,
      "stateMutability": "nonpayable",
      "type": "function"
    },
    {
      "constant": false,
      "inputs": [
        {
          "name": "tokenAddress",
          "type": "address"
        },
        {
          "name": "tokens",
          "type": "uint256"
        }
      ],
      "name": "transferAnyERC20Token",
      "outputs": [
        {
          "name": "success",
          "type": "bool"
        }
      ],
      "payable": false,
      "stateMutability": "nonpayable",
      "type": "function"
    }
  ],
  "bytecode": "0x608060405234801561001057600080fd5b5061583d80620000216000396000f3006080604052600436106101ee576000357c0100000000000000000000000000000000000000000000000000000000900463ffffffff16806302a1833b1461028257806306fdde03146102c5578063095ea7b3146103555780630a18f5c9146103ba5780631624f6c6146103e557806318160ddd146104a157806318fd6440146104cc5780631dcdb8e6146104f75780631f39f23c1461055c57806323b872dd1461059f5780632f9e1b1714610624578063313ce56714610651578063344398471461068257806359bb708a1461069957806366188463146106b05780636e24c37e1461071557806370a08231146107be578063710613981461081557806377598d9a1461093857806378ad51641461094f5780638129fc1c1461097c5780638da5cb5b14610993578063951cd2f1146109ea57806395d89b4114610a415780639a975b0c14610ad1578063a77b6efb14610ae8578063a793902b14610b15578063a9059cbb14610b42578063b33c884514610ba7578063bff3f9cf14610bf4578063c0bac1a814610c21578063c4d66de814610ce8578063cbd956c314610d2b578063d73dd62314610d42578063d803ec1714610da7578063dc39d06d14610dea578063dd62ed3e14610e4f578063dfdf9f8214610ec6578063f2fde38b14610f1d578063fca3b5aa14610f60575b6040517f08c379a00000000000000000000000000000000000000000000000000000000081526004018080602001828103825260238152602001807f5468697320636f6e747261637420646f6573206e6f742072756e206f6e20457481526020017f686572000000000000000000000000000000000000000000000000000000000081525060400191505060405180910390fd5b34801561028e57600080fd5b506102c3600480360381019080803573ffffffffffffffffffffffffffffffffffffffff169060200190929190505050610fa3565b005b3480156102d157600080fd5b506102da6110ac565b6040518080602001828103825283818151815260200191508051906020019080838360005b8381101561031a5780820151818401526020810190506102ff565b50505050905090810190601f1680156103475780820380516001836020036101000a031916815260200191505b509250505060405180910390f35b34801561036157600080fd5b506103a0600480360381019080803573ffffffffffffffffffffffffffffffffffffffff1690602001909291908035906020019092919050505061114a565b604051808215151515815260200191505060405180910390f35b3480156103c657600080fd5b506103cf61123c565b6040518082815260200191505060405180910390f35b3480156103f157600080fd5b5061049f600480360381019080803590602001908201803590602001908080601f0160208091040260200160405190810160405280939291908181526020018383808284378201915050505050509192919290803590602001908201803590602001908080601f0160208091040260200160405190810160405280939291908181526020018383808284378201915050505050509192919290803560ff1690602001909291905050506112b9565b005b3480156104ad57600080fd5b506104b66116d6565b6040518082815260200191505060405180910390f35b3480156104d857600080fd5b506104e16116e0565b6040518082815260200191505060405180910390f35b34801561050357600080fd5b50610538600480360381019080803573ffffffffffffffffffffffffffffffffffffffff169060200190929190505050611749565b60405180848152602001838152602001828152602001935050505060405180910390f35b34801561056857600080fd5b5061059d600480360381019080803573ffffffffffffffffffffffffffffffffffffffff169060200190929190505050611824565b005b3480156105ab57600080fd5b5061060a600480360381019080803573ffffffffffffffffffffffffffffffffffffffff169060200190929190803573ffffffffffffffffffffffffffffffffffffffff1690602001909291908035906020019092919050505061192d565b604051808215151515815260200191505060405180910390f35b34801561063057600080fd5b5061064f60048036038101908080359060200190929190505050611cec565b005b34801561065d57600080fd5b50610666611f0b565b604051808260ff1660ff16815260200191505060405180910390f35b34801561068e57600080fd5b50610697611f1e565b005b3480156106a557600080fd5b506106ae61208a565b005b3480156106bc57600080fd5b506106fb600480360381019080803573ffffffffffffffffffffffffffffffffffffffff169060200190929190803590602001909291905050506121f6565b604051808215151515815260200191505060405180910390f35b34801561072157600080fd5b506107bc6004803603810190808035906020019082018035906020019080806020026020016040519081016040528093929190818152602001838360200280828437820191505050505050919291929080359060200190820180359060200190808060200260200160405190810160405280939291908181526020018383602002808284378201915050505050509192919290505050612487565b005b3480156107ca57600080fd5b506107ff600480360381019080803573ffffffffffffffffffffffffffffffffffffffff169060200190929190505050612ac0565b6040518082815260200191505060405180910390f35b34801561082157600080fd5b5061082a612b09565b604051808673ffffffffffffffffffffffffffffffffffffffff1673ffffffffffffffffffffffffffffffffffffffff1681526020018573ffffffffffffffffffffffffffffffffffffffff1673ffffffffffffffffffffffffffffffffffffffff1681526020018473ffffffffffffffffffffffffffffffffffffffff1673ffffffffffffffffffffffffffffffffffffffff1681526020018373ffffffffffffffffffffffffffffffffffffffff1673ffffffffffffffffffffffffffffffffffffffff1681526020018273ffffffffffffffffffffffffffffffffffffffff1673ffffffffffffffffffffffffffffffffffffffff1681526020019550505050505060405180910390f35b34801561094457600080fd5b5061094d612bd1565b005b34801561095b57600080fd5b5061097a60048036038101908080359060200190929190505050612d3d565b005b34801561098857600080fd5b50610991612df2565b005b34801561099f57600080fd5b506109a86131c3565b604051808273ffffffffffffffffffffffffffffffffffffffff1673ffffffffffffffffffffffffffffffffffffffff16815260200191505060405180910390f35b3480156109f657600080fd5b50610a3f600480360381019080803573ffffffffffffffffffffffffffffffffffffffff16906020019092919080359060200190929190803590602001909291905050506131e9565b005b348015610a4d57600080fd5b50610a566135d8565b6040518080602001828103825283818151815260200191508051906020019080838360005b83811015610a96578082015181840152602081019050610a7b565b50505050905090810190601f168015610ac35780820380516001836020036101000a031916815260200191505b509250505060405180910390f35b348015610add57600080fd5b50610ae6613676565b005b348015610af457600080fd5b50610b1360048036038101908080359060200190929190505050613742565b005b348015610b2157600080fd5b50610b4060048036038101908080359060200190929190505050613935565b005b348015610b4e57600080fd5b50610b8d600480360381019080803573ffffffffffffffffffffffffffffffffffffffff16906020019092919080359060200190929190505050613b28565b604051808215151515815260200191505060405180910390f35b348015610bb357600080fd5b50610bf2600480360381019080803573ffffffffffffffffffffffffffffffffffffffff16906020019092919080359060200190929190505050613d4c565b005b348015610c0057600080fd5b50610c1f60048036038101908080359060200190929190505050613e59565b005b348015610c2d57600080fd5b50610cce600480360381019080803590602001908201803590602001908080601f0160208091040260200160405190810160405280939291908181526020018383808284378201915050505050509192919290803590602001908201803590602001908080601f0160208091040260200160405190810160405280939291908181526020018383808284378201915050505050509192919290505050614219565b604051808215151515815260200191505060405180910390f35b348015610cf457600080fd5b50610d29600480360381019080803573ffffffffffffffffffffffffffffffffffffffff169060200190929190505050614304565b005b348015610d3757600080fd5b50610d40614973565b005b348015610d4e57600080fd5b50610d8d600480360381019080803573ffffffffffffffffffffffffffffffffffffffff16906020019092919080359060200190929190505050614adf565b604051808215151515815260200191505060405180910390f35b348015610db357600080fd5b50610de8600480360381019080803573ffffffffffffffffffffffffffffffffffffffff169060200190929190505050614cdb565b005b348015610df657600080fd5b50610e35600480360381019080803573ffffffffffffffffffffffffffffffffffffffff16906020019092919080359060200190929190505050614de4565b604051808215151515815260200191505060405180910390f35b348015610e5b57600080fd5b50610eb0600480360381019080803573ffffffffffffffffffffffffffffffffffffffff169060200190929190803573ffffffffffffffffffffffffffffffffffffffff169060200190929190505050614f4a565b6040518082815260200191505060405180910390f35b348015610ed257600080fd5b50610f07600480360381019080803573ffffffffffffffffffffffffffffffffffffffff169060200190929190505050614fd1565b6040518082815260200191505060405180910390f35b348015610f2957600080fd5b50610f5e600480360381019080803573ffffffffffffffffffffffffffffffffffffffff16906020019092919050505061501a565b005b348015610f6c57600080fd5b50610fa1600480360381019080803573ffffffffffffffffffffffffffffffffffffffff169060200190929190505050615172565b005b600b60009054906101000a900473ffffffffffffffffffffffffffffffffffffffff1673ffffffffffffffffffffffffffffffffffffffff163373ffffffffffffffffffffffffffffffffffffffff16141515611068576040517f08c379a000000000000000000000000000000000000000000000000000000000815260040180806020018281038252600e8152602001807f496e76616c69642073656e64657200000000000000000000000000000000000081525060200191505060405180910390fd5b80600f60006101000a81548173ffffffffffffffffffffffffffffffffffffffff021916908373ffffffffffffffffffffffffffffffffffffffff16021790555050565b60018054600181600116156101000203166002900480601f0160208091040260200160405190810160405280929190818152602001828054600181600116156101000203166002900480156111425780601f1061111757610100808354040283529160200191611142565b820191906000526020600020905b81548152906001019060200180831161112557829003601f168201915b505050505081565b600081600660003373ffffffffffffffffffffffffffffffffffffffff1673ffffffffffffffffffffffffffffffffffffffff16815260200190815260200160002060008573ffffffffffffffffffffffffffffffffffffffff1673ffffffffffffffffffffffffffffffffffffffff168152602001908152602001600020819055508273ffffffffffffffffffffffffffffffffffffffff163373ffffffffffffffffffffffffffffffffffffffff167f8c5be1e5ebec7d5bd14f71427d1e84f3dd0314c0f7b2291e5b200ac8c7c3b925846040518082815260200191505060405180910390a36001905092915050565b60006112b460046000600b60009054906101000a900473ffffffffffffffffffffffffffffffffffffffff1673ffffffffffffffffffffffffffffffffffffffff1673ffffffffffffffffffffffffffffffffffffffff1681526020019081526020016000205460055461527b90919063ffffffff16565b905090565b6040805190810160405280600d81526020017f44657461696c65644552433230000000000000000000000000000000000000008152506040805190810160405280600581526020017f312e392e30000000000000000000000000000000000000000000000000000000815250611364826040805190810160405280600b81526020017f696e697469616c697a6564000000000000000000000000000000000000000000815250615294565b61136e8282615294565b846001908051906020019061138492919061576c565b50836002908051906020019061139b92919061576c565b5082600360006101000a81548160ff021916908360ff1602179055507fdd117a11c22118c9dee4b5a67ce578bc44529dce21ee0ccc439588fbb9fb4ea38282604051808060200180602001838103835285818151815260200191508051906020019080838360005b8381101561141e578082015181840152602081019050611403565b50505050905090810190601f16801561144b5780820380516001836020036101000a031916815260200191505b50838103825284818151815260200191508051906020019080838360005b83811015611484578082015181840152602081019050611469565b50505050905090810190601f1680156114b15780820380516001836020036101000a031916815260200191505b5094505050505060405180910390a160016000836040518082805190602001908083835b6020831015156114fa57805182526020820191506020810190506020830392506114d5565b6001836020036101000a0380198251168184511680821785525050505050509050019150509081526020016040518091039020826040518082805190602001908083835b602083101515611563578051825260208201915060208101905060208303925061153e565b6001836020036101000a038019825116818451168082178552505050505050905001915050908152602001604051809103902060006101000a81548160ff02191690831515021790555060016000836040518082805190602001908083835b6020831015156115e757805182526020820191506020810190506020830392506115c2565b6001836020036101000a03801982511681845116808217855250505050505090500191505090815260200160405180910390206040805190810160405280600b81526020017f696e697469616c697a65640000000000000000000000000000000000000000008152506040518082805190602001908083835b6020831015156116855780518252602082019150602081019050602083039250611660565b6001836020036101000a038019825116818451168082178552505050505050905001915050908152602001604051809103902060006101000a81548160ff0219169083151502179055505050505050565b6000600554905090565b600060046000600b60009054906101000a900473ffffffffffffffffffffffffffffffffffffffff1673ffffffffffffffffffffffffffffffffffffffff1673ffffffffffffffffffffffffffffffffffffffff16815260200190815260200160002054905090565b6000806000601160008573ffffffffffffffffffffffffffffffffffffffff1673ffffffffffffffffffffffffffffffffffffffff16815260200190815260200160002060000154601160008673ffffffffffffffffffffffffffffffffffffffff1673ffffffffffffffffffffffffffffffffffffffff16815260200190815260200160002060010154601160008773ffffffffffffffffffffffffffffffffffffffff1673ffffffffffffffffffffffffffffffffffffffff168152602001908152602001600020600201549250925092509193909250565b600c60009054906101000a900473ffffffffffffffffffffffffffffffffffffffff1673ffffffffffffffffffffffffffffffffffffffff163373ffffffffffffffffffffffffffffffffffffffff161415156118e9576040517f08c379a000000000000000000000000000000000000000000000000000000000815260040180806020018281038252600e8152602001807f496e76616c69642073656e64657200000000000000000000000000000000000081525060200191505060405180910390fd5b80601060006101000a81548173ffffffffffffffffffffffffffffffffffffffff021916908373ffffffffffffffffffffffffffffffffffffffff16021790555050565b60008073ffffffffffffffffffffffffffffffffffffffff168373ffffffffffffffffffffffffffffffffffffffff161415151561196a57600080fd5b600460008573ffffffffffffffffffffffffffffffffffffffff1673ffffffffffffffffffffffffffffffffffffffff1681526020019081526020016000205482111515156119b857600080fd5b600660008573ffffffffffffffffffffffffffffffffffffffff1673ffffffffffffffffffffffffffffffffffffffff16815260200190815260200160002060003373ffffffffffffffffffffffffffffffffffffffff1673ffffffffffffffffffffffffffffffffffffffff168152602001908152602001600020548211151515611a4357600080fd5b611a9582600460008773ffffffffffffffffffffffffffffffffffffffff1673ffffffffffffffffffffffffffffffffffffffff1681526020019081526020016000205461527b90919063ffffffff16565b600460008673ffffffffffffffffffffffffffffffffffffffff1673ffffffffffffffffffffffffffffffffffffffff16815260200190815260200160002081905550611b2a82600460008673ffffffffffffffffffffffffffffffffffffffff1673ffffffffffffffffffffffffffffffffffffffff1681526020019081526020016000205461533d90919063ffffffff16565b600460008573ffffffffffffffffffffffffffffffffffffffff1673ffffffffffffffffffffffffffffffffffffffff16815260200190815260200160002081905550611bfc82600660008773ffffffffffffffffffffffffffffffffffffffff1673ffffffffffffffffffffffffffffffffffffffff16815260200190815260200160002060003373ffffffffffffffffffffffffffffffffffffffff1673ffffffffffffffffffffffffffffffffffffffff1681526020019081526020016000205461527b90919063ffffffff16565b600660008673ffffffffffffffffffffffffffffffffffffffff1673ffffffffffffffffffffffffffffffffffffffff16815260200190815260200160002060003373ffffffffffffffffffffffffffffffffffffffff1673ffffffffffffffffffffffffffffffffffffffff168152602001908152602001600020819055508273ffffffffffffffffffffffffffffffffffffffff168473ffffffffffffffffffffffffffffffffffffffff167fddf252ad1be2c89b69c2b068fc378daa952ba7f163c4a11628f55a4df523b3ef846040518082815260200191505060405180910390a3600190509392505050565b60008180600460003373ffffffffffffffffffffffffffffffffffffffff1673ffffffffffffffffffffffffffffffffffffffff1681526020019081526020016000205410151515611da6576040517f08c379a000000000000000000000000000000000000000000000000000000000815260040180806020018281038252601f8152602001807f43616c6c65722068617320696e73756666696369656e742062616c616e63650081525060200191505060405180910390fd5b601160003373ffffffffffffffffffffffffffffffffffffffff1673ffffffffffffffffffffffffffffffffffffffff1681526020019081526020016000209150611e3983600460003373ffffffffffffffffffffffffffffffffffffffff1673ffffffffffffffffffffffffffffffffffffffff1681526020019081526020016000205461527b90919063ffffffff16565b600460003373ffffffffffffffffffffffffffffffffffffffff1673ffffffffffffffffffffffffffffffffffffffff16815260200190815260200160002081905550611e9383836001015461533d90919063ffffffff16565b82600101819055507f0164611a7fe547f708c0a708a8ac00ed2c0adbca62e7dee2f63512e60c30e9e63384604051808373ffffffffffffffffffffffffffffffffffffffff1673ffffffffffffffffffffffffffffffffffffffff1681526020018281526020019250505060405180910390a1505050565b600360009054906101000a900460ff1681565b601060009054906101000a900473ffffffffffffffffffffffffffffffffffffffff1673ffffffffffffffffffffffffffffffffffffffff163373ffffffffffffffffffffffffffffffffffffffff16141515611fe3576040517f08c379a00000000000000000000000000000000000000000000000000000000081526004018080602001828103825260118152602001807f5065726d697373696f6e2044656e69656400000000000000000000000000000081525060200191505060405180910390fd5b601060009054906101000a900473ffffffffffffffffffffffffffffffffffffffff16600c60006101000a81548173ffffffffffffffffffffffffffffffffffffffff021916908373ffffffffffffffffffffffffffffffffffffffff1602179055506000601060006101000a81548173ffffffffffffffffffffffffffffffffffffffff021916908373ffffffffffffffffffffffffffffffffffffffff160217905550565b600f60009054906101000a900473ffffffffffffffffffffffffffffffffffffffff1673ffffffffffffffffffffffffffffffffffffffff163373ffffffffffffffffffffffffffffffffffffffff1614151561214f576040517f08c379a00000000000000000000000000000000000000000000000000000000081526004018080602001828103825260118152602001807f5065726d697373696f6e2044656e69656400000000000000000000000000000081525060200191505060405180910390fd5b600f60009054906101000a900473ffffffffffffffffffffffffffffffffffffffff16600b60006101000a81548173ffffffffffffffffffffffffffffffffffffffff021916908373ffffffffffffffffffffffffffffffffffffffff1602179055506000600f60006101000a81548173ffffffffffffffffffffffffffffffffffffffff021916908373ffffffffffffffffffffffffffffffffffffffff160217905550565b600080600660003373ffffffffffffffffffffffffffffffffffffffff1673ffffffffffffffffffffffffffffffffffffffff16815260200190815260200160002060008573ffffffffffffffffffffffffffffffffffffffff1673ffffffffffffffffffffffffffffffffffffffff16815260200190815260200160002054905080831115612307576000600660003373ffffffffffffffffffffffffffffffffffffffff1673ffffffffffffffffffffffffffffffffffffffff16815260200190815260200160002060008673ffffffffffffffffffffffffffffffffffffffff1673ffffffffffffffffffffffffffffffffffffffff1681526020019081526020016000208190555061239b565b61231a838261527b90919063ffffffff16565b600660003373ffffffffffffffffffffffffffffffffffffffff1673ffffffffffffffffffffffffffffffffffffffff16815260200190815260200160002060008673ffffffffffffffffffffffffffffffffffffffff1673ffffffffffffffffffffffffffffffffffffffff168152602001908152602001600020819055505b8373ffffffffffffffffffffffffffffffffffffffff163373ffffffffffffffffffffffffffffffffffffffff167f8c5be1e5ebec7d5bd14f71427d1e84f3dd0314c0f7b2291e5b200ac8c7c3b925600660003373ffffffffffffffffffffffffffffffffffffffff1673ffffffffffffffffffffffffffffffffffffffff16815260200190815260200160002060008873ffffffffffffffffffffffffffffffffffffffff1673ffffffffffffffffffffffffffffffffffffffff168152602001908152602001600020546040518082815260200191505060405180910390a3600191505092915050565b600080600080600080600080600080600960009054906101000a900473ffffffffffffffffffffffffffffffffffffffff1673ffffffffffffffffffffffffffffffffffffffff163373ffffffffffffffffffffffffffffffffffffffff1614151561255b576040517f08c379a000000000000000000000000000000000000000000000000000000000815260040180806020018281038252600e8152602001807f496e76616c69642073656e64657200000000000000000000000000000000000081525060200191505060405180910390fd5b8b5199508a518a1415156125fd576040517f08c379a00000000000000000000000000000000000000000000000000000000081526004018080602001828103825260368152602001807f4561636820656e74727920696e207573657273206d757374206265206d61746381526020017f68656420627920616e20616d6f756e744368616e67650000000000000000000081525060400191505060405180910390fd5b6000985060009750600096505b89871015612a14578b8781518110151561262057fe5b9060200190602002015195508a8781518110151561263a57fe5b906020019060200201519450601160008773ffffffffffffffffffffffffffffffffffffffff1673ffffffffffffffffffffffffffffffffffffffff1681526020019081526020016000209350600085131561275c578492506126aa83856001015461533d90919063ffffffff16565b846001018190555084890197508888131515612754576040517f08c379a00000000000000000000000000000000000000000000000000000000081526004018080602001828103825260388152602001807f696e74204f766572666c6f7720696e2070726f636573735370656e64696e673a81526020017f206e6577546f74616c203c3d20746f74616c4368616e6765000000000000000081525060400191505060405180910390fd5b879850612a07565b84600003915061277982856001015461527b90919063ffffffff16565b8460010181905550836002015484600101541015612960576127ac8460010154856002015461527b90919063ffffffff16565b9050600460008773ffffffffffffffffffffffffffffffffffffffff1673ffffffffffffffffffffffffffffffffffffffff1681526020019081526020016000205481111561283857600460008773ffffffffffffffffffffffffffffffffffffffff1673ffffffffffffffffffffffffffffffffffffffff1681526020019081526020016000205490505b61288a81600460008973ffffffffffffffffffffffffffffffffffffffff1673ffffffffffffffffffffffffffffffffffffffff1681526020019081526020016000205461527b90919063ffffffff16565b600460008873ffffffffffffffffffffffffffffffffffffffff1673ffffffffffffffffffffffffffffffffffffffff168152602001908152602001600020819055506128e481856001015461533d90919063ffffffff16565b84600101819055507fbc8fb1fdc44eddf7d69719d30f493576d74726bd6dc9ea4f283f981d43f60710868683604051808473ffffffffffffffffffffffffffffffffffffffff1673ffffffffffffffffffffffffffffffffffffffff168152602001838152602001828152602001935050505060405180910390a15b8489019750888813151515612a03576040517f08c379a00000000000000000000000000000000000000000000000000000000081526004018080602001828103825260388152602001807f696e7420556e646572666c6f7720696e2070726f636573735370656e64696e6781526020017f3a206e6577546f74616c203e20746f74616c4368616e6765000000000000000081525060400191505060405180910390fd5b8798505b868060010197505061260a565b600089141515612ab2576040517f08c379a00000000000000000000000000000000000000000000000000000000081526004018080602001828103825260348152602001807f43616e6e6f74207265736f6c7665207370656e64696e672c20616d6f756e747381526020017f20646f206e6f742062616c616e636520746f203000000000000000000000000081525060400191505060405180910390fd5b505050505050505050505050565b6000600460008373ffffffffffffffffffffffffffffffffffffffff1673ffffffffffffffffffffffffffffffffffffffff168152602001908152602001600020549050919050565b6000806000806000600760009054906101000a900473ffffffffffffffffffffffffffffffffffffffff16600960009054906101000a900473ffffffffffffffffffffffffffffffffffffffff16600a60009054906101000a900473ffffffffffffffffffffffffffffffffffffffff16600b60009054906101000a900473ffffffffffffffffffffffffffffffffffffffff16600c60009054906101000a900473ffffffffffffffffffffffffffffffffffffffff16945094509450945094509091929394565b600d60009054906101000a900473ffffffffffffffffffffffffffffffffffffffff1673ffffffffffffffffffffffffffffffffffffffff163373ffffffffffffffffffffffffffffffffffffffff16141515612c96576040517f08c379a00000000000000000000000000000000000000000000000000000000081526004018080602001828103825260118152602001807f5065726d697373696f6e2044656e69656400000000000000000000000000000081525060200191505060405180910390fd5b600d60009054906101000a900473ffffffffffffffffffffffffffffffffffffffff16600960006101000a81548173ffffffffffffffffffffffffffffffffffffffff021916908373ffffffffffffffffffffffffffffffffffffffff1602179055506000600d60006101000a81548173ffffffffffffffffffffffffffffffffffffffff021916908373ffffffffffffffffffffffffffffffffffffffff160217905550565b80601160003373ffffffffffffffffffffffffffffffffffffffff1673ffffffffffffffffffffffffffffffffffffffff168152602001908152602001600020600201819055507f936ec7e4d9755c4568dc8ffea642b0aad6180d863841801e138246caa43467d13382604051808373ffffffffffffffffffffffffffffffffffffffff1673ffffffffffffffffffffffffffffffffffffffff1681526020018281526020019250505060405180910390a150565b6040805190810160405280600a81526020017f4d696772617461626c65000000000000000000000000000000000000000000008152506040805190810160405280600581526020017f312e322e31000000000000000000000000000000000000000000000000000000815250612e9d826040805190810160405280600b81526020017f696e697469616c697a6564000000000000000000000000000000000000000000815250615294565b612ea78282615294565b7fdd117a11c22118c9dee4b5a67ce578bc44529dce21ee0ccc439588fbb9fb4ea38282604051808060200180602001838103835285818151815260200191508051906020019080838360005b83811015612f0e578082015181840152602081019050612ef3565b50505050905090810190601f168015612f3b5780820380516001836020036101000a031916815260200191505b50838103825284818151815260200191508051906020019080838360005b83811015612f74578082015181840152602081019050612f59565b50505050905090810190601f168015612fa15780820380516001836020036101000a031916815260200191505b5094505050505060405180910390a160016000836040518082805190602001908083835b602083101515612fea5780518252602082019150602081019050602083039250612fc5565b6001836020036101000a0380198251168184511680821785525050505050509050019150509081526020016040518091039020826040518082805190602001908083835b602083101515613053578051825260208201915060208101905060208303925061302e565b6001836020036101000a038019825116818451168082178552505050505050905001915050908152602001604051809103902060006101000a81548160ff02191690831515021790555060016000836040518082805190602001908083835b6020831015156130d757805182526020820191506020810190506020830392506130b2565b6001836020036101000a03801982511681845116808217855250505050505090500191505090815260200160405180910390206040805190810160405280600b81526020017f696e697469616c697a65640000000000000000000000000000000000000000008152506040518082805190602001908083835b6020831015156131755780518252602082019150602081019050602083039250613150565b6001836020036101000a038019825116818451168082178552505050505050905001915050908152602001604051809103902060006101000a81548160ff0219169083151502179055505050565b600760009054906101000a900473ffffffffffffffffffffffffffffffffffffffff1681565b600b60009054906101000a900473ffffffffffffffffffffffffffffffffffffffff1673ffffffffffffffffffffffffffffffffffffffff163373ffffffffffffffffffffffffffffffffffffffff161415156132ae576040517f08c379a000000000000000000000000000000000000000000000000000000000815260040180806020018281038252600e8152602001807f496e76616c69642073656e64657200000000000000000000000000000000000081525060200191505060405180910390fd5b8180600460003373ffffffffffffffffffffffffffffffffffffffff1673ffffffffffffffffffffffffffffffffffffffff1681526020019081526020016000205410151515613366576040517f08c379a000000000000000000000000000000000000000000000000000000000815260040180806020018281038252601f8152602001807f43616c6c65722068617320696e73756666696369656e742062616c616e63650081525060200191505060405180910390fd5b6133da8360046000600b60009054906101000a900473ffffffffffffffffffffffffffffffffffffffff1673ffffffffffffffffffffffffffffffffffffffff1673ffffffffffffffffffffffffffffffffffffffff1681526020019081526020016000205461527b90919063ffffffff16565b60046000600b60009054906101000a900473ffffffffffffffffffffffffffffffffffffffff1673ffffffffffffffffffffffffffffffffffffffff1673ffffffffffffffffffffffffffffffffffffffff1681526020019081526020016000208190555061349183600460008773ffffffffffffffffffffffffffffffffffffffff1673ffffffffffffffffffffffffffffffffffffffff1681526020019081526020016000205461533d90919063ffffffff16565b600460008673ffffffffffffffffffffffffffffffffffffffff1673ffffffffffffffffffffffffffffffffffffffff1681526020019081526020016000208190555081600860008673ffffffffffffffffffffffffffffffffffffffff1673ffffffffffffffffffffffffffffffffffffffff168152602001908152602001600020819055507f4bff7fb414aa4a1033afdcdc8aa52bed9ca226533934c9a00981fe812b8790fe8484600460008873ffffffffffffffffffffffffffffffffffffffff1673ffffffffffffffffffffffffffffffffffffffff1681526020019081526020016000205442604051808573ffffffffffffffffffffffffffffffffffffffff1673ffffffffffffffffffffffffffffffffffffffff16815260200184815260200183815260200182815260200194505050505060405180910390a150505050565b60028054600181600116156101000203166002900480601f01602080910402602001604051908101604052809291908181526020018280546001816001161561010002031660029004801561366e5780601f106136435761010080835404028352916020019161366e565b820191906000526020600020905b81548152906001019060200180831161365157829003601f168201915b505050505081565b7fffffffffffffffffffffffffffffffffffffffffffffffffffffffffffffffff601160003373ffffffffffffffffffffffffffffffffffffffff1673ffffffffffffffffffffffffffffffffffffffff168152602001908152602001600020600201819055507f56f6ffd37b82c1cf8125c880b6a1ec6495a771e55c3771efaa08437285f4a5d033604051808273ffffffffffffffffffffffffffffffffffffffff1673ffffffffffffffffffffffffffffffffffffffff16815260200191505060405180910390a1565b600a60009054906101000a900473ffffffffffffffffffffffffffffffffffffffff1673ffffffffffffffffffffffffffffffffffffffff163373ffffffffffffffffffffffffffffffffffffffff16141515613807576040517f08c379a000000000000000000000000000000000000000000000000000000000815260040180806020018281038252600e8152602001807f496e76616c69642073656e64657200000000000000000000000000000000000081525060200191505060405180910390fd5b61381c8160055461533d90919063ffffffff16565b6005819055506138968160046000600b60009054906101000a900473ffffffffffffffffffffffffffffffffffffffff1673ffffffffffffffffffffffffffffffffffffffff1673ffffffffffffffffffffffffffffffffffffffff1681526020019081526020016000205461533d90919063ffffffff16565b60046000600b60009054906101000a900473ffffffffffffffffffffffffffffffffffffffff1673ffffffffffffffffffffffffffffffffffffffff1673ffffffffffffffffffffffffffffffffffffffff168152602001908152602001600020819055507f652ca75881aecc21a17f6599ddea8106b8cc350490ae7dc196e9d6bb9ca6bbf5816040518082815260200191505060405180910390a150565b600a60009054906101000a900473ffffffffffffffffffffffffffffffffffffffff1673ffffffffffffffffffffffffffffffffffffffff163373ffffffffffffffffffffffffffffffffffffffff161415156139fa576040517f08c379a000000000000000000000000000000000000000000000000000000000815260040180806020018281038252600e8152602001807f496e76616c69642073656e64657200000000000000000000000000000000000081525060200191505060405180910390fd5b613a0f8160055461527b90919063ffffffff16565b600581905550613a898160046000600b60009054906101000a900473ffffffffffffffffffffffffffffffffffffffff1673ffffffffffffffffffffffffffffffffffffffff1673ffffffffffffffffffffffffffffffffffffffff1681526020019081526020016000205461533d90919063ffffffff16565b60046000600b60009054906101000a900473ffffffffffffffffffffffffffffffffffffffff1673ffffffffffffffffffffffffffffffffffffffff1673ffffffffffffffffffffffffffffffffffffffff168152602001908152602001600020819055507f1e018208012bdfd30b0941835d1150e9da0e535ed816bbe3e90d29a79508a4a6816040518082815260200191505060405180910390a150565b60008073ffffffffffffffffffffffffffffffffffffffff168373ffffffffffffffffffffffffffffffffffffffff1614151515613b6557600080fd5b600460003373ffffffffffffffffffffffffffffffffffffffff1673ffffffffffffffffffffffffffffffffffffffff168152602001908152602001600020548211151515613bb357600080fd5b613c0582600460003373ffffffffffffffffffffffffffffffffffffffff1673ffffffffffffffffffffffffffffffffffffffff1681526020019081526020016000205461527b90919063ffffffff16565b600460003373ffffffffffffffffffffffffffffffffffffffff1673ffffffffffffffffffffffffffffffffffffffff16815260200190815260200160002081905550613c9a82600460008673ffffffffffffffffffffffffffffffffffffffff1673ffffffffffffffffffffffffffffffffffffffff1681526020019081526020016000205461533d90919063ffffffff16565b600460008573ffffffffffffffffffffffffffffffffffffffff1673ffffffffffffffffffffffffffffffffffffffff168152602001908152602001600020819055508273ffffffffffffffffffffffffffffffffffffffff163373ffffffffffffffffffffffffffffffffffffffff167fddf252ad1be2c89b69c2b068fc378daa952ba7f163c4a11628f55a4df523b3ef846040518082815260200191505060405180910390a36001905092915050565b600c60009054906101000a900473ffffffffffffffffffffffffffffffffffffffff1673ffffffffffffffffffffffffffffffffffffffff163373ffffffffffffffffffffffffffffffffffffffff16141515613e11576040517f08c379a000000000000000000000000000000000000000000000000000000000815260040180806020018281038252600e8152602001807f496e76616c69642073656e64657200000000000000000000000000000000000081525060200191505060405180910390fd5b80600860008473ffffffffffffffffffffffffffffffffffffffff1673ffffffffffffffffffffffffffffffffffffffff168152602001908152602001600020819055505050565b8080600460003373ffffffffffffffffffffffffffffffffffffffff1673ffffffffffffffffffffffffffffffffffffffff1681526020019081526020016000205410151515613f11576040517f08c379a000000000000000000000000000000000000000000000000000000000815260040180806020018281038252601f8152602001807f43616c6c65722068617320696e73756666696369656e742062616c616e63650081525060200191505060405180910390fd5b42600860003373ffffffffffffffffffffffffffffffffffffffff1673ffffffffffffffffffffffffffffffffffffffff16815260200190815260200160002054101515613fed576040517f08c379a00000000000000000000000000000000000000000000000000000000081526004018080602001828103825260248152602001807f43616c6c65722773206163636f756e742069732063757272656e746c7920667281526020017f6f7a656e0000000000000000000000000000000000000000000000000000000081525060400191505060405180910390fd5b61403f82600460003373ffffffffffffffffffffffffffffffffffffffff1673ffffffffffffffffffffffffffffffffffffffff1681526020019081526020016000205461527b90919063ffffffff16565b600460003373ffffffffffffffffffffffffffffffffffffffff1673ffffffffffffffffffffffffffffffffffffffff168152602001908152602001600020819055506140f68260046000600b60009054906101000a900473ffffffffffffffffffffffffffffffffffffffff1673ffffffffffffffffffffffffffffffffffffffff1673ffffffffffffffffffffffffffffffffffffffff1681526020019081526020016000205461533d90919063ffffffff16565b60046000600b60009054906101000a900473ffffffffffffffffffffffffffffffffffffffff1673ffffffffffffffffffffffffffffffffffffffff1673ffffffffffffffffffffffffffffffffffffffff168152602001908152602001600020819055507ffc07063ac06bd04db1c394b0121ee7f1bbef1f42712a5826d5c9d295c9b436ee3383600460003373ffffffffffffffffffffffffffffffffffffffff1673ffffffffffffffffffffffffffffffffffffffff1681526020019081526020016000205442604051808573ffffffffffffffffffffffffffffffffffffffff1673ffffffffffffffffffffffffffffffffffffffff16815260200184815260200183815260200182815260200194505050505060405180910390a15050565b600080836040518082805190602001908083835b602083101515614252578051825260208201915060208101905060208303925061422d565b6001836020036101000a0380198251168184511680821785525050505050509050019150509081526020016040518091039020826040518082805190602001908083835b6020831015156142bb5780518252602082019150602081019050602083039250614296565b6001836020036101000a038019825116818451168082178552505050505050905001915050908152602001604051809103902060009054906101000a900460ff16905092915050565b6040805190810160405280600781526020017f544845436f696e000000000000000000000000000000000000000000000000008152506040805190810160405280600181526020017f30000000000000000000000000000000000000000000000000000000000000008152506143af826040805190810160405280600b81526020017f696e697469616c697a6564000000000000000000000000000000000000000000815250615294565b6143b98282615294565b61442f6040805190810160405280600881526020017f54484520436f696e0000000000000000000000000000000000000000000000008152506040805190810160405280600381526020017f544845000000000000000000000000000000000000000000000000000000000081525060066112b9565b61443883615359565b6000600960009054906101000a900473ffffffffffffffffffffffffffffffffffffffff1673ffffffffffffffffffffffffffffffffffffffff161480156144b857506000600a60009054906101000a900473ffffffffffffffffffffffffffffffffffffffff1673ffffffffffffffffffffffffffffffffffffffff16145b1515614552576040517f08c379a00000000000000000000000000000000000000000000000000000000081526004018080602001828103825260268152602001807f53797374656d20636f6d70726f6d697365642e2020467265657a65204576657281526020017f797468696e67000000000000000000000000000000000000000000000000000081525060400191505060405180910390fd5b82600960006101000a81548173ffffffffffffffffffffffffffffffffffffffff021916908373ffffffffffffffffffffffffffffffffffffffff16021790555082600a60006101000a81548173ffffffffffffffffffffffffffffffffffffffff021916908373ffffffffffffffffffffffffffffffffffffffff16021790555082600b60006101000a81548173ffffffffffffffffffffffffffffffffffffffff021916908373ffffffffffffffffffffffffffffffffffffffff16021790555082600c60006101000a81548173ffffffffffffffffffffffffffffffffffffffff021916908373ffffffffffffffffffffffffffffffffffffffff1602179055507fdd117a11c22118c9dee4b5a67ce578bc44529dce21ee0ccc439588fbb9fb4ea38282604051808060200180602001838103835285818151815260200191508051906020019080838360005b838110156146bd5780820151818401526020810190506146a2565b50505050905090810190601f1680156146ea5780820380516001836020036101000a031916815260200191505b50838103825284818151815260200191508051906020019080838360005b83811015614723578082015181840152602081019050614708565b50505050905090810190601f1680156147505780820380516001836020036101000a031916815260200191505b5094505050505060405180910390a160016000836040518082805190602001908083835b6020831015156147995780518252602082019150602081019050602083039250614774565b6001836020036101000a0380198251168184511680821785525050505050509050019150509081526020016040518091039020826040518082805190602001908083835b60208310151561480257805182526020820191506020810190506020830392506147dd565b6001836020036101000a038019825116818451168082178552505050505050905001915050908152602001604051809103902060006101000a81548160ff02191690831515021790555060016000836040518082805190602001908083835b6020831015156148865780518252602082019150602081019050602083039250614861565b6001836020036101000a03801982511681845116808217855250505050505090500191505090815260200160405180910390206040805190810160405280600b81526020017f696e697469616c697a65640000000000000000000000000000000000000000008152506040518082805190602001908083835b60208310151561492457805182526020820191506020810190506020830392506148ff565b6001836020036101000a038019825116818451168082178552505050505050905001915050908152602001604051809103902060006101000a81548160ff021916908315150217905550505050565b600e60009054906101000a900473ffffffffffffffffffffffffffffffffffffffff1673ffffffffffffffffffffffffffffffffffffffff163373ffffffffffffffffffffffffffffffffffffffff16141515614a38576040517f08c379a00000000000000000000000000000000000000000000000000000000081526004018080602001828103825260118152602001807f5065726d697373696f6e2044656e69656400000000000000000000000000000081525060200191505060405180910390fd5b600e60009054906101000a900473ffffffffffffffffffffffffffffffffffffffff16600a60006101000a81548173ffffffffffffffffffffffffffffffffffffffff021916908373ffffffffffffffffffffffffffffffffffffffff1602179055506000600e60006101000a81548173ffffffffffffffffffffffffffffffffffffffff021916908373ffffffffffffffffffffffffffffffffffffffff160217905550565b6000614b7082600660003373ffffffffffffffffffffffffffffffffffffffff1673ffffffffffffffffffffffffffffffffffffffff16815260200190815260200160002060008673ffffffffffffffffffffffffffffffffffffffff1673ffffffffffffffffffffffffffffffffffffffff1681526020019081526020016000205461533d90919063ffffffff16565b600660003373ffffffffffffffffffffffffffffffffffffffff1673ffffffffffffffffffffffffffffffffffffffff16815260200190815260200160002060008573ffffffffffffffffffffffffffffffffffffffff1673ffffffffffffffffffffffffffffffffffffffff168152602001908152602001600020819055508273ffffffffffffffffffffffffffffffffffffffff163373ffffffffffffffffffffffffffffffffffffffff167f8c5be1e5ebec7d5bd14f71427d1e84f3dd0314c0f7b2291e5b200ac8c7c3b925600660003373ffffffffffffffffffffffffffffffffffffffff1673ffffffffffffffffffffffffffffffffffffffff16815260200190815260200160002060008773ffffffffffffffffffffffffffffffffffffffff1673ffffffffffffffffffffffffffffffffffffffff168152602001908152602001600020546040518082815260200191505060405180910390a36001905092915050565b600960009054906101000a900473ffffffffffffffffffffffffffffffffffffffff1673ffffffffffffffffffffffffffffffffffffffff163373ffffffffffffffffffffffffffffffffffffffff16141515614da0576040517f08c379a000000000000000000000000000000000000000000000000000000000815260040180806020018281038252600e8152602001807f496e76616c69642073656e64657200000000000000000000000000000000000081525060200191505060405180910390fd5b80600d60006101000a81548173ffffffffffffffffffffffffffffffffffffffff021916908373ffffffffffffffffffffffffffffffffffffffff16021790555050565b6000600760009054906101000a900473ffffffffffffffffffffffffffffffffffffffff1673ffffffffffffffffffffffffffffffffffffffff163373ffffffffffffffffffffffffffffffffffffffff16141515614e4257600080fd5b8273ffffffffffffffffffffffffffffffffffffffff1663a9059cbb600760009054906101000a900473ffffffffffffffffffffffffffffffffffffffff16846040518363ffffffff167c0100000000000000000000000000000000000000000000000000000000028152600401808373ffffffffffffffffffffffffffffffffffffffff1673ffffffffffffffffffffffffffffffffffffffff16815260200182815260200192505050602060405180830381600087803b158015614f0757600080fd5b505af1158015614f1b573d6000803e3d6000fd5b505050506040513d6020811015614f3157600080fd5b8101908080519060200190929190505050905092915050565b6000600660008473ffffffffffffffffffffffffffffffffffffffff1673ffffffffffffffffffffffffffffffffffffffff16815260200190815260200160002060008373ffffffffffffffffffffffffffffffffffffffff1673ffffffffffffffffffffffffffffffffffffffff16815260200190815260200160002054905092915050565b6000600860008373ffffffffffffffffffffffffffffffffffffffff1673ffffffffffffffffffffffffffffffffffffffff168152602001908152602001600020549050919050565b600760009054906101000a900473ffffffffffffffffffffffffffffffffffffffff1673ffffffffffffffffffffffffffffffffffffffff163373ffffffffffffffffffffffffffffffffffffffff1614151561507657600080fd5b600073ffffffffffffffffffffffffffffffffffffffff168173ffffffffffffffffffffffffffffffffffffffff16141515156150b257600080fd5b8073ffffffffffffffffffffffffffffffffffffffff16600760009054906101000a900473ffffffffffffffffffffffffffffffffffffffff1673ffffffffffffffffffffffffffffffffffffffff167f8be0079c531659141344cd1fd0a4f28419497f9722a3daafe3b4186f6b6457e060405160405180910390a380600760006101000a81548173ffffffffffffffffffffffffffffffffffffffff021916908373ffffffffffffffffffffffffffffffffffffffff16021790555050565b600a60009054906101000a900473ffffffffffffffffffffffffffffffffffffffff1673ffffffffffffffffffffffffffffffffffffffff163373ffffffffffffffffffffffffffffffffffffffff16141515615237576040517f08c379a000000000000000000000000000000000000000000000000000000000815260040180806020018281038252600e8152602001807f496e76616c69642073656e64657200000000000000000000000000000000000081525060200191505060405180910390fd5b80600e60006101000a81548173ffffffffffffffffffffffffffffffffffffffff021916908373ffffffffffffffffffffffffffffffffffffffff16021790555050565b600082821115151561528957fe5b818303905092915050565b61529e8282614219565b151515615339576040517f08c379a00000000000000000000000000000000000000000000000000000000081526004018080602001828103825260328152602001807f52657175657374656420746172676574206d6967726174696f6e20494420686181526020017f7320616c7265616479206265656e2072756e000000000000000000000000000081525060400191505060405180910390fd5b5050565b6000818301905082811015151561535057fe5b80905092915050565b6040805190810160405280600781526020017f4f776e61626c65000000000000000000000000000000000000000000000000008152506040805190810160405280600581526020017f312e392e30000000000000000000000000000000000000000000000000000000815250615404826040805190810160405280600b81526020017f696e697469616c697a6564000000000000000000000000000000000000000000815250615294565b61540e8282615294565b82600760006101000a81548173ffffffffffffffffffffffffffffffffffffffff021916908373ffffffffffffffffffffffffffffffffffffffff1602179055507fdd117a11c22118c9dee4b5a67ce578bc44529dce21ee0ccc439588fbb9fb4ea38282604051808060200180602001838103835285818151815260200191508051906020019080838360005b838110156154b657808201518184015260208101905061549b565b50505050905090810190601f1680156154e35780820380516001836020036101000a031916815260200191505b50838103825284818151815260200191508051906020019080838360005b8381101561551c578082015181840152602081019050615501565b50505050905090810190601f1680156155495780820380516001836020036101000a031916815260200191505b5094505050505060405180910390a160016000836040518082805190602001908083835b602083101515615592578051825260208201915060208101905060208303925061556d565b6001836020036101000a0380198251168184511680821785525050505050509050019150509081526020016040518091039020826040518082805190602001908083835b6020831015156155fb57805182526020820191506020810190506020830392506155d6565b6001836020036101000a038019825116818451168082178552505050505050905001915050908152602001604051809103902060006101000a81548160ff02191690831515021790555060016000836040518082805190602001908083835b60208310151561567f578051825260208201915060208101905060208303925061565a565b6001836020036101000a03801982511681845116808217855250505050505090500191505090815260200160405180910390206040805190810160405280600b81526020017f696e697469616c697a65640000000000000000000000000000000000000000008152506040518082805190602001908083835b60208310151561571d57805182526020820191506020810190506020830392506156f8565b6001836020036101000a038019825116818451168082178552505050505050905001915050908152602001604051809103902060006101000a81548160ff021916908315150217905550505050565b828054600181600116156101000203166002900490600052602060002090601f016020900481019282601f106157ad57805160ff19168380011785556157db565b828001600101855582156157db579182015b828111156157da5782518255916020019190600101906157bf565b5b5090506157e891906157ec565b5090565b61580e91905b8082111561580a5760008160009055506001016157f2565b5090565b905600a165627a7a72305820a9dd12be6bc460ddb0be3441da66658ef5e74678cf75119d7a0f99ecfd660b1d0029",
  "source": "pragma solidity ^0.4.21;\r\n\r\nimport 'openzeppelin-zos/contracts/token/ERC20/DetailedERC20.sol';\r\nimport 'openzeppelin-zos/contracts/token/ERC20/StandardToken.sol';\r\nimport 'openzeppelin-zos/contracts/ownership/Ownable.sol';\r\nimport \"zos-lib/contracts/migrations/Migratable.sol\";\r\n\r\n// ----------------------------------------------------------------------------\r\n// SpyCoin - A crypto-currency pegged to the SPX (SPY actually)\r\n//\r\n// Symbol      : SPY\r\n// Name        : SpyCoin - A cryptocurrency that tracks the S&P500\r\n// Decimals    : 6\r\n//\r\n// Enjoy.\r\n//\r\n// ----------------------------------------------------------------------------\r\n\r\n// ----------------------------------------------------------------------------\r\n// ERC20 Token, with the addition of symbol, name and decimals \r\n//\r\n// NOTE: 100 SpyCoins is equivalent to 1 share of SPY,\r\n// or *at time of writing* roughly $2.70 USD\r\n// and with 6 decimal places 100,000,000 tokens is 1 share,\r\n// and 1 token has an approximate value of 0.00027c USD\r\n// ----------------------------------------------------------------------------\r\ncontract TheCoin is Migratable, DetailedERC20, StandardToken, Ownable {\r\n\r\n    // An account may be subject to a timeout, during which\r\n    // period it is forbidden from transferring its value\r\n    mapping(address => uint) freezeUntil;\r\n\r\n    // The following addresses have different roles\r\n\r\n    // TapCapManager is responsible for periodically\r\n    // processing the externally managed TapCap feature\r\n    address role_TapCapManager;\r\n    // The Minter is permitted to mint/melt coins.\r\n    // All coins minted/melted by the minter are\r\n    // from/to TheReserves address\r\n    address role_Minter;\r\n    // THE Coin reserve address.  This is the address\r\n    // directly managed by the THE Coin Inc.  Users\r\n    // interact with this address when purchase/redeem coins\r\n    address role_TheReserves;\r\n    // The Police have very limited powers, they may\r\n    // freeze accounts but nothing else\r\n    address role_Police;\r\n\r\n    // Enforcing a set/accept 2 step process for setting roles\r\n    // creates a strong guarantee that we can't f* up and set\r\n    // the roles to an invalid address\r\n    address new_TapCapManager;\r\n    address new_Minter;\r\n    address new_TheReservist;\r\n    address new_Police;\r\n\r\n    // ------------------------------------------------------------------------\r\n    // Events\r\n    // ------------------------------------------------------------------------\r\n    event CoinsMinted(uint amount);\r\n    event CoinsMelted(uint amount);\r\n    event CoinsPurchased(address targetAddress, uint amount, uint newBalance, uint timestamp);\r\n    event CoinsRedeemed(address sourceAddress, uint amount, uint newBalance, uint timestamp);\r\n\r\n    // ------------------------------------------------------------------------\r\n    // Constructor\r\n    // ------------------------------------------------------------------------\r\n    function initialize(address _sender) public\r\n        isInitializer(\"THECoin\", \"0\") \r\n    {\r\n        DetailedERC20.initialize(\"THE Coin\", \"THE\", 6);\r\n        Ownable.initialize(_sender);\r\n        \r\n        // Lets just double-check this contract has not\r\n        // yet been initialized.\r\n        require(role_TapCapManager == 0 && role_Minter == 0, \"System compromised.  Freeze Everything\");\r\n\r\n        // We initialize all roles to owner.\r\n        // It is expected that Owner will distribute\r\n        // these roles to others\r\n        role_TapCapManager = _sender;\r\n        role_Minter = _sender;\r\n        role_TheReserves = _sender;\r\n        role_Police = _sender;\r\n    }\r\n\r\n    function getRoles() public view returns(address,address,address,address,address)\r\n    {\r\n        return (owner, role_TapCapManager, role_Minter, role_TheReserves, role_Police);\r\n    }\r\n\r\n    // ------------------------------------------------------------------------\r\n    // Total supply management\r\n    // ------------------------------------------------------------------------\r\n\r\n    // The owner will periodically add new coins to match\r\n    // shares purchased of SPY\r\n    function mintCoins(uint amount) public\r\n        onlyMinter\r\n    {\r\n        totalSupply_ = totalSupply_.add(amount);\r\n        balances[role_TheReserves] = balances[role_TheReserves].add(amount);\r\n        emit CoinsMinted(amount);\r\n    }\r\n\r\n    // Remove coins\r\n    function meltCoins(uint amount) public\r\n        onlyMinter\r\n    {\r\n        totalSupply_ = totalSupply_.sub(amount);\r\n        balances[role_TheReserves] = balances[role_TheReserves].add(amount);\r\n        emit CoinsMelted(amount);\r\n    }\r\n\r\n    // Coins currently owned by clients (not TheCoin)\r\n    function coinsCirculating() public view returns(uint)\r\n    {\r\n        return totalSupply_.sub(balances[role_TheReserves]);\r\n    }\r\n\r\n    // Coins available for sale to the public \r\n    function reservedCoins() public view returns (uint balance) \r\n    {\r\n        return balances[role_TheReserves];\r\n    }\r\n\r\n    // ------------------------------------------------------------------------\r\n    // Client interactions with TheCoin\r\n    // ------------------------------------------------------------------------\r\n\r\n    // Users purchase coin from us.  A script on our\r\n    // site will trigger this call\r\n    function coinPurchase(address purchaser, uint amount, uint timeout) public\r\n    onlyTheCoin\r\n    balanceAvailable(amount)\r\n    {\r\n        balances[role_TheReserves] = balances[role_TheReserves].sub(amount);\r\n        balances[purchaser] = balances[purchaser].add(amount);\r\n        freezeUntil[purchaser] = timeout;\r\n        emit CoinsPurchased(purchaser, amount, balances[purchaser], now);\r\n    }\r\n\r\n    // A user returns their coins to us (this will trigger disbursement externally)\r\n    function coinRedeem(uint amount) public\r\n    isTransferable(amount)\r\n    {\r\n        // first, we recover the coins back to our own account\r\n        balances[msg.sender] = balances[msg.sender].sub(amount);\r\n        balances[role_TheReserves] = balances[role_TheReserves].add(amount);\r\n        // Notify (trigger the back-end to transfer fiat \r\n        // in the way the recipient requested)\r\n        emit CoinsRedeemed(msg.sender, amount, balances[msg.sender], now);        \r\n    }\r\n\r\n    // ------------------------------------------------------------------------\r\n    // Sets a timeout, until which time the user will not\r\n    // account may not be transacted against.\r\n    // ------------------------------------------------------------------------\r\n    function setAccountFreezeTime(address account, uint time) public\r\n    onlyPolice\r\n    {\r\n        // NOTE!  This is currently ineffectual until\r\n        // we port the freeze code into the base ERC20 contract\r\n        freezeUntil[account] = time;\r\n    }\r\n\r\n    // ------------------------------------------------------------------------\r\n    // Returns the timestamp of when this account will\r\n    // be unfrozen (able to be transacted against)\r\n    // ------------------------------------------------------------------------\r\n    function accountUnfreezeTime(address account) public \r\n    view\r\n    returns(uint) \r\n    {\r\n        return freezeUntil[account];\r\n    }\r\n\r\n\r\n    // ------------------------------------------------------------------------\r\n    // Implement escrow 'accounts' for holding amounts in escrow to be used \r\n    // in offline transactions\r\n    // ------------------------------------------------------------------------\r\n\r\n    // TODO: Spending balances are amounts that\r\n    // are transfered from the balances into\r\n    // escrow accounts.  These escrow accounts can then\r\n    // be spent against and tracked with local databases\r\n    // and are synced back to the main chain once per week (or so)\r\n    struct TapCapData\r\n    {\r\n        uint TransactionId; // Last processed TC transaction\r\n        uint TapCapEscrow; // How much is currently held in escrow?\r\n        uint TapCapRefill;  // How much should be refilled each week?\r\n    }\r\n\r\n    mapping(address => TapCapData) tapCaps;\r\n\r\n    event TapCapTopUp(address client, uint topup);\r\n    event TapCapSetWeekly(address client, uint weeklyLimit);\r\n    event TapCapClear(address client);\r\n    event TapCapUserUpdated(address client, int change, uint toppedUp);\r\n\r\n    // Event emitted when manually processing TC's\r\n    event TapCapProcessed(address client, address dest, uint amount);\r\n\r\n    // Topup the escrow.  NOTE: This will implicitly increase the amount registered by\r\n    // the spending manager.  Those records are separate and not directly\r\n    // linked to the amounts here.\r\n    function tapCapTopUp(uint topup) public\r\n    balanceAvailable(topup)\r\n    {\r\n        TapCapData storage userAccount = tapCaps[msg.sender];\r\n        balances[msg.sender] = balances[msg.sender].sub(topup);\r\n        userAccount.TapCapEscrow = userAccount.TapCapEscrow.add(topup);\r\n        emit TapCapTopUp(msg.sender, topup);\r\n    }\r\n\r\n    // Set's the weekly TapCap for the user.  Does not affect the current weeks TapCap\r\n    function tapCapSetRefill(uint amount) public\r\n    {\r\n        tapCaps[msg.sender].TapCapRefill = amount;\r\n        emit TapCapSetWeekly(msg.sender, amount);\r\n    }\r\n    \r\n    // Clear a users TapCap account.  A user may not directly\r\n    // clear an account, as the user may have a TC debit\r\n    // pending from the spending manager.\r\n    function tapCapClear() public\r\n    {\r\n        tapCaps[msg.sender].TapCapRefill = uint(-1);\r\n        emit TapCapClear(msg.sender);\r\n    }\r\n\r\n    // Get current values for spending...\r\n    function tapCapUser(address user) public view returns(uint TransactionId, uint TapCapEscrow, uint TapCapRefill)\r\n    {\r\n        return (tapCaps[user].TransactionId, tapCaps[user].TapCapEscrow, tapCaps[user].TapCapRefill);\r\n    }\r\n\r\n    //\r\n    // The big puppy.  Update all accounts with changes from spending\r\n    //\r\n    function processSpending(address[] users, int[] amountChange) public\r\n    onlyTapCapManager()\r\n    {\r\n        uint numChanges = users.length; \r\n        require(numChanges == amountChange.length, \"Each entry in users must be matched by an amountChange\");\r\n\r\n        int totalChange = 0;\r\n        int newTotal = 0;\r\n        for (uint i = 0; i < numChanges; i++) \r\n        {\r\n            address user = users[i];\r\n            int delta = amountChange[i];\r\n            TapCapData storage userAccount = tapCaps[user];\r\n            // Apply the delta to the users account\r\n            if (delta > 0) {\r\n                uint pdelta = uint(delta);\r\n                userAccount.TapCapEscrow = userAccount.TapCapEscrow.add(pdelta);\r\n\r\n                // Update total\r\n                newTotal = totalChange + delta;\r\n                require(newTotal > totalChange, \"int Overflow in processSpending: newTotal <= totalChange\");\r\n                totalChange = newTotal;\r\n            }\r\n            else {\r\n                uint ndelta = uint(-delta);\r\n                userAccount.TapCapEscrow = userAccount.TapCapEscrow.sub(ndelta);\r\n\r\n                // Topup the account by an appropriate amount\r\n                if (userAccount.TapCapEscrow < userAccount.TapCapRefill)\r\n                {\r\n                    uint topup = userAccount.TapCapRefill.sub(userAccount.TapCapEscrow);\r\n                    if (topup > balances[user])\r\n                    {\r\n                        topup = balances[user];\r\n                    }\r\n                    balances[user] = balances[user].sub(topup);\r\n                    userAccount.TapCapEscrow = userAccount.TapCapEscrow.add(topup);\r\n                    emit TapCapUserUpdated(user, delta, topup);\r\n                }\r\n\r\n                // Update total\r\n                newTotal = totalChange + delta;\r\n                require(newTotal <= totalChange, \"int Underflow in processSpending: newTotal > totalChange\");\r\n                totalChange = newTotal;\r\n            }\r\n        }\r\n\r\n        require(totalChange == 0, \"Cannot resolve spending, amounts do not balance to 0\");\r\n    }\r\n\r\n    // ------------------------------------------------------------------------\r\n    // Don't accept ETH\r\n    // ------------------------------------------------------------------------\r\n    function () public payable {\r\n        revert(\"This contract does not run on Ether\");\r\n    }\r\n\r\n    // ------------------------------------------------------------------------\r\n    // Allow updating our key users\r\n    // ------------------------------------------------------------------------\r\n    function setTapCapManager(address newManager) public \r\n    onlyTapCapManager\r\n    {\r\n        new_TapCapManager = newManager;\r\n    }\r\n    function acceptTapCapManager() public \r\n    {\r\n        require(msg.sender == new_TapCapManager, \"Permission Denied\");\r\n        role_TapCapManager = new_TapCapManager;\r\n        new_TapCapManager = 0;\r\n    }\r\n\r\n    function setMinter(address newMinter) public \r\n    onlyMinter\r\n    {\r\n        new_Minter = newMinter;\r\n    }\r\n    function acceptMinter() public \r\n    {\r\n        require(msg.sender == new_Minter, \"Permission Denied\");\r\n        role_Minter = new_Minter;\r\n        new_Minter = 0;\r\n    }\r\n\r\n    function setTheReserves(address newReservist) public \r\n    onlyTheCoin\r\n    {\r\n        new_TheReservist = newReservist;\r\n    }\r\n    function acceptReservist() public \r\n    {\r\n        require(msg.sender == new_TheReservist, \"Permission Denied\");\r\n        role_TheReserves = new_TheReservist;\r\n        new_TheReservist = 0;\r\n    }\r\n\r\n    function setPolice(address newPolice) public \r\n    onlyPolice\r\n    {\r\n        new_Police = newPolice;\r\n    }\r\n    function acceptPolice() public \r\n    {\r\n        require(msg.sender == new_Police, \"Permission Denied\");\r\n        role_Police = new_Police;\r\n        new_Police = 0;\r\n    }\r\n    // ------------------------------------------------------------------------\r\n    // Owner can transfer out any accidentally sent ERC20 tokens\r\n    // ------------------------------------------------------------------------\r\n    function transferAnyERC20Token(address tokenAddress, uint tokens) public onlyOwner returns (bool success) {\r\n        return ERC20Basic(tokenAddress).transfer(owner, tokens);\r\n    }\r\n\r\n    ///////////////////////////////\r\n    modifier balanceAvailable(uint amount) {\r\n        require(balances[msg.sender] >= amount, \"Caller has insufficient balance\");\r\n        _;\r\n    }\r\n\r\n    modifier isTransferable(uint amount) {\r\n        require(balances[msg.sender] >= amount, \"Caller has insufficient balance\");\r\n        require(freezeUntil[msg.sender] < now, \"Caller's account is currently frozen\");\r\n        _;\r\n    }\r\n\r\n    modifier onlyTapCapManager()\r\n    {\r\n        require(msg.sender == role_TapCapManager, \"Invalid sender\");\r\n        _;\r\n    }\r\n\r\n    modifier onlyMinter()\r\n    {\r\n        require(msg.sender == role_Minter, \"Invalid sender\");\r\n        _;\r\n    }\r\n\r\n    modifier onlyTheCoin()\r\n    {\r\n        require(msg.sender == role_TheReserves, \"Invalid sender\");\r\n        _;\r\n    }\r\n\r\n    modifier onlyPolice()\r\n    {\r\n        require(msg.sender == role_Police, \"Invalid sender\");\r\n        _;\r\n    }\r\n}",
  "sourcePath": "c:\\src\\TheCoin\\TheCoinContract\\contracts\\TheCoin.sol",
  "compiler": {
    "name": "solc",
    "version": "0.4.24+commit.e67f0147.Emscripten.clang"
  },
  "schemaVersion": "2.0.1",
  "updatedAt": "2018-09-18T09:17:38.717Z"
}