{
  "contractName": "TheCoin",
  "abi": [
    {
      "constant": true,
      "inputs": [],
      "name": "name",
      "outputs": [
        {
          "name": "",
          "type": "string"
        }
      ],
      "payable": false,
      "stateMutability": "view",
      "type": "function"
    },
    {
      "constant": true,
      "inputs": [],
      "name": "totalSupply",
      "outputs": [
        {
          "name": "",
          "type": "uint256"
        }
      ],
      "payable": false,
      "stateMutability": "view",
      "type": "function"
    },
    {
      "constant": false,
      "inputs": [
        {
          "name": "from",
          "type": "address"
        },
        {
          "name": "to",
          "type": "address"
        },
        {
          "name": "value",
          "type": "uint256"
        }
      ],
      "name": "transferFrom",
      "outputs": [
        {
          "name": "",
          "type": "bool"
        }
      ],
      "payable": false,
      "stateMutability": "nonpayable",
      "type": "function"
    },
    {
      "constant": true,
      "inputs": [],
      "name": "decimals",
      "outputs": [
        {
          "name": "",
          "type": "uint8"
        }
      ],
      "payable": false,
      "stateMutability": "view",
      "type": "function"
    },
    {
      "constant": true,
      "inputs": [
        {
          "name": "owner",
          "type": "address"
        }
      ],
      "name": "balanceOf",
      "outputs": [
        {
          "name": "",
          "type": "uint256"
        }
      ],
      "payable": false,
      "stateMutability": "view",
      "type": "function"
    },
    {
      "constant": true,
      "inputs": [
        {
          "name": "from",
          "type": "address"
        },
        {
          "name": "to",
          "type": "address"
        },
        {
          "name": "value",
          "type": "uint256"
        },
        {
          "name": "fee",
          "type": "uint256"
        },
        {
          "name": "timestamp",
          "type": "uint256"
        },
        {
          "name": "signature",
          "type": "bytes"
        }
      ],
      "name": "recoverSigner",
      "outputs": [
        {
          "name": "",
          "type": "address"
        }
      ],
      "payable": false,
      "stateMutability": "pure",
      "type": "function"
    },
    {
      "constant": true,
      "inputs": [],
      "name": "symbol",
      "outputs": [
        {
          "name": "",
          "type": "string"
        }
      ],
      "payable": false,
      "stateMutability": "view",
      "type": "function"
    },
    {
      "constant": false,
      "inputs": [
        {
          "name": "spender",
          "type": "address"
        },
        {
          "name": "subtractedValue",
          "type": "uint256"
        }
      ],
      "name": "decreaseAllowance",
      "outputs": [
        {
          "name": "",
          "type": "bool"
        }
      ],
      "payable": false,
      "stateMutability": "nonpayable",
      "type": "function"
    },
    {
      "constant": true,
      "inputs": [
        {
          "name": "owner",
          "type": "address"
        },
        {
          "name": "spender",
          "type": "address"
        }
      ],
      "name": "allowance",
      "outputs": [
        {
          "name": "",
          "type": "uint256"
        }
      ],
      "payable": false,
      "stateMutability": "view",
      "type": "function"
    },
    {
      "constant": true,
      "inputs": [
        {
          "name": "from",
          "type": "address"
        },
        {
          "name": "to",
          "type": "address"
        },
        {
          "name": "value",
          "type": "uint256"
        },
        {
          "name": "fee",
          "type": "uint256"
        },
        {
          "name": "timestamp",
          "type": "uint256"
        }
      ],
      "name": "buildMessage",
      "outputs": [
        {
          "name": "",
          "type": "bytes32"
        }
      ],
      "payable": false,
      "stateMutability": "pure",
      "type": "function"
    },
    {
      "payable": true,
      "stateMutability": "payable",
      "type": "fallback"
    },
    {
      "anonymous": false,
      "inputs": [
        {
          "indexed": false,
          "name": "purchaser",
          "type": "address"
        },
        {
          "indexed": false,
          "name": "amount",
          "type": "uint256"
        },
        {
          "indexed": false,
          "name": "balance",
          "type": "uint256"
        },
        {
          "indexed": false,
          "name": "timestamp",
          "type": "uint256"
        }
      ],
      "name": "Purchase",
      "type": "event"
    },
    {
      "anonymous": false,
      "inputs": [
        {
          "indexed": false,
          "name": "purchaser",
          "type": "address"
        },
        {
          "indexed": false,
          "name": "amount",
          "type": "uint256"
        },
        {
          "indexed": false,
          "name": "balance",
          "type": "uint256"
        },
        {
          "indexed": false,
          "name": "timestamp",
          "type": "uint256"
        }
      ],
      "name": "Redeem",
      "type": "event"
    },
    {
      "anonymous": false,
      "inputs": [
        {
          "indexed": false,
          "name": "client",
          "type": "address"
        },
        {
          "indexed": false,
          "name": "topup",
          "type": "uint256"
        }
      ],
      "name": "TapCapTopUp",
      "type": "event"
    },
    {
      "anonymous": false,
      "inputs": [
        {
          "indexed": false,
          "name": "client",
          "type": "address"
        },
        {
          "indexed": false,
          "name": "weeklyLimit",
          "type": "uint256"
        }
      ],
      "name": "TapCapSetWeekly",
      "type": "event"
    },
    {
      "anonymous": false,
      "inputs": [
        {
          "indexed": false,
          "name": "client",
          "type": "address"
        }
      ],
      "name": "TapCapClear",
      "type": "event"
    },
    {
      "anonymous": false,
      "inputs": [
        {
          "indexed": false,
          "name": "client",
          "type": "address"
        },
        {
          "indexed": false,
          "name": "change",
          "type": "int256"
        },
        {
          "indexed": false,
          "name": "toppedUp",
          "type": "uint256"
        }
      ],
      "name": "TapCapUserUpdated",
      "type": "event"
    },
    {
      "anonymous": false,
      "inputs": [
        {
          "indexed": false,
          "name": "client",
          "type": "address"
        },
        {
          "indexed": false,
          "name": "dest",
          "type": "address"
        },
        {
          "indexed": false,
          "name": "amount",
          "type": "uint256"
        }
      ],
      "name": "TapCapProcessed",
      "type": "event"
    },
    {
      "anonymous": false,
      "inputs": [
        {
          "indexed": true,
          "name": "from",
          "type": "address"
        },
        {
          "indexed": true,
          "name": "to",
          "type": "address"
        },
        {
          "indexed": false,
          "name": "value",
          "type": "uint256"
        }
      ],
      "name": "Transfer",
      "type": "event"
    },
    {
      "anonymous": false,
      "inputs": [
        {
          "indexed": true,
          "name": "owner",
          "type": "address"
        },
        {
          "indexed": true,
          "name": "spender",
          "type": "address"
        },
        {
          "indexed": false,
          "name": "value",
          "type": "uint256"
        }
      ],
      "name": "Approval",
      "type": "event"
    },
    {
      "constant": false,
      "inputs": [
        {
          "name": "_sender",
          "type": "address"
        }
      ],
      "name": "initialize",
      "outputs": [],
      "payable": false,
      "stateMutability": "nonpayable",
      "type": "function"
    },
    {
      "constant": false,
      "inputs": [
        {
          "name": "name",
          "type": "string"
        },
        {
          "name": "symbol",
          "type": "string"
        },
        {
          "name": "decimals",
          "type": "uint8"
        }
      ],
      "name": "initialize",
      "outputs": [],
      "payable": false,
      "stateMutability": "nonpayable",
      "type": "function"
    },
    {
      "constant": true,
      "inputs": [],
      "name": "getRoles",
      "outputs": [
        {
          "name": "",
          "type": "address"
        },
        {
          "name": "",
          "type": "address"
        },
        {
          "name": "",
          "type": "address"
        },
        {
          "name": "",
          "type": "address"
        }
      ],
      "payable": false,
      "stateMutability": "view",
      "type": "function"
    },
    {
      "constant": false,
      "inputs": [
        {
          "name": "amount",
          "type": "uint256"
        }
      ],
      "name": "mintCoins",
      "outputs": [],
      "payable": false,
      "stateMutability": "nonpayable",
      "type": "function"
    },
    {
      "constant": false,
      "inputs": [
        {
          "name": "amount",
          "type": "uint256"
        }
      ],
      "name": "meltCoins",
      "outputs": [],
      "payable": false,
      "stateMutability": "nonpayable",
      "type": "function"
    },
    {
      "constant": true,
      "inputs": [],
      "name": "coinsCirculating",
      "outputs": [
        {
          "name": "",
          "type": "uint256"
        }
      ],
      "payable": false,
      "stateMutability": "view",
      "type": "function"
    },
    {
      "constant": true,
      "inputs": [],
      "name": "reservedCoins",
      "outputs": [
        {
          "name": "balance",
          "type": "uint256"
        }
      ],
      "payable": false,
      "stateMutability": "view",
      "type": "function"
    },
    {
      "constant": false,
      "inputs": [
        {
          "name": "to",
          "type": "address"
        },
        {
          "name": "value",
          "type": "uint256"
        }
      ],
      "name": "transfer",
      "outputs": [
        {
          "name": "",
          "type": "bool"
        }
      ],
      "payable": false,
      "stateMutability": "nonpayable",
      "type": "function"
    },
    {
      "constant": false,
      "inputs": [
        {
          "name": "spender",
          "type": "address"
        },
        {
          "name": "value",
          "type": "uint256"
        }
      ],
      "name": "approve",
      "outputs": [
        {
          "name": "",
          "type": "bool"
        }
      ],
      "payable": false,
      "stateMutability": "nonpayable",
      "type": "function"
    },
    {
      "constant": false,
      "inputs": [
        {
          "name": "spender",
          "type": "address"
        },
        {
          "name": "addedValue",
          "type": "uint256"
        }
      ],
      "name": "increaseAllowance",
      "outputs": [
        {
          "name": "",
          "type": "bool"
        }
      ],
      "payable": false,
      "stateMutability": "nonpayable",
      "type": "function"
    },
    {
      "constant": false,
      "inputs": [
        {
          "name": "from",
          "type": "address"
        },
        {
          "name": "to",
          "type": "address"
        },
        {
          "name": "value",
          "type": "uint256"
        },
        {
          "name": "fee",
          "type": "uint256"
        },
        {
          "name": "timestamp",
          "type": "uint256"
        },
        {
          "name": "signature",
          "type": "bytes"
        }
      ],
      "name": "certifiedTransfer",
      "outputs": [
        {
          "name": "",
          "type": "bool"
        }
      ],
      "payable": false,
      "stateMutability": "nonpayable",
      "type": "function"
    },
    {
      "constant": false,
      "inputs": [
        {
          "name": "purchaser",
          "type": "address"
        },
        {
          "name": "amount",
          "type": "uint256"
        },
        {
          "name": "timeout",
          "type": "uint256"
        },
        {
          "name": "timestamp",
          "type": "uint256"
        }
      ],
      "name": "coinPurchase",
      "outputs": [],
      "payable": false,
      "stateMutability": "nonpayable",
      "type": "function"
    },
    {
      "constant": false,
      "inputs": [
        {
          "name": "amount",
          "type": "uint256"
        },
        {
          "name": "timestamp",
          "type": "uint256"
        }
      ],
      "name": "coinRedeem",
      "outputs": [],
      "payable": false,
      "stateMutability": "nonpayable",
      "type": "function"
    },
    {
      "constant": false,
      "inputs": [
        {
          "name": "account",
          "type": "address"
        },
        {
          "name": "time",
          "type": "uint256"
        }
      ],
      "name": "setAccountFreezeTime",
      "outputs": [],
      "payable": false,
      "stateMutability": "nonpayable",
      "type": "function"
    },
    {
      "constant": true,
      "inputs": [
        {
          "name": "account",
          "type": "address"
        }
      ],
      "name": "accountUnfreezeTime",
      "outputs": [
        {
          "name": "",
          "type": "uint256"
        }
      ],
      "payable": false,
      "stateMutability": "view",
      "type": "function"
    },
    {
      "constant": false,
      "inputs": [
        {
          "name": "topup",
          "type": "uint256"
        }
      ],
      "name": "tapCapTopUp",
      "outputs": [],
      "payable": false,
      "stateMutability": "nonpayable",
      "type": "function"
    },
    {
      "constant": false,
      "inputs": [
        {
          "name": "amount",
          "type": "uint256"
        }
      ],
      "name": "tapCapSetRefill",
      "outputs": [],
      "payable": false,
      "stateMutability": "nonpayable",
      "type": "function"
    },
    {
      "constant": false,
      "inputs": [],
      "name": "tapCapClear",
      "outputs": [],
      "payable": false,
      "stateMutability": "nonpayable",
      "type": "function"
    },
    {
      "constant": true,
      "inputs": [
        {
          "name": "user",
          "type": "address"
        }
      ],
      "name": "tapCapUser",
      "outputs": [
        {
          "name": "TransactionId",
          "type": "uint256"
        },
        {
          "name": "TapCapEscrow",
          "type": "uint256"
        },
        {
          "name": "TapCapRefill",
          "type": "uint256"
        }
      ],
      "payable": false,
      "stateMutability": "view",
      "type": "function"
    },
    {
      "constant": false,
      "inputs": [
        {
          "name": "users",
          "type": "address[]"
        },
        {
          "name": "amountChange",
          "type": "int256[]"
        }
      ],
      "name": "processSpending",
      "outputs": [],
      "payable": false,
      "stateMutability": "nonpayable",
      "type": "function"
    },
    {
      "constant": false,
      "inputs": [
        {
          "name": "newManager",
          "type": "address"
        }
      ],
      "name": "setTapCapManager",
      "outputs": [],
      "payable": false,
      "stateMutability": "nonpayable",
      "type": "function"
    },
    {
      "constant": false,
      "inputs": [],
      "name": "acceptTapCapManager",
      "outputs": [],
      "payable": false,
      "stateMutability": "nonpayable",
      "type": "function"
    },
    {
      "constant": false,
      "inputs": [
        {
          "name": "newMinter",
          "type": "address"
        }
      ],
      "name": "setMinter",
      "outputs": [],
      "payable": false,
      "stateMutability": "nonpayable",
      "type": "function"
    },
    {
      "constant": false,
      "inputs": [],
      "name": "acceptMinter",
      "outputs": [],
      "payable": false,
      "stateMutability": "nonpayable",
      "type": "function"
    },
    {
      "constant": false,
      "inputs": [
        {
          "name": "newCoinManager",
          "type": "address"
        }
      ],
      "name": "setTheCoin",
      "outputs": [],
      "payable": false,
      "stateMutability": "nonpayable",
      "type": "function"
    },
    {
      "constant": false,
      "inputs": [],
      "name": "acceptTheCoin",
      "outputs": [],
      "payable": false,
      "stateMutability": "nonpayable",
      "type": "function"
    },
    {
      "constant": false,
      "inputs": [
        {
          "name": "newPolice",
          "type": "address"
        }
      ],
      "name": "setPolice",
      "outputs": [],
      "payable": false,
      "stateMutability": "nonpayable",
      "type": "function"
    },
    {
      "constant": false,
      "inputs": [],
      "name": "acceptPolice",
      "outputs": [],
      "payable": false,
      "stateMutability": "nonpayable",
      "type": "function"
    },
    {
      "constant": false,
      "inputs": [
        {
          "name": "tokenAddress",
          "type": "address"
        },
        {
          "name": "tokens",
          "type": "uint256"
        }
      ],
      "name": "transferAnyERC20Token",
      "outputs": [
        {
          "name": "success",
          "type": "bool"
        }
      ],
      "payable": false,
      "stateMutability": "nonpayable",
      "type": "function"
    }
  ],
  "bytecode": "0x608060405234801561001057600080fd5b5061536d806100206000396000f3fe6080604052600436106101e3576000357c0100000000000000000000000000000000000000000000000000000000900463ffffffff16806306fdde0314610277578063095ea7b3146103075780630a18f5c91461037a5780631624f6c6146103a557806318160ddd1461051157806318fd64401461053c5780631dcdb8e6146105675780631f39f23c146105da57806323b872dd1461062b5780632f9e1b17146106be578063313ce567146106f9578063344398471461072a57806339509351146107415780635395c9d4146107b45780635ec4f0c4146107cb5780636e24c37e1461090957806370a0823114610a625780637106139814610ac757806377598d9a14610bb757806378ad516414610bce5780638a5c3d8414610c095780638da91fcd14610c5a57806395d89b4114610dc05780639a975b0c14610e50578063a299071214610e67578063a457c2d714610ed6578063a77b6efb14610f49578063a793902b14610f84578063a9059cbb14610fbf578063b33c884514611032578063b3d96e451461108d578063c4d66de8146110d2578063cbd956c314611123578063d803ec171461113a578063dc39d06d1461118b578063dd62ed3e146111fe578063dfdf9f8214611283578063fbc67b23146112e8578063fca3b5aa1461138b575b6040517f08c379a00000000000000000000000000000000000000000000000000000000081526004018080602001828103825260238152602001807f5468697320636f6e747261637420646f6573206e6f742072756e206f6e20457481526020017f686572000000000000000000000000000000000000000000000000000000000081525060400191505060405180910390fd5b34801561028357600080fd5b5061028c6113dc565b6040518080602001828103825283818151815260200191508051906020019080838360005b838110156102cc5780820151818401526020810190506102b1565b50505050905090810190601f1680156102f95780820380516001836020036101000a031916815260200191505b509250505060405180910390f35b34801561031357600080fd5b506103606004803603604081101561032a57600080fd5b81019080803573ffffffffffffffffffffffffffffffffffffffff1690602001909291908035906020019092919050505061147e565b604051808215151515815260200191505060405180910390f35b34801561038657600080fd5b5061038f611629565b6040518082815260200191505060405180910390f35b3480156103b157600080fd5b5061050f600480360360608110156103c857600080fd5b81019080803590602001906401000000008111156103e557600080fd5b8201836020820111156103f757600080fd5b8035906020019184600183028401116401000000008311171561041957600080fd5b91908080601f016020809104026020016040519081016040528093929190818152602001838380828437600081840152601f19601f8201169050808301925050505050505091929192908035906020019064010000000081111561047c57600080fd5b82018360208201111561048e57600080fd5b803590602001918460018302840111640100000000831117156104b057600080fd5b91908080601f016020809104026020016040519081016040528093929190818152602001838380828437600081840152601f19601f820116905080830192505050505050509192919290803560ff169060200190929190505050611674565b005b34801561051d57600080fd5b506105266117f5565b6040518082815260200191505060405180910390f35b34801561054857600080fd5b506105516117ff565b6040518082815260200191505060405180910390f35b34801561057357600080fd5b506105b66004803603602081101561058a57600080fd5b81019080803573ffffffffffffffffffffffffffffffffffffffff169060200190929190505050611831565b60405180848152602001838152602001828152602001935050505060405180910390f35b3480156105e657600080fd5b50610629600480360360208110156105fd57600080fd5b81019080803573ffffffffffffffffffffffffffffffffffffffff16906020019092919050505061190c565b005b34801561063757600080fd5b506106a46004803603606081101561064e57600080fd5b81019080803573ffffffffffffffffffffffffffffffffffffffff169060200190929190803573ffffffffffffffffffffffffffffffffffffffff16906020019092919080359060200190929190505050611a15565b604051808215151515815260200191505060405180910390f35b3480156106ca57600080fd5b506106f7600480360360208110156106e157600080fd5b8101908080359060200190929190505050611c1d565b005b34801561070557600080fd5b5061070e611e3c565b604051808260ff1660ff16815260200191505060405180910390f35b34801561073657600080fd5b5061073f611e53565b005b34801561074d57600080fd5b5061079a6004803603604081101561076457600080fd5b81019080803573ffffffffffffffffffffffffffffffffffffffff16906020019092919080359060200190929190505050611fbf565b604051808215151515815260200191505060405180910390f35b3480156107c057600080fd5b506107c961216a565b005b3480156107d757600080fd5b506108ef600480360360c08110156107ee57600080fd5b81019080803573ffffffffffffffffffffffffffffffffffffffff169060200190929190803573ffffffffffffffffffffffffffffffffffffffff1690602001909291908035906020019092919080359060200190929190803590602001909291908035906020019064010000000081111561086957600080fd5b82018360208201111561087b57600080fd5b8035906020019184600183028401116401000000008311171561089d57600080fd5b91908080601f016020809104026020016040519081016040528093929190818152602001838380828437600081840152601f19601f8201169050808301925050505050505091929192905050506122d6565b604051808215151515815260200191505060405180910390f35b34801561091557600080fd5b50610a606004803603604081101561092c57600080fd5b810190808035906020019064010000000081111561094957600080fd5b82018360208201111561095b57600080fd5b8035906020019184602083028401116401000000008311171561097d57600080fd5b919080806020026020016040519081016040528093929190818152602001838360200280828437600081840152601f19601f820116905080830192505050505050509192919290803590602001906401000000008111156109dd57600080fd5b8201836020820111156109ef57600080fd5b80359060200191846020830284011164010000000083111715610a1157600080fd5b919080806020026020016040519081016040528093929190818152602001838360200280828437600081840152601f19601f82011690508083019250505050505050919291929050505061266b565b005b348015610a6e57600080fd5b50610ab160048036036020811015610a8557600080fd5b81019080803573ffffffffffffffffffffffffffffffffffffffff169060200190929190505050612cda565b6040518082815260200191505060405180910390f35b348015610ad357600080fd5b50610adc612d23565b604051808573ffffffffffffffffffffffffffffffffffffffff1673ffffffffffffffffffffffffffffffffffffffff1681526020018473ffffffffffffffffffffffffffffffffffffffff1673ffffffffffffffffffffffffffffffffffffffff1681526020018373ffffffffffffffffffffffffffffffffffffffff1673ffffffffffffffffffffffffffffffffffffffff1681526020018273ffffffffffffffffffffffffffffffffffffffff1673ffffffffffffffffffffffffffffffffffffffff16815260200194505050505060405180910390f35b348015610bc357600080fd5b50610bcc612dc3565b005b348015610bda57600080fd5b50610c0760048036036020811015610bf157600080fd5b8101908080359060200190929190505050612f2f565b005b348015610c1557600080fd5b50610c5860048036036020811015610c2c57600080fd5b81019080803573ffffffffffffffffffffffffffffffffffffffff169060200190929190505050612fe4565b005b348015610c6657600080fd5b50610d7e600480360360c0811015610c7d57600080fd5b81019080803573ffffffffffffffffffffffffffffffffffffffff169060200190929190803573ffffffffffffffffffffffffffffffffffffffff16906020019092919080359060200190929190803590602001909291908035906020019092919080359060200190640100000000811115610cf857600080fd5b820183602082011115610d0a57600080fd5b80359060200191846001830284011164010000000083111715610d2c57600080fd5b91908080601f016020809104026020016040519081016040528093929190818152602001838380828437600081840152601f19601f8201169050808301925050505050505091929192905050506130ed565b604051808273ffffffffffffffffffffffffffffffffffffffff1673ffffffffffffffffffffffffffffffffffffffff16815260200191505060405180910390f35b348015610dcc57600080fd5b50610dd5613124565b6040518080602001828103825283818151815260200191508051906020019080838360005b83811015610e15578082015181840152602081019050610dfa565b50505050905090810190601f168015610e425780820380516001836020036101000a031916815260200191505b509250505060405180910390f35b348015610e5c57600080fd5b50610e656131c6565b005b348015610e7357600080fd5b50610ed460048036036080811015610e8a57600080fd5b81019080803573ffffffffffffffffffffffffffffffffffffffff169060200190929190803590602001909291908035906020019092919080359060200190929190505050613292565b005b348015610ee257600080fd5b50610f2f60048036036040811015610ef957600080fd5b81019080803573ffffffffffffffffffffffffffffffffffffffff1690602001909291908035906020019092919050505061350a565b604051808215151515815260200191505060405180910390f35b348015610f5557600080fd5b50610f8260048036036020811015610f6c57600080fd5b8101908080359060200190929190505050613741565b005b348015610f9057600080fd5b50610fbd60048036036020811015610fa757600080fd5b8101908080359060200190929190505050613835565b005b348015610fcb57600080fd5b5061101860048036036040811015610fe257600080fd5b81019080803573ffffffffffffffffffffffffffffffffffffffff16906020019092919080359060200190929190505050613929565b604051808215151515815260200191505060405180910390f35b34801561103e57600080fd5b5061108b6004803603604081101561105557600080fd5b81019080803573ffffffffffffffffffffffffffffffffffffffff16906020019092919080359060200190929190505050613ad4565b005b34801561109957600080fd5b506110d0600480360360408110156110b057600080fd5b810190808035906020019092919080359060200190929190505050613be1565b005b3480156110de57600080fd5b50611121600480360360208110156110f557600080fd5b81019080803573ffffffffffffffffffffffffffffffffffffffff169060200190929190505050613e2c565b005b34801561112f57600080fd5b50611138614222565b005b34801561114657600080fd5b506111896004803603602081101561115d57600080fd5b81019080803573ffffffffffffffffffffffffffffffffffffffff16906020019092919050505061438e565b005b34801561119757600080fd5b506111e4600480360360408110156111ae57600080fd5b81019080803573ffffffffffffffffffffffffffffffffffffffff16906020019092919080359060200190929190505050614497565b604051808215151515815260200191505060405180910390f35b34801561120a57600080fd5b5061126d6004803603604081101561122157600080fd5b81019080803573ffffffffffffffffffffffffffffffffffffffff169060200190929190803573ffffffffffffffffffffffffffffffffffffffff16906020019092919050505061466c565b6040518082815260200191505060405180910390f35b34801561128f57600080fd5b506112d2600480360360208110156112a657600080fd5b81019080803573ffffffffffffffffffffffffffffffffffffffff1690602001909291905050506146f3565b6040518082815260200191505060405180910390f35b3480156112f457600080fd5b50611375600480360360a081101561130b57600080fd5b81019080803573ffffffffffffffffffffffffffffffffffffffff169060200190929190803573ffffffffffffffffffffffffffffffffffffffff16906020019092919080359060200190929190803590602001909291908035906020019092919050505061473c565b6040518082815260200191505060405180910390f35b34801561139757600080fd5b506113da600480360360208110156113ae57600080fd5b81019080803573ffffffffffffffffffffffffffffffffffffffff16906020019092919050505061480c565b005b606060338054600181600116156101000203166002900480601f0160208091040260200160405190810160405280929190818152602001828054600181600116156101000203166002900480156114745780601f1061144957610100808354040283529160200191611474565b820191906000526020600020905b81548152906001019060200180831161145757829003601f168201915b5050505050905090565b6000338280606860008473ffffffffffffffffffffffffffffffffffffffff1673ffffffffffffffffffffffffffffffffffffffff1681526020019081526020016000205410151515611539576040517f08c379a000000000000000000000000000000000000000000000000000000000815260040180806020018281038252601f8152602001807f43616c6c65722068617320696e73756666696369656e742062616c616e63650081525060200191505060405180910390fd5b42609d60008473ffffffffffffffffffffffffffffffffffffffff1673ffffffffffffffffffffffffffffffffffffffff16815260200190815260200160002054101515611615576040517f08c379a00000000000000000000000000000000000000000000000000000000081526004018080602001828103825260248152602001807f43616c6c65722773206163636f756e742069732063757272656e746c7920667281526020017f6f7a656e0000000000000000000000000000000000000000000000000000000081525060400191505060405180910390fd5b61161f8585614915565b9250505092915050565b600061166f61165960a160009054906101000a900473ffffffffffffffffffffffffffffffffffffffff16612cda565b6116616117f5565b614a4290919063ffffffff16565b905090565b600060019054906101000a900460ff16806116935750611692614a64565b5b806116aa57506000809054906101000a900460ff16155b1515611744576040517f08c379a000000000000000000000000000000000000000000000000000000000815260040180806020018281038252602e8152602001807f436f6e747261637420696e7374616e63652068617320616c726561647920626581526020017f656e20696e697469616c697a656400000000000000000000000000000000000081525060400191505060405180910390fd5b60008060019054906101000a900460ff1690506001600060016101000a81548160ff02191690831515021790555060016000806101000a81548160ff02191690831515021790555083603390805190602001906117a292919061529c565b5082603490805190602001906117b992919061529c565b5081603560006101000a81548160ff021916908360ff16021790555080600060016101000a81548160ff02191690831515021790555050505050565b6000606a54905090565b600061182c60a160009054906101000a900473ffffffffffffffffffffffffffffffffffffffff16612cda565b905090565b600080600060a760008573ffffffffffffffffffffffffffffffffffffffff1673ffffffffffffffffffffffffffffffffffffffff1681526020019081526020016000206000015460a760008673ffffffffffffffffffffffffffffffffffffffff1673ffffffffffffffffffffffffffffffffffffffff1681526020019081526020016000206001015460a760008773ffffffffffffffffffffffffffffffffffffffff1673ffffffffffffffffffffffffffffffffffffffff168152602001908152602001600020600201549250925092509193909250565b60a260009054906101000a900473ffffffffffffffffffffffffffffffffffffffff1673ffffffffffffffffffffffffffffffffffffffff163373ffffffffffffffffffffffffffffffffffffffff161415156119d1576040517f08c379a000000000000000000000000000000000000000000000000000000000815260040180806020018281038252600e8152602001807f496e76616c69642073656e64657200000000000000000000000000000000000081525060200191505060405180910390fd5b8060a660006101000a81548173ffffffffffffffffffffffffffffffffffffffff021916908373ffffffffffffffffffffffffffffffffffffffff16021790555050565b6000611aa682606960008773ffffffffffffffffffffffffffffffffffffffff1673ffffffffffffffffffffffffffffffffffffffff16815260200190815260200160002060003373ffffffffffffffffffffffffffffffffffffffff1673ffffffffffffffffffffffffffffffffffffffff16815260200190815260200160002054614a4290919063ffffffff16565b606960008673ffffffffffffffffffffffffffffffffffffffff1673ffffffffffffffffffffffffffffffffffffffff16815260200190815260200160002060003373ffffffffffffffffffffffffffffffffffffffff1673ffffffffffffffffffffffffffffffffffffffff16815260200190815260200160002081905550611b31848484614a75565b3373ffffffffffffffffffffffffffffffffffffffff168473ffffffffffffffffffffffffffffffffffffffff167f8c5be1e5ebec7d5bd14f71427d1e84f3dd0314c0f7b2291e5b200ac8c7c3b925606960008873ffffffffffffffffffffffffffffffffffffffff1673ffffffffffffffffffffffffffffffffffffffff16815260200190815260200160002060003373ffffffffffffffffffffffffffffffffffffffff1673ffffffffffffffffffffffffffffffffffffffff168152602001908152602001600020546040518082815260200191505060405180910390a3600190509392505050565b8080606860003373ffffffffffffffffffffffffffffffffffffffff1673ffffffffffffffffffffffffffffffffffffffff1681526020019081526020016000205410151515611cd5576040517f08c379a000000000000000000000000000000000000000000000000000000000815260040180806020018281038252601f8152602001807f43616c6c65722068617320696e73756666696369656e742062616c616e63650081525060200191505060405180910390fd5b600060a760003373ffffffffffffffffffffffffffffffffffffffff1673ffffffffffffffffffffffffffffffffffffffff1681526020019081526020016000209050611d6a83606860003373ffffffffffffffffffffffffffffffffffffffff1673ffffffffffffffffffffffffffffffffffffffff16815260200190815260200160002054614a4290919063ffffffff16565b606860003373ffffffffffffffffffffffffffffffffffffffff1673ffffffffffffffffffffffffffffffffffffffff16815260200190815260200160002081905550611dc4838260010154614c4590919063ffffffff16565b81600101819055507f0164611a7fe547f708c0a708a8ac00ed2c0adbca62e7dee2f63512e60c30e9e63384604051808373ffffffffffffffffffffffffffffffffffffffff1673ffffffffffffffffffffffffffffffffffffffff1681526020018281526020019250505060405180910390a1505050565b6000603560009054906101000a900460ff16905090565b60a660009054906101000a900473ffffffffffffffffffffffffffffffffffffffff1673ffffffffffffffffffffffffffffffffffffffff163373ffffffffffffffffffffffffffffffffffffffff16141515611f18576040517f08c379a00000000000000000000000000000000000000000000000000000000081526004018080602001828103825260118152602001807f5065726d697373696f6e2044656e69656400000000000000000000000000000081525060200191505060405180910390fd5b60a660009054906101000a900473ffffffffffffffffffffffffffffffffffffffff1660a260006101000a81548173ffffffffffffffffffffffffffffffffffffffff021916908373ffffffffffffffffffffffffffffffffffffffff160217905550600060a660006101000a81548173ffffffffffffffffffffffffffffffffffffffff021916908373ffffffffffffffffffffffffffffffffffffffff160217905550565b6000338280606860008473ffffffffffffffffffffffffffffffffffffffff1673ffffffffffffffffffffffffffffffffffffffff168152602001908152602001600020541015151561207a576040517f08c379a000000000000000000000000000000000000000000000000000000000815260040180806020018281038252601f8152602001807f43616c6c65722068617320696e73756666696369656e742062616c616e63650081525060200191505060405180910390fd5b42609d60008473ffffffffffffffffffffffffffffffffffffffff1673ffffffffffffffffffffffffffffffffffffffff16815260200190815260200160002054101515612156576040517f08c379a00000000000000000000000000000000000000000000000000000000081526004018080602001828103825260248152602001807f43616c6c65722773206163636f756e742069732063757272656e746c7920667281526020017f6f7a656e0000000000000000000000000000000000000000000000000000000081525060400191505060405180910390fd5b6121608585614c66565b9250505092915050565b60a560009054906101000a900473ffffffffffffffffffffffffffffffffffffffff1673ffffffffffffffffffffffffffffffffffffffff163373ffffffffffffffffffffffffffffffffffffffff1614151561222f576040517f08c379a00000000000000000000000000000000000000000000000000000000081526004018080602001828103825260118152602001807f5065726d697373696f6e2044656e69656400000000000000000000000000000081525060200191505060405180910390fd5b60a560009054906101000a900473ffffffffffffffffffffffffffffffffffffffff1660a160006101000a81548173ffffffffffffffffffffffffffffffffffffffff021916908373ffffffffffffffffffffffffffffffffffffffff160217905550600060a560006101000a81548173ffffffffffffffffffffffffffffffffffffffff021916908373ffffffffffffffffffffffffffffffffffffffff160217905550565b60008683609e60008373ffffffffffffffffffffffffffffffffffffffff1673ffffffffffffffffffffffffffffffffffffffff16815260200190815260200160002054811115156123b6576040517f08c379a00000000000000000000000000000000000000000000000000000000081526004018080602001828103825260338152602001807f50726f76696465642074696d657374616d70206973206c6f776572207468616e81526020017f207265636f726465642074696d657374616d700000000000000000000000000081525060400191505060405180910390fd5b8886880180606860008473ffffffffffffffffffffffffffffffffffffffff1673ffffffffffffffffffffffffffffffffffffffff1681526020019081526020016000205410151515612471576040517f08c379a000000000000000000000000000000000000000000000000000000000815260040180806020018281038252601f8152602001807f43616c6c65722068617320696e73756666696369656e742062616c616e63650081525060200191505060405180910390fd5b42609d60008473ffffffffffffffffffffffffffffffffffffffff1673ffffffffffffffffffffffffffffffffffffffff1681526020019081526020016000205410151561254d576040517f08c379a00000000000000000000000000000000000000000000000000000000081526004018080602001828103825260248152602001807f43616c6c65722773206163636f756e742069732063757272656e746c7920667281526020017f6f7a656e0000000000000000000000000000000000000000000000000000000081525060400191505060405180910390fd5b600061255d8c8c8c8c8c8c6130ed565b90508b73ffffffffffffffffffffffffffffffffffffffff168173ffffffffffffffffffffffffffffffffffffffff16141515612602576040517f08c379a000000000000000000000000000000000000000000000000000000000815260040180806020018281038252601d8152602001807f496e76616c6964207369676e617475726520666f72206164647265737300000081525060200191505060405180910390fd5b61260d8c8c8c614a75565b6126188c338b614a75565b87609e60008e73ffffffffffffffffffffffffffffffffffffffff1673ffffffffffffffffffffffffffffffffffffffff1681526020019081526020016000208190555050505050509695505050505050565b609f60009054906101000a900473ffffffffffffffffffffffffffffffffffffffff1673ffffffffffffffffffffffffffffffffffffffff163373ffffffffffffffffffffffffffffffffffffffff16141515612730576040517f08c379a000000000000000000000000000000000000000000000000000000000815260040180806020018281038252600e8152602001807f496e76616c69642073656e64657200000000000000000000000000000000000081525060200191505060405180910390fd5b6000825190508151811415156127d4576040517f08c379a00000000000000000000000000000000000000000000000000000000081526004018080602001828103825260368152602001807f4561636820656e74727920696e207573657273206d757374206265206d61746381526020017f68656420627920616e20616d6f756e744368616e67650000000000000000000081525060400191505060405180910390fd5b6000809050600080905060008090505b83811015612c3457600086828151811015156127fc57fe5b9060200190602002015190506000868381518110151561281857fe5b906020019060200201519050600060a760008473ffffffffffffffffffffffffffffffffffffffff1673ffffffffffffffffffffffffffffffffffffffff168152602001908152602001600020905060008213156129735760008290506128c781606860008773ffffffffffffffffffffffffffffffffffffffff1673ffffffffffffffffffffffffffffffffffffffff16815260200190815260200160002054614c4590919063ffffffff16565b508287019550868613151561296a576040517f08c379a00000000000000000000000000000000000000000000000000000000081526004018080602001828103825260388152602001807f696e74204f766572666c6f7720696e2070726f636573735370656e64696e673a81526020017f206e6577546f74616c203c3d20746f74616c4368616e6765000000000000000081525060400191505060405180910390fd5b85965050612c24565b6000826000039050612992818360010154614a4290919063ffffffff16565b8260010181905550816002015482600101541015612b7c5760006129c783600101548460020154614a4290919063ffffffff16565b9050606860008673ffffffffffffffffffffffffffffffffffffffff1673ffffffffffffffffffffffffffffffffffffffff16815260200190815260200160002054811115612a5357606860008673ffffffffffffffffffffffffffffffffffffffff1673ffffffffffffffffffffffffffffffffffffffff1681526020019081526020016000205490505b612aa581606860008873ffffffffffffffffffffffffffffffffffffffff1673ffffffffffffffffffffffffffffffffffffffff16815260200190815260200160002054614a4290919063ffffffff16565b606860008773ffffffffffffffffffffffffffffffffffffffff1673ffffffffffffffffffffffffffffffffffffffff16815260200190815260200160002081905550612aff818460010154614c4590919063ffffffff16565b83600101819055507fbc8fb1fdc44eddf7d69719d30f493576d74726bd6dc9ea4f283f981d43f60710858583604051808473ffffffffffffffffffffffffffffffffffffffff1673ffffffffffffffffffffffffffffffffffffffff168152602001838152602001828152602001935050505060405180910390a1505b8287019550868613151515612c1f576040517f08c379a00000000000000000000000000000000000000000000000000000000081526004018080602001828103825260388152602001807f696e7420556e646572666c6f7720696e2070726f636573735370656e64696e6781526020017f3a206e6577546f74616c203e20746f74616c4368616e6765000000000000000081525060400191505060405180910390fd5b859650505b50505080806001019150506127e4565b50600082141515612cd3576040517f08c379a00000000000000000000000000000000000000000000000000000000081526004018080602001828103825260348152602001807f43616e6e6f74207265736f6c7665207370656e64696e672c20616d6f756e747381526020017f20646f206e6f742062616c616e636520746f203000000000000000000000000081525060400191505060405180910390fd5b5050505050565b6000606860008373ffffffffffffffffffffffffffffffffffffffff1673ffffffffffffffffffffffffffffffffffffffff168152602001908152602001600020549050919050565b600080600080609f60009054906101000a900473ffffffffffffffffffffffffffffffffffffffff1660a060009054906101000a900473ffffffffffffffffffffffffffffffffffffffff1660a160009054906101000a900473ffffffffffffffffffffffffffffffffffffffff1660a260009054906101000a900473ffffffffffffffffffffffffffffffffffffffff16935093509350935090919293565b60a360009054906101000a900473ffffffffffffffffffffffffffffffffffffffff1673ffffffffffffffffffffffffffffffffffffffff163373ffffffffffffffffffffffffffffffffffffffff16141515612e88576040517f08c379a00000000000000000000000000000000000000000000000000000000081526004018080602001828103825260118152602001807f5065726d697373696f6e2044656e69656400000000000000000000000000000081525060200191505060405180910390fd5b60a360009054906101000a900473ffffffffffffffffffffffffffffffffffffffff16609f60006101000a81548173ffffffffffffffffffffffffffffffffffffffff021916908373ffffffffffffffffffffffffffffffffffffffff160217905550600060a360006101000a81548173ffffffffffffffffffffffffffffffffffffffff021916908373ffffffffffffffffffffffffffffffffffffffff160217905550565b8060a760003373ffffffffffffffffffffffffffffffffffffffff1673ffffffffffffffffffffffffffffffffffffffff168152602001908152602001600020600201819055507f936ec7e4d9755c4568dc8ffea642b0aad6180d863841801e138246caa43467d13382604051808373ffffffffffffffffffffffffffffffffffffffff1673ffffffffffffffffffffffffffffffffffffffff1681526020018281526020019250505060405180910390a150565b60a160009054906101000a900473ffffffffffffffffffffffffffffffffffffffff1673ffffffffffffffffffffffffffffffffffffffff163373ffffffffffffffffffffffffffffffffffffffff161415156130a9576040517f08c379a000000000000000000000000000000000000000000000000000000000815260040180806020018281038252600e8152602001807f496e76616c69642073656e64657200000000000000000000000000000000000081525060200191505060405180910390fd5b8060a560006101000a81548173ffffffffffffffffffffffffffffffffffffffff021916908373ffffffffffffffffffffffffffffffffffffffff16021790555050565b6000806130fd888888888861473c565b9050600061310a82614e9d565b90506131168185614ef5565b925050509695505050505050565b606060348054600181600116156101000203166002900480601f0160208091040260200160405190810160405280929190818152602001828054600181600116156101000203166002900480156131bc5780601f10613191576101008083540402835291602001916131bc565b820191906000526020600020905b81548152906001019060200180831161319f57829003601f168201915b5050505050905090565b7fffffffffffffffffffffffffffffffffffffffffffffffffffffffffffffffff60a760003373ffffffffffffffffffffffffffffffffffffffff1673ffffffffffffffffffffffffffffffffffffffff168152602001908152602001600020600201819055507f56f6ffd37b82c1cf8125c880b6a1ec6495a771e55c3771efaa08437285f4a5d033604051808273ffffffffffffffffffffffffffffffffffffffff1673ffffffffffffffffffffffffffffffffffffffff16815260200191505060405180910390a1565b60a160009054906101000a900473ffffffffffffffffffffffffffffffffffffffff1673ffffffffffffffffffffffffffffffffffffffff163373ffffffffffffffffffffffffffffffffffffffff16141515613357576040517f08c379a000000000000000000000000000000000000000000000000000000000815260040180806020018281038252600e8152602001807f496e76616c69642073656e64657200000000000000000000000000000000000081525060200191505060405180910390fd5b8280606860003373ffffffffffffffffffffffffffffffffffffffff1673ffffffffffffffffffffffffffffffffffffffff168152602001908152602001600020541015151561340f576040517f08c379a000000000000000000000000000000000000000000000000000000000815260040180806020018281038252601f8152602001807f43616c6c65722068617320696e73756666696369656e742062616c616e63650081525060200191505060405180910390fd5b61343c60a160009054906101000a900473ffffffffffffffffffffffffffffffffffffffff168686614a75565b82609d60008773ffffffffffffffffffffffffffffffffffffffff1673ffffffffffffffffffffffffffffffffffffffff168152602001908152602001600020819055507f5bc97d73357ac0d035d4b9268a69240988a5776b8a4fcced3dbc223960123f4085856134ac88612cda565b85604051808573ffffffffffffffffffffffffffffffffffffffff1673ffffffffffffffffffffffffffffffffffffffff16815260200184815260200183815260200182815260200194505050505060405180910390a15050505050565b60008073ffffffffffffffffffffffffffffffffffffffff168373ffffffffffffffffffffffffffffffffffffffff161415151561354757600080fd5b6135d682606960003373ffffffffffffffffffffffffffffffffffffffff1673ffffffffffffffffffffffffffffffffffffffff16815260200190815260200160002060008673ffffffffffffffffffffffffffffffffffffffff1673ffffffffffffffffffffffffffffffffffffffff16815260200190815260200160002054614a4290919063ffffffff16565b606960003373ffffffffffffffffffffffffffffffffffffffff1673ffffffffffffffffffffffffffffffffffffffff16815260200190815260200160002060008573ffffffffffffffffffffffffffffffffffffffff1673ffffffffffffffffffffffffffffffffffffffff168152602001908152602001600020819055508273ffffffffffffffffffffffffffffffffffffffff163373ffffffffffffffffffffffffffffffffffffffff167f8c5be1e5ebec7d5bd14f71427d1e84f3dd0314c0f7b2291e5b200ac8c7c3b925606960003373ffffffffffffffffffffffffffffffffffffffff1673ffffffffffffffffffffffffffffffffffffffff16815260200190815260200160002060008773ffffffffffffffffffffffffffffffffffffffff1673ffffffffffffffffffffffffffffffffffffffff168152602001908152602001600020546040518082815260200191505060405180910390a36001905092915050565b60a060009054906101000a900473ffffffffffffffffffffffffffffffffffffffff1673ffffffffffffffffffffffffffffffffffffffff163373ffffffffffffffffffffffffffffffffffffffff16141515613806576040517f08c379a000000000000000000000000000000000000000000000000000000000815260040180806020018281038252600e8152602001807f496e76616c69642073656e64657200000000000000000000000000000000000081525060200191505060405180910390fd5b61383260a160009054906101000a900473ffffffffffffffffffffffffffffffffffffffff1682614fd9565b50565b60a060009054906101000a900473ffffffffffffffffffffffffffffffffffffffff1673ffffffffffffffffffffffffffffffffffffffff163373ffffffffffffffffffffffffffffffffffffffff161415156138fa576040517f08c379a000000000000000000000000000000000000000000000000000000000815260040180806020018281038252600e8152602001807f496e76616c69642073656e64657200000000000000000000000000000000000081525060200191505060405180910390fd5b61392660a160009054906101000a900473ffffffffffffffffffffffffffffffffffffffff168261512f565b50565b6000338280606860008473ffffffffffffffffffffffffffffffffffffffff1673ffffffffffffffffffffffffffffffffffffffff16815260200190815260200160002054101515156139e4576040517f08c379a000000000000000000000000000000000000000000000000000000000815260040180806020018281038252601f8152602001807f43616c6c65722068617320696e73756666696369656e742062616c616e63650081525060200191505060405180910390fd5b42609d60008473ffffffffffffffffffffffffffffffffffffffff1673ffffffffffffffffffffffffffffffffffffffff16815260200190815260200160002054101515613ac0576040517f08c379a00000000000000000000000000000000000000000000000000000000081526004018080602001828103825260248152602001807f43616c6c65722773206163636f756e742069732063757272656e746c7920667281526020017f6f7a656e0000000000000000000000000000000000000000000000000000000081525060400191505060405180910390fd5b613aca8585615285565b9250505092915050565b60a260009054906101000a900473ffffffffffffffffffffffffffffffffffffffff1673ffffffffffffffffffffffffffffffffffffffff163373ffffffffffffffffffffffffffffffffffffffff16141515613b99576040517f08c379a000000000000000000000000000000000000000000000000000000000815260040180806020018281038252600e8152602001807f496e76616c69642073656e64657200000000000000000000000000000000000081525060200191505060405180910390fd5b80609d60008473ffffffffffffffffffffffffffffffffffffffff1673ffffffffffffffffffffffffffffffffffffffff168152602001908152602001600020819055505050565b338280606860008473ffffffffffffffffffffffffffffffffffffffff1673ffffffffffffffffffffffffffffffffffffffff1681526020019081526020016000205410151515613c9a576040517f08c379a000000000000000000000000000000000000000000000000000000000815260040180806020018281038252601f8152602001807f43616c6c65722068617320696e73756666696369656e742062616c616e63650081525060200191505060405180910390fd5b42609d60008473ffffffffffffffffffffffffffffffffffffffff1673ffffffffffffffffffffffffffffffffffffffff16815260200190815260200160002054101515613d76576040517f08c379a00000000000000000000000000000000000000000000000000000000081526004018080602001828103825260248152602001807f43616c6c65722773206163636f756e742069732063757272656e746c7920667281526020017f6f7a656e0000000000000000000000000000000000000000000000000000000081525060400191505060405180910390fd5b613da33360a160009054906101000a900473ffffffffffffffffffffffffffffffffffffffff1686614a75565b7fbd5034ffbd47e4e72a94baa2cdb74c6fad73cb3bcdc13036b72ec8306f5a76463385613dcf33612cda565b86604051808573ffffffffffffffffffffffffffffffffffffffff1673ffffffffffffffffffffffffffffffffffffffff16815260200184815260200183815260200182815260200194505050505060405180910390a150505050565b600060019054906101000a900460ff1680613e4b5750613e4a614a64565b5b80613e6257506000809054906101000a900460ff16155b1515613efc576040517f08c379a000000000000000000000000000000000000000000000000000000000815260040180806020018281038252602e8152602001807f436f6e747261637420696e7374616e63652068617320616c726561647920626581526020017f656e20696e697469616c697a656400000000000000000000000000000000000081525060400191505060405180910390fd5b60008060019054906101000a900460ff1690506001600060016101000a81548160ff02191690831515021790555060016000806101000a81548160ff021916908315150217905550613fba6040805190810160405280600981526020017f5448453a20436f696e00000000000000000000000000000000000000000000008152506040805190810160405280600381526020017f54484500000000000000000000000000000000000000000000000000000000008152506006611674565b600073ffffffffffffffffffffffffffffffffffffffff16609f60009054906101000a900473ffffffffffffffffffffffffffffffffffffffff1673ffffffffffffffffffffffffffffffffffffffff161480156140665750600073ffffffffffffffffffffffffffffffffffffffff1660a060009054906101000a900473ffffffffffffffffffffffffffffffffffffffff1673ffffffffffffffffffffffffffffffffffffffff16145b1515614100576040517f08c379a00000000000000000000000000000000000000000000000000000000081526004018080602001828103825260268152602001807f53797374656d20636f6d70726f6d697365642e2020467265657a65204576657281526020017f797468696e67000000000000000000000000000000000000000000000000000081525060400191505060405180910390fd5b81609f60006101000a81548173ffffffffffffffffffffffffffffffffffffffff021916908373ffffffffffffffffffffffffffffffffffffffff1602179055508160a060006101000a81548173ffffffffffffffffffffffffffffffffffffffff021916908373ffffffffffffffffffffffffffffffffffffffff1602179055508160a160006101000a81548173ffffffffffffffffffffffffffffffffffffffff021916908373ffffffffffffffffffffffffffffffffffffffff1602179055508160a260006101000a81548173ffffffffffffffffffffffffffffffffffffffff021916908373ffffffffffffffffffffffffffffffffffffffff16021790555080600060016101000a81548160ff0219169083151502179055505050565b60a460009054906101000a900473ffffffffffffffffffffffffffffffffffffffff1673ffffffffffffffffffffffffffffffffffffffff163373ffffffffffffffffffffffffffffffffffffffff161415156142e7576040517f08c379a00000000000000000000000000000000000000000000000000000000081526004018080602001828103825260118152602001807f5065726d697373696f6e2044656e69656400000000000000000000000000000081525060200191505060405180910390fd5b60a460009054906101000a900473ffffffffffffffffffffffffffffffffffffffff1660a060006101000a81548173ffffffffffffffffffffffffffffffffffffffff021916908373ffffffffffffffffffffffffffffffffffffffff160217905550600060a460006101000a81548173ffffffffffffffffffffffffffffffffffffffff021916908373ffffffffffffffffffffffffffffffffffffffff160217905550565b609f60009054906101000a900473ffffffffffffffffffffffffffffffffffffffff1673ffffffffffffffffffffffffffffffffffffffff163373ffffffffffffffffffffffffffffffffffffffff16141515614453576040517f08c379a000000000000000000000000000000000000000000000000000000000815260040180806020018281038252600e8152602001807f496e76616c69642073656e64657200000000000000000000000000000000000081525060200191505060405180910390fd5b8060a360006101000a81548173ffffffffffffffffffffffffffffffffffffffff021916908373ffffffffffffffffffffffffffffffffffffffff16021790555050565b600060a160009054906101000a900473ffffffffffffffffffffffffffffffffffffffff1673ffffffffffffffffffffffffffffffffffffffff163373ffffffffffffffffffffffffffffffffffffffff1614151561455e576040517f08c379a000000000000000000000000000000000000000000000000000000000815260040180806020018281038252600e8152602001807f496e76616c69642073656e64657200000000000000000000000000000000000081525060200191505060405180910390fd5b60008390508073ffffffffffffffffffffffffffffffffffffffff1663a9059cbb60a160009054906101000a900473ffffffffffffffffffffffffffffffffffffffff16856040518363ffffffff167c0100000000000000000000000000000000000000000000000000000000028152600401808373ffffffffffffffffffffffffffffffffffffffff1673ffffffffffffffffffffffffffffffffffffffff16815260200182815260200192505050602060405180830381600087803b15801561462857600080fd5b505af115801561463c573d6000803e3d6000fd5b505050506040513d602081101561465257600080fd5b810190808051906020019092919050505091505092915050565b6000606960008473ffffffffffffffffffffffffffffffffffffffff1673ffffffffffffffffffffffffffffffffffffffff16815260200190815260200160002060008373ffffffffffffffffffffffffffffffffffffffff1673ffffffffffffffffffffffffffffffffffffffff16815260200190815260200160002054905092915050565b6000609d60008373ffffffffffffffffffffffffffffffffffffffff1673ffffffffffffffffffffffffffffffffffffffff168152602001908152602001600020549050919050565b600060608686868686604051602001808673ffffffffffffffffffffffffffffffffffffffff1673ffffffffffffffffffffffffffffffffffffffff166c010000000000000000000000000281526014018573ffffffffffffffffffffffffffffffffffffffff1673ffffffffffffffffffffffffffffffffffffffff166c01000000000000000000000000028152601401848152602001838152602001828152602001955050505050506040516020818303038152906040529050808051906020012091505095945050505050565b60a060009054906101000a900473ffffffffffffffffffffffffffffffffffffffff1673ffffffffffffffffffffffffffffffffffffffff163373ffffffffffffffffffffffffffffffffffffffff161415156148d1576040517f08c379a000000000000000000000000000000000000000000000000000000000815260040180806020018281038252600e8152602001807f496e76616c69642073656e64657200000000000000000000000000000000000081525060200191505060405180910390fd5b8060a460006101000a81548173ffffffffffffffffffffffffffffffffffffffff021916908373ffffffffffffffffffffffffffffffffffffffff16021790555050565b60008073ffffffffffffffffffffffffffffffffffffffff168373ffffffffffffffffffffffffffffffffffffffff161415151561495257600080fd5b81606960003373ffffffffffffffffffffffffffffffffffffffff1673ffffffffffffffffffffffffffffffffffffffff16815260200190815260200160002060008573ffffffffffffffffffffffffffffffffffffffff1673ffffffffffffffffffffffffffffffffffffffff168152602001908152602001600020819055508273ffffffffffffffffffffffffffffffffffffffff163373ffffffffffffffffffffffffffffffffffffffff167f8c5be1e5ebec7d5bd14f71427d1e84f3dd0314c0f7b2291e5b200ac8c7c3b925846040518082815260200191505060405180910390a36001905092915050565b6000828211151515614a5357600080fd5b600082840390508091505092915050565b600080303b90506000811491505090565b600073ffffffffffffffffffffffffffffffffffffffff168273ffffffffffffffffffffffffffffffffffffffff1614151515614ab157600080fd5b614b0381606860008673ffffffffffffffffffffffffffffffffffffffff1673ffffffffffffffffffffffffffffffffffffffff16815260200190815260200160002054614a4290919063ffffffff16565b606860008573ffffffffffffffffffffffffffffffffffffffff1673ffffffffffffffffffffffffffffffffffffffff16815260200190815260200160002081905550614b9881606860008573ffffffffffffffffffffffffffffffffffffffff1673ffffffffffffffffffffffffffffffffffffffff16815260200190815260200160002054614c4590919063ffffffff16565b606860008473ffffffffffffffffffffffffffffffffffffffff1673ffffffffffffffffffffffffffffffffffffffff168152602001908152602001600020819055508173ffffffffffffffffffffffffffffffffffffffff168373ffffffffffffffffffffffffffffffffffffffff167fddf252ad1be2c89b69c2b068fc378daa952ba7f163c4a11628f55a4df523b3ef836040518082815260200191505060405180910390a3505050565b6000808284019050838110151515614c5c57600080fd5b8091505092915050565b60008073ffffffffffffffffffffffffffffffffffffffff168373ffffffffffffffffffffffffffffffffffffffff1614151515614ca357600080fd5b614d3282606960003373ffffffffffffffffffffffffffffffffffffffff1673ffffffffffffffffffffffffffffffffffffffff16815260200190815260200160002060008673ffffffffffffffffffffffffffffffffffffffff1673ffffffffffffffffffffffffffffffffffffffff16815260200190815260200160002054614c4590919063ffffffff16565b606960003373ffffffffffffffffffffffffffffffffffffffff1673ffffffffffffffffffffffffffffffffffffffff16815260200190815260200160002060008573ffffffffffffffffffffffffffffffffffffffff1673ffffffffffffffffffffffffffffffffffffffff168152602001908152602001600020819055508273ffffffffffffffffffffffffffffffffffffffff163373ffffffffffffffffffffffffffffffffffffffff167f8c5be1e5ebec7d5bd14f71427d1e84f3dd0314c0f7b2291e5b200ac8c7c3b925606960003373ffffffffffffffffffffffffffffffffffffffff1673ffffffffffffffffffffffffffffffffffffffff16815260200190815260200160002060008773ffffffffffffffffffffffffffffffffffffffff1673ffffffffffffffffffffffffffffffffffffffff168152602001908152602001600020546040518082815260200191505060405180910390a36001905092915050565b60008160405160200180807f19457468657265756d205369676e6564204d6573736167653a0a333200000000815250601c01828152602001915050604051602081830303815290604052805190602001209050919050565b60008060008060418551141515614f125760009350505050614fd3565b6020850151925060408501519150606085015160001a9050601b8160ff161015614f3d57601b810190505b601b8160ff1614158015614f555750601c8160ff1614155b15614f665760009350505050614fd3565b60018682858560405160008152602001604052604051808581526020018460ff1660ff1681526020018381526020018281526020019450505050506020604051602081039080840390855afa158015614fc3573d6000803e3d6000fd5b5050506020604051035193505050505b92915050565b600073ffffffffffffffffffffffffffffffffffffffff168273ffffffffffffffffffffffffffffffffffffffff161415151561501557600080fd5b61502a81606a54614c4590919063ffffffff16565b606a8190555061508281606860008573ffffffffffffffffffffffffffffffffffffffff1673ffffffffffffffffffffffffffffffffffffffff16815260200190815260200160002054614c4590919063ffffffff16565b606860008473ffffffffffffffffffffffffffffffffffffffff1673ffffffffffffffffffffffffffffffffffffffff168152602001908152602001600020819055508173ffffffffffffffffffffffffffffffffffffffff16600073ffffffffffffffffffffffffffffffffffffffff167fddf252ad1be2c89b69c2b068fc378daa952ba7f163c4a11628f55a4df523b3ef836040518082815260200191505060405180910390a35050565b600073ffffffffffffffffffffffffffffffffffffffff168273ffffffffffffffffffffffffffffffffffffffff161415151561516b57600080fd5b61518081606a54614a4290919063ffffffff16565b606a819055506151d881606860008573ffffffffffffffffffffffffffffffffffffffff1673ffffffffffffffffffffffffffffffffffffffff16815260200190815260200160002054614a4290919063ffffffff16565b606860008473ffffffffffffffffffffffffffffffffffffffff1673ffffffffffffffffffffffffffffffffffffffff16815260200190815260200160002081905550600073ffffffffffffffffffffffffffffffffffffffff168273ffffffffffffffffffffffffffffffffffffffff167fddf252ad1be2c89b69c2b068fc378daa952ba7f163c4a11628f55a4df523b3ef836040518082815260200191505060405180910390a35050565b6000615292338484614a75565b6001905092915050565b828054600181600116156101000203166002900490600052602060002090601f016020900481019282601f106152dd57805160ff191683800117855561530b565b8280016001018555821561530b579182015b8281111561530a5782518255916020019190600101906152ef565b5b509050615318919061531c565b5090565b61533e91905b8082111561533a576000816000905550600101615322565b5090565b9056fea165627a7a7230582027541b7e92ca6e97c7c7693cb48895e3ed8bb2c34bfa9312ba894020ca8452630029",
  "source": "pragma solidity ^0.5.0;\r\n\r\nimport \"./ERC20Local.sol\";\r\nimport \"./LibCertTransfer.sol\";\r\n\r\nimport \"openzeppelin-eth/contracts/token/ERC20/ERC20Detailed.sol\";\r\nimport \"zos-lib/contracts/Initializable.sol\";\r\n\r\nimport \"openzeppelin-eth/contracts/token/ERC20/IERC20.sol\";\r\nimport \"openzeppelin-eth/contracts/cryptography/ECDSA.sol\";\r\n\r\n\r\n// ----------------------------------------------------------------------------\r\n// SpyCoin - A crypto-currency pegged to the SPX (SPY actually)\r\n//\r\n// Symbol      : SPY\r\n// Name        : SpyCoin - A cryptocurrency that tracks the S&P500\r\n// Decimals    : 6\r\n//\r\n// Enjoy.\r\n//\r\n// ----------------------------------------------------------------------------\r\n\r\n// ----------------------------------------------------------------------------\r\n// ERC20 Token, with the addition of symbol, name and decimals \r\n//\r\n// NOTE: 100 SpyCoins is equivalent to 1 share of SPY,\r\n// or *at time of writing* roughly $2.70 USD\r\n// and with 6 decimal places 100,000,000 tokens is 1 share,\r\n// and 1 token has an approximate value of 0.00027c USD\r\n// ----------------------------------------------------------------------------\r\ncontract TheCoin is Initializable, ERC20Detailed, ERC20Local, LibCertTransfer {\r\n\r\n    // An account may be subject to a timeout, during which\r\n    // period it is forbidden from transferring its value\r\n    mapping(address => uint) freezeUntil;\r\n\r\n    // A stored list of timestamps that are used to uniquely\r\n    // specify transactions running through paidTransaction.\r\n    // Each tx comes with a timestamp that must be higher than\r\n    // the last tx timestamp, and (more or less) be in the \r\n    // same time as the block being mined.  This ensures\r\n    // tx authentications are unique, and expire \r\n    // relatively shortly after issue\r\n    mapping(address => uint) lastTxTimestamp;\r\n\r\n    // The following addresses have different roles\r\n\r\n    // TapCapManager is responsible for periodically\r\n    // processing the externally managed TapCap feature\r\n    address role_TapCapManager;\r\n    // The Minter is permitted to mint/melt coins.\r\n    // All coins minted/melted by the minter are\r\n    // from/to TheReserves address\r\n    address role_Minter;\r\n    // THE Coin reserve address.  This is the address\r\n    // directly managed by the THE Coin Inc.  Users\r\n    // interact with this address when purchase/redeem coins\r\n    address role_TheCoin;\r\n    // The Police have very limited powers, they may\r\n    // freeze accounts but nothing else\r\n    address role_Police;\r\n\r\n    // Enforcing a set/accept 2 step process for setting roles\r\n    // creates a strong guarantee that we can't f* up and set\r\n    // the roles to an invalid address\r\n    address new_TapCapManager;\r\n    address new_Minter;\r\n    address new_TheCoin;\r\n    address new_Police;\r\n\r\n    // Two special-case events include extra information (balance & timestamp)\r\n    // for tracking & tax record reasons\r\n    event Purchase(address purchaser, uint amount, uint balance, uint timestamp);\r\n    event Redeem(address purchaser, uint amount, uint balance, uint timestamp);\r\n\r\n    // ------------------------------------------------------------------------\r\n    // Events\r\n    // ------------------------------------------------------------------------\r\n\r\n    // ------------------------------------------------------------------------\r\n    // Constructor\r\n    // ------------------------------------------------------------------------\r\n    function initialize(address _sender) public\r\n        initializer() \r\n    {\r\n        ERC20Detailed.initialize(\"THE: Coin\", \"THE\", 6);\r\n        \r\n        // Lets just double-check this contract has not\r\n        // yet been initialized.\r\n        require(role_TapCapManager == address(0) && role_Minter == address(0), \"System compromised.  Freeze Everything\");\r\n\r\n        // We initialize all roles to owner.\r\n        // It is expected that Owner will distribute\r\n        // these roles to others\r\n        role_TapCapManager = _sender;\r\n        role_Minter = _sender;\r\n        role_TheCoin = _sender;\r\n        role_Police = _sender;\r\n    }\r\n\r\n    function getRoles() public view returns(address,address,address,address)\r\n    {\r\n        return (role_TapCapManager, role_Minter, role_TheCoin, role_Police);\r\n    }\r\n\r\n    // ------------------------------------------------------------------------\r\n    // Total supply management\r\n    // ------------------------------------------------------------------------\r\n\r\n    // The owner will periodically add new coins to match\r\n    // shares purchased of SPY\r\n    function mintCoins(uint amount) public\r\n        onlyMinter\r\n    {\r\n        _mint(role_TheCoin, amount);\r\n    }\r\n\r\n    // Remove coins\r\n    function meltCoins(uint amount) public\r\n        onlyMinter\r\n    {\r\n        _burn(role_TheCoin, amount);\r\n    }\r\n\r\n    // Coins currently owned by clients (not TheCoin)\r\n    function coinsCirculating() public view returns(uint)\r\n    {\r\n        return totalSupply().sub(balanceOf(role_TheCoin));\r\n    }\r\n\r\n    // Coins available for sale to the public \r\n    function reservedCoins() public view returns (uint balance) \r\n    {\r\n        return balanceOf(role_TheCoin);\r\n    }\r\n\r\n    // ------------------------------------------------------------------------\r\n    // Override standard functions to limit by account freezing\r\n    // ------------------------------------------------------------------------\r\n    function transfer(address to, uint256 value) public \r\n    isTransferable(msg.sender, value) \r\n    returns (bool) \r\n    {\r\n        return super.transfer(to, value);\r\n    }\r\n    function approve(address spender, uint256 value) public \r\n    isTransferable(msg.sender, value) \r\n    returns (bool) \r\n    {\r\n        return super.approve(spender, value);\r\n    }\r\n    function increaseAllowance(address spender, uint256 addedValue) public \r\n    isTransferable(msg.sender, addedValue) \r\n    returns (bool) \r\n    {\r\n        return super.increaseAllowance(spender, addedValue);\r\n    }\r\n\r\n    // ------------------------------------------------------------------------\r\n    // Additional paid-transfer functions allows a client to sign a request\r\n    // and for the request to be paid by someone else (likely us)\r\n    // ------------------------------------------------------------------------\r\n\r\n    function certifiedTransfer(address from, address to, uint256 value, uint256 fee, uint256 timestamp, bytes memory signature)\r\n    public \r\n    timestampIncreases(from, timestamp) \r\n    isTransferable(from, value + fee)\r\n    returns (bool)\r\n    {\r\n        address signer = recoverSigner(from, to, value, fee, timestamp, signature);\r\n        require(signer == from, \"Invalid signature for address\");\r\n        _transfer(from, to, value);\r\n        _transfer(from, msg.sender, fee);\r\n\r\n        lastTxTimestamp[from] = timestamp;\r\n    }\r\n\r\n    // ------------------------------------------------------------------------\r\n    // Client interactions with TheCoin\r\n    // ------------------------------------------------------------------------\r\n\r\n    // Users purchase coin from us. \r\n    // We record the precise timestamp to ensure we can reconstruct the price\r\n    // of this transaction later\r\n    function coinPurchase(address purchaser, uint amount, uint timeout, uint timestamp) public\r\n    onlyTheCoin\r\n    balanceAvailable(amount)\r\n    {\r\n        _transfer(role_TheCoin, purchaser, amount);\r\n        freezeUntil[purchaser] = timeout;\r\n        emit Purchase(purchaser, amount, balanceOf(purchaser), timestamp);\r\n    }\r\n\r\n    // A user returns their coins to us (this will trigger disbursement externally)\r\n    // We record the precise timestamp to ensure we can reconstruct the price\r\n    // of this transaction later\r\n    function coinRedeem(uint amount, uint timestamp) public\r\n    isTransferable(msg.sender, amount)\r\n    {\r\n        // first, we recover the coins back to our own account\r\n        _transfer(msg.sender, role_TheCoin, amount);\r\n        emit Redeem(msg.sender, amount, balanceOf(msg.sender), timestamp);\r\n    }\r\n\r\n    // ------------------------------------------------------------------------\r\n    // Sets a timeout, until which time the user will not\r\n    // account may not be transacted against.\r\n    // ------------------------------------------------------------------------\r\n    function setAccountFreezeTime(address account, uint time) public\r\n    onlyPolice\r\n    {\r\n        freezeUntil[account] = time;\r\n    }\r\n\r\n    // ------------------------------------------------------------------------\r\n    // Returns the timestamp of when this account will\r\n    // be unfrozen (able to be transacted against)\r\n    // ------------------------------------------------------------------------\r\n    function accountUnfreezeTime(address account) public \r\n    view\r\n    returns(uint) \r\n    {\r\n        return freezeUntil[account];\r\n    }\r\n\r\n\r\n    // ------------------------------------------------------------------------\r\n    // Implement escrow 'accounts' for holding amounts in escrow to be used \r\n    // in offline transactions\r\n    // ------------------------------------------------------------------------\r\n\r\n    // TODO: Spending _balances are amounts that\r\n    // are transfered from the _balances into\r\n    // escrow accounts.  These escrow accounts can then\r\n    // be spent against and tracked with local databases\r\n    // and are synced back to the main chain once per week (or so)\r\n    struct TapCapData\r\n    {\r\n        uint TransactionId; // Last processed TC transaction\r\n        uint TapCapEscrow; // How much is currently held in escrow?\r\n        uint TapCapRefill;  // How much should be refilled each week?\r\n    }\r\n\r\n    mapping(address => TapCapData) tapCaps;\r\n\r\n    event TapCapTopUp(address client, uint topup);\r\n    event TapCapSetWeekly(address client, uint weeklyLimit);\r\n    event TapCapClear(address client);\r\n    event TapCapUserUpdated(address client, int change, uint toppedUp);\r\n\r\n    // Event emitted when manually processing TC's\r\n    event TapCapProcessed(address client, address dest, uint amount);\r\n\r\n    // Topup the escrow.  NOTE: This will implicitly increase the amount registered by\r\n    // the spending manager.  Those records are separate and not directly\r\n    // linked to the amounts here.\r\n    function tapCapTopUp(uint topup) public\r\n    balanceAvailable(topup)\r\n    {\r\n        TapCapData storage userAccount = tapCaps[msg.sender];\r\n        _balances[msg.sender] = _balances[msg.sender].sub(topup);\r\n        userAccount.TapCapEscrow = userAccount.TapCapEscrow.add(topup);\r\n        emit TapCapTopUp(msg.sender, topup);\r\n    }\r\n\r\n    // Set's the weekly TapCap for the user.  Does not affect the current weeks TapCap\r\n    function tapCapSetRefill(uint amount) public\r\n    {\r\n        tapCaps[msg.sender].TapCapRefill = amount;\r\n        emit TapCapSetWeekly(msg.sender, amount);\r\n    }\r\n    \r\n    // Clear a users TapCap account.  A user may not directly\r\n    // clear an account, as the user may have a TC debit\r\n    // pending from the spending manager.\r\n    function tapCapClear() public\r\n    {\r\n        tapCaps[msg.sender].TapCapRefill = uint(-1);\r\n        emit TapCapClear(msg.sender);\r\n    }\r\n\r\n    // Get current values for spending...\r\n    function tapCapUser(address user) public view returns(uint TransactionId, uint TapCapEscrow, uint TapCapRefill)\r\n    {\r\n        return (tapCaps[user].TransactionId, tapCaps[user].TapCapEscrow, tapCaps[user].TapCapRefill);\r\n    }\r\n\r\n    //\r\n    // The big puppy.  Update all accounts with changes from spending\r\n    //\r\n    function processSpending(address[] memory users, int[] memory amountChange) public\r\n    onlyTapCapManager()\r\n    {\r\n        uint numChanges = users.length; \r\n        require(numChanges == amountChange.length, \"Each entry in users must be matched by an amountChange\");\r\n\r\n        int totalChange = 0;\r\n        int newTotal = 0;\r\n        for (uint i = 0; i < numChanges; i++) \r\n        {\r\n            address user = users[i];\r\n            int delta = amountChange[i];\r\n            TapCapData storage userAccount = tapCaps[user];\r\n            // Apply the delta to the users account\r\n            if (delta > 0) {\r\n                // Get abs(delta)\r\n                uint pdelta = uint(delta);\r\n                // Add directly to the users regular account.  We may not\r\n                // have permission to interact with the users TapCap\r\n                _balances[user].add(pdelta);\r\n\r\n                // Update total.  Can't use safe-math for this, as\r\n                // newTotal is a signed int to allow it to go negative.\r\n                newTotal = totalChange + delta;\r\n                require(newTotal > totalChange, \"int Overflow in processSpending: newTotal <= totalChange\");\r\n                totalChange = newTotal;\r\n            }\r\n            else {\r\n                // Get abs(delta)\r\n                uint ndelta = uint(-delta);\r\n                userAccount.TapCapEscrow = userAccount.TapCapEscrow.sub(ndelta);\r\n\r\n                // Topup the account by an appropriate amount\r\n                if (userAccount.TapCapEscrow < userAccount.TapCapRefill)\r\n                {\r\n                    uint topup = userAccount.TapCapRefill.sub(userAccount.TapCapEscrow);\r\n                    if (topup > _balances[user])\r\n                    {\r\n                        topup = _balances[user];\r\n                    }\r\n                    _balances[user] = _balances[user].sub(topup);\r\n                    userAccount.TapCapEscrow = userAccount.TapCapEscrow.add(topup);\r\n                    emit TapCapUserUpdated(user, delta, topup);\r\n                }\r\n\r\n                // Update total\r\n                newTotal = totalChange + delta;\r\n                require(newTotal <= totalChange, \"int Underflow in processSpending: newTotal > totalChange\");\r\n                totalChange = newTotal;\r\n            }\r\n        }\r\n\r\n        require(totalChange == 0, \"Cannot resolve spending, amounts do not balance to 0\");\r\n    }\r\n\r\n    // ------------------------------------------------------------------------\r\n    // Don't accept ETH\r\n    // ------------------------------------------------------------------------\r\n    function () external payable {\r\n        revert(\"This contract does not run on Ether\");\r\n    }\r\n\r\n    // ------------------------------------------------------------------------\r\n    // Allow updating our key users\r\n    // ------------------------------------------------------------------------\r\n    function setTapCapManager(address newManager) public \r\n    onlyTapCapManager\r\n    {\r\n        new_TapCapManager = newManager;\r\n    }\r\n    function acceptTapCapManager() public \r\n    {\r\n        require(msg.sender == new_TapCapManager, \"Permission Denied\");\r\n        role_TapCapManager = new_TapCapManager;\r\n        new_TapCapManager = address(0);\r\n    }\r\n\r\n    function setMinter(address newMinter) public \r\n    onlyMinter\r\n    {\r\n        new_Minter = newMinter;\r\n    }\r\n    function acceptMinter() public \r\n    {\r\n        require(msg.sender == new_Minter, \"Permission Denied\");\r\n        role_Minter = new_Minter;\r\n        new_Minter = address(0);\r\n    }\r\n\r\n    function setTheCoin(address newCoinManager) public \r\n    onlyTheCoin\r\n    {\r\n        new_TheCoin = newCoinManager;\r\n    }\r\n    function acceptTheCoin() public \r\n    {\r\n        require(msg.sender == new_TheCoin, \"Permission Denied\");\r\n        role_TheCoin = new_TheCoin;\r\n        new_TheCoin = address(0);\r\n    }\r\n\r\n    function setPolice(address newPolice) public \r\n    onlyPolice\r\n    {\r\n        new_Police = newPolice;\r\n    }\r\n    function acceptPolice() public \r\n    {\r\n        require(msg.sender == new_Police, \"Permission Denied\");\r\n        role_Police = new_Police;\r\n        new_Police = address(0);\r\n    }\r\n    // ------------------------------------------------------------------------\r\n    // Owner can transfer out any ERC20 tokens accidentally assigned to this contracts address\r\n    // ------------------------------------------------------------------------\r\n    function transferAnyERC20Token(address tokenAddress, uint256 tokens) public onlyTheCoin returns (bool success) {\r\n        IERC20 tokenContract = IERC20(tokenAddress);\r\n        return tokenContract.transfer(role_TheCoin, tokens);\r\n    }\r\n\r\n    ///////////////////////////////\r\n    modifier balanceAvailable(uint amount) {\r\n        require(_balances[msg.sender] >= amount, \"Caller has insufficient balance\");\r\n        _;\r\n    }\r\n\r\n    modifier isTransferable(address from, uint amount) {\r\n        require(_balances[from] >= amount, \"Caller has insufficient balance\");\r\n        require(freezeUntil[from] < now, \"Caller's account is currently frozen\");\r\n        _;\r\n    }\r\n\r\n    modifier onlyTapCapManager()\r\n    {\r\n        require(msg.sender == role_TapCapManager, \"Invalid sender\");\r\n        _;\r\n    }\r\n\r\n    modifier onlyMinter()\r\n    {\r\n        require(msg.sender == role_Minter, \"Invalid sender\");\r\n        _;\r\n    }\r\n\r\n    modifier onlyTheCoin()\r\n    {\r\n        require(msg.sender == role_TheCoin, \"Invalid sender\");\r\n        _;\r\n    }\r\n\r\n    modifier onlyPolice()\r\n    {\r\n        require(msg.sender == role_Police, \"Invalid sender\");\r\n        _;\r\n    }\r\n\r\n    modifier timestampIncreases(address from, uint256 timestamp) \r\n    {\r\n        require(timestamp > lastTxTimestamp[from], \"Provided timestamp is lower than recorded timestamp\");\r\n        _;\r\n    }\r\n}",
  "sourcePath": "C:/src/TheCoin/the-contract/contracts/TheCoin.sol",
  "compiler": {
    "name": "solc",
    "version": "0.5.0+commit.1d4f565a.Emscripten.clang"
  },
  "schemaVersion": "3.0.3",
  "updatedAt": "2019-03-17T18:33:38.378Z",
  "devdoc": {
    "methods": {
      "allowance(address,address)": {
        "details": "Function to check the amount of tokens that an owner allowed to a spender.",
        "params": {
          "owner": "address The address which owns the funds.",
          "spender": "address The address which will spend the funds."
        },
        "return": "A uint256 specifying the amount of tokens still available for the spender."
      },
      "balanceOf(address)": {
        "details": "Gets the balance of the specified address.",
        "params": {
          "owner": "The address to query the balance of."
        },
        "return": "An uint256 representing the amount owned by the passed address."
      },
      "decimals()": {
        "return": "the number of decimals of the token."
      },
      "decreaseAllowance(address,uint256)": {
        "details": "Decrease the amount of tokens that an owner allowed to a spender. approve should be called when allowed_[_spender] == 0. To decrement allowed value is better to use this function to avoid 2 calls (and wait until the first transaction is mined) From MonolithDAO Token.sol Emits an Approval event.",
        "params": {
          "spender": "The address which will spend the funds.",
          "subtractedValue": "The amount of tokens to decrease the allowance by."
        }
      },
      "name()": {
        "return": "the name of the token."
      },
      "symbol()": {
        "return": "the symbol of the token."
      },
      "totalSupply()": {
        "details": "Total number of tokens in existence"
      },
      "transferFrom(address,address,uint256)": {
        "details": "Transfer tokens from one address to another. Note that while this function emits an Approval event, this is not required as per the specification, and other compliant implementations may not emit the event.",
        "params": {
          "from": "address The address which you want to send tokens from",
          "to": "address The address which you want to transfer to",
          "value": "uint256 the amount of tokens to be transferred"
        }
      }
    }
  },
  "userdoc": {
    "methods": {}
  }
}