{
  "contractName": "TheCoin",
  "abi": [
    {
      "anonymous": false,
      "inputs": [
        {
          "indexed": true,
          "internalType": "address",
          "name": "owner",
          "type": "address"
        },
        {
          "indexed": true,
          "internalType": "address",
          "name": "spender",
          "type": "address"
        },
        {
          "indexed": false,
          "internalType": "uint256",
          "name": "value",
          "type": "uint256"
        }
      ],
      "name": "Approval",
      "type": "event"
    },
    {
      "anonymous": false,
      "inputs": [
        {
          "indexed": false,
          "internalType": "address",
          "name": "purchaser",
          "type": "address"
        },
        {
          "indexed": false,
          "internalType": "uint256",
          "name": "amount",
          "type": "uint256"
        },
        {
          "indexed": false,
          "internalType": "uint256",
          "name": "balance",
          "type": "uint256"
        },
        {
          "indexed": false,
          "internalType": "uint256",
          "name": "timestamp",
          "type": "uint256"
        }
      ],
      "name": "Purchase",
      "type": "event"
    },
    {
      "anonymous": false,
      "inputs": [
        {
          "indexed": false,
          "internalType": "address",
          "name": "purchaser",
          "type": "address"
        },
        {
          "indexed": false,
          "internalType": "uint256",
          "name": "amount",
          "type": "uint256"
        },
        {
          "indexed": false,
          "internalType": "uint256",
          "name": "balance",
          "type": "uint256"
        },
        {
          "indexed": false,
          "internalType": "uint256",
          "name": "timestamp",
          "type": "uint256"
        }
      ],
      "name": "Redeem",
      "type": "event"
    },
    {
      "anonymous": false,
      "inputs": [
        {
          "indexed": false,
          "internalType": "address",
          "name": "client",
          "type": "address"
        }
      ],
      "name": "TapCapClear",
      "type": "event"
    },
    {
      "anonymous": false,
      "inputs": [
        {
          "indexed": false,
          "internalType": "address",
          "name": "client",
          "type": "address"
        },
        {
          "indexed": false,
          "internalType": "address",
          "name": "dest",
          "type": "address"
        },
        {
          "indexed": false,
          "internalType": "uint256",
          "name": "amount",
          "type": "uint256"
        }
      ],
      "name": "TapCapProcessed",
      "type": "event"
    },
    {
      "anonymous": false,
      "inputs": [
        {
          "indexed": false,
          "internalType": "address",
          "name": "client",
          "type": "address"
        },
        {
          "indexed": false,
          "internalType": "uint256",
          "name": "weeklyLimit",
          "type": "uint256"
        }
      ],
      "name": "TapCapSetWeekly",
      "type": "event"
    },
    {
      "anonymous": false,
      "inputs": [
        {
          "indexed": false,
          "internalType": "address",
          "name": "client",
          "type": "address"
        },
        {
          "indexed": false,
          "internalType": "uint256",
          "name": "topup",
          "type": "uint256"
        }
      ],
      "name": "TapCapTopUp",
      "type": "event"
    },
    {
      "anonymous": false,
      "inputs": [
        {
          "indexed": false,
          "internalType": "address",
          "name": "client",
          "type": "address"
        },
        {
          "indexed": false,
          "internalType": "int256",
          "name": "change",
          "type": "int256"
        },
        {
          "indexed": false,
          "internalType": "uint256",
          "name": "toppedUp",
          "type": "uint256"
        }
      ],
      "name": "TapCapUserUpdated",
      "type": "event"
    },
    {
      "anonymous": false,
      "inputs": [
        {
          "indexed": true,
          "internalType": "address",
          "name": "from",
          "type": "address"
        },
        {
          "indexed": true,
          "internalType": "address",
          "name": "to",
          "type": "address"
        },
        {
          "indexed": false,
          "internalType": "uint256",
          "name": "value",
          "type": "uint256"
        }
      ],
      "name": "Transfer",
      "type": "event"
    },
    {
      "payable": true,
      "stateMutability": "payable",
      "type": "fallback"
    },
    {
      "constant": true,
      "inputs": [
        {
          "internalType": "address",
          "name": "owner",
          "type": "address"
        },
        {
          "internalType": "address",
          "name": "spender",
          "type": "address"
        }
      ],
      "name": "allowance",
      "outputs": [
        {
          "internalType": "uint256",
          "name": "",
          "type": "uint256"
        }
      ],
      "payable": false,
      "stateMutability": "view",
      "type": "function"
    },
    {
      "constant": true,
      "inputs": [
        {
          "internalType": "address",
          "name": "owner",
          "type": "address"
        }
      ],
      "name": "balanceOf",
      "outputs": [
        {
          "internalType": "uint256",
          "name": "",
          "type": "uint256"
        }
      ],
      "payable": false,
      "stateMutability": "view",
      "type": "function"
    },
    {
      "constant": true,
      "inputs": [
        {
          "internalType": "address",
          "name": "from",
          "type": "address"
        },
        {
          "internalType": "address",
          "name": "to",
          "type": "address"
        },
        {
          "internalType": "uint256",
          "name": "value",
          "type": "uint256"
        },
        {
          "internalType": "uint256",
          "name": "fee",
          "type": "uint256"
        },
        {
          "internalType": "uint256",
          "name": "timestamp",
          "type": "uint256"
        }
      ],
      "name": "buildMessage",
      "outputs": [
        {
          "internalType": "bytes32",
          "name": "",
          "type": "bytes32"
        }
      ],
      "payable": false,
      "stateMutability": "pure",
      "type": "function"
    },
    {
      "constant": true,
      "inputs": [],
      "name": "decimals",
      "outputs": [
        {
          "internalType": "uint8",
          "name": "",
          "type": "uint8"
        }
      ],
      "payable": false,
      "stateMutability": "view",
      "type": "function"
    },
    {
      "constant": false,
      "inputs": [
        {
          "internalType": "address",
          "name": "spender",
          "type": "address"
        },
        {
          "internalType": "uint256",
          "name": "subtractedValue",
          "type": "uint256"
        }
      ],
      "name": "decreaseAllowance",
      "outputs": [
        {
          "internalType": "bool",
          "name": "",
          "type": "bool"
        }
      ],
      "payable": false,
      "stateMutability": "nonpayable",
      "type": "function"
    },
    {
      "constant": true,
      "inputs": [],
      "name": "name",
      "outputs": [
        {
          "internalType": "string",
          "name": "",
          "type": "string"
        }
      ],
      "payable": false,
      "stateMutability": "view",
      "type": "function"
    },
    {
      "constant": true,
      "inputs": [
        {
          "internalType": "address",
          "name": "from",
          "type": "address"
        },
        {
          "internalType": "address",
          "name": "to",
          "type": "address"
        },
        {
          "internalType": "uint256",
          "name": "value",
          "type": "uint256"
        },
        {
          "internalType": "uint256",
          "name": "fee",
          "type": "uint256"
        },
        {
          "internalType": "uint256",
          "name": "timestamp",
          "type": "uint256"
        },
        {
          "internalType": "bytes",
          "name": "signature",
          "type": "bytes"
        }
      ],
      "name": "recoverSigner",
      "outputs": [
        {
          "internalType": "address",
          "name": "",
          "type": "address"
        }
      ],
      "payable": false,
      "stateMutability": "pure",
      "type": "function"
    },
    {
      "constant": true,
      "inputs": [],
      "name": "symbol",
      "outputs": [
        {
          "internalType": "string",
          "name": "",
          "type": "string"
        }
      ],
      "payable": false,
      "stateMutability": "view",
      "type": "function"
    },
    {
      "constant": true,
      "inputs": [],
      "name": "totalSupply",
      "outputs": [
        {
          "internalType": "uint256",
          "name": "",
          "type": "uint256"
        }
      ],
      "payable": false,
      "stateMutability": "view",
      "type": "function"
    },
    {
      "constant": false,
      "inputs": [
        {
          "internalType": "address",
          "name": "from",
          "type": "address"
        },
        {
          "internalType": "address",
          "name": "to",
          "type": "address"
        },
        {
          "internalType": "uint256",
          "name": "value",
          "type": "uint256"
        }
      ],
      "name": "transferFrom",
      "outputs": [
        {
          "internalType": "bool",
          "name": "",
          "type": "bool"
        }
      ],
      "payable": false,
      "stateMutability": "nonpayable",
      "type": "function"
    },
    {
      "constant": false,
      "inputs": [
        {
          "internalType": "string",
          "name": "name",
          "type": "string"
        },
        {
          "internalType": "string",
          "name": "symbol",
          "type": "string"
        },
        {
          "internalType": "uint8",
          "name": "decimals",
          "type": "uint8"
        }
      ],
      "name": "initialize",
      "outputs": [],
      "payable": false,
      "stateMutability": "nonpayable",
      "type": "function"
    },
    {
      "constant": false,
      "inputs": [
        {
          "internalType": "address",
          "name": "_sender",
          "type": "address"
        }
      ],
      "name": "initialize",
      "outputs": [],
      "payable": false,
      "stateMutability": "nonpayable",
      "type": "function"
    },
    {
      "constant": true,
      "inputs": [],
      "name": "getRoles",
      "outputs": [
        {
          "internalType": "address",
          "name": "",
          "type": "address"
        },
        {
          "internalType": "address",
          "name": "",
          "type": "address"
        },
        {
          "internalType": "address",
          "name": "",
          "type": "address"
        },
        {
          "internalType": "address",
          "name": "",
          "type": "address"
        }
      ],
      "payable": false,
      "stateMutability": "view",
      "type": "function"
    },
    {
      "constant": false,
      "inputs": [
        {
          "internalType": "uint256",
          "name": "amount",
          "type": "uint256"
        }
      ],
      "name": "mintCoins",
      "outputs": [],
      "payable": false,
      "stateMutability": "nonpayable",
      "type": "function"
    },
    {
      "constant": false,
      "inputs": [
        {
          "internalType": "uint256",
          "name": "amount",
          "type": "uint256"
        }
      ],
      "name": "meltCoins",
      "outputs": [],
      "payable": false,
      "stateMutability": "nonpayable",
      "type": "function"
    },
    {
      "constant": true,
      "inputs": [],
      "name": "coinsCirculating",
      "outputs": [
        {
          "internalType": "uint256",
          "name": "",
          "type": "uint256"
        }
      ],
      "payable": false,
      "stateMutability": "view",
      "type": "function"
    },
    {
      "constant": true,
      "inputs": [],
      "name": "reservedCoins",
      "outputs": [
        {
          "internalType": "uint256",
          "name": "balance",
          "type": "uint256"
        }
      ],
      "payable": false,
      "stateMutability": "view",
      "type": "function"
    },
    {
      "constant": false,
      "inputs": [
        {
          "internalType": "address",
          "name": "to",
          "type": "address"
        },
        {
          "internalType": "uint256",
          "name": "value",
          "type": "uint256"
        }
      ],
      "name": "transfer",
      "outputs": [
        {
          "internalType": "bool",
          "name": "",
          "type": "bool"
        }
      ],
      "payable": false,
      "stateMutability": "nonpayable",
      "type": "function"
    },
    {
      "constant": false,
      "inputs": [
        {
          "internalType": "address",
          "name": "spender",
          "type": "address"
        },
        {
          "internalType": "uint256",
          "name": "value",
          "type": "uint256"
        }
      ],
      "name": "approve",
      "outputs": [
        {
          "internalType": "bool",
          "name": "",
          "type": "bool"
        }
      ],
      "payable": false,
      "stateMutability": "nonpayable",
      "type": "function"
    },
    {
      "constant": false,
      "inputs": [
        {
          "internalType": "address",
          "name": "spender",
          "type": "address"
        },
        {
          "internalType": "uint256",
          "name": "addedValue",
          "type": "uint256"
        }
      ],
      "name": "increaseAllowance",
      "outputs": [
        {
          "internalType": "bool",
          "name": "",
          "type": "bool"
        }
      ],
      "payable": false,
      "stateMutability": "nonpayable",
      "type": "function"
    },
    {
      "constant": false,
      "inputs": [
        {
          "internalType": "address",
          "name": "from",
          "type": "address"
        },
        {
          "internalType": "address",
          "name": "to",
          "type": "address"
        },
        {
          "internalType": "uint256",
          "name": "value",
          "type": "uint256"
        },
        {
          "internalType": "uint256",
          "name": "fee",
          "type": "uint256"
        },
        {
          "internalType": "uint256",
          "name": "timestamp",
          "type": "uint256"
        },
        {
          "internalType": "bytes",
          "name": "signature",
          "type": "bytes"
        }
      ],
      "name": "certifiedTransfer",
      "outputs": [
        {
          "internalType": "bool",
          "name": "",
          "type": "bool"
        }
      ],
      "payable": false,
      "stateMutability": "nonpayable",
      "type": "function"
    },
    {
      "constant": false,
      "inputs": [
        {
          "internalType": "address",
          "name": "purchaser",
          "type": "address"
        },
        {
          "internalType": "uint256",
          "name": "amount",
          "type": "uint256"
        },
        {
          "internalType": "uint256",
          "name": "timeout",
          "type": "uint256"
        },
        {
          "internalType": "uint256",
          "name": "timestamp",
          "type": "uint256"
        }
      ],
      "name": "coinPurchase",
      "outputs": [],
      "payable": false,
      "stateMutability": "nonpayable",
      "type": "function"
    },
    {
      "constant": false,
      "inputs": [
        {
          "internalType": "uint256",
          "name": "amount",
          "type": "uint256"
        },
        {
          "internalType": "address",
          "name": "redeemer",
          "type": "address"
        },
        {
          "internalType": "uint256",
          "name": "timestamp",
          "type": "uint256"
        }
      ],
      "name": "coinRedeem",
      "outputs": [],
      "payable": false,
      "stateMutability": "nonpayable",
      "type": "function"
    },
    {
      "constant": false,
      "inputs": [
        {
          "internalType": "address",
          "name": "account",
          "type": "address"
        },
        {
          "internalType": "uint256",
          "name": "time",
          "type": "uint256"
        }
      ],
      "name": "setAccountFreezeTime",
      "outputs": [],
      "payable": false,
      "stateMutability": "nonpayable",
      "type": "function"
    },
    {
      "constant": true,
      "inputs": [
        {
          "internalType": "address",
          "name": "account",
          "type": "address"
        }
      ],
      "name": "accountUnfreezeTime",
      "outputs": [
        {
          "internalType": "uint256",
          "name": "",
          "type": "uint256"
        }
      ],
      "payable": false,
      "stateMutability": "view",
      "type": "function"
    },
    {
      "constant": false,
      "inputs": [
        {
          "internalType": "uint256",
          "name": "topup",
          "type": "uint256"
        }
      ],
      "name": "tapCapTopUp",
      "outputs": [],
      "payable": false,
      "stateMutability": "nonpayable",
      "type": "function"
    },
    {
      "constant": false,
      "inputs": [
        {
          "internalType": "uint256",
          "name": "amount",
          "type": "uint256"
        }
      ],
      "name": "tapCapSetRefill",
      "outputs": [],
      "payable": false,
      "stateMutability": "nonpayable",
      "type": "function"
    },
    {
      "constant": false,
      "inputs": [],
      "name": "tapCapClear",
      "outputs": [],
      "payable": false,
      "stateMutability": "nonpayable",
      "type": "function"
    },
    {
      "constant": true,
      "inputs": [
        {
          "internalType": "address",
          "name": "user",
          "type": "address"
        }
      ],
      "name": "tapCapUser",
      "outputs": [
        {
          "internalType": "uint256",
          "name": "TransactionId",
          "type": "uint256"
        },
        {
          "internalType": "uint256",
          "name": "TapCapEscrow",
          "type": "uint256"
        },
        {
          "internalType": "uint256",
          "name": "TapCapRefill",
          "type": "uint256"
        }
      ],
      "payable": false,
      "stateMutability": "view",
      "type": "function"
    },
    {
      "constant": false,
      "inputs": [
        {
          "internalType": "address[]",
          "name": "users",
          "type": "address[]"
        },
        {
          "internalType": "int256[]",
          "name": "amountChange",
          "type": "int256[]"
        }
      ],
      "name": "processSpending",
      "outputs": [],
      "payable": false,
      "stateMutability": "nonpayable",
      "type": "function"
    },
    {
      "constant": false,
      "inputs": [
        {
          "internalType": "address",
          "name": "newManager",
          "type": "address"
        }
      ],
      "name": "setTapCapManager",
      "outputs": [],
      "payable": false,
      "stateMutability": "nonpayable",
      "type": "function"
    },
    {
      "constant": false,
      "inputs": [],
      "name": "acceptTapCapManager",
      "outputs": [],
      "payable": false,
      "stateMutability": "nonpayable",
      "type": "function"
    },
    {
      "constant": false,
      "inputs": [
        {
          "internalType": "address",
          "name": "newMinter",
          "type": "address"
        }
      ],
      "name": "setMinter",
      "outputs": [],
      "payable": false,
      "stateMutability": "nonpayable",
      "type": "function"
    },
    {
      "constant": false,
      "inputs": [],
      "name": "acceptMinter",
      "outputs": [],
      "payable": false,
      "stateMutability": "nonpayable",
      "type": "function"
    },
    {
      "constant": false,
      "inputs": [
        {
          "internalType": "address",
          "name": "newCoinManager",
          "type": "address"
        }
      ],
      "name": "setTheCoin",
      "outputs": [],
      "payable": false,
      "stateMutability": "nonpayable",
      "type": "function"
    },
    {
      "constant": false,
      "inputs": [],
      "name": "acceptTheCoin",
      "outputs": [],
      "payable": false,
      "stateMutability": "nonpayable",
      "type": "function"
    },
    {
      "constant": false,
      "inputs": [
        {
          "internalType": "address",
          "name": "newPolice",
          "type": "address"
        }
      ],
      "name": "setPolice",
      "outputs": [],
      "payable": false,
      "stateMutability": "nonpayable",
      "type": "function"
    },
    {
      "constant": false,
      "inputs": [],
      "name": "acceptPolice",
      "outputs": [],
      "payable": false,
      "stateMutability": "nonpayable",
      "type": "function"
    },
    {
      "constant": false,
      "inputs": [
        {
          "internalType": "address",
          "name": "tokenAddress",
          "type": "address"
        },
        {
          "internalType": "uint256",
          "name": "tokens",
          "type": "uint256"
        }
      ],
      "name": "transferAnyERC20Token",
      "outputs": [
        {
          "internalType": "bool",
          "name": "success",
          "type": "bool"
        }
      ],
      "payable": false,
      "stateMutability": "nonpayable",
      "type": "function"
    }
  ],
  "bytecode": "0x608060405234801561001057600080fd5b506150dc806100206000396000f3fe6080604052600436106102305760003560e01c806377598d9a1161012e578063a9059cbb116100ab578063dc39d06d1161006f578063dc39d06d146111b5578063dd62ed3e14611228578063dfdf9f82146112ad578063fbc67b2314611312578063fca3b5aa146113b557610230565b8063a9059cbb1461102e578063b33c8845146110a1578063c4d66de8146110fc578063cbd956c31461114d578063d803ec171461116457610230565b80639a975b0c116100f25780639a975b0c14610ebf578063a299071214610ed6578063a457c2d714610f45578063a77b6efb14610fb8578063a793902b14610ff357610230565b806377598d9a14610c2657806378ad516414610c3d5780638a5c3d8414610c785780638da91fcd14610cc957806395d89b4114610e2f57610230565b80632f9e1b17116101bc5780635dea838a116101805780635dea838a146107d55780635ec4f0c41461083a5780636e24c37e1461097857806370a0823114610ad15780637106139814610b3657610230565b80632f9e1b17146106c8578063313ce567146107035780633443984714610734578063395093511461074b5780635395c9d4146107be57610230565b806318160ddd1161020357806318160ddd1461051b57806318fd6440146105465780631dcdb8e6146105715780631f39f23c146105e457806323b872dd1461063557610230565b806306fdde0314610281578063095ea7b3146103115780630a18f5c9146103845780631624f6c6146103af575b6040517f08c379a00000000000000000000000000000000000000000000000000000000081526004018080602001828103825260238152602001806150526023913960400191505060405180910390fd5b34801561028d57600080fd5b50610296611406565b6040518080602001828103825283818151815260200191508051906020019080838360005b838110156102d65780820151818401526020810190506102bb565b50505050905090810190601f1680156103035780820380516001836020036101000a031916815260200191505b509250505060405180910390f35b34801561031d57600080fd5b5061036a6004803603604081101561033457600080fd5b81019080803573ffffffffffffffffffffffffffffffffffffffff169060200190929190803590602001909291905050506114a8565b604051808215151515815260200191505060405180910390f35b34801561039057600080fd5b5061039961160c565b6040518082815260200191505060405180910390f35b3480156103bb57600080fd5b50610519600480360360608110156103d257600080fd5b81019080803590602001906401000000008111156103ef57600080fd5b82018360208201111561040157600080fd5b8035906020019184600183028401116401000000008311171561042357600080fd5b91908080601f016020809104026020016040519081016040528093929190818152602001838380828437600081840152601f19601f8201169050808301925050505050505091929192908035906020019064010000000081111561048657600080fd5b82018360208201111561049857600080fd5b803590602001918460018302840111640100000000831117156104ba57600080fd5b91908080601f016020809104026020016040519081016040528093929190818152602001838380828437600081840152601f19601f820116905080830192505050505050509192919290803560ff169060200190929190505050611657565b005b34801561052757600080fd5b506105306117a2565b6040518082815260200191505060405180910390f35b34801561055257600080fd5b5061055b6117ac565b6040518082815260200191505060405180910390f35b34801561057d57600080fd5b506105c06004803603602081101561059457600080fd5b81019080803573ffffffffffffffffffffffffffffffffffffffff1690602001909291905050506117de565b60405180848152602001838152602001828152602001935050505060405180910390f35b3480156105f057600080fd5b506106336004803603602081101561060757600080fd5b81019080803573ffffffffffffffffffffffffffffffffffffffff1690602001909291905050506118b9565b005b34801561064157600080fd5b506106ae6004803603606081101561065857600080fd5b81019080803573ffffffffffffffffffffffffffffffffffffffff169060200190929190803573ffffffffffffffffffffffffffffffffffffffff169060200190929190803590602001909291905050506119c0565b604051808215151515815260200191505060405180910390f35b3480156106d457600080fd5b50610701600480360360208110156106eb57600080fd5b8101908080359060200190929190505050611bc8565b005b34801561070f57600080fd5b50610718611de5565b604051808260ff1660ff16815260200191505060405180910390f35b34801561074057600080fd5b50610749611dfc565b005b34801561075757600080fd5b506107a46004803603604081101561076e57600080fd5b81019080803573ffffffffffffffffffffffffffffffffffffffff16906020019092919080359060200190929190505050611f66565b604051808215151515815260200191505060405180910390f35b3480156107ca57600080fd5b506107d36120ca565b005b3480156107e157600080fd5b50610838600480360360608110156107f857600080fd5b8101908080359060200190929190803573ffffffffffffffffffffffffffffffffffffffff16906020019092919080359060200190929190505050612234565b005b34801561084657600080fd5b5061095e600480360360c081101561085d57600080fd5b81019080803573ffffffffffffffffffffffffffffffffffffffff169060200190929190803573ffffffffffffffffffffffffffffffffffffffff169060200190929190803590602001909291908035906020019092919080359060200190929190803590602001906401000000008111156108d857600080fd5b8201836020820111156108ea57600080fd5b8035906020019184600183028401116401000000008311171561090c57600080fd5b91908080601f016020809104026020016040519081016040528093929190818152602001838380828437600081840152601f19601f820116905080830192505050505050509192919290505050612417565b604051808215151515815260200191505060405180910390f35b34801561098457600080fd5b50610acf6004803603604081101561099b57600080fd5b81019080803590602001906401000000008111156109b857600080fd5b8201836020820111156109ca57600080fd5b803590602001918460208302840111640100000000831117156109ec57600080fd5b919080806020026020016040519081016040528093929190818152602001838360200280828437600081840152601f19601f82011690508083019250505050505050919291929080359060200190640100000000811115610a4c57600080fd5b820183602082011115610a5e57600080fd5b80359060200191846020830284011164010000000083111715610a8057600080fd5b919080806020026020016040519081016040528093929190818152602001838360200280828437600081840152601f19601f82011690508083019250505050505050919291929050505061271e565b005b348015610add57600080fd5b50610b2060048036036020811015610af457600080fd5b81019080803573ffffffffffffffffffffffffffffffffffffffff169060200190929190505050612c6f565b6040518082815260200191505060405180910390f35b348015610b4257600080fd5b50610b4b612cb8565b604051808573ffffffffffffffffffffffffffffffffffffffff1673ffffffffffffffffffffffffffffffffffffffff1681526020018473ffffffffffffffffffffffffffffffffffffffff1673ffffffffffffffffffffffffffffffffffffffff1681526020018373ffffffffffffffffffffffffffffffffffffffff1673ffffffffffffffffffffffffffffffffffffffff1681526020018273ffffffffffffffffffffffffffffffffffffffff1673ffffffffffffffffffffffffffffffffffffffff16815260200194505050505060405180910390f35b348015610c3257600080fd5b50610c3b612d58565b005b348015610c4957600080fd5b50610c7660048036036020811015610c6057600080fd5b8101908080359060200190929190505050612ec2565b005b348015610c8457600080fd5b50610cc760048036036020811015610c9b57600080fd5b81019080803573ffffffffffffffffffffffffffffffffffffffff169060200190929190505050612f77565b005b348015610cd557600080fd5b50610ded600480360360c0811015610cec57600080fd5b81019080803573ffffffffffffffffffffffffffffffffffffffff169060200190929190803573ffffffffffffffffffffffffffffffffffffffff16906020019092919080359060200190929190803590602001909291908035906020019092919080359060200190640100000000811115610d6757600080fd5b820183602082011115610d7957600080fd5b80359060200191846001830284011164010000000083111715610d9b57600080fd5b91908080601f016020809104026020016040519081016040528093929190818152602001838380828437600081840152601f19601f82011690508083019250505050505050919291929050505061307e565b604051808273ffffffffffffffffffffffffffffffffffffffff1673ffffffffffffffffffffffffffffffffffffffff16815260200191505060405180910390f35b348015610e3b57600080fd5b50610e446130b5565b6040518080602001828103825283818151815260200191508051906020019080838360005b83811015610e84578082015181840152602081019050610e69565b50505050905090810190601f168015610eb15780820380516001836020036101000a031916815260200191505b509250505060405180910390f35b348015610ecb57600080fd5b50610ed4613157565b005b348015610ee257600080fd5b50610f4360048036036080811015610ef957600080fd5b81019080803573ffffffffffffffffffffffffffffffffffffffff169060200190929190803590602001909291908035906020019092919080359060200190929190505050613223565b005b348015610f5157600080fd5b50610f9e60048036036040811015610f6857600080fd5b81019080803573ffffffffffffffffffffffffffffffffffffffff16906020019092919080359060200190929190505050613407565b604051808215151515815260200191505060405180910390f35b348015610fc457600080fd5b50610ff160048036036020811015610fdb57600080fd5b810190808035906020019092919050505061363c565b005b348015610fff57600080fd5b5061102c6004803603602081101561101657600080fd5b810190808035906020019092919050505061372e565b005b34801561103a57600080fd5b506110876004803603604081101561105157600080fd5b81019080803573ffffffffffffffffffffffffffffffffffffffff16906020019092919080359060200190929190505050613820565b604051808215151515815260200191505060405180910390f35b3480156110ad57600080fd5b506110fa600480360360408110156110c457600080fd5b81019080803573ffffffffffffffffffffffffffffffffffffffff16906020019092919080359060200190929190505050613984565b005b34801561110857600080fd5b5061114b6004803603602081101561111f57600080fd5b81019080803573ffffffffffffffffffffffffffffffffffffffff169060200190929190505050613a8f565b005b34801561115957600080fd5b50611162613e0a565b005b34801561117057600080fd5b506111b36004803603602081101561118757600080fd5b81019080803573ffffffffffffffffffffffffffffffffffffffff169060200190929190505050613f74565b005b3480156111c157600080fd5b5061120e600480360360408110156111d857600080fd5b81019080803573ffffffffffffffffffffffffffffffffffffffff1690602001909291908035906020019092919050505061407b565b604051808215151515815260200191505060405180910390f35b34801561123457600080fd5b506112976004803603604081101561124b57600080fd5b81019080803573ffffffffffffffffffffffffffffffffffffffff169060200190929190803573ffffffffffffffffffffffffffffffffffffffff169060200190929190505050614232565b6040518082815260200191505060405180910390f35b3480156112b957600080fd5b506112fc600480360360208110156112d057600080fd5b81019080803573ffffffffffffffffffffffffffffffffffffffff1690602001909291905050506142b9565b6040518082815260200191505060405180910390f35b34801561131e57600080fd5b5061139f600480360360a081101561133557600080fd5b81019080803573ffffffffffffffffffffffffffffffffffffffff169060200190929190803573ffffffffffffffffffffffffffffffffffffffff169060200190929190803590602001909291908035906020019092919080359060200190929190505050614302565b6040518082815260200191505060405180910390f35b3480156113c157600080fd5b50611404600480360360208110156113d857600080fd5b81019080803573ffffffffffffffffffffffffffffffffffffffff1690602001909291905050506143ba565b005b606060338054600181600116156101000203166002900480601f01602080910402602001604051908101604052809291908181526020018280546001816001161561010002031660029004801561149e5780601f106114735761010080835404028352916020019161149e565b820191906000526020600020905b81548152906001019060200180831161148157829003601f168201915b5050505050905090565b6000338280606860008473ffffffffffffffffffffffffffffffffffffffff1673ffffffffffffffffffffffffffffffffffffffff168152602001908152602001600020541015611561576040517f08c379a000000000000000000000000000000000000000000000000000000000815260040180806020018281038252601f8152602001807f43616c6c65722068617320696e73756666696369656e742062616c616e63650081525060200191505060405180910390fd5b42609d60008473ffffffffffffffffffffffffffffffffffffffff1673ffffffffffffffffffffffffffffffffffffffff16815260200190815260200160002054106115f8576040517f08c379a0000000000000000000000000000000000000000000000000000000008152600401808060200182810382526024815260200180614f5a6024913960400191505060405180910390fd5b61160285856144c1565b9250505092915050565b600061165261163c60a160009054906101000a900473ffffffffffffffffffffffffffffffffffffffff16612c6f565b6116446117a2565b6145ec90919063ffffffff16565b905090565b600060019054906101000a900460ff1680611676575061167561460c565b5b8061168d57506000809054906101000a900460ff16155b6116e2576040517f08c379a000000000000000000000000000000000000000000000000000000000815260040180806020018281038252602e815260200180614fec602e913960400191505060405180910390fd5b60008060019054906101000a900460ff161590508015611732576001600060016101000a81548160ff02191690831515021790555060016000806101000a81548160ff0219169083151502179055505b8360339080519060200190611748929190614e5a565b50826034908051906020019061175f929190614e5a565b5081603560006101000a81548160ff021916908360ff160217905550801561179c5760008060016101000a81548160ff0219169083151502179055505b50505050565b6000606a54905090565b60006117d960a160009054906101000a900473ffffffffffffffffffffffffffffffffffffffff16612c6f565b905090565b600080600060a760008573ffffffffffffffffffffffffffffffffffffffff1673ffffffffffffffffffffffffffffffffffffffff1681526020019081526020016000206000015460a760008673ffffffffffffffffffffffffffffffffffffffff1673ffffffffffffffffffffffffffffffffffffffff1681526020019081526020016000206001015460a760008773ffffffffffffffffffffffffffffffffffffffff1673ffffffffffffffffffffffffffffffffffffffff168152602001908152602001600020600201549250925092509193909250565b60a260009054906101000a900473ffffffffffffffffffffffffffffffffffffffff1673ffffffffffffffffffffffffffffffffffffffff163373ffffffffffffffffffffffffffffffffffffffff161461197c576040517f08c379a000000000000000000000000000000000000000000000000000000000815260040180806020018281038252600e8152602001807f496e76616c69642073656e64657200000000000000000000000000000000000081525060200191505060405180910390fd5b8060a660006101000a81548173ffffffffffffffffffffffffffffffffffffffff021916908373ffffffffffffffffffffffffffffffffffffffff16021790555050565b6000611a5182606960008773ffffffffffffffffffffffffffffffffffffffff1673ffffffffffffffffffffffffffffffffffffffff16815260200190815260200160002060003373ffffffffffffffffffffffffffffffffffffffff1673ffffffffffffffffffffffffffffffffffffffff168152602001908152602001600020546145ec90919063ffffffff16565b606960008673ffffffffffffffffffffffffffffffffffffffff1673ffffffffffffffffffffffffffffffffffffffff16815260200190815260200160002060003373ffffffffffffffffffffffffffffffffffffffff1673ffffffffffffffffffffffffffffffffffffffff16815260200190815260200160002081905550611adc84848461461d565b3373ffffffffffffffffffffffffffffffffffffffff168473ffffffffffffffffffffffffffffffffffffffff167f8c5be1e5ebec7d5bd14f71427d1e84f3dd0314c0f7b2291e5b200ac8c7c3b925606960008873ffffffffffffffffffffffffffffffffffffffff1673ffffffffffffffffffffffffffffffffffffffff16815260200190815260200160002060003373ffffffffffffffffffffffffffffffffffffffff1673ffffffffffffffffffffffffffffffffffffffff168152602001908152602001600020546040518082815260200191505060405180910390a3600190509392505050565b8080606860003373ffffffffffffffffffffffffffffffffffffffff1673ffffffffffffffffffffffffffffffffffffffff168152602001908152602001600020541015611c7e576040517f08c379a000000000000000000000000000000000000000000000000000000000815260040180806020018281038252601f8152602001807f43616c6c65722068617320696e73756666696369656e742062616c616e63650081525060200191505060405180910390fd5b600060a760003373ffffffffffffffffffffffffffffffffffffffff1673ffffffffffffffffffffffffffffffffffffffff1681526020019081526020016000209050611d1383606860003373ffffffffffffffffffffffffffffffffffffffff1673ffffffffffffffffffffffffffffffffffffffff168152602001908152602001600020546145ec90919063ffffffff16565b606860003373ffffffffffffffffffffffffffffffffffffffff1673ffffffffffffffffffffffffffffffffffffffff16815260200190815260200160002081905550611d6d8382600101546147eb90919063ffffffff16565b81600101819055507f0164611a7fe547f708c0a708a8ac00ed2c0adbca62e7dee2f63512e60c30e9e63384604051808373ffffffffffffffffffffffffffffffffffffffff1673ffffffffffffffffffffffffffffffffffffffff1681526020018281526020019250505060405180910390a1505050565b6000603560009054906101000a900460ff16905090565b60a660009054906101000a900473ffffffffffffffffffffffffffffffffffffffff1673ffffffffffffffffffffffffffffffffffffffff163373ffffffffffffffffffffffffffffffffffffffff1614611ebf576040517f08c379a00000000000000000000000000000000000000000000000000000000081526004018080602001828103825260118152602001807f5065726d697373696f6e2044656e69656400000000000000000000000000000081525060200191505060405180910390fd5b60a660009054906101000a900473ffffffffffffffffffffffffffffffffffffffff1660a260006101000a81548173ffffffffffffffffffffffffffffffffffffffff021916908373ffffffffffffffffffffffffffffffffffffffff160217905550600060a660006101000a81548173ffffffffffffffffffffffffffffffffffffffff021916908373ffffffffffffffffffffffffffffffffffffffff160217905550565b6000338280606860008473ffffffffffffffffffffffffffffffffffffffff1673ffffffffffffffffffffffffffffffffffffffff16815260200190815260200160002054101561201f576040517f08c379a000000000000000000000000000000000000000000000000000000000815260040180806020018281038252601f8152602001807f43616c6c65722068617320696e73756666696369656e742062616c616e63650081525060200191505060405180910390fd5b42609d60008473ffffffffffffffffffffffffffffffffffffffff1673ffffffffffffffffffffffffffffffffffffffff16815260200190815260200160002054106120b6576040517f08c379a0000000000000000000000000000000000000000000000000000000008152600401808060200182810382526024815260200180614f5a6024913960400191505060405180910390fd5b6120c0858561480a565b9250505092915050565b60a560009054906101000a900473ffffffffffffffffffffffffffffffffffffffff1673ffffffffffffffffffffffffffffffffffffffff163373ffffffffffffffffffffffffffffffffffffffff161461218d576040517f08c379a00000000000000000000000000000000000000000000000000000000081526004018080602001828103825260118152602001807f5065726d697373696f6e2044656e69656400000000000000000000000000000081525060200191505060405180910390fd5b60a560009054906101000a900473ffffffffffffffffffffffffffffffffffffffff1660a160006101000a81548173ffffffffffffffffffffffffffffffffffffffff021916908373ffffffffffffffffffffffffffffffffffffffff160217905550600060a560006101000a81548173ffffffffffffffffffffffffffffffffffffffff021916908373ffffffffffffffffffffffffffffffffffffffff160217905550565b338380606860008473ffffffffffffffffffffffffffffffffffffffff1673ffffffffffffffffffffffffffffffffffffffff1681526020019081526020016000205410156122eb576040517f08c379a000000000000000000000000000000000000000000000000000000000815260040180806020018281038252601f8152602001807f43616c6c65722068617320696e73756666696369656e742062616c616e63650081525060200191505060405180910390fd5b42609d60008473ffffffffffffffffffffffffffffffffffffffff1673ffffffffffffffffffffffffffffffffffffffff1681526020019081526020016000205410612382576040517f08c379a0000000000000000000000000000000000000000000000000000000008152600401808060200182810382526024815260200180614f5a6024913960400191505060405180910390fd5b61238d33858761461d565b7fbd5034ffbd47e4e72a94baa2cdb74c6fad73cb3bcdc13036b72ec8306f5a764633866123b933612c6f565b86604051808573ffffffffffffffffffffffffffffffffffffffff1673ffffffffffffffffffffffffffffffffffffffff16815260200184815260200183815260200182815260200194505050505060405180910390a15050505050565b60008683609e60008373ffffffffffffffffffffffffffffffffffffffff1673ffffffffffffffffffffffffffffffffffffffff1681526020019081526020016000205481116124b2576040517f08c379a00000000000000000000000000000000000000000000000000000000081526004018080602001828103825260338152602001806150756033913960400191505060405180910390fd5b8886880180606860008473ffffffffffffffffffffffffffffffffffffffff1673ffffffffffffffffffffffffffffffffffffffff16815260200190815260200160002054101561256b576040517f08c379a000000000000000000000000000000000000000000000000000000000815260040180806020018281038252601f8152602001807f43616c6c65722068617320696e73756666696369656e742062616c616e63650081525060200191505060405180910390fd5b42609d60008473ffffffffffffffffffffffffffffffffffffffff1673ffffffffffffffffffffffffffffffffffffffff1681526020019081526020016000205410612602576040517f08c379a0000000000000000000000000000000000000000000000000000000008152600401808060200182810382526024815260200180614f5a6024913960400191505060405180910390fd5b60006126128c8c8c8c8c8c61307e565b90508b73ffffffffffffffffffffffffffffffffffffffff168173ffffffffffffffffffffffffffffffffffffffff16146126b5576040517f08c379a000000000000000000000000000000000000000000000000000000000815260040180806020018281038252601d8152602001807f496e76616c6964207369676e617475726520666f72206164647265737300000081525060200191505060405180910390fd5b6126c08c8c8c61461d565b6126cb8c338b61461d565b87609e60008e73ffffffffffffffffffffffffffffffffffffffff1673ffffffffffffffffffffffffffffffffffffffff1681526020019081526020016000208190555050505050509695505050505050565b609f60009054906101000a900473ffffffffffffffffffffffffffffffffffffffff1673ffffffffffffffffffffffffffffffffffffffff163373ffffffffffffffffffffffffffffffffffffffff16146127e1576040517f08c379a000000000000000000000000000000000000000000000000000000000815260040180806020018281038252600e8152602001807f496e76616c69642073656e64657200000000000000000000000000000000000081525060200191505060405180910390fd5b60008251905081518114612840576040517f08c379a0000000000000000000000000000000000000000000000000000000008152600401808060200182810382526036815260200180614fb66036913960400191505060405180910390fd5b6000809050600080905060008090505b83811015612c0e57600086828151811061286657fe5b60200260200101519050600086838151811061287e57fe5b60200260200101519050600060a760008473ffffffffffffffffffffffffffffffffffffffff1673ffffffffffffffffffffffffffffffffffffffff1681526020019081526020016000209050600082131561299257600082905061292b81606860008773ffffffffffffffffffffffffffffffffffffffff1673ffffffffffffffffffffffffffffffffffffffff168152602001908152602001600020546147eb90919063ffffffff16565b508287019550868613612989576040517f08c379a000000000000000000000000000000000000000000000000000000000815260040180806020018281038252603881526020018061501a6038913960400191505060405180910390fd5b85965050612bfe565b60008260000390506129b18183600101546145ec90919063ffffffff16565b8260010181905550816002015482600101541015612b9b5760006129e6836001015484600201546145ec90919063ffffffff16565b9050606860008673ffffffffffffffffffffffffffffffffffffffff1673ffffffffffffffffffffffffffffffffffffffff16815260200190815260200160002054811115612a7257606860008673ffffffffffffffffffffffffffffffffffffffff1673ffffffffffffffffffffffffffffffffffffffff1681526020019081526020016000205490505b612ac481606860008873ffffffffffffffffffffffffffffffffffffffff1673ffffffffffffffffffffffffffffffffffffffff168152602001908152602001600020546145ec90919063ffffffff16565b606860008773ffffffffffffffffffffffffffffffffffffffff1673ffffffffffffffffffffffffffffffffffffffff16815260200190815260200160002081905550612b1e8184600101546147eb90919063ffffffff16565b83600101819055507fbc8fb1fdc44eddf7d69719d30f493576d74726bd6dc9ea4f283f981d43f60710858583604051808473ffffffffffffffffffffffffffffffffffffffff1673ffffffffffffffffffffffffffffffffffffffff168152602001838152602001828152602001935050505060405180910390a1505b828701955086861315612bf9576040517f08c379a0000000000000000000000000000000000000000000000000000000008152600401808060200182810382526038815260200180614f7e6038913960400191505060405180910390fd5b859650505b5050508080600101915050612850565b5060008214612c68576040517f08c379a0000000000000000000000000000000000000000000000000000000008152600401808060200182810382526034815260200180614f266034913960400191505060405180910390fd5b5050505050565b6000606860008373ffffffffffffffffffffffffffffffffffffffff1673ffffffffffffffffffffffffffffffffffffffff168152602001908152602001600020549050919050565b600080600080609f60009054906101000a900473ffffffffffffffffffffffffffffffffffffffff1660a060009054906101000a900473ffffffffffffffffffffffffffffffffffffffff1660a160009054906101000a900473ffffffffffffffffffffffffffffffffffffffff1660a260009054906101000a900473ffffffffffffffffffffffffffffffffffffffff16935093509350935090919293565b60a360009054906101000a900473ffffffffffffffffffffffffffffffffffffffff1673ffffffffffffffffffffffffffffffffffffffff163373ffffffffffffffffffffffffffffffffffffffff1614612e1b576040517f08c379a00000000000000000000000000000000000000000000000000000000081526004018080602001828103825260118152602001807f5065726d697373696f6e2044656e69656400000000000000000000000000000081525060200191505060405180910390fd5b60a360009054906101000a900473ffffffffffffffffffffffffffffffffffffffff16609f60006101000a81548173ffffffffffffffffffffffffffffffffffffffff021916908373ffffffffffffffffffffffffffffffffffffffff160217905550600060a360006101000a81548173ffffffffffffffffffffffffffffffffffffffff021916908373ffffffffffffffffffffffffffffffffffffffff160217905550565b8060a760003373ffffffffffffffffffffffffffffffffffffffff1673ffffffffffffffffffffffffffffffffffffffff168152602001908152602001600020600201819055507f936ec7e4d9755c4568dc8ffea642b0aad6180d863841801e138246caa43467d13382604051808373ffffffffffffffffffffffffffffffffffffffff1673ffffffffffffffffffffffffffffffffffffffff1681526020018281526020019250505060405180910390a150565b60a160009054906101000a900473ffffffffffffffffffffffffffffffffffffffff1673ffffffffffffffffffffffffffffffffffffffff163373ffffffffffffffffffffffffffffffffffffffff161461303a576040517f08c379a000000000000000000000000000000000000000000000000000000000815260040180806020018281038252600e8152602001807f496e76616c69642073656e64657200000000000000000000000000000000000081525060200191505060405180910390fd5b8060a560006101000a81548173ffffffffffffffffffffffffffffffffffffffff021916908373ffffffffffffffffffffffffffffffffffffffff16021790555050565b60008061308e8888888888614302565b9050600061309b82614a3f565b90506130a78185614a97565b925050509695505050505050565b606060348054600181600116156101000203166002900480601f01602080910402602001604051908101604052809291908181526020018280546001816001161561010002031660029004801561314d5780601f106131225761010080835404028352916020019161314d565b820191906000526020600020905b81548152906001019060200180831161313057829003601f168201915b5050505050905090565b7fffffffffffffffffffffffffffffffffffffffffffffffffffffffffffffffff60a760003373ffffffffffffffffffffffffffffffffffffffff1673ffffffffffffffffffffffffffffffffffffffff168152602001908152602001600020600201819055507f56f6ffd37b82c1cf8125c880b6a1ec6495a771e55c3771efaa08437285f4a5d033604051808273ffffffffffffffffffffffffffffffffffffffff1673ffffffffffffffffffffffffffffffffffffffff16815260200191505060405180910390a1565b338380606860008473ffffffffffffffffffffffffffffffffffffffff1673ffffffffffffffffffffffffffffffffffffffff1681526020019081526020016000205410156132da576040517f08c379a000000000000000000000000000000000000000000000000000000000815260040180806020018281038252601f8152602001807f43616c6c65722068617320696e73756666696369656e742062616c616e63650081525060200191505060405180910390fd5b42609d60008473ffffffffffffffffffffffffffffffffffffffff1673ffffffffffffffffffffffffffffffffffffffff1681526020019081526020016000205410613371576040517f08c379a0000000000000000000000000000000000000000000000000000000008152600401808060200182810382526024815260200180614f5a6024913960400191505060405180910390fd5b61337c33878761461d565b7f5bc97d73357ac0d035d4b9268a69240988a5776b8a4fcced3dbc223960123f4086866133a889612c6f565b86604051808573ffffffffffffffffffffffffffffffffffffffff1673ffffffffffffffffffffffffffffffffffffffff16815260200184815260200183815260200182815260200194505050505060405180910390a1505050505050565b60008073ffffffffffffffffffffffffffffffffffffffff168373ffffffffffffffffffffffffffffffffffffffff16141561344257600080fd5b6134d182606960003373ffffffffffffffffffffffffffffffffffffffff1673ffffffffffffffffffffffffffffffffffffffff16815260200190815260200160002060008673ffffffffffffffffffffffffffffffffffffffff1673ffffffffffffffffffffffffffffffffffffffff168152602001908152602001600020546145ec90919063ffffffff16565b606960003373ffffffffffffffffffffffffffffffffffffffff1673ffffffffffffffffffffffffffffffffffffffff16815260200190815260200160002060008573ffffffffffffffffffffffffffffffffffffffff1673ffffffffffffffffffffffffffffffffffffffff168152602001908152602001600020819055508273ffffffffffffffffffffffffffffffffffffffff163373ffffffffffffffffffffffffffffffffffffffff167f8c5be1e5ebec7d5bd14f71427d1e84f3dd0314c0f7b2291e5b200ac8c7c3b925606960003373ffffffffffffffffffffffffffffffffffffffff1673ffffffffffffffffffffffffffffffffffffffff16815260200190815260200160002060008773ffffffffffffffffffffffffffffffffffffffff1673ffffffffffffffffffffffffffffffffffffffff168152602001908152602001600020546040518082815260200191505060405180910390a36001905092915050565b60a060009054906101000a900473ffffffffffffffffffffffffffffffffffffffff1673ffffffffffffffffffffffffffffffffffffffff163373ffffffffffffffffffffffffffffffffffffffff16146136ff576040517f08c379a000000000000000000000000000000000000000000000000000000000815260040180806020018281038252600e8152602001807f496e76616c69642073656e64657200000000000000000000000000000000000081525060200191505060405180910390fd5b61372b60a160009054906101000a900473ffffffffffffffffffffffffffffffffffffffff1682614b9b565b50565b60a060009054906101000a900473ffffffffffffffffffffffffffffffffffffffff1673ffffffffffffffffffffffffffffffffffffffff163373ffffffffffffffffffffffffffffffffffffffff16146137f1576040517f08c379a000000000000000000000000000000000000000000000000000000000815260040180806020018281038252600e8152602001807f496e76616c69642073656e64657200000000000000000000000000000000000081525060200191505060405180910390fd5b61381d60a160009054906101000a900473ffffffffffffffffffffffffffffffffffffffff1682614cef565b50565b6000338280606860008473ffffffffffffffffffffffffffffffffffffffff1673ffffffffffffffffffffffffffffffffffffffff1681526020019081526020016000205410156138d9576040517f08c379a000000000000000000000000000000000000000000000000000000000815260040180806020018281038252601f8152602001807f43616c6c65722068617320696e73756666696369656e742062616c616e63650081525060200191505060405180910390fd5b42609d60008473ffffffffffffffffffffffffffffffffffffffff1673ffffffffffffffffffffffffffffffffffffffff1681526020019081526020016000205410613970576040517f08c379a0000000000000000000000000000000000000000000000000000000008152600401808060200182810382526024815260200180614f5a6024913960400191505060405180910390fd5b61397a8585614e43565b9250505092915050565b60a260009054906101000a900473ffffffffffffffffffffffffffffffffffffffff1673ffffffffffffffffffffffffffffffffffffffff163373ffffffffffffffffffffffffffffffffffffffff1614613a47576040517f08c379a000000000000000000000000000000000000000000000000000000000815260040180806020018281038252600e8152602001807f496e76616c69642073656e64657200000000000000000000000000000000000081525060200191505060405180910390fd5b80609d60008473ffffffffffffffffffffffffffffffffffffffff1673ffffffffffffffffffffffffffffffffffffffff168152602001908152602001600020819055505050565b600060019054906101000a900460ff1680613aae5750613aad61460c565b5b80613ac557506000809054906101000a900460ff16155b613b1a576040517f08c379a000000000000000000000000000000000000000000000000000000000815260040180806020018281038252602e815260200180614fec602e913960400191505060405180910390fd5b60008060019054906101000a900460ff161590508015613b6a576001600060016101000a81548160ff02191690831515021790555060016000806101000a81548160ff0219169083151502179055505b613be06040518060400160405280600981526020017f5448453a20436f696e00000000000000000000000000000000000000000000008152506040518060400160405280600381526020017f54484500000000000000000000000000000000000000000000000000000000008152506006611657565b600073ffffffffffffffffffffffffffffffffffffffff16609f60009054906101000a900473ffffffffffffffffffffffffffffffffffffffff1673ffffffffffffffffffffffffffffffffffffffff16148015613c8c5750600073ffffffffffffffffffffffffffffffffffffffff1660a060009054906101000a900473ffffffffffffffffffffffffffffffffffffffff1673ffffffffffffffffffffffffffffffffffffffff16145b613ce1576040517f08c379a0000000000000000000000000000000000000000000000000000000008152600401808060200182810382526026815260200180614f006026913960400191505060405180910390fd5b81609f60006101000a81548173ffffffffffffffffffffffffffffffffffffffff021916908373ffffffffffffffffffffffffffffffffffffffff1602179055508160a060006101000a81548173ffffffffffffffffffffffffffffffffffffffff021916908373ffffffffffffffffffffffffffffffffffffffff1602179055508160a160006101000a81548173ffffffffffffffffffffffffffffffffffffffff021916908373ffffffffffffffffffffffffffffffffffffffff1602179055508160a260006101000a81548173ffffffffffffffffffffffffffffffffffffffff021916908373ffffffffffffffffffffffffffffffffffffffff1602179055508015613e065760008060016101000a81548160ff0219169083151502179055505b5050565b60a460009054906101000a900473ffffffffffffffffffffffffffffffffffffffff1673ffffffffffffffffffffffffffffffffffffffff163373ffffffffffffffffffffffffffffffffffffffff1614613ecd576040517f08c379a00000000000000000000000000000000000000000000000000000000081526004018080602001828103825260118152602001807f5065726d697373696f6e2044656e69656400000000000000000000000000000081525060200191505060405180910390fd5b60a460009054906101000a900473ffffffffffffffffffffffffffffffffffffffff1660a060006101000a81548173ffffffffffffffffffffffffffffffffffffffff021916908373ffffffffffffffffffffffffffffffffffffffff160217905550600060a460006101000a81548173ffffffffffffffffffffffffffffffffffffffff021916908373ffffffffffffffffffffffffffffffffffffffff160217905550565b609f60009054906101000a900473ffffffffffffffffffffffffffffffffffffffff1673ffffffffffffffffffffffffffffffffffffffff163373ffffffffffffffffffffffffffffffffffffffff1614614037576040517f08c379a000000000000000000000000000000000000000000000000000000000815260040180806020018281038252600e8152602001807f496e76616c69642073656e64657200000000000000000000000000000000000081525060200191505060405180910390fd5b8060a360006101000a81548173ffffffffffffffffffffffffffffffffffffffff021916908373ffffffffffffffffffffffffffffffffffffffff16021790555050565b600060a160009054906101000a900473ffffffffffffffffffffffffffffffffffffffff1673ffffffffffffffffffffffffffffffffffffffff163373ffffffffffffffffffffffffffffffffffffffff1614614140576040517f08c379a000000000000000000000000000000000000000000000000000000000815260040180806020018281038252600e8152602001807f496e76616c69642073656e64657200000000000000000000000000000000000081525060200191505060405180910390fd5b60008390508073ffffffffffffffffffffffffffffffffffffffff1663a9059cbb60a160009054906101000a900473ffffffffffffffffffffffffffffffffffffffff16856040518363ffffffff1660e01b8152600401808373ffffffffffffffffffffffffffffffffffffffff1673ffffffffffffffffffffffffffffffffffffffff16815260200182815260200192505050602060405180830381600087803b1580156141ee57600080fd5b505af1158015614202573d6000803e3d6000fd5b505050506040513d602081101561421857600080fd5b810190808051906020019092919050505091505092915050565b6000606960008473ffffffffffffffffffffffffffffffffffffffff1673ffffffffffffffffffffffffffffffffffffffff16815260200190815260200160002060008373ffffffffffffffffffffffffffffffffffffffff1673ffffffffffffffffffffffffffffffffffffffff16815260200190815260200160002054905092915050565b6000609d60008373ffffffffffffffffffffffffffffffffffffffff1673ffffffffffffffffffffffffffffffffffffffff168152602001908152602001600020549050919050565b600060608686868686604051602001808673ffffffffffffffffffffffffffffffffffffffff1673ffffffffffffffffffffffffffffffffffffffff1660601b81526014018573ffffffffffffffffffffffffffffffffffffffff1673ffffffffffffffffffffffffffffffffffffffff1660601b8152601401848152602001838152602001828152602001955050505050506040516020818303038152906040529050808051906020012091505095945050505050565b60a060009054906101000a900473ffffffffffffffffffffffffffffffffffffffff1673ffffffffffffffffffffffffffffffffffffffff163373ffffffffffffffffffffffffffffffffffffffff161461447d576040517f08c379a000000000000000000000000000000000000000000000000000000000815260040180806020018281038252600e8152602001807f496e76616c69642073656e64657200000000000000000000000000000000000081525060200191505060405180910390fd5b8060a460006101000a81548173ffffffffffffffffffffffffffffffffffffffff021916908373ffffffffffffffffffffffffffffffffffffffff16021790555050565b60008073ffffffffffffffffffffffffffffffffffffffff168373ffffffffffffffffffffffffffffffffffffffff1614156144fc57600080fd5b81606960003373ffffffffffffffffffffffffffffffffffffffff1673ffffffffffffffffffffffffffffffffffffffff16815260200190815260200160002060008573ffffffffffffffffffffffffffffffffffffffff1673ffffffffffffffffffffffffffffffffffffffff168152602001908152602001600020819055508273ffffffffffffffffffffffffffffffffffffffff163373ffffffffffffffffffffffffffffffffffffffff167f8c5be1e5ebec7d5bd14f71427d1e84f3dd0314c0f7b2291e5b200ac8c7c3b925846040518082815260200191505060405180910390a36001905092915050565b6000828211156145fb57600080fd5b600082840390508091505092915050565b600080303b90506000811491505090565b600073ffffffffffffffffffffffffffffffffffffffff168273ffffffffffffffffffffffffffffffffffffffff16141561465757600080fd5b6146a981606860008673ffffffffffffffffffffffffffffffffffffffff1673ffffffffffffffffffffffffffffffffffffffff168152602001908152602001600020546145ec90919063ffffffff16565b606860008573ffffffffffffffffffffffffffffffffffffffff1673ffffffffffffffffffffffffffffffffffffffff1681526020019081526020016000208190555061473e81606860008573ffffffffffffffffffffffffffffffffffffffff1673ffffffffffffffffffffffffffffffffffffffff168152602001908152602001600020546147eb90919063ffffffff16565b606860008473ffffffffffffffffffffffffffffffffffffffff1673ffffffffffffffffffffffffffffffffffffffff168152602001908152602001600020819055508173ffffffffffffffffffffffffffffffffffffffff168373ffffffffffffffffffffffffffffffffffffffff167fddf252ad1be2c89b69c2b068fc378daa952ba7f163c4a11628f55a4df523b3ef836040518082815260200191505060405180910390a3505050565b60008082840190508381101561480057600080fd5b8091505092915050565b60008073ffffffffffffffffffffffffffffffffffffffff168373ffffffffffffffffffffffffffffffffffffffff16141561484557600080fd5b6148d482606960003373ffffffffffffffffffffffffffffffffffffffff1673ffffffffffffffffffffffffffffffffffffffff16815260200190815260200160002060008673ffffffffffffffffffffffffffffffffffffffff1673ffffffffffffffffffffffffffffffffffffffff168152602001908152602001600020546147eb90919063ffffffff16565b606960003373ffffffffffffffffffffffffffffffffffffffff1673ffffffffffffffffffffffffffffffffffffffff16815260200190815260200160002060008573ffffffffffffffffffffffffffffffffffffffff1673ffffffffffffffffffffffffffffffffffffffff168152602001908152602001600020819055508273ffffffffffffffffffffffffffffffffffffffff163373ffffffffffffffffffffffffffffffffffffffff167f8c5be1e5ebec7d5bd14f71427d1e84f3dd0314c0f7b2291e5b200ac8c7c3b925606960003373ffffffffffffffffffffffffffffffffffffffff1673ffffffffffffffffffffffffffffffffffffffff16815260200190815260200160002060008773ffffffffffffffffffffffffffffffffffffffff1673ffffffffffffffffffffffffffffffffffffffff168152602001908152602001600020546040518082815260200191505060405180910390a36001905092915050565b60008160405160200180807f19457468657265756d205369676e6564204d6573736167653a0a333200000000815250601c01828152602001915050604051602081830303815290604052805190602001209050919050565b60006041825114614aab5760009050614b95565b60008060006020850151925060408501519150606085015160001a90507f7fffffffffffffffffffffffffffffff5d576e7357a4501ddfe92f46681b20a08260001c1115614aff5760009350505050614b95565b601b8160ff1614158015614b175750601c8160ff1614155b15614b285760009350505050614b95565b60018682858560405160008152602001604052604051808581526020018460ff1660ff1681526020018381526020018281526020019450505050506020604051602081039080840390855afa158015614b85573d6000803e3d6000fd5b5050506020604051035193505050505b92915050565b600073ffffffffffffffffffffffffffffffffffffffff168273ffffffffffffffffffffffffffffffffffffffff161415614bd557600080fd5b614bea81606a546147eb90919063ffffffff16565b606a81905550614c4281606860008573ffffffffffffffffffffffffffffffffffffffff1673ffffffffffffffffffffffffffffffffffffffff168152602001908152602001600020546147eb90919063ffffffff16565b606860008473ffffffffffffffffffffffffffffffffffffffff1673ffffffffffffffffffffffffffffffffffffffff168152602001908152602001600020819055508173ffffffffffffffffffffffffffffffffffffffff16600073ffffffffffffffffffffffffffffffffffffffff167fddf252ad1be2c89b69c2b068fc378daa952ba7f163c4a11628f55a4df523b3ef836040518082815260200191505060405180910390a35050565b600073ffffffffffffffffffffffffffffffffffffffff168273ffffffffffffffffffffffffffffffffffffffff161415614d2957600080fd5b614d3e81606a546145ec90919063ffffffff16565b606a81905550614d9681606860008573ffffffffffffffffffffffffffffffffffffffff1673ffffffffffffffffffffffffffffffffffffffff168152602001908152602001600020546145ec90919063ffffffff16565b606860008473ffffffffffffffffffffffffffffffffffffffff1673ffffffffffffffffffffffffffffffffffffffff16815260200190815260200160002081905550600073ffffffffffffffffffffffffffffffffffffffff168273ffffffffffffffffffffffffffffffffffffffff167fddf252ad1be2c89b69c2b068fc378daa952ba7f163c4a11628f55a4df523b3ef836040518082815260200191505060405180910390a35050565b6000614e5033848461461d565b6001905092915050565b828054600181600116156101000203166002900490600052602060002090601f016020900481019282601f10614e9b57805160ff1916838001178555614ec9565b82800160010185558215614ec9579182015b82811115614ec8578251825591602001919060010190614ead565b5b509050614ed69190614eda565b5090565b614efc91905b80821115614ef8576000816000905550600101614ee0565b5090565b9056fe53797374656d20636f6d70726f6d697365642e2020467265657a652045766572797468696e6743616e6e6f74207265736f6c7665207370656e64696e672c20616d6f756e747320646f206e6f742062616c616e636520746f203043616c6c65722773206163636f756e742069732063757272656e746c792066726f7a656e696e7420556e646572666c6f7720696e2070726f636573735370656e64696e673a206e6577546f74616c203e20746f74616c4368616e67654561636820656e74727920696e207573657273206d757374206265206d61746368656420627920616e20616d6f756e744368616e6765436f6e747261637420696e7374616e63652068617320616c7265616479206265656e20696e697469616c697a6564696e74204f766572666c6f7720696e2070726f636573735370656e64696e673a206e6577546f74616c203c3d20746f74616c4368616e67655468697320636f6e747261637420646f6573206e6f742072756e206f6e20457468657250726f76696465642074696d657374616d70206973206c6f776572207468616e207265636f726465642074696d657374616d70a265627a7a72315820776e114d3dd3d7eeebbcc5458d3b6aa1d08ea2d553ce8e0cd619dba54fd5488964736f6c634300050c0032",
  "source": "pragma solidity ^0.5.0;\n\nimport \"./ERC20Local.sol\";\nimport \"./LibCertTransfer.sol\";\n\nimport \"openzeppelin-eth/contracts/token/ERC20/ERC20Detailed.sol\";\nimport \"zos-lib/contracts/Initializable.sol\";\n\nimport \"openzeppelin-eth/contracts/token/ERC20/IERC20.sol\";\nimport \"openzeppelin-eth/contracts/cryptography/ECDSA.sol\";\n\n\n// ----------------------------------------------------------------------------\n// SpyCoin - A crypto-currency pegged to the SPX (SPY actually)\n//\n// Symbol      : SPY\n// Name        : SpyCoin - A cryptocurrency that tracks the S&P500\n// Decimals    : 6\n//\n// Enjoy.\n//\n// ----------------------------------------------------------------------------\n\n// ----------------------------------------------------------------------------\n// ERC20 Token, with the addition of symbol, name and decimals \n//\n// NOTE: 100 SpyCoins is equivalent to 1 share of SPY,\n// or *at time of writing* roughly $2.70 USD\n// and with 6 decimal places 100,000,000 tokens is 1 share,\n// and 1 token has an approximate value of 0.00027c USD\n// ----------------------------------------------------------------------------\ncontract TheCoin is Initializable, ERC20Detailed, ERC20Local, LibCertTransfer {\n\n    // An account may be subject to a timeout, during which\n    // period it is forbidden from transferring its value\n    mapping(address => uint) freezeUntil;\n\n    // A stored list of timestamps that are used to uniquely\n    // specify transactions running through paidTransaction.\n    // Each tx comes with a timestamp that must be higher than\n    // the last tx timestamp, and (more or less) be in the \n    // same time as the block being mined.  This ensures\n    // tx authentications are unique, and expire \n    // relatively shortly after issue\n    mapping(address => uint) lastTxTimestamp;\n\n    // The following addresses have different roles\n\n    // TapCapManager is responsible for periodically\n    // processing the externally managed TapCap feature\n    address role_TapCapManager;\n    // The Minter is permitted to mint/melt coins.\n    // All coins minted/melted by the minter are\n    // from/to TheReserves address\n    address role_Minter;\n    // THE Coin reserve address.  This is the address\n    // directly managed by the THE Coin Inc.  Users\n    // interact with this address when purchase/redeem coins\n    address role_TheCoin;\n    // The Police have very limited powers, they may\n    // freeze accounts but nothing else\n    address role_Police;\n\n    // Enforcing a set/accept 2 step process for setting roles\n    // creates a strong guarantee that we can't f* up and set\n    // the roles to an invalid address\n    address new_TapCapManager;\n    address new_Minter;\n    address new_TheCoin;\n    address new_Police;\n\n    // Two special-case events include extra information (balance & timestamp)\n    // for tracking & tax record reasons\n    event Purchase(address purchaser, uint amount, uint balance, uint timestamp);\n    event Redeem(address purchaser, uint amount, uint balance, uint timestamp);\n\n    // ------------------------------------------------------------------------\n    // Events\n    // ------------------------------------------------------------------------\n\n    // ------------------------------------------------------------------------\n    // Constructor\n    // ------------------------------------------------------------------------\n    function initialize(address _sender) public\n        initializer() \n    {\n        ERC20Detailed.initialize(\"THE: Coin\", \"THE\", 6);\n        \n        // Lets just double-check this contract has not\n        // yet been initialized.\n        require(role_TapCapManager == address(0) && role_Minter == address(0), \"System compromised.  Freeze Everything\");\n\n        // We initialize all roles to owner.\n        // It is expected that Owner will distribute\n        // these roles to others\n        role_TapCapManager = _sender;\n        role_Minter = _sender;\n        role_TheCoin = _sender;\n        role_Police = _sender;\n    }\n\n    function getRoles() public view returns(address,address,address,address)\n    {\n        return (role_TapCapManager, role_Minter, role_TheCoin, role_Police);\n    }\n\n    // ------------------------------------------------------------------------\n    // Total supply management\n    // ------------------------------------------------------------------------\n\n    // The owner will periodically add new coins to match\n    // shares purchased of SPY\n    function mintCoins(uint amount) public\n        onlyMinter\n    {\n        _mint(role_TheCoin, amount);\n    }\n\n    // Remove coins\n    function meltCoins(uint amount) public\n        onlyMinter\n    {\n        _burn(role_TheCoin, amount);\n    }\n\n    // Coins currently owned by clients (not TheCoin)\n    function coinsCirculating() public view returns(uint)\n    {\n        return totalSupply().sub(balanceOf(role_TheCoin));\n    }\n\n    // Coins available for sale to the public \n    function reservedCoins() public view returns (uint balance) \n    {\n        return balanceOf(role_TheCoin);\n    }\n\n    // ------------------------------------------------------------------------\n    // Override standard functions to limit by account freezing\n    // ------------------------------------------------------------------------\n    function transfer(address to, uint256 value) public \n    isTransferable(msg.sender, value) \n    returns (bool) \n    {\n        return super.transfer(to, value);\n    }\n    function approve(address spender, uint256 value) public \n    isTransferable(msg.sender, value) \n    returns (bool) \n    {\n        return super.approve(spender, value);\n    }\n    function increaseAllowance(address spender, uint256 addedValue) public \n    isTransferable(msg.sender, addedValue) \n    returns (bool) \n    {\n        return super.increaseAllowance(spender, addedValue);\n    }\n\n    // ------------------------------------------------------------------------\n    // Additional paid-transfer functions allows a client to sign a request\n    // and for the request to be paid by someone else (likely us)\n    // ------------------------------------------------------------------------\n\n    function certifiedTransfer(address from, address to, uint256 value, uint256 fee, uint256 timestamp, bytes memory signature)\n    public \n    timestampIncreases(from, timestamp) \n    isTransferable(from, value + fee)\n    returns (bool)\n    {\n        address signer = recoverSigner(from, to, value, fee, timestamp, signature);\n        require(signer == from, \"Invalid signature for address\");\n        _transfer(from, to, value);\n        _transfer(from, msg.sender, fee);\n\n        lastTxTimestamp[from] = timestamp;\n    }\n\n    // ------------------------------------------------------------------------\n    // Client interactions with TheCoin\n    // ------------------------------------------------------------------------\n\n    // Users purchase coin from brokers.  This function is used to declare\n    // a transfer with a precise timestamp to ensure we can reconstruct the fx price\n    // of this transaction later\n    function coinPurchase(address purchaser, uint amount, uint timeout, uint timestamp) public\n    isTransferable(msg.sender, amount)\n    {\n        _transfer(msg.sender, purchaser, amount);\n        //freezeUntil[purchaser] = timeout;\n        emit Purchase(purchaser, amount, balanceOf(purchaser), timestamp);\n    }\n\n    // A user returns their coins to us (this will trigger disbursement externally)\n    // We record the precise timestamp to ensure we can reconstruct the price\n    // of this transaction later\n    function coinRedeem(uint amount, address redeemer, uint timestamp) public\n    isTransferable(msg.sender, amount)\n    {\n        // first, we recover the coins back to our own account\n        _transfer(msg.sender, redeemer, amount);\n        emit Redeem(msg.sender, amount, balanceOf(msg.sender), timestamp);\n    }\n\n    // ------------------------------------------------------------------------\n    // Sets a timeout, until which time the user will not\n    // account may not be transacted against.\n    // ------------------------------------------------------------------------\n    function setAccountFreezeTime(address account, uint time) public\n    onlyPolice\n    {\n        freezeUntil[account] = time;\n    }\n\n    // ------------------------------------------------------------------------\n    // Returns the timestamp of when this account will\n    // be unfrozen (able to be transacted against)\n    // ------------------------------------------------------------------------\n    function accountUnfreezeTime(address account) public \n    view\n    returns(uint) \n    {\n        return freezeUntil[account];\n    }\n\n\n    // ------------------------------------------------------------------------\n    // Implement escrow 'accounts' for holding amounts in escrow to be used \n    // in offline transactions\n    // ------------------------------------------------------------------------\n\n    // TODO: Spending _balances are amounts that\n    // are transfered from the _balances into\n    // escrow accounts.  These escrow accounts can then\n    // be spent against and tracked with local databases\n    // and are synced back to the main chain once per week (or so)\n    struct TapCapData\n    {\n        uint TransactionId; // Last processed TC transaction\n        uint TapCapEscrow; // How much is currently held in escrow?\n        uint TapCapRefill;  // How much should be refilled each week?\n    }\n\n    mapping(address => TapCapData) tapCaps;\n\n    event TapCapTopUp(address client, uint topup);\n    event TapCapSetWeekly(address client, uint weeklyLimit);\n    event TapCapClear(address client);\n    event TapCapUserUpdated(address client, int change, uint toppedUp);\n\n    // Event emitted when manually processing TC's\n    event TapCapProcessed(address client, address dest, uint amount);\n\n    // Topup the escrow.  NOTE: This will implicitly increase the amount registered by\n    // the spending manager.  Those records are separate and not directly\n    // linked to the amounts here.\n    function tapCapTopUp(uint topup) public\n    balanceAvailable(topup)\n    {\n        TapCapData storage userAccount = tapCaps[msg.sender];\n        _balances[msg.sender] = _balances[msg.sender].sub(topup);\n        userAccount.TapCapEscrow = userAccount.TapCapEscrow.add(topup);\n        emit TapCapTopUp(msg.sender, topup);\n    }\n\n    // Set's the weekly TapCap for the user.  Does not affect the current weeks TapCap\n    function tapCapSetRefill(uint amount) public\n    {\n        tapCaps[msg.sender].TapCapRefill = amount;\n        emit TapCapSetWeekly(msg.sender, amount);\n    }\n    \n    // Clear a users TapCap account.  A user may not directly\n    // clear an account, as the user may have a TC debit\n    // pending from the spending manager.\n    function tapCapClear() public\n    {\n        tapCaps[msg.sender].TapCapRefill = uint(-1);\n        emit TapCapClear(msg.sender);\n    }\n\n    // Get current values for spending...\n    function tapCapUser(address user) public view returns(uint TransactionId, uint TapCapEscrow, uint TapCapRefill)\n    {\n        return (tapCaps[user].TransactionId, tapCaps[user].TapCapEscrow, tapCaps[user].TapCapRefill);\n    }\n\n    //\n    // The big puppy.  Update all accounts with changes from spending\n    //\n    function processSpending(address[] memory users, int[] memory amountChange) public\n    onlyTapCapManager()\n    {\n        uint numChanges = users.length; \n        require(numChanges == amountChange.length, \"Each entry in users must be matched by an amountChange\");\n\n        int totalChange = 0;\n        int newTotal = 0;\n        for (uint i = 0; i < numChanges; i++) \n        {\n            address user = users[i];\n            int delta = amountChange[i];\n            TapCapData storage userAccount = tapCaps[user];\n            // Apply the delta to the users account\n            if (delta > 0) {\n                // Get abs(delta)\n                uint pdelta = uint(delta);\n                // Add directly to the users regular account.  We may not\n                // have permission to interact with the users TapCap\n                _balances[user].add(pdelta);\n\n                // Update total.  Can't use safe-math for this, as\n                // newTotal is a signed int to allow it to go negative.\n                newTotal = totalChange + delta;\n                require(newTotal > totalChange, \"int Overflow in processSpending: newTotal <= totalChange\");\n                totalChange = newTotal;\n            }\n            else {\n                // Get abs(delta)\n                uint ndelta = uint(-delta);\n                userAccount.TapCapEscrow = userAccount.TapCapEscrow.sub(ndelta);\n\n                // Topup the account by an appropriate amount\n                if (userAccount.TapCapEscrow < userAccount.TapCapRefill)\n                {\n                    uint topup = userAccount.TapCapRefill.sub(userAccount.TapCapEscrow);\n                    if (topup > _balances[user])\n                    {\n                        topup = _balances[user];\n                    }\n                    _balances[user] = _balances[user].sub(topup);\n                    userAccount.TapCapEscrow = userAccount.TapCapEscrow.add(topup);\n                    emit TapCapUserUpdated(user, delta, topup);\n                }\n\n                // Update total\n                newTotal = totalChange + delta;\n                require(newTotal <= totalChange, \"int Underflow in processSpending: newTotal > totalChange\");\n                totalChange = newTotal;\n            }\n        }\n\n        require(totalChange == 0, \"Cannot resolve spending, amounts do not balance to 0\");\n    }\n\n    // ------------------------------------------------------------------------\n    // Don't accept ETH\n    // ------------------------------------------------------------------------\n    function () external payable {\n        revert(\"This contract does not run on Ether\");\n    }\n\n    // ------------------------------------------------------------------------\n    // Allow updating our key users\n    // ------------------------------------------------------------------------\n    function setTapCapManager(address newManager) public \n    onlyTapCapManager\n    {\n        new_TapCapManager = newManager;\n    }\n    function acceptTapCapManager() public \n    {\n        require(msg.sender == new_TapCapManager, \"Permission Denied\");\n        role_TapCapManager = new_TapCapManager;\n        new_TapCapManager = address(0);\n    }\n\n    function setMinter(address newMinter) public \n    onlyMinter\n    {\n        new_Minter = newMinter;\n    }\n    function acceptMinter() public \n    {\n        require(msg.sender == new_Minter, \"Permission Denied\");\n        role_Minter = new_Minter;\n        new_Minter = address(0);\n    }\n\n    function setTheCoin(address newCoinManager) public \n    onlyTheCoin\n    {\n        new_TheCoin = newCoinManager;\n    }\n    function acceptTheCoin() public \n    {\n        require(msg.sender == new_TheCoin, \"Permission Denied\");\n        role_TheCoin = new_TheCoin;\n        new_TheCoin = address(0);\n    }\n\n    function setPolice(address newPolice) public \n    onlyPolice\n    {\n        new_Police = newPolice;\n    }\n    function acceptPolice() public \n    {\n        require(msg.sender == new_Police, \"Permission Denied\");\n        role_Police = new_Police;\n        new_Police = address(0);\n    }\n    // ------------------------------------------------------------------------\n    // Owner can transfer out any ERC20 tokens accidentally assigned to this contracts address\n    // ------------------------------------------------------------------------\n    function transferAnyERC20Token(address tokenAddress, uint256 tokens) public onlyTheCoin returns (bool success) {\n        IERC20 tokenContract = IERC20(tokenAddress);\n        return tokenContract.transfer(role_TheCoin, tokens);\n    }\n\n    ///////////////////////////////\n    modifier balanceAvailable(uint amount) {\n        require(_balances[msg.sender] >= amount, \"Caller has insufficient balance\");\n        _;\n    }\n\n    modifier isTransferable(address from, uint amount) {\n        require(_balances[from] >= amount, \"Caller has insufficient balance\");\n        require(freezeUntil[from] < now, \"Caller's account is currently frozen\");\n        _;\n    }\n\n    modifier onlyTapCapManager()\n    {\n        require(msg.sender == role_TapCapManager, \"Invalid sender\");\n        _;\n    }\n\n    modifier onlyMinter()\n    {\n        require(msg.sender == role_Minter, \"Invalid sender\");\n        _;\n    }\n\n    modifier onlyTheCoin()\n    {\n        require(msg.sender == role_TheCoin, \"Invalid sender\");\n        _;\n    }\n\n    modifier onlyPolice()\n    {\n        require(msg.sender == role_Police, \"Invalid sender\");\n        _;\n    }\n\n    modifier timestampIncreases(address from, uint256 timestamp) \n    {\n        require(timestamp > lastTxTimestamp[from], \"Provided timestamp is lower than recorded timestamp\");\n        _;\n    }\n}",
  "sourcePath": "C:/src/Learning/monorepo3/libs/contract/contracts/TheCoin.sol",
  "compiler": {
    "name": "solc",
    "version": "0.5.12+commit.7709ece9.Emscripten.clang"
  },
  "schemaVersion": "3.0.20",
  "updatedAt": "2019-12-28T20:11:39.851Z",
  "devdoc": {
    "methods": {
      "allowance(address,address)": {
        "details": "Function to check the amount of tokens that an owner allowed to a spender.",
        "params": {
          "owner": "address The address which owns the funds.",
          "spender": "address The address which will spend the funds."
        },
        "return": "A uint256 specifying the amount of tokens still available for the spender."
      },
      "balanceOf(address)": {
        "details": "Gets the balance of the specified address.",
        "params": {
          "owner": "The address to query the balance of."
        },
        "return": "An uint256 representing the amount owned by the passed address."
      },
      "decimals()": {
        "return": "the number of decimals of the token."
      },
      "decreaseAllowance(address,uint256)": {
        "details": "Decrease the amount of tokens that an owner allowed to a spender. approve should be called when allowed_[_spender] == 0. To decrement allowed value is better to use this function to avoid 2 calls (and wait until the first transaction is mined) From MonolithDAO Token.sol Emits an Approval event.",
        "params": {
          "spender": "The address which will spend the funds.",
          "subtractedValue": "The amount of tokens to decrease the allowance by."
        }
      },
      "name()": {
        "return": "the name of the token."
      },
      "symbol()": {
        "return": "the symbol of the token."
      },
      "totalSupply()": {
        "details": "Total number of tokens in existence"
      },
      "transferFrom(address,address,uint256)": {
        "details": "Transfer tokens from one address to another. Note that while this function emits an Approval event, this is not required as per the specification, and other compliant implementations may not emit the event.",
        "params": {
          "from": "address The address which you want to send tokens from",
          "to": "address The address which you want to transfer to",
          "value": "uint256 the amount of tokens to be transferred"
        }
      }
    }
  },
  "userdoc": {
    "methods": {}
  }
}